:10400000401A00202D110200257C0000297C0000B0
:10401000A70A0A010042000004180FAC906AD00100
:104020000000000000000000000000000000000090
:104030000000000054E60300000000000000000043
:104040000000000000000000FFFFFFFFFFFFFFFF78
:10405000FFFFFFFF00600F0066000000000000008F
:10406000FFFFFFFFFFFFFFFF8000000000000000D8
:104070000000000000000000000000000000000040
:104080000000000000000000334A0020334A0020F6
:10409000401A00209039040028B20300E0100020EC
:0C40A000B410002000E00F000000000041
:10420000401A00202D110200257C0000297C0000AE
:1042100061C300002D7C0000357C00002B110200E2
:104220002B1102002B1102002B1102002B11020096
:10423000397C00002B1102002B1102002B1102000F
:10424000AC7C0000AC7C0000AC7C0000AC7C0000CE
:10425000AC7C00008D9A0000E1A80000BD4D00007C
:10426000CD4B0000AC7C0000599800000913010000
:10427000AC7C0000A5490000AC7C0000114A0000A5
:10428000814A0000AC7C0000AC7C00002B110200D5
:10429000AC7C0000C58F0000AC7C0000AC7C000052
:1042A000AC7C0000D1900000B1900000AC7C00001C
:1042B000AC7C0000AC7C0000AC7C0000C9E90100D3
:1042C0006DE9010069E9010021E20100C5E9010091
:1042D00071E9010089E9010075E9010071D001006F
:1042E00009EA0100AC7C0000AC7C0000157F0000F6
:1042F000AC7C000035CE0000AC7C00002B1102002D
:10430000AC7C0000AC7C0000AC7C0000AC7C00000D
:10431000AC7C0000AC7C0000AC7C0000AC7C0000FD
:10432000AC7C0000AC7C0000AC7C0000AC7C0000ED
:04433000AC7C000061
:10433400F8B500BFF8BC08BC9E467047F8B500BF8E
:10434400F8BC08BC9E46704710B5054C237833B9B9
:10435400044B13B1044800E000BF0123237010BDD7
:104364003826002000000000EC2F040008B5034BA1
:104374001BB10349034800E000BF08BD0000000072
:104384003C260020EC2F0400A3F5803A704700BFC0
:10439400174B002B08BF134B9D46FFF7F5FF002179
:1043A4008B460F461348144A121A36F004FF0E4B7C
:1043B400002B00D098470D4B002B00D098470020CD
:1043C400002104000D000D48002802D00C4800E034
:1043D40000BF36F095FE200029000DF0C3F936F039
:1043E4007BFE00BF00000800000000000000000089
:1043F400401A0020DC230020334A00200000000083
:104404000000000037B56A46494903460868496810
:1044140003F11C0403C26846191F51F8042F10F954
:10442400015B8C422A44D2B20A60F6D193F8202070
:10443400511E092920D804221A6293F82420511EFF
:1044440009292AD801225A6293F82820511E1329D7
:104454004CD801229A6293F82C20511E31295CD841
:104464000022DA621A6B063AD2B21A635A6B03322A
:10447400D2B25A6303B030BDA2F10B01092901D8AD
:104484000622D9E7A2F11501092901D80822D3E7A8
:104494001F3A092AD1D80A22CEE7A2F10B01092931
:1044A40001D80222CFE7A2F11501092901D803227C
:1044B400C9E7A2F11F01092901D80422C3E7A2F127
:1044C4002901092901D80522BDE7A2F133010929EF
:1044D40001D80622B7E7A2F13D01092901D8072234
:1044E400B1E7473A092AAFD80822ACE7A2F115018F
:1044F400132901D80222ADE7A2F12901132901D819
:104504000322A7E7A2F13D01132901D80422A1E760
:10451400513A122A9FD80D229CE7A2F13301302987
:1045240001D801229DE7772A9CD9783AD2B298E73C
:1045340028B20300094B1870094B1A7801321A701B
:10454400084A117881421CBF107001224FF4FA719D
:10455400054818BF1A7021F05FBC00BF9F410020BE
:10456400A0410020C543002054260020024630B557
:1045740000EB81014AF201054FF6FF708A4200D137
:1045840030BD082452F8043BDBB2584000F001036C
:10459400400813B180EA050398B2013CF6D1EDE777
:1045A400F8B50368054609330B6043680C46043BC1
:1045B4004B60836805338B60C368023BCB6003693F
:1045C40001330B614369073B4B61836909338B6199
:1045D400C369023BCB6190F82060042E5AD101F0EC
:1045E4001FFE0A23B0FBF3F202FB1300013080B27A
:1045F400206295F8243095F82870012B95F82C60EA
:1046040068D101F00DFE0A23B0FBF3F202FB1300A4
:10461400013080B26062012F40F0AA8001F000FEF8
:104624001423B0FBF3F202FB1300013080B2A0624A
:10463400002E40F0CA8001F0F3FD3223B0FBF3F208
:1046440002FB1300013080B2E062202201202B6BB8
:104654006549063323636B6B644F033B6363644BAD
:10466400644E1A67186710F0F5FC251F343455F8AA
:10467400041F3846C9B207F067FB314601202A6897
:1046840010F006FDAC42F2D10120BDE8F8405A49D1
:1046940010F0FEBC062E08D101F0C2FD0A23B0FBC7
:1046A400F3F202FB13000B30A1E7082E08D101F04E
:1046B400B7FD0A23B0FBF3F202FB1300153096E7B3
:1046C4000A2E96D101F0ACFDB0FBF6F303FB160005
:1046D4001F308CE7022B08D101F0A2FD0A23B0FBA6
:1046E400F3F202FB13000B3093E7032B08D101F024
:1046F40097FD0A23B0FBF3F202FB1300153088E7A1
:10470400042B08D101F08CFD0A23B0FBF3F202FB69
:1047140013001F307DE7052B08D101F081FD0A232A
:10472400B0FBF3F202FB1300293072E7062B08D129
:1047340001F076FD0A23B0FBF3F202FB13003330E1
:1047440067E7072B08D101F06BFD0A23B0FBF3F2F6
:1047540002FB13003D305CE7082B7FF45CAF01F0F3
:104764005FFD0A23B0FBF3F202FB1300473050E76E
:10477400022F08D101F054FD1423B0FBF3F202FB25
:104784001300153052E7032F08D101F049FD14231B
:10479400B0FBF3F202FB1300293047E7042F08D1E2
:1047A40001F03EFD1423B0FBF3F202FB13003D3095
:1047B4003CE70D2F7FF43CAF01F032FD1323B0FB37
:1047C400F3F202FB1300513030E7012E08D101F05F
:1047D40027FD3123B0FBF3F202FB1300333032E741
:1047E400EB6A7833E36230E731B20300000006403D
:1047F40000D0034044B2030062B70300F0B50128BF
:104804008FB027D0022827D0032827D1154C0A239C
:10481400E162C4E908300C212046FFF7A7FE124FDD
:10482400C3B2C0F30F2023636063251F04F1340671
:1048340055F8042F3946012010F02AFCAE42F7D176
:1048440001200A4910F006FC69462046FFF7A8FE3D
:104854000FB0F0BD064CDAE7064CD8E700231B6224
:10486400FFDE00BF782800204AB2030062B70300CD
:1048740008280020402800202DE9F74F4FF0000BB6
:10488400364BDFF810A183F800B0DFF80C919AF8EA
:104894000030DFF80881324E324F012099F80020B1
:1048A4003149009398F8003010F0D4FB01203368AC
:1048B4003A682E4910F0CEFB99F80040012C33D110
:1048C4003A6833682A4D9A4215D198F80030DA1EB6
:1048D400042A08D82046274910F0BCFB0423594673
:1048E400AB62204612E0092B05D92046224910F07C
:1048F400B1FB0D23F3E70122204C10462049237815
:1049040010F0A8FB0120C5E909002178FFF776FF24
:10491400002389F8003088F800308AF800303B60C2
:10492400336003B0BDE8F08F022C0CD1154D224644
:104934002B780120124910F08DFB134B01225C628D
:104944009A622978CDE7032CE2D1104D22462B78C8
:1049540001200B4910F07EFB0D4BEFE7542600209D
:10496400A03500209C3500204EB203006EB2030037
:104974000828002080B2030093B20300774200208D
:10498400A6B203007842002040280020794200208B
:1049940078280020A14100209F410020A041002050
:1049A40070B50125114E124BB26C124C9A64236BF4
:1049B400114ADB071563656204D4204606F0CEFF76
:1049C4000E4B1D6301200E49E0600B88726A7F2B39
:1049D40006D8181808800B49D2B221F8132070BDEC
:1049E4000949BDE8704010F035BB00BF00C0054068
:1049F40000E0054000C0044000D0044000E0044052
:104A0400FA3B0020FA3A0020C0B2030038B5012571
:104A1400134B144C9A6C03F500539A64236B124A9B
:104A2400DB071563656204D4204606F097FF0F4B3D
:104A34001D6301250A48E56007F080F90C4A1388D4
:104A44007F2B06D8591911800A4A80B222F8130024
:104A540038BD2846BDE83840074910F0FBBA00BF0E
:104A640000000640000005400010054000200540FD
:104A7400FC3B00207A3B0020C0B20300054B9A6C3B
:104A840003F500539A642022A3F510331A67012218
:104A94001A677047000006402DE9F041404D8EB082
:104AA4002B889BB2002B6AD001203E4910F0D2FA29
:104AB40000243D4E3D4F3388A3424CDC6E46002318
:104AC400314635F81320013392B20E2B41F8042BF2
:104AD400F7D13046FFF796FC0120354910F0BAFAB9
:104AE4000024324F56F8043B3946DBB225F8143023
:104AF40035F81420012092B2013410F0C9FA0E2CBA
:104B0400F0D1002501202B4910F0C2FA2E462A4F7D
:104B14002A4CDFF8B08034F8153017F8012B9BB21B
:104B2400934237D10136072E26D1238A9BB2012B1B
:104B34001AD1638A9BB2042B1ED0638A9BB20D2BBD
:104B44001AD0638A9BB2012B16D0638A9BB2022BC4
:104B540012D0638A10E035F814203946012092B24D
:104B640010F096FA0134A6E7238A9BB2022BE8D010
:104B7400238A9BB2032BE4D00135082DCBD18022AC
:104B840000210E4836F017FB00220D4B1A800EB0A0
:104B9400BDE8F0814146012010F05CFAECE700BF6B
:104BA400FA3A0020D1B20300FA3B002044B20300D9
:104BB400DFB2030062B70300613F00207A3B0020AC
:104BC400FC3B0020F6B2030008B5064B596903F517
:104BD400005251610222DA60FFF75EFF0022024BAD
:104BE4001A8008BD00000540FC3B002002460B462D
:104BF4000120014910F04CBA14B3030038B55C4BE2
:104C04001D8AADB2A5F13302022A0CD8DA89323DED
:104C140092B20A2AEDB200F090800D2A0AD0DA8905
:104C2400544992B202E01A8A534992B2012010F018
:104C34002FFA76E01A8C92B2042A03D01A8C4F49C8
:104C440092B2F3E75A8B92B2032A05D0042A40D0D9
:104C54005A8B4B4992B2E9E70A211B8DDBB2B3FBB5
:104C6400F1F201FB1232D2B29B1ADBB2082A23D82A
:104C7400DFE802F0282205222622222224004D24E5
:104C8400B3FBF1F32344642BA8BF64231C462A46D8
:104C940001203C4910F0FCF93B4A012D136803F153
:104CA40001031360E3B20FD1384A1370384A13700A
:104CB4002846FFF73FFC34E03649B7E73424DFE702
:104CC4001A24DDE70024DBE7022D0CBF324A334A05
:104CD400EBE70A211B8DDBB2B3FBF1F201FB1232CD
:104CE400D2B29B1ADBB2082A1FD8DFE802F0241ED6
:104CF400051E221E1E1E20004D24B3FBF1F31C448E
:104D0400642CA8BF64242A4623460120244910F0B9
:104D1400BFF9244A21461368284601331360FFF77C
:104D240065FF0022204B1A8038BD20497EE73424D9
:104D3400E3E71A24E1E70024DFE7188C80B20128B6
:104D440003D01A8C1A4992B270E75C8C2A46E4B2FA
:104D54002346184910F09CF9012D04D10B4B1C700B
:104D64000B4B1C70A4E7022D0CBF0B4B0B4BF6E74F
:104D7400FA3A0020C5B4030031B3030051B3030071
:104D84003CB40300ACB303009C3500207742002000
:104D9400A141002081B30300784200207942002021
:104DA4000DB40300A0350020FA3B0020DFB303005C
:104DB40077B40300A3B4030008B5064B596903F59F
:104DC400005251610222DA60FFF718FF0022024B01
:104DD4001A8008BD00C00440FA3B002010B5012031
:104DE40088B0154910F036F90D220021684636F0D6
:104DF400E2F90223114C6A46204600218DF8063060
:104E040006F000FE0E22002104A836F0D4F9032394
:104E1400204604A9ADF8123006F0A7FD236B4FF627
:104E2400FF738022E361A36943F01003A361044B81
:104E34001A6008B010BD00BFEDB4030000C0044008
:104E440000E100E010B5012088B0154910F002F926
:104E54000D220021684636F0AEF90223114C6A4651
:104E6400204600218DF8063006F0CCFD0E220021EC
:104E740004A836F0A0F90323204604A9ADF81230A3
:104E840006F073FD236B4FF6FF734FF48072E361FA
:104E9400A36943F01003A361034B1A6008B010BD6B
:104EA400FFB403000000054000E100E030B51B4DF5
:104EB40089B001AC0FCD0FC495E80700002384E846
:104EC400070001221946104606F000FB01230422C4
:104ED4001946184606F0FAFA0122114B114CC3F890
:104EE400DC254FF00112C3F8E42514222046C3F850
:104EF400CC2501A906F0A6FE4FF40052E36C43F062
:104F04000403E364E36C43F00103E364064BC3F876
:104F140080211A60FFF762FF09B030BD00B60300BC
:104F240000C0034000C0054000E100E030B5294D59
:104F340089B001AC0FCD0FC495E807004FF41653A8
:104F440084E807000321039308460023022206F0A5
:104F5400BDFA042201231146032006F0B7FA002308
:104F640004221946022006F0B1FA00230422052186
:104F7400022006F0ABFA0121174B184C03F500523E
:104F84001167202111674FF00312C3F8FC2502F5C5
:104F94008032C3F8042614222046C3F8EC2501A964
:104FA40006F050FE4FF40042E36C43F00403E36464
:104FB4000B4BC3F880211A60E26C42F00102E264F8
:104FC4004FF48032C3F880211A60FFF73BFF09B029
:104FD40030BD00BF00B6030000C00340000006401F
:104FE40000E100E0F0B50024544B93B01C700DF0C8
:104FF400C7FA4CF25D23ADF80C304CF2C443ADF863
:1050040010304FF48063ADF8123018234C4D8DF8F6
:1050140018302B7830228DF819300A238DF81A3085
:1050240003238DF81E3004238DF81F3008238DF8D8
:10503400223031238DF824302E238DF825308DF83D
:10504400283032238DF82A3005238DF82B30FF23A6
:105054008DF82E3006238DF82F30212301262021B0
:1050640042278DF83130374B8DF823201B888DF87B
:1050740026208DF827208DF829208DF81D108DF815
:1050840021708DF82D104FF06E0CADF80E608DF878
:105094001B408DF81C408DF820408DF82C408DF875
:1050A40030408DF832308DF8367043278DF83AC091
:1050B4008DF838704FF0660C6F278DF83BC08DF873
:1050C40039708DF83D704FF0690C3A271B0A8DF842
:1050D400333007238DF83CC08DF83E704FF0540CEC
:1050E40041278DF834300C238DF83F708DF840C083
:1050F4008DF842704FF04C0C53278DF837308DF8F3
:1051040044308DF8461006AB8DF8470003A900948F
:105114004FF6FC708DF841C08DF835408DF8437022
:105124008DF845400CF0B8FD0749024630460FF0B3
:1051340091FF2B7833442B7013B0F0BDCC270020A3
:1051440056230020D83A002012B5030010B50446B7
:105154000D4901200FF07EFF912C01D10DF00EFAC4
:105164000DF00CFA02280DD1012007490FF072FF4F
:105174004FF4FA71054820F04FFE4FF4FA610448E9
:1051840020F04AFE002010BD48B50300CC270020C3
:10519400C4270020F7B582898368082A0446DF788B
:1051A4002CD9092A1D7A2AD05E7A23682A465B887C
:1051B40001200093134933460FF04CFF23685B88AA
:1051C400B3F57C4F0CD1042E15D101200E492A468B
:1051D4000FF040FF0D4B64210D481D7020F01CFEA4
:1051E40023685B88012B06D1E37C23B9032F02D10A
:1051F400084820F005FE002003B0F0BD002500267D
:10520400D3E700BF69B5030098B50300234A002023
:10521400FC270020C427002000222DE9F0412C4B5C
:1052240086B001202B491A700FF014FF01AA14460E
:10523400294B03F11006154618685968083303C54D
:10524400B3422A46F7D11B78244E2B70244B2746B1
:105254001B7821468DF8133033881A0A8DF80720FD
:105264008DF808301022002311F8010B013A034491
:1052740092B29BB2002AF7D101201A498DF814305A
:1052840011250FF005FFDFF86C80013D4146012038
:1052940014F8012BADB20FF0FBFE002DF5D1012067
:1052A40011490FF0D7FE01221124104B104D1A7032
:1052B400013C284617F8011BA4B206F045FD002C5A
:1052C400F6D133880133338006B0BDE8F08100BFE6
:1052D400FC270020B0B503001CB603003E3F0020AD
:1052E400234A0020D7B5030062B70300B04300206F
:1052F40000C005404AB2030030B5214C87B02046B7
:1053040004237F22252103F0E3F923880D220133AE
:105314009BB2238003932323019303AB4FF60151E4
:105324000093012041F202030EF04AFC2288154941
:10533400012004AC0FF08EFEFFF7B8FDFFF7F6FD79
:1053440020460DF039FB104907230A46E05C013B77
:1053540002F8010BFAD208230C4D0D4C0D4811F83C
:10536400012B013B45F8042B44F8042B40F8042B93
:10537400F5D1012008490FF06DFE07B030BD00BF24
:10538400D83A0020E8B50300613F00200828002037
:10539400402800207828002030B2030008B500F02F
:1053A4003FFF43F69923B0FBF3F202FB130000F531
:1053B4006A50183080B208BD0022F0B5574B584CE3
:1053C40093B01A700DF0DCF823783122FA2B84BFE5
:1053D400012323704CF25D23ADF80C300123ADF8AA
:1053E4000E304CF2C443ADF810304FF44063ADF8C6
:1053F400123018238DF824202E228DF818302378AB
:105404008DF825208DF819308DF828200A233222B2
:105414008DF81A308DF82A20032305228DF81E30CA
:105424008DF82B200423FF228DF81F308DF82E20B9
:10543400082306220021202542268DF822308DF8EB
:105444002F20302321228DF81B108DF81C108DF88D
:1054540020108DF82C108DF830108DF823308DF835
:1054640026308DF827308DF829308DF821606E278D
:105474008DF81D508DF82D508DF831208DF8366043
:1054840043268DF83A708DF8386066276F268DF8BC
:105494003B708DF839608DF83D6069273A26214AC2
:1054A4008DF83C7012888DF83E608DF83220120A17
:1054B4008DF833200722412654278DF834200C22FE
:1054C4008DF83F608DF840708DF842604C2753266C
:1054D4008DF837208DF8442006AA01918DF84700F5
:1054E4000092084603AA8DF835108DF845108DF802
:1054F40041708DF843608DF846500CF0E6FB23783C
:1055040001332370FFF74AFF00F5922101F578710A
:10551400024820F081FC13B0F0BD00BFC427002076
:1055240056230020D83A002030B50025164B85B00C
:105534001D70C4238DF8093021238DF80A30134BD4
:1055440001241B780A228DF80B300523019302AB4A
:105554004FF47C41009308200D4B8DF808508DF8D2
:105564000C400EF01BFD0EF081FD04710EF07EFD6B
:105574002946447128460EF075FD06490246204628
:105584000FF068FD05B030BDDC270020603F00202F
:1055940077C203002DB6030030B50025174B85B044
:1055A4001D70C4238DF8093021238DF80A30144B63
:1055B4000A221B784FF47C418DF80B3002238DF8BE
:1055C4000C300523019302AB009308200D4B0124FA
:1055D4008DF808500EF0E2FC0EF048FD04710EF058
:1055E40045FD2946447128460EF03CFD0649024615
:1055F40020460FF02FFD05B030BD00BFE42700208A
:10560400603F002077C2030048B6030030B5002590
:10561400174B85B01D70C4238DF8093021238DF8F4
:105624000A30144B0A221B784FF47C418DF80B305E
:1056340003238DF80C300523019302AB009308205B
:105644000D4B01248DF808500EF0A8FC0EF00EFD51
:1056540004710EF00BFD2946447128460EF002FD3C
:105664000649024620460FF0F5FC05B030BD00BFE8
:10567400EC270020603F002077C2030062B60300DD
:1056840030B50025174B85B01D70C4238DF8093043
:1056940021238DF80A30144B0A221B784FF47C41E5
:1056A4008DF80B3004238DF80C300523019302ABE5
:1056B400009308200D4B01248DF808500EF06EFC69
:1056C4000EF0D4FC04710EF0D1FC29464471284636
:1056D4000EF0C8FC0649024620460FF0BBFC05B09C
:1056E40030BD00BFF4270020603F002077C20300D4
:1056F4007DB603000022014B1A70704794290020E4
:105704007047000007B50022064B1A7008F04EFCE3
:10571400054B0090054A012005490FF09BFC03B09E
:105724005DF804FBD427002086C3030098B6030069
:105734009DB60300AB28084A08D11368032B05DC87
:1057440001330A210548136020F066BB0023044995
:1057540013600B70704700BF9C270020D4270020E3
:10576400693F002070477047C37B10B523B9C47CE0
:1057740014B901F03DF800B98124204610BD08B5E4
:10578400C37B83B9C37C012B0FD0402B10D053B9FA
:10579400017D82898B1C9A4216D380680EF099FF92
:1057A40007F094FC90B9812008BD07F0A9FCF9E743
:1057B400037D81899A1C914206D38268591C515CED
:1057C400D05C12F0D1F9EDE78020EDE70020EBE7A3
:1057D40008B5C37B43B9C37C012B07D0022B08D087
:1057E40013B908F0ABFD38B9812008BD08F0B6FD47
:1057F400F9E708F0C3FDF6E70020F6E710B5437DAE
:105804000446012B10D10368028A598858790DF097
:1058140075FC48B123685B88032B03D0192B01D096
:10582400C32000E0812010BD637D002BF8D12368E4
:10583400228A598858790DF058FC0028F0D0236842
:105844005B88062B11D007D853B1032BE8D120462F
:10585400BDE81040FFF793BF4FF601529342DEE7D5
:105864002046BDE81040FFF77FBF2046BDE810404A
:10587400FFF7AEBF70470120704701207047012039
:105884007047704700207047002070470020704721
:1058940000207047002070470020704700207047A8
:1058A4000120704701207047B520704700207047E1
:1058B4000020704700207047002070470020704788
:1058C4007047002070477047002070477047812060
:1058D40070477047002070478420704770477047B6
:1058E400704770477047704700207047002070472A
:1058F400034B1B681878012808BF0220704700BFBB
:105904007031002070470020704700000123034AD3
:10591400C0E9032300220270184670470100FEFF0D
:105924007047002070470020704700207047002017
:105934007047002070470020704700207047704770
:10594400B520704700207047002070477047002042
:105954007047704770477047B5207047704770476D
:1059640070470020704770477047704770470000C9
:105974000023FF21084A137082F8783082F86530DA
:1059840082F8773082F8793082F87A1082F87B30A6
:10599400024A1360704700BF80420020F4330020A5
:1059A400044B184490F8663090F86500181AC0B299
:1059B400704700BF80420020F8B5214C94F87B204A
:1059C4001044C2B21046FFF7EBFF4FF0000C07463D
:1059D40060461C4B224492F865501E7825445FFAB9
:1059E4008CF2974224D96B7811B10AB92D2B17D0B8
:1059F400782B21D0582B05D108B137220AE0013A7F
:105A0400012A16D9602B19D8402BF6D83A2B34BF6B
:105A1400302200229B1ADBB29E4205D900FB0630DD
:105A24000CF1010C0135DAE70523002084F8793004
:105A3400F8BD10260020F3E70028E0D05722E9E75C
:105A4400804200208C230020F8B50C468D680A683B
:105A540006462849202003F03DF863687BB92020DE
:105A6400254903F037F820200BF030FA2020234991
:105A740003F044F8BDE8F84020200BF027BA002ECC
:105A8400F1D06C1E1E4E1F4D1F4F14F8013F23B959
:105A94001A49202003F032F8E5E7752B18D0762B4D
:105AA40018D0772B18D0732B18D0722B18D0712BD9
:105AB40018D0622B18D06E2B18D02A2B18D013496B
:105AC400134A212B08BF1146202003F003F8DCE71A
:105AD4002946F9E73146F7E73946F5E70D49F3E793
:105AE4000D49F1E70D49EFE70D49EDE70D49EBE706
:105AF4000D49E9E7C4D40300C7B6030030B203007C
:105B0400DCB60300D1B60300E8B60300CEB603004A
:105B140009B70300F4B60300BBB60300FEB60300E6
:105B2400B1B60300C6B60300CBB60300FFF720BF2F
:105B3400034B93F8770093F87B30C01AC0B27047D8
:105B4400804200200021FFF737BF000010B50A4B48
:105B540093F87B20024453FA82F292F865201344AE
:105B64005C78A4F12D0359425941FFF725FF2D2CF0
:105B740008BF404210BD00BF8042002038B5C44376
:105B8400094DE40F95F87B200244D2B221B11046AE
:105B9400FFF706FF001B087045FA82F292F86500D1
:105BA40004440248204438BD804200208142002041
:105BB4002DE9F34115460E460DF107011C46FFF78A
:105BC400DDFF9DF807308046AB4288BF8DF8075053
:105BD4009DF807700CB1EC1BE4B22246002130465C
:105BE40035F0E9FA3A464146301935F0CAFA3846F2
:105BF40002B0BDE8F08138B50C4601230822FFF756
:105C0400D7FF04F10803621E043413F8011D12F8CF
:105C1400015FA3421D701170F7D138BD38B5054638
:105C240001460120FFF710FFD5E901436CB91C467A
:105C3400084D236863B12946202002F04BFF21461A
:105C44000020FFF701FF0C34F3E71B786E2BEFD035
:105C540038BD00BF4906040008B52020034902F0FE
:105C640039FFBDE8084020200BF030B924B7030009
:105C740010B5FFF7F1FF054C236803B910BD2146A9
:105C84000020FFF7E1FE0C34F6E700BF9CCB0300D5
:105C94001E4B2DE9F0471E4E53F820201D492020AD
:105CA40002F018FF33681BB9BDE8F047FFF7E0BF07
:105CB400FFF7D2FF0024184DDFF8648095F87B309D
:105CC400E7B2013B9F4204DB3068BDE8F047FFF7D1
:105CD400A5BF4FF0000A45FA84F393F86590A944F0
:105CE4003846FFF75DFE5FFA8AF3834205D320202E
:105CF4000A4902F0EFFE0134E0E74B44414620201C
:105D04005A7802F0E7FE0AF1010AE9E7081F0020C9
:105D1400F433002064B70300804200204A060400E4
:105D240014D403002DE9F84F824C94F87730002BFB
:105D340000F09680804B04F101081B7813F0010FEA
:105D44001BD000257D4EE8B2FFF72AFE44FA85F306
:105D540093F865100246414420200BF0B2F8314616
:105D6400202002F0B7FE013594F87720EBB29A4276
:105D7400E9D82020724902F0ADFE002694F877A0FD
:105D8400704A44FA86F3304693F86590FFF708FEAC
:105D94004FF0000C6546C1441768002F50D0CE4622
:105DA400013F18E023B9002D47D115460C32F3E723
:105DB4001EF8011BA1F1410BBBF1190F98BF203153
:105DC400A3F1410B98BFC9B2BBF1190F9CBF20339B
:105DD400DBB28B42EAD1AEEB0901814217F8013FF5
:105DE400E0D1002BDFD11546574B01361D6094F8E6
:105DF4007B30F6B2013384F87B30D5E90132A3B3AA
:105E040012786E2A30D03F2A23D04FF000094FF089
:105E1400050BC846072394F87710AA68B14212F814
:105E2400087029D8AFB1424453782A2B11D0212FBE
:105E34001CBF032384F879300BE04FF0010CB5E765
:105E4400BCF1000F01D1002DCED10223002584F82E
:105E5400793094F87900002868D168680EF00CF95C
:105E6400BDE8F84FFFF784BD1A46B24589D803232D
:105E7400154684F87930ECE7622F30D006D8002F2D
:105E840052D0212F3AD084F8793037E0732F15D8C7
:105E9400702FF8D9732F1FD0722F47F6FF7A18BFCF
:105EA4004FF0FF3A01214846FFF786FD50454FF079
:105EB400070323D9042284F879201FE0A7F175028F
:105EC400022AE0D8752F04D0762FE3D14FF6FF7A5B
:105ED400E8E74FF0FF0AE5E74FF07F0AE2E794F8BE
:105EE4007B204A4454FA82F292F865202244527884
:105EF400222A03D07B2A01D084F879B0AA684244CC
:105F040052782A2A94F879201CBF08F101085FFA14
:105F140088F8002A9DD1212F1FBF013609F10109FC
:105F2400F6B25FFA89F976E70322C4E7FFF7B0FE19
:105F340096E700BF80420020544300204A06040034
:105F440061B703009CCB0300F43300202DE9F34137
:105F540006460D464FF000085C4C5D4F66B9284676
:105F64000DF107010AF0A8FF78B1262800F0AA80F5
:105F7400012384F879304BE0002D00F0A38016F85B
:105F8400013B013D8DF80730EDB23A789DF80730BA
:105F94000D2A3B7001D10A2BE0D00D2B0CD0A3F1BC
:105FA4000A025142514122788846042AD6D8DFE8B1
:105FB40002F0051D263C31000121F4E721B1FFF771
:105FC400B1FE4FF00108C9E7202B64D0222B07D182
:105FD4000223237094F87820642A5ED10623C8E74C
:105FE4007B2B01D10323F4E70123F2E709B9202B2A
:105FF400F0D194F87730112B40D10323B9E7222B49
:10600400F7D00029E6D005234FF0010884F8793051
:1060140004232370B8F1000FA0D094F8790008B1DC
:10602400FFF736FEFFF7A4FC98E77D2B94F87A007F
:1060340003D1FF28DDD005239BE7602B13D8402B29
:1060440013D83A2B34BF302200229A1AD2B20F2A24
:1060540010D8FF280BD0FF2302EB00128DF8072085
:1060640084F87A30B6E75722EFE73722EDE784F871
:106074007A2073E7202B3FF471AFDCE70133DBB206
:1060840094F8782084F87730234483F8652000233B
:106094002370002993D1884660E72378012B09D126
:1060A4009DF80730A3F1410119299CBF2033DBB2CD
:1060B4008DF807309DF80710A3180132597084F841
:1060C40078204BE7404602B0BDE8F08180420020D2
:1060D400C443002049BA89B24840C0F30313434083
:1060E400180380B258405B0103F4FF5358407047D3
:1060F4001DF0ECBE7047704770477047704770479B
:1061040070477047704770477047704770477047D3
:1061140000207047704770470020704770477047F1
:1061240000207047704770477047002070477047E1
:1061340001207047012070477047704770477047CF
:1061440070477047704700002DE9F0470024204E47
:10615400DFF89C90DFF89CA05FFA84F840461FF0BB
:10616400E9F8FF2805460CD122461A49307802F096
:10617400C5FC307801340AF0A9FE152CECD1BDE839
:10618400F087154B47B233EA270328BF534659F823
:1061940024201249307802F0B1FC002FE9DA14B15E
:1061A400B8F1030F08D10E4B15F0010F0D493078EB
:1061B40008BF194602F0A2FC0A2CDAD10A4B15F0EA
:1061C400010F0A49307808BF194602F097FCD0E75E
:1061D400D223002021B803002807040049B8030093
:1061E400FAB70300E4B7030016B803000CB80300C1
:1061F40048B9030030B2030082B2074B4AB1000C25
:106204001A8008BF4FF6CE22044B14BF18801A80A0
:1062140070474BF6EF62F2E74A2300204C2300203C
:106224000B4BB3F900201888002AB8BF80F0620035
:1062340042001A80074AB2F9001013880029BCBF33
:1062440083F4805383F00B03590011805840704746
:106254004A2300204C2300200022034B1870034BD8
:106264001970034B1A707047A3410020A24100200B
:10627400BC4300202DE9F74FDFF89890064699F8C3
:1062840000300F46002B41D04FF6FB7398423DD8A7
:106294000025DFF88480DFF884A098F800409AF89D
:1062A4000000694650FA85F0C0B229F05BFC082270
:1062B400394668465FFA85FB34F046FFF8B95C4618
:1062C40098F80030A3420AD199F80020631CDBB28D
:1062D4009A4288F8003004BF002388F800309AF806
:1062E400003039461C44E4B2204629F079FD68B9EF
:1062F4003146204603B0BDE8F04F29F001BC99F8BF
:1063040000200135EBB29A42C9D8D9E703B0BDE801
:10631400F08F00BFA2410020BC430020A341002015
:10632400024B187800F07F00704700BF2F4A00200E
:10633400034B18780130C0B2187000F07F0070472A
:106344002F4A00201FB5030A8DF80E300323009353
:1063540003AB8DF80D0000F0CFF905B05DF804FB38
:106364001FB58DF80F100421030A8DF80E3000912B
:1063740003AB8DF80D0000F0BFF905B05DF804FB28
:10638400F0B589B01768BDF838509DF83C60CDF879
:10639400097057688DF81250012E4FEA1525DDF863
:1063A40040C0BDF84440CDF80D708DF811308DF823
:1063B40013508DF8146016D0032E1BD1DCF8003076
:1063C400CDF81530DCF80430CDF819309DF848309C
:1063D4008DF81D3016230093BDF84C2002AB00F05D
:1063E4008BF909B0F0BD8DF81540240A0F238DF800
:1063F4001640F0E70120F4E71FB5044608461146AD
:106404001A4602238DF80D100093214603AB00F0C9
:1064140073F904B010BD10B514461A460B6886B063
:10642400CDF80D304B683421CDF811300A23009398
:1064340003AB8DF8154000F05FF906B010BD000005
:1064440030B5002485B0ADF80A20021D92B2012AAD
:106454001D46ADF80840ADF80610ADF8044003D968
:106464004FF6FF72904207D1064A2B46127801A9D3
:1064740027F0D2FB05B030BD014601AA204627F023
:1064840091FCF7E7DA2300202DE9F04F2DED028B84
:1064940087B00C461D46174600904AB3104620F0BC
:1064A400D7F8C0F3470A2DB3284620F0D1F8C0F33B
:1064B4004708FFF73DFF009B8DF810008DF8113061
:1064C4008DF813401B0A00220621240A04A88DF823
:1064D40012308DF814408DF815A020F0B7F9ADF8FE
:1064E4000E0048B9182007B0BDEC028BBDE8F08F50
:1064F4009246D8E7A846DCE74FEA4A01C9B201F15F
:10650400060B07315FFA81F901EB48015FFA8BF35F
:10651400C9B20DF10E0008EE103A20F08FFB0446CC
:106524000028DFD1834606265FFA8BF18A45BDF841
:106534000E3011D8424618EE101A184620F0F2FB1D
:10654400E6B2B045BDF80E3027D80621BDF8482084
:106554000098FFF775FFC6E7490001F0FE013846D1
:10656400019320F0CBFB019B02463146184620F0F4
:10657400D9FBBDF80E30711FC9B23846019320F023
:10658400BDFB019B711C0246C9B21846023620F0BD
:10659400C9FB0BF1010BF6B2C6E77600F6B2314641
:1065A4002846019320F0AAFB019B0246494618465F
:1065B40020F0B8FB711CC9B22846BDF80E7020F05B
:1065C4009DFB09F101010246C9B2384609F10209ED
:1065D40020F0A8FB01345FFA89F9B1E7F0B589B07E
:1065E4000E4602A905460CF09BF800287ED0FFF762
:1065F4009FFE8DF810001FF05DF88DF811001FF05C
:1066040059F83C4A000A13688DF81200CDF813308B
:1066140053680F21CDF81730BDF8083000228DF8EB
:106624001C301B0A8DF81D309DF80D3004A88DF820
:106634001B508DF81E3020F009F9ADF80600002833
:1066440056D000279DF80D30FAB2934216D8012394
:106654000DF10E011A460DF1060020F033F9002762
:106664009DF80E30FAB2934224D8324620210020FD
:10667400BDF80630FFF7E4FE09B0F0BD002128465E
:106684000CF07AF8012304461A468DF805000DF142
:1066940005010DF1060020F015F90123240A1A461C
:1066A4000DF105010DF106008DF80540013720F0CC
:1066B40009F9C7E7012128460CF05EF801230446D6
:1066C4001A468DF805000DF105010DF1060020F0C4
:1066D400F9F80123240A1A460DF105010DF106000B
:1066E4008DF80540013720F0EDF8B9E7A320C3E7A2
:1066F4001820C1E73A430020F7B50E469DF8201054
:106704001C46174601910546FFF712FE0022207031
:106714000199204620F09AF8034638B13A463146AA
:10672400284603B0BDE8F040FFF78ABE182003B046
:10673400F0BD08B5FEF7E0FDBDE808400FF056BD1A
:1067440008B5FFF7C3F80FF07DFDBDE8084006F07B
:1067540049BC08B5FFF7BDF8BDE8084007F038B9F3
:106764007047FEF717BDFFF7E4B80020704738B54F
:1067740004460D46FFF7F7F829462046BDE83840A1
:106784000BF022B8FFF7D7B8FFF7E1B84022032196
:10679400012010F021BA01220321104610F01CBA86
:1067A40000220321012010F017BA02220321012044
:1067B40010F012BA01220021092010F00DBA0023B2
:1067C40007B5CDE90033012369464FF0FF308DF85A
:1067D400023012F005FC003818BF012003B05DF848
:1067E40004FB01207047012070470120704700001E
:1067F40010B5084C23681B6858790CF03AFE2368DE
:106804001B685879FFF76BF800200FF0AFFE0120EA
:1068140010BD00BF6C3100202DE9F74F06460D4630
:1068240014461F464FF0010BDFF8789003F10C0A71
:1068340015B903B0BDE8F08F102DA84628BF4FF05E
:1068440010083A46164B5FFA88F152F8040B524589
:1068540043F8040BF9D101919AF8002011481A70F9
:10686400002389F80F4089F800B089F80E3029F028
:1068740053FB324601340B480199E4B212F801CBC0
:1068840010F8013B83EA0C0302F8013C931BDBB2D2
:106894009942F3D8A5EB08051646ADB2C8E700BF88
:1068A40069430020684300202DE9F74F01930D9BB5
:1068B4008046009303461646BDF83090324A0F4690
:1068C40000F10C0153F8040B8B4242F8040BF9D18C
:1068D4001B784FF0020A137049232C4C2370204676
:1068E4004FEA1923A37384F80F9029F015FB52463D
:1068F400237883EA162323706378734063704FF020
:10690400000B1BE0C2F11005A6EB0B039BB2ADB26A
:106914009D4228BF1D4600231FFA83FCD018AC45B6
:10692400C0B21BD32A44D2B2AB44102A2F441FFA5C
:106934008BFB03D1204629F0EFFA0022B345E1D3C3
:1069440012B1204629F0E8FABAF1010F4FF0000223
:106954000ED04FF0010A4E46019FD0E717F803C04E
:1069640014F800E001338CEA0E0C04F800C0D3E7FD
:106974002368009900980B604346042103B0BDE8E6
:10698400F04FFFF749BF00BF694300206843002070
:10699400F7B5099FBDF820500646CDE900571C46BF
:1069A400FFF782FF2DB13346012229462046FFF727
:1069B40033FF002003B0F0BD2DE9F7431D46044624
:1069C4000E461746BDF82890DFF834800346494642
:1069D40028460122FFF720FF2B463A46314620463F
:1069E400CDE90098FFF760FF042241460B9834F08C
:1069F400ABFB002814BF7E20002003B0BDE8F08369
:106A04007A42002073B51C46044D8B181E59CDE9FB
:106A140000452E60FFF7D0FF02B070BD1344002084
:106A2400002070470020704700207047704770476F
:106A34002DE9F34100240C4E0C4DDFF838800C4F47
:106A440056F8043B0BB9D8F8003035F8022B394618
:106A540000920120224601340EF0FCFA292CEFD1D9
:106A640002B0BDE8F08100BF602200208E3D00200E
:106A74001CD003001423002008B5FFF7D9FFBDE89C
:106A8400084000F0F9B8000007B50020FFF75AF8F5
:106A9400C2B2282A0DD8084B53F822300BB9074B41
:106AA4001B680749012031F81210009105490EF0C6
:106AB400D1FA03B05DF804FB602200201423002007
:106AC4008E3D00201CD00300FFF7B2BF70470000CA
:106AD40038B50020FFF736F804460120FFF732F8F6
:106AE4000546054901200EF0B5FAA9B2E0B2BDE8A9
:106AF400384000F0D9B800BF27D003002DE9F34196
:106B040000240C4E0C4DDFF838800C4F56F8043B33
:106B14000BB9D8F8003035F8022B39460092012021
:106B2400224601340EF096FA292CEFD102B0BDE8CA
:106B3400F08100BF60220020E03D00201CD0030053
:106B440014230020F7B502AB0446174603E90600F8
:106B54001EF042FA064620461EF04EFA9DF80050FA
:106B64008EB1202C0FD83B78012B33D84FF6FF7011
:106B74003A4903EB4313234431F81320824202D0F1
:106B8400013221F813204FF6FF72354B354E33F89E
:106B9400140036F8141090421CBF421C23F8142031
:106BA40004F0FD02092A2ED19A8AB68A2A44B242F6
:106BB400B4BF9A829E8233F814308B422ED20025C1
:106BC400294B13F8012B94422ED00135112DF8D105
:106BD40003B0F0BD022BD6D14FF6FF724FF6FF7013
:106BE4001E4B33F81410914218BF013104F12102F5
:106BF40018BF23F8141033F8121081421CBF01315E
:106C040023F81210BFE71D2CD5D15A8F56198E4286
:106C140003DA013A2A445A87CDE759878842CED20B
:106C24002046FEF75DFECAE71AF029FF0F4B044623
:106C34001B78834203D8DD210D4800F08FFC4FF60A
:106C4400FF710C4A04EB04142C4432F814308B42C8
:106C5400BED0013322F81430BAE700BF323E002020
:106C64008E3D0020E03D002093D30300AA230020A2
:106C74000FD30300B63E002052220021014834F015
:106C84009ABA00BF8E3D00205222FF21014834F001
:106C940092BA00BFE03D002008B5FFF7EDFFBDE864
:106CA4000840FFF7F1BF0000014B23F810107047B4
:106CB400E03D0020032310B50F4C1022C4E9043337
:106CC4000E4B0F49E3610023A16121660D49E01DCC
:106CD400C4E919120C49A3626362E3622367E366A1
:106CE4006367226234F079FA2046084934F075FA71
:106CF4002023A37110BD00BF002400208E4100207A
:106D0400A4D303007E410020ADD30300B1D303001C
:106D14002DE9F84FDFF87C80824698F800308946E8
:106D240016460BB9FFF7C6FF182707FB0A873D6F06
:106D3400D7F86CB05D452BD9BC6E796E641BB44238
:106D440028BF344648462944224634F00DFABB6E27
:106D54002544AB4208BF0025A144361BABEB05021A
:106D6400964228BF164656B1182303FB0A83596E70
:106D740032462944484634F0F7F93444354424B1C2
:106D8400182000FB0A88C8F870502046BDE8F88F28
:106D94000024E3E70024002037B50446CDE90021B0
:106DA40004F07DFADDE9002105462046FFF7B0FF37
:106DB4000446284604F079FA204603B030BD0000AA
:106DC4002DE9F843134C1E4623788146884617461E
:106DD4000BB9FFF76FFF002504F061FA61690D4AF2
:106DE400536E3BB10135A94202F11802F8DC4FF0B1
:106DF400FF350AE0A942FADD182202FB0544C4E982
:106E04001898A7662367E366666704F04EFA284677
:106E1400BDE8F88300240020FFF74CBF70B54FF0A5
:106E240060441C4B0026D3F8F0201B4D42F00102B5
:106E3400C3F8F020D3F8FC200C2042F08072C3F891
:106E4400FC20164BC4F8B03F0223C4F8006EC4F80B
:106E5400806EC5F8F03003F0D9FE114B00F5D52053
:106E640000F2FC40B0FBF3F00E4A0F4B01382861EE
:106E7400C4F8406E1A600D4BC4F8803E4FF4807322
:106E8400C5F80433D4F8003E43F48073C4F8003EDC
:106E940070BD00BF00ED00E0000004E055CEACC5BD
:106EA400F8590D00FF030040001000E00D00010040
:106EB40010B50124104B0020C3F8444404F0AAFA8E
:106EC400234604220321002004F000FB204611F095
:106ED400CDFDFFF7A3FF11F0CAFD084B1C70FFF7AF
:106EE4009BFF2346402206490648FFF769FF064BED
:106EF4001860C00F10BD00BF00D003401443002031
:106F0400D2430020B8D3030080210020034BD3F8E0
:106F1400F000003818BF0120704700BF00ED00E00A
:106F2400D123054A037013784170090A8170591CF2
:106F3400C370117004207047184400202DE9F74FE6
:106F440091F800808246B8F1040F0F465FD91AF019
:106F54009DF94FF6FF76002408F10505DFF8B89097
:106F6400EDB20190D9F8F0200AB1A54207D8281B48
:106F740018BF012004233B7003B0BDE8F08F1AF062
:106F840085F9019BC01A80B2B0F5FA7F41D8A4B349
:106F9400012C36D0EA1E04F1010B94425FFA8BFBFC
:106FA40019D1F4B24FF06042D2F8801ECB0710D54D
:106FB400D9F8FC1041F08071C9F8FC10D2F8001E19
:106FC40041F48071C2F8001E116A0029F0D082F8E1
:106FD40020405C46C6E7AA1E944202D1C6F30724A9
:106FE400E0E76A1E944210D0544414F8024C31462F
:106FF4002046FFF76FF80646D4E75B244FF0010BF9
:10700400D0E744464FF0020BCCE75D24CAE70020EA
:10701400B0E70120AEE700BF00ED00E000B5084B8B
:1070240091B0402269461868FFF7B6FE20B1C2B29B
:107034006946122010F076FF11B05DF804FB00BF22
:107044008021002010B5002090B0FEF77BFD402287
:107054006946044600F030FA034630B12246012066
:1070640005490DF0F7FF10B010BD01226946082054
:107074000DF080FFF7E700BFC8D3030010B500F0A0
:1070840093F8002814BF79226E22012013490DF0D1
:10709400E1FF00F089F8F8B100F056FA002814BFB7
:1070A40079226E2201200E490DF0D4FF0222012024
:1070B4000C490DF0CFFF0C4B01201C1F53F8042C7E
:1070C4000A490DF0C7FFE26804F110030120BDE88E
:1070D400104006490DF0BEBF3F22E3E700D4030091
:1070E40017D4030027D403007831002046D40300CA
:1070F40070B500F07FF804461F4901200DF0AAFF87
:107104002CB9BDE8704001201C490DF0A3BF00F06C
:1071140079F8054622690120194926880DF09AFF5D
:107124006288012017490DF095FF1749A2880120B4
:107134000DF090FF6388E28813F0100F14BF134919
:10714400134901200DF086FFA268012011490DF0BA
:1071540081FFE268012010490DF07CFF0F4A104BBB
:107164000120B6F5817F28BF13460E492A46BDE8A3
:1071740070400DF06FBF00BF7BD4030088D40300C0
:10718400A9D40300C7D40300E8D4030005D5030041
:1071940022D5030040D503005ED5030069D4030063
:1071A40073D403007CD50300034B1878012894BFE3
:1071B40000200120704700BF1B43002038B504465F
:1071C400044D2878A04203D02146FEF78AFB2C7098
:1071D40038BD00BF1B430020054B1B7820B1012B99
:1071E40004D80220FFF7EABF012BFBD8704700BF89
:1071F4001B43002008B500F019F8BDE8084004F06E
:10720400D1BE000010B5084C237853B9FFF7F2FF44
:107214000123237028B10388B3F5817F24BF037D44
:107224002370207810BD00BF2C4A002070B5154B88
:107234001B78012B25D804F09DFE134D02461349FB
:1072440001200DF007FF0120FFF7C6FF2E78FF2E67
:1072540017D104F0A7FE98B144881822C4F340045F
:1072640031460B482C7033F0A6FF54B1FFF7CAFF28
:10727400042806D9BDE87040D021064800F06EB954
:10728400287070BD1B430020C12300209FD503003C
:1072940074310020B1D50300FFF7C8BF2DE9F04FCA
:1072A400654B87B005468846144693E8070003AB50
:1072B40083E80700FFF7BAFFFFF7A4FF5F4B06461A
:1072C40093F800A0BAF1010F1AD1012818D9B5FB1F
:1072D400F0F300FB13539BB1594F3A68511C03D090
:1072E4003B7A13449D4229D0FA68531C03D03B7D5A
:1072F40013449D4224D040F23111524800F02EF93B
:107304004E4B1B78012B67D1B5FBF6F306FB1353E9
:10731400002B58D16319B3FBF6F206FB1236002E8C
:107324005AD0A41B9B1B08EB0401324604A8039308
:10733400A4B233F019FF8DF814604DE04FF0000A49
:107344000C2303FB0A73187A4146331A5FFA83F954
:107354000AEB4A034FEA830BA1450BF1040328BF50
:107364005FFA84F918444A463844019333F0FCFE2A
:107374000C2202FB0AFA07EB0A010A7AA4EB0904BD
:107384004A44D2B2B242A4B20A7219D10320FFF71E
:1073940015FF0199B2B2394457F80A0004F046FEC9
:1073A40082460220FFF70AFF4FF0FF3207EB0B0182
:1073B40047F80B20C1E90122BAF1000F32D1C844C9
:1073C400F4B14D449CE74FF4AD711E4800F0C6F88B
:1073D4001A4B1B78012B9DD0ACB9039B01330FD002
:1073E400174B1A68013221D0DA68013220D1012208
:1073F4000C2101FB02330DEB010207CA83E80700ED
:107404004FF0000A0EE00320FFF7D8FE2246414663
:10741400284604F00BFE82460220FFF7CFFEBAF1A5
:10742400000FDAD0504607B0BDE8F08F0022DFE746
:107434004FF0010AF6E700BF24D60300C123002061
:1074440074310020B1D5030038B5184B1B78012BDB
:1074540028D1174DFFF7EAFE2B6801330FD0032024
:10746400FFF7ACFE2C68FFF7CDFE291D82B2204643
:1074740004F0DCFD04460220FFF7A0FE9CB9EB6893
:1074840001330FD00320FFF799FEEC68FFF7BAFE33
:10749400084982B2204604F0C9FD04460220FFF7E1
:1074A4008DFE04B90024204638BD00BFC12300204E
:1074B400743100208431002013B50446CDE9002145
:1074C400FFF7B4FE0420FFF779FEDDE90021204632
:1074D40004F0BBFD04460220FFF770FE204602B014
:1074E40010BD000070B504460D46FFF79FFE052051
:1074F400FFF764FE2946204604F0B6FD0646022046
:10750400FFF75CFE0E4B1A68501C09D0944207D852
:1075140061198A423EBF4FF0FF32C3E900229A60EC
:10752400DA68511C0AD0A24208D361198A423FBFCB
:107534004FF0FF320349DA60C1E90122304670BDE1
:10754400743100208031002008B5FFF76FFEBDE8DC
:10755400084004F098BD42DE7047000038B5044688
:107564000D4600F003FD03F092FE2946204610F07C
:10757400A5FC2B4622460549012009F0ADFC29460D
:107584002046BDE83840FFF7E6BF00BF30D6030011
:107594006E4B2DE9F0415A686D4CA2655A6AE2655A
:1075A4006C4AD2F800122166D2F8042262669A6A02
:1075B400A266DA6AE2661A6B22675A6B6267A26B8A
:1075C400DB6B12F0040FA367D4E90F3508BF1D4627
:1075D40019F040FE002285420346606522655DD3B2
:1075E4005D4A95425AD8AA696264E969A164B4F80B
:1075F4005810C1F30801062954D158498A4251D37D
:1076040057498A424ED211884DF64262914249D17D
:1076140040F201706268C4F89420A268C4F898200B
:10762400504A934238BF13464F4A93423DD3D31A2C
:10763400E3640023C4E91F33C4E92133C4E92333D9
:10764400494EDFF818C1DFF818E1AE4233D8D4E967
:107654001FC7D4E92165D4E923124FF0000E013B82
:10766400DBB2FF2B42D1BEF1000F05D0C4E91FC726
:10767400C4E92165C4E92312B4F85830C3F30803FC
:107684000C2B41D8022B57D9DA1E092A54D8DFE82B
:1076940002F05A37464953535353535000221D4660
:1076A400C4E911224FF42060BAE71968B1F1CD3F63
:1076B400BDD10433B9E756F8042D6245C5D37245EC
:1076C400C3D2D107C1D50021284F57F8048B904568
:1076D400BBD00131C9B20629F7D10BB9052301E0AA
:1076E400013BDBB204EB8301CA67AEE7E0464FF02F
:1076F400010EBC4637462E460D4611464246AEE7BD
:1077040040F60220BDE8F0813B2B15D1184B9B6954
:1077140013F0020F40F2025318BF1846F2E740F686
:107724000320EFE740F60423B0F5206F08BF1846A6
:10773400E8E740F60520E5E740F60722013B4B2B3E
:1077440098BF1046DEE740F60120DBE700ED00E0DD
:107754000000002000E100E0201A00204C4300005B
:1077640028B203009C000020401A00207C00002066
:107774000080014A10B503F0D5FF044603F0CAFFA8
:107784000022012101FA02F3234014D01D4B1E49AB
:1077940033F81230062B14D040F2072293420DD155
:1077A4001A4A1B481468844208D14CF23C33538073
:1077B40013880B8015E00132102AE3D1124A13809A
:1077C4000FE04FF20F03114A5088984216D11388E4
:1077D400B3F5406F28BF4FF4C0630B804CF23C33C9
:1077E4005380094B1A8840F201739A4201BF094B36
:1077F400094AD2E90001C3E9000110BD4FF4C06396
:10780400EBE700BF44D60300323F00200000002015
:1078140007020FF09837002094000020014B1888CD
:10782400000A7047323F0020014B1888704700BFA0
:10783400323F00202DE9F04F4D4D0446AB6BD5F897
:1078440050B05A0747BF0027B846D5F84CB0D5F812
:107854005480D5F840A05DBF464FD5F83CA0DFF872
:107864003C91DFF83C9113F0080F434B434A18BF97
:107874001A46B7EB08061FBF6421730801FB0B33DC
:10788400B3FBF6F387B01CBF9BB205933C494B4650
:10789400CDE9017ACDF8008008BF059601F02EF9F4
:1078A400B3B2CDE900932046059B36491FFA8BF20B
:1078B40001F024F9AB6B5B070AD49C3E5E4507D10B
:1078C4006A6D314B9A4203D22046304901F016F9D1
:1078D400BA4501D8C24504D24A4620462C4901F093
:1078E4000DF9204609F0F2FAD5E91823134337D0ED
:1078F4002046284901F0EEF800260127DFF8A4808D
:10790400DFF8A4902A6E07FA06F3134207D058F85A
:10791400262013781BB14946204601F0DBF80136D6
:10792400202EEFD100260127DFF87880DFF8789049
:107934006A6E07FA06F3134209D008EB8603D3F8FC
:10794400802013781BB14946204601F0C3F8013664
:107954001D2EEDD1204607B0BDE8F04F01F0C8B8A8
:1079640020460D4907B0BDE8F04F01F0C7B800BF8D
:1079740000000020401A002071D60300CFB5030098
:1079840078D60300A6D603009C000020DFD60300AF
:107994000BD7030029D7030058D7030064D603008C
:1079A40069D6030098E00300C3D403002DE9F8432B
:1079B4000446FFF739FF40F6052398420ED8B0F588
:1079C400206F0DD840F20253984217D040F2017351
:1079D40098421ED040F2015398420AD0BDE8F88381
:1079E400A0F602205F4D03281FD8DFE800F03865B9
:1079F40098B55D49204601F081F811E020465B49C5
:107A040001F07CF8574B5A6C2046594901F076F83E
:107A140006E0544A2046D2E92523564901F06EF87F
:107A24002046BDE8F84309F051BA2046524901F016
:107A340065F895F86C309F0703D520464F4901F04F
:107A44005DF895F86F305E0603D520464C4901F089
:107A540055F895F96F30002BE2DA4A49CAE7204617
:107A6400494901F04BF895F86830980704D020464E
:107A74006A6C3F4901F042F895F96830002B04DA4A
:107A840020466A6F414901F039F800260127DFF8E2
:107A94000881DFF81491AA6E07FA06F3134207D09F
:107AA40058F8262013781BB14946204601F026F8E1
:107AB4000136082EEFD1B3E73549204601F01EF810
:107AC4002B4920466A6C01F019F895F8693059077A
:107AD40003D520462F4901F011F895F96930002BA0
:107AE40004DA20466A6F294901F008F808262A4F6B
:107AF400DFF8B480AB6EF340DA0707D557F82620D9
:107B040013781BB14146204600F0F8FF0136102ED1
:107B1400F0D195F86830002B82D120496AE72049DA
:107B2400204600F0EBFF20466A6C114900F0E6FFA6
:107B34001026194FDFF87080AB6EF340DB0707D5D2
:107B440057F8262013781BB14146204600F0D6FF93
:107B540001361A2EF0D163E72046124900F0CEFF19
:107B64006A6C51E7000000206DD70300AAD7030018
:107B7400DAD70300F3D703000DD8030025D8030098
:107B84005FD8030092D80300CED80300F3D80300D3
:107B940017D903002ED9030030E0030074D9030081
:107BA400A4D90300BDD903000FD903002DE9F84F70
:107BB40004460026154DDFF85C80DFF85CA0DFF892
:107BC4005C902A465146204658F8043BF7B200F030
:107BD40081FF2A78AB460135002AFAD19BF80120AF
:107BE40092B10B4907F00307032F08BF494620460B
:107BF40000F070FF204609F069F99BF80130013666
:107C0400002BDED1BDE8F88F4946F0E78CE1030094
:107C14000AFA030004000020DED9030061B7030060
:107C240000F00CB800F00AB800F008B800F006B88C
:107C340000F004B800F002B800F000B872B61EF00C
:107C4400080F09D01EF0040F0DD0DFF850E0AEE8A5
:107C5400FF1F6FF002000CE0DFF840E0AEE8FF1F0A
:107C64006FF00E0005E0DFF834E0AEE8FF1F6FF0C0
:107C740006006946EFF309828EE807008646084845
:107C8400084C854501D3A54501D384F30888FFF743
:107C94007FFC84F3088819F0B9FA0000040000207E
:107CA40020110020401A0020FFF7C6BF704770471C
:107CB40000F07E63B3F17E6F70B505460E46144640
:107CC40016D105F065FD18B19A210D48FFF746FC61
:107CD40022463146C5F30B0003F0E0FD044605F0EF
:107CE40065FD5CB19D21BDE870400548FFF736BCD9
:107CF400520819F02FFA08B18F21F4E770BD00BFC4
:107D040058E2030037B515461A464BF234637F2D0B
:107D140008BF00259942044619D17F2241F202018D
:107D240068460823FFF7EEFF08226846264933F029
:107D34000BFA30B908237F2241F2F0116846FFF7AD
:107D4400E1FF6B4603CB2060616003B030BD41F2BC
:107D5400F01399421BD100211C4B9D6CD86CCBB203
:107D64005AB9002AF1D0E0540133D9B207294FEAB5
:107D7400102002F1FF32F4D9E7E7655401310429F8
:107D84004FEA152502F1FF32E9D10B46E9E701F488
:107D94007043B3F5805F0AD1C1F30B0404F17E6430
:107DA40002FB054103B0BDE8304033F0DDB901F416
:107DB4006043B3F5005FC8D1C1F30B040449214407
:107DC40002FB0511EEE700BFE0E203000080E00FD4
:107DD40000E00F0070B5054616461C46DBB14BF2B9
:107DE4003463994210D1082C28BF08247F2241F221
:107DF40002012346FFF786FF22462846064933F050
:107E0400A3F940B941F2F011234632462846BDE8B1
:107E14007040FFF777BF70BDE0E203002DE9F74340
:107E24000446E0070F46154603D5DD213548FFF724
:107E340095FBE90703D5DE213248FFF78FFB04F4F5
:107E44007043B3F5805F3ED1C4F30B0404F17E6448
:107E54002D4A6B1E23449342264603D9E321294825
:107E6400FFF77CFBDFF89C9006EB050846453DD107
:107E7400A2070ED04FF6FF7337F8022BA01E43EA79
:107E8400024304220DEB02010193FFF711FF0234B8
:107E9400023DAB070ED0023D25F00103FB5A04223C
:107EA4006FEA03436FEA13430DEB02016019019378
:107EB400FFF7FEFE1DB32A463946204603B0BDE84F
:107EC400F043FFF7F5BE04F46043B3F5005F05D15A
:107ED4000E48C4F30B0404442646C3E7EA210948C8
:107EE400FFF73CFB6FF00F060024BBE716F8013BDD
:107EF400FF2BBBD0F4214846FFF730FBB6E703B0B5
:107F0400BDE8F08358E20300FF1FE00F00E00F001C
:107F1400FFF786BE1FB5124A01AB1068516812897B
:107F240003C31A800D238DF80A3003230D4C082156
:107F340024208DF80B3002F0C7FF204601A903F07E
:107F440028FF4FF400610223074A04F5005004F5AA
:107F54008054C2F8841183615160E36104B010BDA0
:107F6400E8E203000080014A00E100E0014803F078
:107F7400FFBE00BF0080014AA52803D100210248AA
:107F840003F0E7BE704700BF0080014A024B586807
:107F940000F00100704700BF0080014A024A536AA2
:107FA400002BFCD1704700BF0080014A00207047BD
:107FB400002070477047000007B572B603F067F9F8
:107FC4008B4B8C495B6940228B6000230B764B768C
:107FD4008B76F023CB760B774B778B77CA7780221F
:107FE40081F8202081F82130E023602081F82230BC
:107FF400814B81F8232083F8002383F8012383F83D
:10800400022383F8032383F8042383F8052383F8E6
:10801400062383F8072383F8082383F8092383F8C6
:108024000A2383F80B2383F80C2383F80D2383F8A6
:108034000E2383F80F2383F8102383F8112383F886
:10804400122383F8132383F8142383F8152383F866
:10805400162383F8172383F8182383F8192383F846
:108064001A2383F81B2383F81C2383F81D2383F826
:108074001E2383F81F2383F8202383F82103202061
:1080840083F8222383F8232383F8242383F82523E6
:1080940083F8262383F8272383F8282383F82923C6
:1080A40083F82A2383F82B0383F82C0383F82D23E6
:1080B40083F82E2383F82F2383F8302383F8312386
:1080C40083F8322383F8332383F8342383F8352366
:1080D40083F8362383F8372383F8382383F8392346
:1080E40083F83A2383F83B2383F83C23CB6823F4B7
:1080F400E0631B041B0C43F0BF6343F40133CB6008
:108104004B6943F010034B614FF4E0234B6204F0DE
:10811400CBF8FFF72FFBEFF308834FF0CD31374A4D
:10812400043B934260D2364A002192B2354833F080
:1081340042F862B6684603F0D5FB334A936DDB031D
:1081440013D4536B23F4FF0323F4FE4343F4BC130F
:1081540043F4A0635363136B23F4704343F4404329
:108164001363136B43F4E06313639DF80130012B35
:108174000FD19DF8003063B94FF000531B68234BB7
:108184001B68234B1B68234B1B68234B1B68234B27
:108194001B68234AD2F8803043F00303C2F88030CE
:1081A40004F072FC02224FF040231A6704F002F834
:1081B40001F0D8FB002300938DF8043001236846B6
:1081C4008DF8033003F008F900F0F0F819F070F8B6
:1081D40004F05CFC00F0FAF811F088F9114804F09E
:1081E40029FE03B05DF804FB43F8041999E700BFC6
:1081F4000040000000ED00E000E100E0E01000209D
:1082040014100000A000002000C000400040002026
:108214000080002000C00020000001200040012058
:108224000080004058E7030040F2016018F0EEBF00
:10823400FEF7FCBB08B500210B20FEF7F5FBBDE8FB
:108244000840FEF7F4BB08B1FDF78FBBFDF78CBB0C
:10825400032000F0B1BA000008B5FFF7DFFA044BC1
:108264000B2896BF00B2184603EB800008BD00BF80
:108274003AE4030008B5FFF7D7FA044BC0F30F2222
:1082840053F82230C0B203EB800008BD04E40300BD
:1082940010B5FFF7C3FA0446FFF7C6FA10F0FF0063
:1082A40005D1012C23D164F07F04E4B215E0072C3E
:1082B400F9D801A353F824F0DF820000AB82000058
:1082C400DD820000E3820000E3820000E782000018
:1082D400EB820000EF8200000924204610BD022436
:1082E400FBE70324F9E70B24F7E70624F5E7044644
:1082F400F3E700BF38B50D46044688BB284B4A1E39
:10830400186050425041013D09F04EF8032D46D803
:10831400DFE805F002131E2001210846FDF726FBC5
:10832400FFF734FE1F4B187010B1A520FFF724FE91
:10833400BDE83840012009F037B802210120FDF7DB
:1083440015FBFFF723FE50B3BDE83840FFF726BE08
:108354000421F3E705210120BDE83840FDF706BB01
:10836400104B1B781BB101210F4803F0F2FC631E74
:1083740058425841013C09F039F8032C0FD8DFE882
:1083840004F002080A0C012009F030F80121002051
:10839400E2E70221FBE70421F9E70521F7E738BD0D
:1083A400C43A00202B4A00200080014A054AD2F832
:1083B400203402F500521B0C1B04C2F82034024A7C
:1083C4001360704700C003406431002008B504F016
:1083D4005BF818B192210448FFF7C0F8BDE80840E3
:1083E4000249034804F004B96AE403002C1F002086
:1083F40008340020134A1449D2F82434D2F8202433
:108404001340124A9BB21360D1F80001400102D517
:108414000868400106D4D1F80001800105D5096837
:10842400880102D543F480331360074BD3F800115D
:10843400490506D51B685B0542BF136843F4003346
:108444001360704700C0034000E100E0C43A00201C
:10845400012838B504460BD0831E012B07D9042804
:1084640024D0052801D102F09BFF002400E002245F
:1084740002F006FF05460121204604F035F828469F
:1084840002F002FF02F0F8FE02F005FF04F0D6F855
:1084940002F0F4FE02F0F4FE05460021204604F04A
:1084A40023F82846BDE8384002F0EEBE0324DFE797
:1084B400FFF7CEBF2DE9F04F89B010F0D5FA05468D
:1084C400002840F0EA80764EDFF8EC813168D8F875
:1084D400000018F053F80446002828D033682C46CE
:1084E400D3E900019A6912689047336804A89B692C
:1084F4009B689847336802209B69DB689847326819
:1085040005985368E7B2B3FBF0F3BB42916904F1F9
:10851400010454D8CB680020984733689B695B6892
:1085240098473168D8F8000018F028F80446002766
:108534005C4BDFF894A1DFF89491009314BB5A4B81
:10854400FB5C002B00F08F80D9F8001002ABD8F848
:10855400000003AA019118F04BFA544B0199984278
:1085640008D078B9039B012B0CD0D8F8000018F080
:1085740085FA0199DAF80030D8F800001A6818F082
:1085840065F90446009B01370133272F0AF1040AD9
:10859400009309F10409D1D1002C0CBF012200225F
:1085A400434B1A7065D0434B2344072B71D8072BD8
:1085B4006FD8DFE803F05D6A6E6C6E6E6E701268E1
:1085C4000B6907FB0020984799E7D9F8003003AA04
:1085D400194402AB019118F00BFA344B01999842FB
:1085E4002ED030B30136344BF1B259451868ECD370
:1085F400324BFB5C002BC5D05E46DFF8BCB0F3B257
:108604007E2BDBF80000BDD8D9F8001002AB314452
:1086140003AA019118F0ECF9244B9842B2D00199C5
:10862400DBF8000018F02AFA013604460028E6D0E8
:10863400A8E7039B83B9009B029A1B789A42D1D086
:10864400009BDAF800201B78D8F8000018F066F8D0
:108654000028C7D00446CBE7174B0191186818F0DF
:108664000DFA0199ECE7164B264617F803B0BAE762
:10867400C225114B1B681B7C1BB1D3211148FEF78B
:108684006DFF284609B0BDE8F08FC325F1E7C42586
:10869400EFE7C525EDE7C125EBE7C625F1E700BF08
:1086A400AC1F0020ACBD0300C0BC03000BE000F015
:1086B4001E4A0020FF1FFF0FA81F0020E7BC030075
:1086C400FCBB0300E6E4030024BC030010BD03006C
:1086D400262970B506460C4615461AD8144A12784F
:1086E40022B3144A1068144A52F82110134A125D36
:1086F4003AB1324618F0F6F8C0B1BDE87040FDF763
:10870400F9BC7F2D08BF00253246294418F050F8E3
:10871400F2E7FF2903D9BDE87040FFF75BBB40F2E5
:108724000111BDE870400648FEF718BF70BD00BFD8
:108734001E4A0020A81F002010BD0300C0BC030077
:10874400E6E403002628F8B504460D46164619D873
:108754001449097829B31449144F0868144951F885
:1087640024103C5D3CB1126818F070F8C8B1BDE843
:10877400F840FDF7BFBC7F2D08BF0025294417F042
:10878400CDFFF3E7FF2805D91A463146BDE8F84086
:10879400FFF744BB4FF49A71BDE8F8400548FEF773
:1087A400DDBEF8BD1E4A0020A81F0020C0BC030087
:1087B40010BD0300E6E4030008B5084B1B7863B161
:1087C400074B002253F82010064B186818F0CAF81B
:1087D40018B1BDE80840FDF78DBC08BD1E4A002055
:1087E40010BD0300A81F0020104430B5054602B98F
:1087F40030BD01F00F030A2B34BF30243724013A73
:108804002344090905F8013DD2B2F0E7F0B519B3E4
:10881400002820DA2D23B0F1004F137000D040421D
:10882400012119E0801B8642ECB205F10105F9D95A
:1088340014B9BCF1000F05D04FF0010C4D1C3034BD
:108844005454E9B2013B13F0FF0309D130305054C2
:10885400481CC0B2F0BD002109234FF0000C024FA8
:10886400002557F8046BDEE75CE503002DE9F04FC3
:108874004FF0000B97B004AC8046894615469A46E3
:108884005E462746297859B9E41BE4B222463946A4
:108894004846C047002840F0AD803444E0B2AAE026
:1088A400252916D0BBF1000F17D1204600F8011B73
:1088B400044614AB9C42C0F0E180E41BE4B22246BF
:1088C40039464846C047002840F094802644F6B212
:1088D400D3E0BBF1000F00D101352978782906D8FF
:1088E400612907D825295ED03AD80029CCD04FF089
:1088F400000BDEE7A1F16202162AF8D801A353F8AF
:1089040022F000BFB5890000398A0000858A000082
:10891400F3880000F3880000F3880000F388000067
:10892400F3880000F3880000F3880000858A0000C3
:10893400F3880000F3880000F3880000498A0000EF
:10894400F3880000F3880000498A0000F3880000DF
:10895400858A0000F3880000F38800009B890000EA
:10896400392916D82F29C2D96A7802F0DF02582A89
:1089740040F0AC80322905F1010B40F09B800422C9
:1089840020465AF8041B89B2FFF72EFF5D460446C1
:10899400ADE75829ABD15AF8041B02222046C9B2CC
:1089A400FFF722FF02E0204600F8011B04469EE781
:1089B4004FF0000BDAF800300293DAF80430019338
:1089C400013B0393019B9B4502D10AF1080A8EE700
:1089D400029B204613F80B100222FFF705FF14AB8D
:1089E400984204460DD3C41BE4B222463946484695
:1089F400C04718B1002017B0BDE8F08F26443C46AC
:108A0400F6B2039B5B4581BF2046202200F8012B70
:108A1400044614AB9C420AD3E41BE4B22246394612
:108A24004846C0470028E5D126443C46F6B20BF13F
:108A3400010BC7E75346204653F8042B9A4600F827
:108A4400012BB3E7E41BE4B22246394648465AF800
:108A540004BBC0470028CDD12644F6B2C4B21BF8EB
:108A640004200130002AF9D1224659464846C0471D
:108A74000028BFD183462644F6B23C46013501E7BF
:108A84006C29DAF800000AF1040B0ED16B78752B0F
:108A940014BF0121002101D0642B00D101352246ED
:108AA400FFF7B4FEDA46044421E775290CBF002120
:108AB4000121F4E7342909D15AF8045B0422290C72
:108AC4002046FFF791FE0422A9B25DE74FF0010BA7
:108AD400EFE600BF0EB403B503AA52F8041B0192DB
:108AE40008F01CFDC0B202B05DF804EB03B070479F
:108AF4000149FFF7EFBF00BF61B703000EB433B500
:108B040005AA52F8041B0546019208F007FD044625
:108B14002846FFF7EDFFE0B202B0BDE8304003B0F5
:108B2400704708B508F0FAFCC0B208BD2DE9F04F53
:108B34009A46564B85B01B7806460F461546DDF817
:108B44003C909DF844B0DDF85080002B00F08D80FF
:108B5400072A00F28C800E9B002B00F08880B9F16C
:108B6400000F00F08480129BB3F5006F7FDC0128B6
:108B740002D1109B002B7AD0454B03EB05131B7BD2
:108B8400002B76D0434C10220021684632F013FBB0
:108B940004EB45141022002F59D13946204632F0F7
:108BA4000AFB43F210036380BBF1000F03D1E378A7
:108BB40043F00303E370374A0E9B02EB451CCCE9F8
:108BC4000193129B6901013BC3F30A009DF84C30E9
:108BD400012E03F003034FEA836343EA001E535854
:108BE4002D48CDF800A000EA03004EEA00035350DC
:108BF40041D113230CF1100ECCF80C309CE80F007B
:108C04008EE80F006FF00301DCF81C20109B61F369
:108C14009F02012FCCF81C20CCF8143003D1CCF8DF
:108C24001890CCF804300027194A290102EB0513E7
:108C340042F80180159A28465A60694622469F6088
:108C44005E7302F0CFFC384605B0BDE8F08F00211A
:108C5400204632F0B0FA4FF444736380BBF1000F46
:108C6400A9D1E37843F03003A4E70C48ECE70C48BF
:108C7400EAE70C48E8E7B8F1000FD4D19CF80230D9
:108C840068F304138CF80230CDE700BF934300204F
:108C9400C8280020643000200F80FFF3028000F019
:108CA400018000F0078000F038B5124B05461B78B0
:108CB400DBB1E0B102F0F3FA0F4A00231146147B52
:108CC40054B92B6001251A0101EB03131D738C5059
:108CD40002F0EBFA204638BD0133082B02F11002F2
:108CE400EDD102F0E2FA0548F5E70548F3E7054857
:108CF400F1E700BF93430020C8280020048000F05F
:108D0400028000F0018000F013B502F0C8FA0023DD
:108D14000B4A147B7CB90133082B02F11002F8D101
:108D2400019002F013FC074B01981C7002F0BDFA8D
:108D3400204602B010BD02F0B8FA0348F9E700BFBC
:108D4400C828002093430020058000F00D4B10B587
:108D54001B78044693B1072812D802F0A0FA0A4BF4
:108D640003EB04131A7B2AB100241C7302F09DFA4E
:108D7400204610BD02F099FA0448FAE70448F8E7DF
:108D84000448F6E793430020C8280020068000F03A
:108D9400028000F0018000F0164B13B51868002320
:108DA40001908DF8043002F07AFA134B1C7824B148
:108DB40002F07BFA114802B010BD01221A7002F0D1
:108DC40074FA0F4B1C731C7783F82C4083F83C40D7
:108DD40083F84C4083F85C4083F86C4083F87C4013
:108DE40004230DEB03008DF8073002F0D1FB20467D
:108DF400E1E700BF80E5030093430020038000F017
:108E0400C828002010B588B00E9C009207940D9CD1
:108E1400024606949DF8304005940B9C04949DF8FA
:108E2400284003940024CDE9013420460B46214612
:108E3400FFF77CFE08B010BD10B588B00E9C009200
:108E440007940D9C024606949DF8304005940B9CB3
:108E540004949DF8284003940024CDE9013420466D
:108E64000B460121FFF762FE08B010BD0A4A08B59F
:108E740012785AB107280BD8084A02EB00131B7B5F
:108E840043B1002102F076FB002008BD0448FCE752
:108E94000448FAE70448F8E793430020C828002070
:108EA400028000F0018000F0078000F00A4A08B553
:108EB40012785AB107280BD8084A02EB00131B7B1F
:108EC40043B1012102F056FB002008BD0448FCE731
:108ED4000448FAE70448F8E793430020C828002030
:108EE400028000F0018000F0078000F00A4A08B513
:108EF400127852B107280AD8084A02EB00131B7BE8
:108F04003BB102F0BDFB002008BD0548FCE7054865
:108F1400FAE70548F8E700BF93430020C82800207B
:108F2400028000F0018000F0078000F00D4B1B78F8
:108F340093B1072812D889B10B4B03EB00131B7BA9
:108F440073B10A4BDA6A012303FA00F010401ABF26
:108F540000200B700870704705487047054870473B
:108F64000548704793430020C828002000000440AF
:108F7400028000F0018000F0078000F00B4A10B579
:108F840012780C4662B107280CD859B1084A02EB92
:108F940000131B7B43B102F085FB2060002010BD51
:108FA4000448FCE70448FAE70448F8E79343002040
:108FB400C8280020028000F0018000F0078000F043
:108FC4002DE9F843174B1F6D5B6D1F4000D5FEE77D
:108FD40001260025144CDFF85480DFF85490374202
:108FE40017D02368C8F850609BB1A16828460131A6
:108FF4006268A1609847637B012B0AD148B909EBE9
:1090040045131A7B60F341021A731A7F60F341021D
:109014001A770135082D4FEA460604F11004DED113
:10902400BDE8F88300000440C82800200020044064
:109034006430002070B504460125084E04B970BDA3
:1090440094FAA4F0B0FA80F005FA00F324EA0304D9
:1090540056F82030002BF1D09847EFE73434002045
:1090640008B5192002F032F928B14FF00072074B0D
:10907400C3F880211A601A2002F028F928B14FF0B1
:109084008062024BC3F880211A6008BD00E100E051
:1090940038B504460D4602F002F9034B43F8245058
:1090A400BDE8384002F001B934340020064BD3F84F
:1090B4002404D3F8202403F50053104000F0553065
:1090C400C3F82004FFF7B6BF00C00340064BD3F833
:1090D4002404D3F8202403F50053104000F0AA30F0
:1090E400C3F82004FFF7A6BF00C0034010B500F08A
:1090F40049FB0A4C0A4B19682368C31A01B10BB91E
:10910400206010BD4A699A423ABF9B1A0022D21AC3
:109114004A6128BF00238968F0E700BFB835002002
:10912400483A0020C38870B504460D463BB903F0A5
:1091340039FA8542064602D203F04EFA35460F4903
:1091440065610B68ABB90C60A36011E0AD1A9A6855
:10915400184665612AB113465A69AA42F6D950B134
:109164001A4613468460A36013B15969491B5961B7
:1091740070BD0020F0E70C60F5E700BF483A00201E
:1091840038B50F4B0F4D1C682B6802205B691C44DB
:1091940000F02CFB204600F0FDFA00230A492A685F
:1091A4000B70D088800702D501230B7038BD9268FC
:1091B400002AFBD050690344012BF2D9F6E700BF23
:1091C400B8350020483A0020BD43002070B516464B
:1091D4009DF81420C0E903360271049ABDF81830D2
:1091E40002600022C380826004460D4600F0CAFA81
:1091F4003044A0613DB9E368656113B1204621683C
:10920400984796B1354602F04AF80646FFF76EFFD6
:1092140029462046FFF786FF054B1B68A34201D170
:10922400FFF7AEFF304602F040F8002070BD00BFEB
:10923400483A002000220C490B687BB183420AD1D2
:1092440083687AB1936083681BB15A6941690A449F
:109254005A61002070471A469B68EEE70028EFD059
:10926400022070470B60EEE7483A002070B502F028
:1092740016F8144E05463478FCB9134B1C60134B96
:109284001C60134B1C8000F043FA012000F0AEFA7E
:1092940000F0FAFA0F4B0246186020B9284602F093
:1092A40004F8232070BD234640F2E7310A4831F028
:1092B40083FD0A4B186001233370284601F0F5FF43
:1092C4000020EFE79D430020483A0020B8350020F5
:1092D4002A3F0020443A002018FCFFFFC435002038
:1092E4002DE9F0410546F8B101F0D9FF0F4F0646CC
:1092F400FFF7FCFE2846D7F80080FFF79BFF0446E3
:1093040028B1304601F0D1FF2046BDE8F081A845E0
:109314003B6803D123B1FFF733FFF2E7002BF0D111
:10932400022000F06FFAECE72224EDE7483A00202F
:1093340070B586B015461E460446059180B1FFF708
:10934400CFFFBDF82C30002202939DF82830204630
:10935400CDE9006305992B46FFF738FF06B070BDD1
:109364002220FBE738B50C46054698B191B100239D
:109374000B7001F094FF0121074B1B680BB122789D
:109384001AB101F092FF002038BDAB4214BF9B68B4
:109394002170F3E72220F7E7483A0020F0B51F4692
:1093A400002387B00D46164604468DF81730A0B149
:1093B4000DF11701FFF7D6FF9DF817207AB9BDF814
:1093C4003430294602939DF830302046CDE90073AD
:1093D4003346FFF7FBFE07B0F0BD2220FBE7032076
:1093E400F9E70000F8B50C460546C8B1C1B101F073
:1093F40056FF0646FFF77AFE6B692360134B1B6822
:10940400AB420FD023B9304601F04FFF03201CE0DC
:10941400596922689B680A442260F1E700230FE03F
:10942400222012E0276800F0ADF9094D2B68C01A1C
:109434008742F3D900F0A6F92B68226813441B1A5B
:109444003046236001F031FF0020F8BD483A002087
:10945400B83500202DE9F0410746884601F01FFF8A
:1094640000260546124B1C6824B9284601F01DFF4E
:109474001B2016E063691E44E388BB4215D100F04B
:1094840081F90C4C2368C01AB0420CD200F07AF96E
:1094940022683244121A2846C8F8002001F005FF59
:1094A4000020BDE8F0810022F5E7A468DCE700BFF6
:1094B400483A0020B8350020014B1878704700BFA7
:1094C400BD43002038B501F0EAFE054600F05AF924
:1094D4000446284601F0E9FE204638BD70B501F087
:1094E400DEFE064600F04EF9084B04461D880120B6
:1094F400ADB200F09FF918B100F044F9044601350B
:10950400304601F0D2FE2046294670BD2A3F002095
:10951400014B1868704700BF443A00200A4B10B54D
:109524001B680C4683420CD3084B4FF47A721968BB
:109534000023A0FB010131F03FFC0130206000203A
:1095440010BD2120FCE700BFC4350020443A0020B0
:109554000F4B10B51A689AB14FF47A71531E134227
:10956400A0FB01010ED1B2FA82F2C2F11F04531C16
:10957400D243E04001FA03F3184321FA02F2024312
:10958400104610BD002331F017FC0246F8E700BF77
:10959400443A0020164B70B58342164B15468B4156
:1095A40024D3154B1A680AB34FF47A76A0FB06034A
:1095B400541E144006FB013111D1B2FA82F3C3F1F7
:1095C4001F025E1CDB4301FA06F6D04021FA03F3C6
:1095D40030431843D140C5E90001204670BD002343
:1095E40031F0EAFB0024C5E90001F6E72124F4E7A1
:1095F400EFA7C64B37894100443A0020C2072DE942
:10960400F34704460BD53F4A138801339BB21380BA
:10961400FFF76CFD3C4B1B680BB1FFF7B1FDA307D3
:109624006DD501F03CFE002605463746FFF75EFD8A
:10963400B146DFF8D480D8F800400CB163698BB12F
:109644000022324B012F1A7002D1022E08BF1F7064
:10965400002C44D0FFF794FD284602B0BDE8F04743
:1096640001F023BE23461A792179914288BF1C4612
:109674009B6813B15A69002AF5D0284601F015FEFB
:10968400256985B300F07EF8A269861AF317B542FE
:1096940079EB030328DA23691344A36101232269C4
:1096A40082B17BB9A91B019101F0F9FD82460199B0
:1096B4002046FFF737FDA369226950461344A3618E
:1096C40001F0F3FDE368E688013713B12046216811
:1096D400984701F0E4FD0546FFF708FDABE70220DB
:1096E40000F090F8B8E72E4601F0D9FD82462046F6
:1096F400FFF7A0FD504601F0D8FD0023CFE702B0EC
:10970400BDE8F0872A3F0020483A00202444002086
:109714001FB50024184B18689A880290D3F80600E5
:109724009B7A009002A8ADF80C208DF804308DF8D7
:1097340008408DF80C4002F03FF8694601208DF88E
:10974400004001F0FDFF4FF090431F219A6922F081
:109754001F029A61094A51619A6A12F00802FBD108
:109764001A62012002F006F84FF48062044BC3F839
:1097740080211A6004B010BD84E503000020004875
:1097840000E100E04FF090439A6A1207FCD4186A93
:10979400704700004FF09042936A1907FCD4136A93
:1097A400116C5269120704D4CA1A032A01D89942C7
:1097B4000ED1C21A022A98BFD81CB0F1FF3F38BF9D
:1097C40001384FF0904318649A6942F008029A6194
:1097D400054A13783BB14FF09041CB6B43F0020341
:1097E400CB630023137070476723002082074FF078
:1097F400904200F00103916948BF43F008030B4312
:1098040093617047820700F001030AD50121084AD9
:1098140043F0080311704FF09041CA6B22F0030229
:10982400CA634FF090418A6922EA03038B6170474F
:10983400672300204FF0904301285B6904D002287D
:1098440005D1C3F3C000704703F001007047002046
:109854007047000010B501F022FD4FF0904304461C
:109864005B691A07074A03F0010003F00D0348BFC0
:1098740040F002005361FFF7C1FE2046BDE81040EE
:1098840001F013BD002000481C2001F0BFB9000006
:1098940000210846F0B52D4C2D4A2368156845B1C2
:1098A4001D68002D47D01D791679AE4284BF13463A
:1098B40001210130052802F10802EFD101B1236032
:1098C40000210D462348244A0368166846B11E68E1
:1098D400002E33D01E791779B7423CBF13460121BD
:1098E4000135052D02F10802EFD101B103602168B1
:1098F4000B6833B34FF04022936F097923F0FF7361
:1099040023F4803343EA01439367144B4FF000423E
:1099140001689A660B68B3B14FF04022936F0979DE
:1099240023F4FF7323F001030B4393670B4B4FF0B6
:1099340080429A66F0BD13460121BAE7134601211D
:10994400CEE7074BE2E7064BF1E700BF9035002076
:10995400F0390020C0350020183A002000500040A3
:1099640000600040012208B50F4B00211A700F4817
:10997400282231F020FC002128220D4831F01BFC64
:109984000C4B0D4A13600D4A13604FF040420C4BD0
:109994005A669A6620220B4BC3F880211A60FFF79F
:1099A40077FF002008BD00BF7D410020F039002072
:1099B400183A00204436002090350020C03500209D
:1099C4000060004000E100E008B501F00FFDDFEDAC
:1099D400117AB4EEE70AF1EE10FA18D4DFED0E7A3C
:1099E400B4EE670AF1EE10FA37FE800A10EE100AA0
:1099F40031F062F90022094B31F000F80022084BE3
:109A040030F0FCFF31F0B0F9803840B208BDB0EE60
:109A1400670AEBE7000000C30000FE420000E03FDD
:109A2400000060404FF0402238B5936E526E1340F0
:109A340013F0804212D0114B1B681D6835B100240D
:109A44001C605C60FFF7C0FF2146A8474FF08042CE
:109A54000B4B5A66BDE83840FFF71ABF002BF9DA02
:109A6400084B1B681C682CB11A605A60FFF7ACFFE6
:109A74000121A0474FF00042014BEAE7C035002026
:109A84000060004090350020FFF7CCBF042203683B
:109A94005A619A699207FCD541F2AC5210210379BC
:109AA4005B0103F1804303F5703399507047012241
:109AB40003685A619A69D207FCD541F2AC52042179
:109AC40003795B0103F1804303F5703399507047C8
:109AD40038B141B1013AB2F5006F044838BF0020F3
:109AE4007047034870470148704700BF037000F097
:109AF400027000F038B504460D4601F0D0FBA3888F
:109B04009BB223B92B6001F0D0FB064838BD142268
:109B140063889BB202FB034408342C6001F0C5FB4C
:109B24000020F3E70B7000F0F8B5044616460F4624
:109B340001F0B5FBA388E2889BB29A42054605D89A
:109B44000023336001F0B1FB1748F8BD14222388C9
:109B540007F1100C9BB202FB03433A460833174645
:109B640003CF6745186059603A4603F10803F6D1FC
:109B7400142238681860238828469BB202FB0343EA
:109B8400083333602388E2889BB20133B3FBF2F1DC
:109B940002FB11339BB22380A38801339BB2A380C1
:109BA40001F083FB0020D0E70A7000F010B50068D4
:109BB40001F0F2FF044630B1FFF7AAFC2423584316
:109BC400B0FBF4F40134204610BD000090F83130AD
:109BD400022B0BD13023427F90F821005A43044BCF
:109BE4009B5823FA00F000F00100704700207047F2
:109BF40014C00340002313B51D4A52F8044B94F8D3
:109C0400211081420ED00133042BF6D102B010BDD5
:109C14000028FBD19DF80730002BF7D0A068FFF790
:109C240025F9F3E794F83130022BEFD12046FFF702
