S014000052533438355F3650425F4956412E73333734
S31500004000401A00204936020011870000158700007B
S31500004010A70A0A010042000004180FAC906AD001FA
S31500004020000000000000000000000000000000008A
S3150000403000000000A41504000000000000000000BD
S315000040400000000000000000FFFFFFFFFFFFFFFF72
S31500004050FFFFFFFF00600F0064000000000000008B
S31500004060FFFFFFFFFFFFFFFF8000000000000000D2
S31500004070000000000000000000000000000000003A
S315000040800000000000000000594C0020594C0020A0
S31500004090401A0020706C0400C8DA0300E01000200B
S311000040A0B410002000E00F00000000003B
S31500004200401A002049360200118700001587000079
S31500004210D5D100001987000021870000473602002B
S31500004220473602004736020047360200473602008C
S31500004230258700004736020047360200473602004F
S3150000424098870000988700009887000098870000EC
S315000042509887000079A50000CDB30000B94C000096
S31500004260988700009887000045A30000392B0100BD
S3150000427098870000988700009546000025460000B4
S31500004280988700009887000098870000473602004C
S3150000429098870000B19A0000988700009887000070
S315000042A098870000BD9B00009D9B0000988700003A
S315000042B0988700009887000098870000E10E0200AA
S315000042C0850E0200810E020039070200DD0E020093
S315000042D0890E0200A10E02008D0E020089F5010072
S315000042E0210F02009887000098870000018A0000CD
S315000042F098870000A9DC0000988700004736020076
S31500004300988700009887000098870000988700002B
S31500004310988700009887000098870000988700001B
S31500004320988700009887000098870000988700000B
S309000043309887000064
S31500004334F8B500BFF8BC08BC9E467047F8B500BF88
S31500004344F8BC08BC9E46704710B5054C237833B9B3
S31500004354044B13B1044800E000BF0123237010BDD1
S315000043648026002000000000B862040008B5034B54
S315000043741BB10349034800E000BF08BD000000006C
S3150000438484260020B8620400A3F5803A704700BF73
S31500004394174B002B08BF134B9D46FFF7F5FF002173
S315000043A48B460F461348144A121A39F030FA0E4B4C
S315000043B4002B00D098470D4B002B00D098470020C7
S315000043C4002104000D000D48002802D00C4800E02E
S315000043D400BF39F0B9F9200029000EF0DBFD39F0F1
S315000043E49FF900BF00000800000000000000000064
S315000043F4401A0020F0230020594C00200000000041
S315000044040000000007B5024601900B49012013F095
S3150000441409F8019A6AB9094BD3F87433DB0708D54E
S315000044240120074912F0FEFF03B05DF804EB01F02A
S315000044347FBC03B05DF804FBC8DA030000C0034088
S31500004444DFDA030037B56A46524903460868496805
S3150000445403F11C0403C26846191F51F8042F10F90E
S31500004464015B8C422A44D2B20A60F6D193F820202A
S31500004474511E092920D802221A6293F82420511EBB
S3150000448409293CD801225A6293F82820511E13297F
S315000044945ED801229A6293F82C20511E31296ED8D7
S315000044A40022DA621A6B063AD2B21A635A6B0332E4
S315000044B4D2B25A6303B030BDA2F10B01092901D867
S315000044C40422D9E7A2F11501092901D80622D3E766
S315000044D4A2F11F01092901D80822CDE7A2F1290179
S315000044E4092901D86622C7E7A2F13301092901D8AF
S315000044F40322C1E73D3A092ABFD85522BCE7A2F1F7
S315000045040B01092901D80222BDE7A2F115010929E7
S3150000451401D80322B7E7A2F11F01092901D8042211
S31500004524B1E7A2F12901092901D80522ABE7A2F1D5
S315000045343301092901D80622A5E7A2F13D0109297B
S3150000454401D807229FE7473A092A9DD808229AE705
S31500004554A2F11501132901D802229BE7A2F1290130
S31500004564132901D8032295E7A2F13D01132901D8A5
S3150000457404228FE7513A122A8DD80D228AE7A2F136
S315000045843301302901D801228BE7772A8AD9783A70
S31500004594D2B286E7F4DA03000022024B1A700AF05C
S315000045A409BD00BF602B00200022164B10B51A70FF
S315000045B40FF03AFC022820D10AF0BAFC044644F66D
S315000045C42061114823F0B8FE8CB901200F4912F07E
S315000045D429FF012008F0FAFC0D490246012012F0D9
S315000045E421FFBDE8104001200A4912F01BBF2246F4
S315000045F40120094912F016FFEBE70120074912F0E2
S3150000460411FFEEE7AC260020602B0020FDDA030044
S3150000461437DB030076DB03001ADB03005BDB0300F6
S3150000462438B50125134B144C9A6C03F500539A6460
S31500004634236B124ADB071563656204D4204608F02F
S31500004644BFF80F4B1D6301250A48E56008F0A8FA78
S315000046540C4A13887F2B06D8591911800A4A80B24E
S3150000466422F8130038BD2846BDE83840074912F041
S31500004674D9BE00BF0000064000C0044000D004407C
S3150000468400E00440AE3D00202E3D00208CDB0300FC
S31500004694064B9A6C03F500539A640222A3F5003381
S315000046A41A671022C3F8A020704700BF00C0054057
S315000046B410B5012088B0154912F0B4FE0D22002170
S315000046C4684639F0A4F80223114C6A4620460021B4
S315000046D48DF8063008F0C8F80E22002104A839F037
S315000046E496F80323204604A9ADF8123008F06FF8B3
S315000046F4236B4FF6FF738022E361A36943F0100333
S31500004704A361044B1A6008B010BD00BF9DDB030013
S3150000471400C0044000E100E02DE9F047344E8EB0BD
S315000047246D4634460FCC0FC594E8070001234FF4B9
S31500004734165A85E80700194618460422CDF808A03B
S3150000474407F03AFC042200231146032007F034FC48
S31500004754002304220121022007F02EFC4FF0020957
S315000047641023244FDFF89C8007F50052C2F8A030CE
S31500004774C2F870904FF001126946C7F8E425404626
S31500004784C7F8CC3507AD08F08FF90FCE0FC594E8FE
S315000047940700002385E80700012248460521CDF8D5
S315000047A424A007F009FC144B144CC7F8FC35042369
S315000047B42046C7F8EC3507A908F076F94FF400420D
S315000047C4E36C43F00403E3640D4BC3F880211A60E1
S315000047D4D8F84C2042F00102C8F84C204FF480422D
S315000047E4C3F880211A60FFF763FF0EB0BDE8F087B7
S315000047F424DF030000C00340020005000000064059
S3150000480400E100E000C0054008B501F091FA01227C
S315000048140021132001F098F901220221132001F04E
S3150000482493F901220421132001F08EF901220621B5
S31500004834132001F089F901220721122001F084F9DD
S3150000484401220521122001F07FF901220321122001
S3150000485401F07AF901221220114601F075F90022BD
S315000048640121132001F070F900220321132001F025
S315000048746BF900220521132001F066F900220721B5
S31500004884132001F061F900220621122001F05CF9DF
S3150000489400220421122001F057F9002202211220DD
S315000048A401F052F9BDE8084000221220114601F039
S315000048B44BB900000022024B1A70FFF7A5BF00BFD8
S315000048C4E037002008B501F033FA00221320114620
S315000048D401F03AF900220221132001F035F90022F1
S315000048E40421132001F030F900220621132001F0DF
S315000048F42BF900220721122001F026F900220521B6
S31500004904122001F021F900220321122001F01CF9E2
S3150000491400220121122001F017F901221320114669
S3150000492401F012F901220321132001F00DF90122ED
S315000049340521132001F008F901220721132001F0B3
S3150000494403F901220621122001F0FEF801220421B6
S31500004954122001F0F9F801220221122001F0F4F8E4
S31500004964BDE8084001220021122001F0EDB8000044
S31500004974002307B501200093034A044B044912F0AF
S3150000498451FD03B05DF804FBAFDB0300982304007C
S31500004994C0DB0300094B1870094B1A7801321A70F0
S315000049A4084A117881421CBF107001224FF4FA7133
S315000049B4054818BF1A7023F0BFBC00BF5A43002035
S315000049C45B430020EB450020F428002038B50D4653
S315000049D4044601F0ADF9002D71D0012C0AD1002254
S315000049E41320114601F0B0F822462146132001F0A7
S315000049F4ABF819E0022C09D0032C0FD100220421B4
S31500004A04132001F0A1F80122052115E00022214618
S31500004A14132001F099F801220321E7E7042C04D0BE
S31500004A24052C0ED0062C15D038BD002206211320E5
S31500004A3401F08AF8012207211320BDE8384001F06D
S31500004A4483B800220721122001F07EF801220621F4
S31500004A541220F2E700220521122001F075F8012246
S31500004A640421F5E7022C08D0032C0DD101220421E0
S31500004A74132001F069F82A46C6E7012221461320CD
S31500004A8401F062F82A46C7E7042C0AD0052C0FD099
S31500004A94062CC9D101220521122001F055F82A4617
S31500004AA4DEE701220621132001F04EF82A46C2E76A
S31500004AB401220721122001F047F82A46C7E7012CF4
S31500004AC4D0D122462946132001F03EF82A46214633
S31500004AD48CE700002DE9F0416F4C8EB023889BB221
S31500004AE4002B57D001206D4912F09CFC00256C4F19
S31500004AF46C4E3B889D4250DB6E460023314634F8AB
S31500004B041320013392B20E2B41F8042BF7D1304611
S31500004B14FFF798FC0120644912F084FC0025DFF8B5
S31500004B24848156F8043B4146DBB224F8153034F848
S31500004B341520012092B2013512F092FC0E2DF0D10F
S31500004B4400260120594912F08BFC3546DFF86081B6
S31500004B5434F8153018F8012B9BB2934210D1013664
S31500004B64072E0DD1238A9BB2662B09D1608A80B2A7
S31500004B74012830D1A38A9BB2042B17D1FFF744FE38
S31500004B840135082DE4D180220021434838F03FFE48
S31500004B9400233B800EB0BDE8F08134F81520314681
S31500004BA4012092B212F05CFC0135A2E7A38A9BB203
S31500004BB40D2BE3D0A38A9BB2012B05D11846E18ABB
S31500004BC489B2FFF703FFDBE7A38A9BB2022B0ED160
S31500004BD4E18A89B2F5E7608A80B202280CD1A38AF9
S31500004BE49BB2012BF4D0A38A9BB2022BE6D0A38AF4
S31500004BF49BB2032BC4D1EBE7608A80B203280BD1A6
S31500004C04A38A9BB2012BE3D0A38A9BB2022BDFD0EB
S31500004C14A08A80B20328EDE7608A80B204280FD107
S31500004C24A38A9BB2012BD3D0A38A9BB2022BCFD0EB
S31500004C34A38A9BB2032BA3D1E18A042089B2C0E7DD
S31500004C44608A80B2052810D1A38A9BB2012BBFD0FB
S31500004C54A38A9BB2022B03D1E18A052089B2B0E76D
S31500004C64A38A9BB2032B8BD1F6E7638A9BB2062BEE
S31500004C7486D1A38A9BB2012B03D1E18A062089B28D
S31500004C849FE7A38A9BB2022BF7D0A38A9BB2032B7E
S31500004C947FF476AFF1E700BF2E3D0020D4DB03009E
S31500004CA4AE3D0020FEDE0300E2DB030023E003004A
S31500004CB41B41002008B5064B596903F500525161A2
S31500004CC40222DA60FFF706FF0022024B1A8008BDB3
S31500004CD400C00440AE3D0020024630B500EB810121
S31500004CE44AF201054FF6FF708A4200D130BD08240E
S31500004CF452F8043BDBB2584000F00103400813B1FC
S31500004D0480EA050398B2013CF6D1EDE7F8B50368ED
S31500004D14054609330B6043680C46043B4B608368C5
S31500004D2405338B60C368023BCB60036901330B61B7
S31500004D344369073B4B61836909338B61C369023B52
S31500004D44CB6190F82030022B5DD101F007FE0A23D7
S31500004D54B0FBF3F202FB1300013080B2206295F837
S31500004D64243095F82870012B95F82C6040F08E803D
S31500004D7401F0F4FD0A23B0FBF3F202FB1300013049
S31500004D8480B26062012F40F0CF8001F0E7FD14236A
S31500004D94B0FBF3F202FB1300013080B2A062002ED6
S31500004DA440F0EF8001F0DAFD3223B0FBF3F202FBB0
S31500004DB41300013080B2E06202222B6B012006331D
S31500004DC423636B6B7649033B6363764B764F1A67B3
S31500004DD41022C3F8A02012F025FB744E251F34348C
S31500004DE455F8041F3846C9B207F0E0FE31460120E3
S31500004DF42A6812F035FBAC42F2D10120BDE8F84036
S31500004E046B4912F02DBB042B08D101F0A7FD0A2330
S31500004E14B0FBF3F202FB13000B309EE7062B08D11E
S31500004E2401F09CFD0A23B0FBF3F202FB13001530DC
S31500004E3493E7082B08D101F091FD0A23B0FBF3F2A6
S31500004E4402FB13001F3088E7662B08D101F086FDAC
S31500004E540A23B0FBF3F202FB130029307DE7032B90
S31500004E6408D101F07BFD0A23B0FBF3F202FB130029
S31500004E74333072E7552B7FF472AF01F06FFD0A23CE
S31500004E84B0FBF3F202FB13003D3066E7022B08D1B8
S31500004E9401F064FD0A23B0FBF3F202FB13000B30AE
S31500004EA46EE7032B08D101F059FD0A23B0FBF3F298
S31500004EB402FB1300153063E7042B08D101F04EFD05
S31500004EC40A23B0FBF3F202FB13001F3058E7052B4D
S31500004ED408D101F043FD0A23B0FBF3F202FB1300F1
S31500004EE429304DE7062B08D101F038FD0A23B0FB23
S31500004EF4F3F202FB1300333042E7072B08D101F02B
S31500004F042DFD0A23B0FBF3F202FB13003D3037E715
S31500004F14082B7FF437AF01F021FD0A23B0FBF3F22F
S31500004F2402FB130047302BE7022F08D101F016FDD0
S31500004F341423B0FBF3F202FB130015302DE7032F05
S31500004F4408D101F00BFD1423B0FBF3F202FB1300AE
S31500004F54293022E7042F08D101F000FD1423B0FB09
S31500004F64F3F202FB13003D3017E70D2F7FF417AF62
S31500004F7401F0F4FC1323B0FBF3F202FB13005130EF
S31500004F840BE7012E08D101F0E9FC3123B0FBF3F263
S31500004F9402FB130033300DE7EB6A7833E3620BE769
S31500004FA4F9DB030000D0034000C00540FEDE030029
S31500004FB423E00300F0B5012805460E468FB033D032
S31500004FC4022833D0032833D0042833D0052833D01D
S31500004FD4062833D11B4C66230C21C4E90835A66286
S31500004FE42046FFF779FEC3B2C0F30F202A46236397
S31500004FF4606333460120144912F014FA134F251F37
S3150000500404F1340655F8042F3946012012F028FA23
S31500005014AE42F7D101200E4912F004FA6946204641
S31500005024FFF774FE0FB0F0BD0A4CD4E70A4CD2E782
S315000050340A4CD0E70A4CCEE70A4CCCE700231B62A5
S31500005044FFDE00BF602A00200CDC03002EDC030018
S3150000505423E003003429002070290020AC29002015
S31500005064E8290020242A0020F7B50022A74BA84FE0
S31500005074A84D1A7001202B783A78A74912F0D2F974
S3150000508400F056FE3C78012C26D12B78042B14D044
S315000050942B780C2B20D90120A04912F0C3F9FFF775
S315000050A411FC4FF4FA619E4823F046F901209D4B0A
S315000050B42978D862FFF77EFF0EE020469A4912F05F
S315000050C4B1F9FFF7FFFB974B2046DC622978FFF71F
S315000050D471FF3B78012BDBD03C78022C43D12E7830
S315000050E4042E27D1FFF7EEFB0EF09EFE022819D000
S315000050F401208E4912F096F9012009F07FFD4FF444
S31500005104FA61874823F018F94FF47A61884823F046
S3150000511413F90120874912F085F900233B702B709F
S3150000512403B0F0BD0120844912F07CF9804823F0D5
S31500005134F7F8E4E70C2E47D926F0BEFF01901EF0DF
S3150000514449FE019A01207D4912F06CF9FFF7BAFB7A
S315000051544FF47A71724823F0EFF84FF4FA61744809
S3150000516423F0EAF8D9E7012C40F0138128780128C6
S3150000517440F01281034602467149019012F052F939
S31500005184684B01982978D862FFF714FFC5E7322CDB
S31500005194C3D101226B49104612F044F90120614B38
S315000051A40321D862F0E73C2C27D12E78022E18D1A1
S315000051B4334622466249012012F034F90122624B39
S315000051C42978DA620220DFE7012EEED13346224641
S315000051D430465B4912F026F95B4BDE62204629789D
S315000051E4D2E73C2C99D102225649012012F01AF931
S315000051F40122554B0321DA62E4E7032C0FD0462C37
S3150000520425D12B78022B15D122464D49012012F0C7
S3150000521409F901224D4B2978DA620320B4E72E7886
S31500005224012EEED1334622463046454912F0FAF8AD
S31500005234464BD2E7462C7FF470AF03224149012046
S3150000524412F0F0F80122414B0321DA62E5E7042C5F
S315000052540FD0502C25D12B78022B15D12246384954
S31500005264012012F0DFF80122394B2978DA62042092
S315000052748AE72E78012EEED133462246304630494F
S3150000528412F0D0F8324BA8E7502C7FF446AF042234
S315000052942C49012012F0C6F801222D4B0321DA62B3
S315000052A4E5E7052C06D05A2C1FD12B78022B0FD1FB
S315000052B4224603E02B78012BF7D105222049012051
S315000052C412F0B0F80122234B2978DA6205205BE755
S315000052D45A2C7FF422AF05221A49012012F0A2F8B3
S315000052E401221C4B0321DA62F0E7062C36D0642C2B
S315000052F47FF413AF2B78022B3ED1224601201049AE
S3150000530412F090F80122144BDA6232E0F4280020FD
S315000053145A4300205B43002032DC030060DC0300B8
S31500005324E03700203429002047DC030079DC030041
S31500005334AC260020C2DC030097DC0300DBDC0300A0
S31500005344EFDC030012DD030070290020AC290020E5
S31500005354E8290020242A0020602A00202E78012E25
S31500005364C8D1334622463046114912F05BF8114B38
S31500005374DE622978062007E7642C7FF4CEAE062287
S315000053840D49012012F04EF801220A4B0321DA627C
S31500005394F0E7322C7FF407AF2B78022B7FF4F7AEBD
S315000053A401202246024912F03DF80120034BE9E6AA
S315000053B4EFDC0300602A002012DD030034290020FC
S315000053C4002208B5284B1A70284B186801280CD1FE
S315000053D4274B1A78002A45D12649187012F022F86C
S315000053E43220BDE80840FFF7D5BA02280AD1224B7D
S315000053F41A78002A36D101202049187012F012F8C2
S315000054043C20EEE7032809D11D4B1A7852BB012034
S315000054141C49187012F006F84620E2E7042809D160
S31500005424194B1A78F2B901201849187011F0FAFFCD
S315000054345020D6E7052809D1154B1A7892B90120D0
S315000054441449187011F0EEFF5A20CAE7062809D14C
S31500005454114B1A7832B901201049187011F0E2FF85
S315000054646420BEE708BD00BF9C260020A4370020A8
S31500005474654400202CDD0300684400203EDD030063
S315000054846B44002050DD03006E44002062DD0300FF
S315000054947144002074DD03007444002086DD03009B
S315000054A400229F4B9F4970B51A709F4A4B6910782A
S315000054B403F0010398421DD04B699C4C03F0010391
S315000054C49B4D1370002B40F0F480237833B94FF4CE
S315000054D47A71984822F030FF012323702B7813B990
S315000054E40122954B1A700120944911F09BFF012269
S315000054F4934B1A608B49934A4B6F1078C3F380031E
S3150000550498421DD04B6F904CC3F380038F4D13709C
S31500005514002B40F0E980237833B94FF47A7185483B
S3150000552422F00AFF012323702B7813B90122884B3A
S315000055341A700120874911F075FF0222804B1A6008
S315000055447849854A4B6F107803F00103984222D0BC
S315000055544B6F824C03F00103814D1370002B40F016
S315000055642B8101207F4911F05DFF237833B94FF475
S315000055747A71704822F0E0FE012323702B7813B968
S315000055840122794B1A7003226D4B4FF47A716948E4
S315000055941A6022F0D1FE6349744AD1F8A430107817
S315000055A4C3F3C003984223D0D1F8A430704CC3F39C
S315000055B4C003704D1370002B40F0198101206E4911
S315000055C411F030FF237833B94FF47A71594822F039
S315000055D4B3FE012323702B7813B90122674B1A708B
S315000055E40422574B4FF47A7152481A6022F0A4FEF3
S315000055F44C49634AD1F8A4301078C3F38003984227
S3150000560423D0D1F8A4305F4CC3F380035E4D1370EE
S31500005614002B40F0078101205C4911F003FF237839
S3150000562433B94FF47A71434822F086FE012323707E
S315000056340522434B1A602B7813B90122544B1A7076
S315000056444FF47A713B4822F077FE3649514A4B6C47
S31500005654107803F00103984222D04B6C4E4C03F0B1
S3150000566401034E4D1370002B40F0F78001204C4986
S3150000567411F0D8FE237833B94FF47A712D4822F00D
S315000056845BFE012323702B7813B90122454B1A7054
S3150000569406222B4B4FF47A7126481A6022F04CFEF0
S315000056A4122000F05DFBBDE8704064211C4822F026
S315000056B443BE01203C4911F0B5FE2E7856B91E4B67
S315000056C41B783BB10120FFF765F9384B1A683AB9E4
S315000056D401221A600023174A2B702370137009E7FE
S315000056E4012A08BF1E60F5E70120314911F09AFE30
S315000056F42E7856B9164B1B783BB10220FFF74AF9B0
S315000057042C4B1A683AB901221A600023094A2B70F5
S315000057142370137014E7012A08BF1E60F5E700BF63
S31500005724A426002000C00340124100206644002045
S31500005734654400209C2600206744002098DD030071
S31500005744A437002013410020694400206844002047
S315000057546A440020B9DD0300144100206C44002093
S315000057646B440020DADD03006D440020154100205F
S315000057746F4400206E440020FBDD030070440020CB
S315000057841641002072440020714400201CDE0300F0
S3150000579473440020174100207544002074440020FF
S315000057A43DDE030076440020A8DD03006C290020BA
S315000057B4C9DD0300A82900200120354911F032FE75
S315000057C42E7856B9334B1B783BB10320FFF7E2F82A
S315000057D4314B1A683AB901221A6000232F4A2B70FA
S315000057E423701370D7E6012A08BF1E60F5E701206F
S315000057F42B4911F017FE2E7856B92A4B1B783BB16C
S315000058040420FFF7C7F8284B1A683AB901221A6030
S315000058140023224A2B7023701370E9E6012A08BF7D
S315000058241E60F5E70120214911F0FCFD2E7856B9DA
S315000058341F4B1B783BB10520FFF7ACF81D4B1A68CC
S315000058443AB901221A600023144A2B70237013708C
S31500005854FBE6012A08BF1E60F5E70120164911F090
S31500005864E1FD2E7856B9154B1B783BB10620FFF7A0
S3150000587491F8134B1A683AB901221A600023074AB1
S315000058842B70237013700BE7012A08BF1E60F5E71F
S31500005894EADD03006D440020E42900209C26002054
S315000058A40BDE030070440020202A00202CDE0300B7
S315000058B4734400205C2A00204DDE03007644002059
S315000058C4982A002008B50EF0AFFA02280CD100225F
S315000058D4064B01201A7007F079FBBDE80840024622
S315000058E40349012011F09EBD08BD00BF18360020F3
S315000058F43ADB030010B504460D49012011F092FD70
S31500005904912C0BD10EF090FA40B90120094911F0FF
S3150000591489FD4FF4FA61084822F00EFD0EF084FA70
S31500005924022803D10120054911F07CFD002010BD99
S315000059345EDE03007FDE0300AC260020A5DE030046
S3150000594470B503688EB05B88B3F57C4F2ED1037DAA
S3150000595482681B4CD9B20A292BD955232362D37BDF
S315000059640C216362937B1648A3620123E362FFF76B
S31500005974B3F9C3B2C0F30F20606323630220114955
S3150000598411F050FD00240E4D0F4E3146012055F8FE
S31500005994042B013411F064FD0E2CF6D101200B49C1
S315000059A411F040FD69460648FFF7B0F900200EB035
S315000059B470BDD05C04EB830141F80C0C0133C9E7DC
S315000059C4F4270020CCDE03002EDC030023E00300D2
S315000059D408B50A460120024911F024FD012008BD3C
S315000059E4E2DE030007B501200F4911F01BFD04F0A8
S315000059F4ADF801230B220421002006F0DDFA012371
S31500005A0402220021122006F0D7FA012300221220D6
S31500005A141146CDE9003306F075FA0020034903B0B8
S31500005A245DF804EB04F0AAB804DF0300094400009F
S31500005A34F0B52A4C87B0204604237F22252103F0A3
S31500005A44BDFB23880D2201339BB2238003932323BA
S31500005A54019303AB4FF601510093012041F2020377
S31500005A6410F088FA22881E49012011F0DBFC04ACF0
S31500005A741C4822F055FCFFF7B5FF08F0BFFA00F00A
S31500005A848BF800F0A1F9FEF747FE20460EF0E8FB7E
S31500005A94154907230A46E05C013B02F8010BFAD2DA
S31500005AA40822DFF860C0114F114E124D124C1348F4
S31500005AB411F8013B013A4CF8043B47F8043B46F81D
S31500005AC4043B45F8043B44F8043B40F8043BEFD15F
S31500005AD401200B4911F0A6FC07B0F0BD0C3D0020D7
S31500005AE40DDF0300A42600201B410020702900209E
S31500005AF4AC290020E8290020242A0020602A00205E
S31500005B04FCDA0300342900204BF66E635843642301
S31500005B14B0FBF3F0034B1860034B1A6BC3F8880011
S31500005B24704700BF843C00200080044007B5012371
S31500005B348DF807100DF107020146402008F0AAFA75
S31500005B4403B05DF804FB000010B40124122804FA23
S31500005B5401F3DCB20CD10E48017832B12143017055
S31500005B6412205DF8044BFFF7E1BF21EA0301F6E7D3
S31500005B74132809D1074801781AB12143017013206B
S31500005B84EFE721EA0301F9E75DF8044B704700BF2C
S31500005B94194100201A41002038B501203B4911F073
S31500005BA441FCFF210C20FFF7C1FFFF210D20FFF769
S31500005BB4BDFF002100240846FFF7B8FF002101209D
S31500005BC4FFF7B4FF324D334B214612201C702C7064
S31500005BD4FFF7ACFF29781320FFF7A8FF214601221F
S31500005BE41320FFF7B1FF012202211320FFF7ACFFB8
S31500005BF4012204211320FFF7A7FF01220621132007
S31500005C04FFF7A2FF012207211220FFF79DFF0122C1
S31500005C1405211220FFF798FF012203211220FFF726
S31500005C2493FF012212201146FFF78EFF224601211F
S31500005C341320FFF789FF224603211320FFF784FF71
S31500005C44224605211320FFF77FFF22460721132052
S31500005C54FFF77AFF224606211220FFF775FF224638
S31500005C6404211220FFF770FF224602211220FFF7BB
S31500005C746BFF224621461220FFF766FF2146BDE848
S31500005C84384001221220FFF75FBF00BF40DF030048
S31500005C941A4100201941002070B51D4E1D4C327862
S31500005CA423781D4D9A420CD91C4B1D48197822F0B5
S31500005CB443FB2078431C2370FFF726FF00232B6049
S31500005CC470BD07D2174B1648197822F035FB207899
S31500005CD4431EF0E70A21124822F02EFB6421124AE1
S31500005CE42B681278013312FB01F22B609A420F4B98
S31500005CF408BF1A78187808BF327022789042DFD12C
S31500005D040022074B1A70BDE87040FFF7FDBE00BFC6
S31500005D143C4500203B450020703C002058230020D1
S31500005D24903B0020562300205923002018410020D0
S31500005D3408B5064B0648197822F0FEFA054B1A7880
S31500005D44054B1A700022054B1A6008BD5823002023
S31500005D54903B0020572300203C450020703C002047
S31500005D64002310B588B08DF80830154B8DF8070060
S31500005D7403930DF107030493012302AA114803A90F
S31500005D84ADF814300692ADF81C3006F0CDFA0D4C81
S31500005D94012811D09DF80730122B0BD19DF808303D
S31500005DA4AA2B05D05A2B03D09A2B01D06A2B01D1EA
S31500005DB4FFF7BEFF08B010BD204606F0A7F9E7E7D7
S31500005DC4400004000000014A30B502251E4C89B08B
S31500005DD401201E4911F026FB0123E5600B22042154
S31500005DE4002006F0E9F80D220021684637F00FFD81
S31500005DF403236A46204601218DF8063006F034FD59
S31500005E0440F68513124A00211360226BC4F88830C9
S31500005E14236B4BF66E634FF48022E3610D4B04A8AB
S31500005E24C3F82C550125C3F834250E2237F0EFFCB0
S31500005E34204604A98DF8105006F0C9FCE560FFF76A
S31500005E4477FF09B030BD00BF0080044050DF030077
S31500005E54843C002000C00340AB28084A08D11368DC
S31500005E64032B05DC01330A210548136022F064BACA
S31500005E740023044913600B70704700BFC02B002039
S31500005E842829002023410020704700207047C37B47
S31500005E9410B523B9C47C14B901F078F800B981248B
S31500005EA4204610BD08B5C37B83B9C37C012B0FD034
S31500005EB4402B10D053B9017D82898B1C9A4216D38C
S31500005EC4806810F0E0FD08F02BF890B9812008BD39
S31500005ED408F040F8F9E7037D81899A1C914206D3BC
S31500005EE48268591C515CD05C14F028F8EDE78020D8
S31500005EF4EDE70020EBE7000008B5C37B7BB103693F
S31500005F040A4A23F47F03934209D1037D81895A1CEB
S31500005F14914206D38268D05CFFF7B7FF18B9812097
S31500005F2408BD8020FCE70020FAE700BF021000024B
S31500005F3410B5437D0446012B11D10368028A5988A2
S31500005F4458790EF04DFD50B123685B88033B9BB234
S31500005F54162B01D9C32001E0164AD05C10BD637D1F
S31500005F64002BF7D12368228A598858790EF02FFD21
S31500005F740028EFD023685B88082B18D007D88BB18C
S31500005F84032BE7D12046BDE81040FFF78BBF0F2B4C
S31500005F940DD04FF601529342DCD12046BDE81040A5
S31500005FA4FFF7AABF2046BDE81040FFF770BF812067
S31500005FB4D4E700BF5BDF0300704701207047012070
S31500005FC470470120704770470020704700207047D3
S31500005FD4002070470020704700207047002070475B
S31500005FE4002070470120704701207047B520704794
S31500005FF4002070470020704700207047002070473B
S315000060040020704770470020704770477047002093
S315000060147047842070477047704770477047002068
S31500006024704700F09BBC03207047002070470000B7
S31500006034034B1B681878012808BF0220704700BF6D
S315000060446433002070470020704700000123034A90
S31500006054C0E9032300220270184670470100FEFFC0
S3150000606470470020704700207047002070470020CA
S315000060747047002070470020704700207047704723
S31500006084B5207047002070470020704770470020F5
S315000060947047704770477047B52070477047704720
S315000060A4704700207047704770477047704700007C
S315000060B40023FF21084A137082F8783082F865308D
S315000060C482F8773082F8793082F87A1082F87B3059
S315000060D4024A1360704700BFA3440020F83500202D
S315000060E4044B184490F8663090F86500181AC0B24C
S315000060F4704700BFA3440020F8B5214C94F87B20D8
S315000061041044C2B21046FFF7EBFF4FF0000C0746EF
S3150000611460461C4B224492F865501E7825445FFA6B
S315000061248CF2974224D96B7811B10AB92D2B17D06A
S31500006134782B21D0582B05D108B137220AE0013A31
S31500006144012A16D9602B19D8402BF6D83A2B34BF1E
S31500006154302200229B1ADBB29E4205D900FB063090
S315000061640CF1010C0135DAE70523002084F87930B7
S31500006174F8BD10260020F3E70028E0D05722E9E70F
S31500006184A344002090230020F8B50C468D680A68C5
S3150000619406462849202003F013FA63687BB92020B9
S315000061A4254903F00DFA20200CF0A8FA20202349F3
S315000061B403F01AFABDE8F84020200CF09FBA002E2E
S315000061C4F1D06C1E1E4E1F4D1F4F14F8013F23B90C
S315000061D41A49202003F008FAE5E7752B18D0762B28
S315000061E418D0772B18D0732B18D0722B18D0712B8C
S315000061F418D0622B18D06E2B18D02A2B18D013491E
S31500006204134A212B08BF1146202003F0D9F9DCE7F5
S315000062142946F9E73146F7E73946F5E70D49F3E745
S315000062240D49F1E70D49EFE70D49EDE70D49EBE7B8
S315000062340D49E9E7CF03040088DF0300FCDA030015
S315000062449DDF030092DF0300A9DF03008FDF030055
S31500006254CADF0300B5DF03007CDF0300BFDF0300F2
S3150000626472DF030087DF03008CDF0300FFF720BF24
S31500006274034B93F8770093F87B30C01AC0B270478B
S31500006284A34400200021FFF737BF000010B50A4BD6
S3150000629493F87B20024453FA82F292F86520134461
S315000062A45C78A4F12D0359425941FFF725FF2D2CA3
S315000062B408BF404210BD00BFA344002038B5C44304
S315000062C4094DE40F95F87B200244D2B221B1104661
S315000062D4FFF706FF001B087045FA82F292F8650084
S315000062E404440248204438BDA3440020A4440020AA
S315000062F42DE9F34115460E460DF107011C46FFF73D
S31500006304DDFF9DF807308046AB4288BF8DF8075005
S315000063149DF807700CB1EC1BE4B22246002130460E
S3150000632437F075FA3A464146301937F056FA384688
S3150000633402B0BDE8F08138B50C4601230822FFF708
S31500006344D7FF04F10803621E043413F8011D12F882
S31500006354015FA3421D701170F7D138BD38B50546EB
S3150000636401460120FFF710FFD5E901436CB91C462D
S31500006374084D236863B12946202003F021F92146FC
S315000063840020FFF701FF0C34F3E71B786E2BEFD0E8
S3150000639438BD00BFE938040008B52020034903F0DE
S315000063A40FF9BDE8084020200CF0A8B9E5DF03008A
S315000063B410B5FFF7F1FF054C236803B910BD21465C
S315000063C40020FFF7E1FE0C34F6E700BFA4F8030053
S315000063D41E4B2DE9F0471E4E53F820201D49202060
S315000063E403F0EEF833681BB9BDE8F047FFF7E0BFEA
S315000063F4FFF7D2FF0024184DDFF8648095F87B3050
S31500006404E7B2013B9F4204DB3068BDE8F047FFF783
S31500006414A5BF4FF0000A45FA84F393F86590A944A2
S315000064243846FFF75DFE5FFA8AF3834205D32020E0
S315000064340A4903F0C5F80134E0E74B4441462020FD
S315000064445A7803F0BDF80AF1010AE9E7081F0020AB
S31500006454F835002025E00300A3440020EA380400B0
S315000064641F0304002DE9F84F824C94F87730002B73
S3150000647400F09680804B04F101081B7813F0010F9D
S315000064841BD000257D4EE8B2FFF72AFE44FA85F3B9
S3150000649493F865100246414420200CF02AF931464F
S315000064A4202003F08DF8013594F87720EBB29A4258
S315000064B4E9D82020724903F083F8002694F877A0DF
S315000064C4704A44FA86F3304693F86590FFF708FE5F
S315000064D44FF0000C6546C1441768002F50D0CE46D5
S315000064E4013F18E023B9002D47D115460C32F3E7D6
S315000064F41EF8011BA1F1410BBBF1190F98BF203106
S31500006504A3F1410B98BFC9B2BBF1190F9CBF20334D
S31500006514DBB28B42EAD1AEEB0901814217F8013FA7
S31500006524E0D1002BDFD11546574B01361D6094F898
S315000065347B30F6B2013384F87B30D5E90132A3B35C
S3150000654412786E2A30D03F2A23D04FF000094FF03C
S31500006554050BC846072394F87710AA68B14212F8C7
S31500006564087029D8AFB1424453782A2B11D0212F71
S315000065741CBF032384F879300BE04FF0010CB5E718
S31500006584BCF1000F01D1002DCED10223002584F8E1
S31500006594793094F87900002868D168680FF046FFCE
S315000065A4BDE8F84FFFF784BD1A46B24589D80323E0
S315000065B4154684F87930ECE7622F30D006D8002FE0
S315000065C452D0212F3AD084F8793037E0732F15D87A
S315000065D4702FF8D9732F1FD0722F47F6FF7A18BF82
S315000065E44FF0FF3A01214846FFF786FD50454FF02C
S315000065F4070323D9042284F879201FE0A7F1750242
S31500006604022AE0D8752F04D0762FE3D14FF6FF7A0D
S31500006614E8E74FF0FF0AE5E74FF07F0AE2E794F870
S315000066247B204A4454FA82F292F865202244527836
S31500006634222A03D07B2A01D084F879B0AA6842447E
S3150000664452782A2A94F879201CBF08F101085FFAC7
S3150000665488F8002A9DD1212F1FBF013609F10109AF
S31500006664F6B25FFA89F976E70322C4E7FFF7B0FECC
S3150000667496E700BFA34400207A450020EA380400C8
S3150000668422E00300A4F80300F83500202DE9F341C5
S3150000669406460D464FF000085C4C5D4F66B9284629
S315000066A40DF107010CF020F878B1262800F0AA8035
S315000066B4012384F879304BE0002D00F0A38016F80E
S315000066C4013B013D8DF80730EDB23A789DF807306D
S315000066D40D2A3B7001D10A2BE0D00D2B0CD0A3F16F
S315000066E40A025142514122788846042AD6D8DFE864
S315000066F402F0051D263C31000121F4E721B1FFF724
S31500006704B1FE4FF00108C9E7202B64D0222B07D134
S315000067140223237094F87820642A5ED10623C8E7FE
S315000067247B2B01D10323F4E70123F2E709B9202BDC
S31500006734F0D194F87730112B40D10323B9E7222BFB
S31500006744F7D00029E6D005234FF0010884F8793004
S3150000675404232370B8F1000FA0D094F8790008B18F
S31500006764FFF736FEFFF7A4FC98E77D2B94F87A0032
S3150000677403D1FF28DDD005239BE7602B13D8402BDC
S3150000678413D83A2B34BF302200229A1AD2B20F2AD7
S3150000679410D8FF280BD0FF2302EB00128DF8072038
S315000067A484F87A30B6E75722EFE73722EDE784F824
S315000067B47A2073E7202B3FF471AFDCE70133DBB2B9
S315000067C494F8782084F87730234483F865200023EE
S315000067D42370002993D1884660E72378012B09D1D9
S315000067E49DF80730A3F1410119299CBF2033DBB280
S315000067F48DF807309DF80710A3180132597084F8F4
S3150000680478204BE7404602B0BDE8F081A34400205F
S31500006814EA45002049BA89B24840C0F3031343400D
S31500006824180380B258405B0103F4FF535840704785
S315000068341FF0DCBD7047704770477047704770475C
S31500006844704770477047704770477047704700201D
S3150000685470477047704700207047704770470020A4
S315000068647047704770477047002070477047012093
S3150000687470470120704770477047704770477047EC
S31500006884704770472DE9F0470024204EDFF89C90AE
S31500006894DFF89CA05FFA84F8404620F0DBFFFF286F
S315000068A405460CD122461A49307802F09DFE30780E
S315000068B401340BF023FF152CECD1BDE8F087154B02
S315000068C447B233EA270328BF534659F8242012490E
S315000068D4307802F089FE002FE9DA14B1B8F1030F1B
S315000068E408D10E4B15F0010F0D49307808BF194633
S315000068F402F07AFE0A2CDAD10A4B15F0010F0A4986
S31500006904307808BF194602F06FFED0E7E72300206F
S31500006914E1E00300C839040009E10300BAE003001A
S31500006924A4E00300D6E00300CCE0030008E2030081
S31500006934FCDA030082B2074B4AB1000C1A8008BF86
S315000069444FF6CE22044B14BF18801A8070474BF6BC
S31500006954EF62F2E74A2300204C2300200B4BB3F9E5
S3150000696400201888002AB8BF80F0620042001A800E
S31500006974074AB2F9001013880029BCBF83F4805378
S3150000698483F00B0359001180584070474A230020B6
S315000069944C2300200022034B1870034B1970034B41
S315000069A41A7070475D4300205C430020E2450020D6
S315000069B42DE9F74FDFF89890064699F800300F4610
S315000069C4002B41D04FF6FB7398423DD80025DFF8E3
S315000069D48480DFF884A098F800409AF8000069469D
S315000069E450FA85F0C0B22BF0D9FB08223946684626
S315000069F45FFA85FB36F0D4FEF8B95C4698F80030A9
S31500006A04A3420AD199F80020631CDBB29A4288F8A3
S31500006A14003004BF002388F800309AF80030394665
S31500006A241C44E4B220462BF0F7FC68B931462046F4
S31500006A3403B0BDE8F04F2BF07FBB99F80020013579
S31500006A44EBB29A42C9D8D9E703B0BDE8F08F00BFCC
S31500006A545C430020E24500205D430020024B187889
S31500006A6400F07F00704700BF554C0020034B187898
S31500006A740130C0B2187000F07F007047554C0020FA
S31500006A841FB5030A8DF80E300323009303AB8DF86C
S31500006A940D0000F0CFF905B05DF804FB1FB58DF8C5
S31500006AA40F100421030A8DF80E30009103AB8DF804
S31500006AB40D0000F0BFF905B05DF804FBF0B589B030
S31500006AC41768BDF838509DF83C60CDF809705768D2
S31500006AD48DF81250012E4FEA1525DDF840C0BDF899
S31500006AE44440CDF80D708DF811308DF813508DF8A3
S31500006AF4146016D0032E1BD1DCF80030CDF8153007
S31500006B04DCF80430CDF819309DF848308DF81D3086
S31500006B1416230093BDF84C2002AB00F08BF909B0A4
S31500006B24F0BD8DF81540240A0F238DF81640F0E7C2
S31500006B340120F4E71FB50446084611461A46022307
S31500006B448DF80D100093214603AB00F073F904B0E1
S31500006B5410BD10B514461A460B6886B0CDF80D3034
S31500006B644B683421CDF811300A23009303AB8DF81A
S31500006B74154000F05FF906B010BD000030B50024E2
S31500006B8485B0ADF80A20021D92B2012A1D46ADF861
S31500006B940840ADF80610ADF8044003D94FF6FF726D
S31500006BA4904207D1064A2B46127801A929F050FBD8
S31500006BB405B030BD014601AA204629F00FFCF7E7CF
S31500006BC4EF2300202DE9F04F2DED028B87B00C4604
S31500006BD41D46174600904AB3104621F0C9FFC0F37C
S31500006BE4470A2DB3284621F0C3FFC0F34708FFF731
S31500006BF43DFF009B8DF810008DF811308DF8134081
S31500006C041B0A00220621240A04A88DF812308DF8E6
S31500006C1414408DF815A022F0A9F8ADF80E0048B975
S31500006C24182007B0BDEC028BBDE8F08F9246D8E77A
S31500006C34A846DCE74FEA4A01C9B201F1060B07315F
S31500006C445FFA81F901EB48015FFA8BF3C9B20DF1E2
S31500006C540E0008EE103A22F081FA04460028DFD12D
S31500006C64834606265FFA8BF18A45BDF80E3011D8A5
S31500006C74424618EE101A184622F0E4FAE6B2B04577
S31500006C84BDF80E3027D80621BDF848200098FFF736
S31500006C9475FFC6E7490001F0FE013846019322F06C
S31500006CA4BDFA019B02463146184622F0CBFABDF8DE
S31500006CB40E30711FC9B23846019322F0AFFA019B18
S31500006CC4711C0246C9B21846023622F0BBFA0BF111
S31500006CD4010BF6B2C6E77600F6B2314628460193B2
S31500006CE422F09CFA019B02464946184622F0AAFA6B
S31500006CF4711CC9B22846BDF80E7022F08FFA09F14C
S31500006D0401010246C9B2384609F1020922F09AFA8B
S31500006D1401345FFA89F9B1E7F0B589B00E4602A9E4
S31500006D2405460DF051F900287ED0FFF79FFE8DF839
S31500006D34100020F04FFF8DF8110020F04BFF3C4A65
S31500006D44000A13688DF81200CDF8133053680F212A
S31500006D54CDF81730BDF8083000228DF81C301B0A18
S31500006D648DF81D309DF80D3004A88DF81B508DF854
S31500006D741E3021F0FBFFADF80600002856D0002790
S31500006D849DF80D30FAB2934216D801230DF10E0187
S31500006D941A460DF1060022F025F800279DF80E305C
S31500006DA4FAB2934224D8324620210020BDF8063098
S31500006DB4FFF7E4FE09B0F0BD002128460DF030F9D6
S31500006DC4012304461A468DF805000DF105010DF15F
S31500006DD4060022F007F80123240A1A460DF10501DC
S31500006DE40DF106008DF80540013721F0FBFFC7E7DA
S31500006DF4012128460DF014F9012304461A468DF89C
S31500006E0405000DF105010DF1060021F0EBFF01234C
S31500006E14240A1A460DF105010DF106008DF8054008
S31500006E24013721F0DFFFB9E7A320C3E71820C1E744
S31500006E3460450020F7B50E469DF820101C461746FF
S31500006E4401910546FFF712FE0022207001992046A3
S31500006E5421F08CFF034638B13A463146284603B042
S31500006E64BDE8F040FFF78ABE182003B0F0BD08B5B0
S31500006E74FEF7DEFD11F0A2FBBDE8084007F0B8BF3F
S31500006E8408B5FFF7C2F8BDE8084011F0C5BB08B560
S31500006E94FFF7BCF8BDE8084008F00ABA7047FEF7E9
S31500006EA44FBDFFF7E6B80020704738B504460D46D7
S31500006EB4FFF7F9F82946204607F0B8FF2946204689
S31500006EC4BDE838400CF098B8FFF7D5B8FFF7DFB83F
S31500006ED403220821012012F069B8022208210120A8
S31500006EE412F064B807220821012012F05FB80622C6
S31500006EF40821012012F05AB804220821012012F0B8
S31500006F0455B805220821012012F050B800220821A4
S31500006F14012012F04BB808220120114612F046B89F
S31500006F2401220821104612F041B840220321012013
S31500006F3412F03CB801220321104612F037B80022A1
S31500006F440321012012F032B802220321012012F09B
S31500006F542DB801220021092012F028B8002307B514
S31500006F64CDE90033012369464FF0FF308DF8023036
S31500006F7414F0C2FA003818BF012003B05DF804FB10
S31500006F8401207047012070470120704710B5084C56
S31500006F9423681B6858790EF038FC23681B685879F7
S31500006FA4FFF73AF8002011F0CBFC012010BD00BF1A
S31500006FB4603300202DE9F74F06460D4614461F465A
S31500006FC44FF0010BDFF8789003F10C0A15B903B002
S31500006FD4BDE8F08F102DA84628BF4FF010083A469A
S31500006FE4164B5FFA88F152F8040B524543F8040B2A
S31500006FF4F9D101919AF8002011481A70002389F8F2
S315000070040F4089F800B089F80E302BF0A1FA324609
S3150000701401340B480199E4B212F801CB10F8013B94
S3150000702483EA0C0302F8013C931BDBB29942F3D8C2
S31500007034A5EB08051646ADB2C8E700BF8F4500208C
S315000070448E4500202DE9F74F01930D9B8046009352
S3150000705403461646BDF83090324A0F4600F10C013D
S3150000706453F8040B8B4242F8040BF9D11B784FF00A
S31500007074020A137049232C4C237020464FEA192325
S31500007084A37384F80F902BF063FA5246237883EAAD
S31500007094162323706378734063704FF0000B1BE074
S315000070A4C2F11005A6EB0B039BB2ADB29D4228BFFD
S315000070B41D4600231FFA83FCD018AC45C0B21BD36F
S315000070C42A44D2B2AB44102A2F441FFA8BFB03D1B5
S315000070D420462BF03DFA0022B345E1D312B12046F7
S315000070E42BF036FABAF1010F4FF000020ED04FF032
S315000070F4010A4E46019FD0E717F803C014F800E0D2
S3150000710401338CEA0E0C04F800C0D3E72368009917
S3150000711400980B604346042103B0BDE8F04FFFF727
S3150000712449BF00BF8F4500208E450020F7B5099F53
S31500007134BDF820500646CDE900571C46FFF782FFEE
S315000071442DB13346012229462046FFF733FF00209E
S3150000715403B0F0BD2DE9F7431D4604460E46174617
S31500007164BDF82890DFF834800346494628460122B4
S31500007174FFF720FF2B463A4631462046CDE90098D4
S31500007184FFF760FF042241460B9836F009FB0028FE
S3150000719414BF7E20002003B0BDE8F0837D440020A8
S315000071A473B51C46044D8B181E59CDE900452E6057
S315000071B4FFF7D0FF02B070BD3946002000207047AB
S315000071C40020704700207047704770472DE9FF4143
S315000071D40025264E264FDFF8A8800DF05DF8ECB2A8
S315000071E4A0420DD80DF058F801900DF053F803465F
S315000071F40220019A1F4904B0BDE8F04110F012B90B
S3150000720420460DF10D020DF10E010DF041F830B1DD
S315000072140220194910F006F904B0BDE8F0812246AF
S3150000722431460220BDF80E3010F01AF99DF80D0013
S31500007234FF2808D10CF0F4FD41460246022010F066
S31500007244F1F80135C9E70DF10D020DF10E010DF04E
S315000072541FF830B939460220BDF80E2010F000F9A7
S31500007264E4E70220054910F0FBF8D5E7BEFD03006C
S31500007274C2FD0300DDFD0300A8FD0300CCFD0300F1
S31500007284D2FD030008B502200F4A104910F0CAF8CF
S315000072940A2202200E4910F0C5F83C2202200D49AC
S315000072A410F0C0F81E2202200B4910F0BBF803228E
S315000072B402200A4910F0B6F8BDE80840012202206F
S315000072C4074910F0AFB800BFF5FD0300F9FD030050
S315000072D407FE03002DFE030053FE030060FE0300B9
S315000072E47FFE030008B5012013F006F9BDE8084047
S315000072F482080249022010F095B800BF9EFE0300E2
S31500007304002013F0F9B8022013F0F6B8002008B5EF
S31500007314FEF7B8FFC2B2012A05D9BDE8084001202C
S31500007324044910F07FB80120BDE80840024910F076
S3150000733479B800BFC0FE0300EBFE0300024B012137
S315000073441A78024836F063BABF2300204E4500205F
S31500007354704713F0E5BD704710B5044686B01CF0BF
S315000073641EFE1CF01AFE912C04D106B0BDE8104096
S3150000737422F0E2B8902C11D11CF00DFE0E4B1B5CD2
S31500007384012B0DD100230120CDE9010303230A2299
S3150000739400934FF6F8713C2313F02EF906B010BD96
S315000073A40DF117000CF06CFF0028F7D19DF817308B
S315000073B4012BF3D1E6E700BF4E4500202DE9F3414A
S315000073C400240C4E0C4DDFF838800C4F56F8043B65
S315000073D40BB9D8F8003035F8022B39460092012053
S315000073E42246013410F01EF8292CEFD102B0BDE874
S315000073F4F08100BF60220020403F002027FF0300E9
S315000074041423002008B5FFF7D9FFBDE8084000F0B3
S31500007414F9B8000007B50020FEF734FFC2B2282AE7
S315000074240DD8084B53F822300BB9074B1B68074994
S31500007434012031F81210009105490FF0F3FF03B053
S315000074445DF804FB6022002014230020403F002046
S3150000745427FF0300FFF7B2BF7047000038B50020CE
S31500007464FEF710FF04460120FEF70CFF054605490A
S3150000747401200FF0D7FFA9B2E0B2BDE8384000F012
S31500007484D9B800BF32FF03002DE9F34100240C4EA6
S315000074940C4DDFF838800C4F56F8043B0BB9D8F87E
S315000074A4003035F8022B3946009201202246013479
S315000074B40FF0B8FF292CEFD102B0BDE8F08100BF70
S315000074C460220020923F002027FF0300142300209F
S315000074D4F7B502AB0446174603E9060020F00CF89C
S315000074E40646204620F018F89DF800508EB1202C50
S315000074F40FD83B78012B33D84FF6FF703A4903EB8C
S315000075044313234431F81320824202D0013221F876
S3150000751413204FF6FF72354B354E33F8140036F808
S31500007524141090421CBF421C23F8142004F0FD02E0
S31500007534092A2ED19A8AB68A2A44B242B4BF9A82BA
S315000075449E8233F814308B422ED20025294B13F831
S31500007554012B94422ED00135112DF8D103B0F0BD84
S31500007564022BD6D14FF6FF724FF6FF701E4B33F83F
S315000075741410914218BF013104F1210218BF23F8F7
S31500007584141033F8121081421CBF013123F8121073
S31500007594BFE71D2CD5D15A8F56198E4203DA013A0C
S315000075A42A445A87CDE759878842CED22046FEF729
S315000075B434FDCAE71CF0F3FC0F4B04461B788342E8
S315000075C403D8DD210D4800F08FFC4FF6FF710C4AFD
S315000075D404EB04142C4432F814308B42BED001332D
S315000075E422F81430BAE700BFE43F0020403F0020F1
S315000075F4923F00209E020400BF2300201A020400CA
S315000076046840002052220021014836F000B900BF2C
S31500007614403F00205222FF21014836F0F8B800BF4F
S31500007624923F002008B5FFF7EDFFBDE80840FFF7DD
S31500007634F1BF0000014B23F810107047923F002061
S31500007644032310B50F4C1022C4E904330E4B0F4923
S31500007654E3610023A16121660D49E01DC4E9191205
S315000076640C49A3626362E3622367E366636722628B
S3150000767436F0E6F92046084936F0E2F92023A371EC
S3150000768410BD00BF0024002049430020AF020400BF
S3150000769439430020B8020400BC0204002DE9F84F67
S315000076A4DFF87C80824698F80030894616460BB986
S315000076B4FFF7C6FF182707FB0A873D6FD7F86CB09C
S315000076C45D452BD9BC6E796E641BB44228BF344623
S315000076D448462944224636F073F8BB6E2544AB422D
S315000076E408BF0025A144361BABEB0502964228BF12
S315000076F4164656B1182303FB0A83596E32462944AB
S31500007704484636F05DF83444354424B1182000FB6D
S315000077140A88C8F870502046BDE8F88F0024E3E7CD
S315000077240024002037B50446CDE9002104F02DFBE2
S31500007734DDE9002105462046FFF7B0FF044628464A
S3150000774404F029FB204603B030BD00002DE9F843C0
S31500007754134C1E4623788146884617460BB9FFF715
S315000077646FFF002504F011FB61690D4A536E3BB1AE
S315000077740135A94202F11802F8DC4FF0FF350AE0A0
S31500007784A942FADD182202FB0544C4E91898A76643
S315000077942367E366666704F0FEFA2846BDE8F883C5
S315000077A400240020FFF74CBF70B54FF060441C4B1B
S315000077B40026D3F8F0201B4D42F00102C3F8F02056
S315000077C4D3F8FC200C2042F08072C3F8FC20164B40
S315000077D4C4F8B03F0223C4F8006EC4F8806EC5F83E
S315000077E4F03003F089FF114B00F5D52000F2FC4080
S315000077F4B0FBF3F00E4A0F4B01382861C4F8406E13
S315000078041A600D4BC4F8803E4FF48073C5F80433F8
S31500007814D4F8003E43F48073C4F8003E70BD00BF44
S3150000782400ED00E0000004E055CEACC5F8590D00AB
S31500007834FF030040001000E00D00010010B5012414
S31500007844104B0020C3F8444404F05AFB2346042298
S315000078540321002004F0B0FB204613F093FBFFF74E
S31500007864A3FF13F090FB084B1C70FFF79BFF234606
S31500007874402206490648FFF769FF064B1860C00F09
S3150000788410BD00BF00D0034037450020F845002056
S31500007894C302040080210020034BD3F8F000003813
S315000078A418BF0120704700BF00ED00E0D123054A50
S315000078B4037013784170090A8170591CC3701170E2
S315000078C4042070473E4600202DE9F74F91F80080CA
S315000078D48246B8F1040F0F465FD91BF065FF4FF6D9
S315000078E4FF76002408F10505DFF8B890EDB20190A3
S315000078F4D9F8F0200AB1A54207D8281B18BF0120E1
S3150000790404233B7003B0BDE8F08F1BF04DFF019BD1
S31500007914C01A80B2B0F5FA7F41D8A4B3012C36D090
S31500007924EA1E04F1010B94425FFA8BFB19D1F4B2FF
S315000079344FF06042D2F8801ECB0710D5D9F8FC1060
S3150000794441F08071C9F8FC10D2F8001E41F4807130
S31500007954C2F8001E116A0029F0D082F820405C4665
S31500007964C6E7AA1E944202D1C6F30724E0E76A1EBC
S31500007974944210D0544414F8024C31462046FEF783
S3150000798449FF0646D4E75B244FF0010BD0E7444693
S315000079944FF0020BCCE75D24CAE70020B0E70120D4
S315000079A4AEE700BF00ED00E000B5084B91B0402201
S315000079B469461868FFF7B6FE20B1C2B269461220BE
S315000079C412F09AFC11B05DF804FB00BF8021002080
S315000079D410B5002090B0FEF755FC402269460446D7
S315000079E400F030FA034630B12246012005490FF073
S315000079F419FD10B010BD0122694608200FF0A2FC43
S31500007A04F7E700BFD302040010B500F093F800288E
S31500007A1414BF79226E22012013490FF003FD00F0F2
S31500007A2489F8F8B100F056FA002814BF79226E22BC
S31500007A3401200E490FF0F6FC022201200C490FF03A
S31500007A44F1FC0C4B01201C1F53F8042C0A490FF0BF
S31500007A54E9FCE26804F110030120BDE81040064980
S31500007A640FF0E0BC3F22E3E70B030400220304000B
S31500007A74320304006C3300205103040070B500F097
S31500007A847FF804461F4901200FF0CCFC2CB9BDE851
S31500007A94704001201C490FF0C5BC00F079F805467A
S31500007AA422690120194926880FF0BCFC628801204E
S31500007AB417490FF0B7FC1749A28801200FF0B2FC52
S31500007AC46388E28813F0100F14BF13491349012089
S31500007AD40FF0A8FCA268012011490FF0A3FCE2688C
S31500007AE4012010490FF09EFC0F4A104B0120B6F5F9
S31500007AF4817F28BF13460E492A46BDE870400FF021
S31500007B0491BC00BF8603040093030400B40304007D
S31500007B14D2030400F3030400100404002D0404003B
S31500007B244B04040069040400740304007E03040087
S31500007B3487040400034B1878012894BF0020012011
S31500007B44704700BF4045002038B50446044D2878E8
S31500007B54A04203D02146FEF761FA2C7038BD00BF5F
S31500007B6440450020054B1B7820B1012B04D8022088
S31500007B74FFF7EABF012BFBD8704700BF4045002042
S31500007B8408B500F019F8BDE8084005F03DB9000055
S31500007B9410B5084C237853B9FFF7F2FF012323707D
S31500007BA428B10388B3F5817F24BF037D2370207831
S31500007BB410BD00BF524C002070B5154B1B78012B2D
S31500007BC425D805F009F9134D0246134901200FF093
S31500007BD429FC0120FFF7C6FF2E78FF2E17D105F0EA
S31500007BE413F998B144881822C4F3400431460B486B
S31500007BF42C7035F00CFE54B1FFF7CAFF042806D9E1
S31500007C04BDE87040D021064800F06EB9287070BDFA
S31500007C1440450020D6230020AA040400683300202F
S31500007C24BC040400FFF7C8BF2DE9F04F654B87B0CD
S31500007C3405468846144693E8070003AB83E8070025
S31500007C44FFF7BAFFFFF7A4FF5F4B064693F800A0C1
S31500007C54BAF1010F1AD1012818D9B5FBF0F300FBCC
S31500007C6413539BB1594F3A68511C03D03B7A1344C2
S31500007C749D4229D0FA68531C03D03B7D13449D4290
S31500007C8424D040F23111524800F02EF94E4B1B78A5
S31500007C94012B67D1B5FBF6F306FB1353002B58D122
S31500007CA46319B3FBF6F206FB1236002E5AD0A41B58
S31500007CB49B1B08EB0401324604A80393A4B235F0D7
S31500007CC47FFD8DF814604DE04FF0000A0C2303FB92
S31500007CD40A73187A4146331A5FFA83F90AEB4A03A0
S31500007CE44FEA830BA1450BF1040328BF5FFA84F91D
S31500007CF418444A463844019335F062FD0C2202FBCF
S31500007D040AFA07EB0A010A7AA4EB09044A44D2B236
S31500007D14B242A4B20A7219D10320FFF715FF0199E2
S31500007D24B2B2394457F80A0005F0B2F88246022086
S31500007D34FFF70AFF4FF0FF3207EB0B0147F80B2062
S31500007D44C1E90122BAF1000F32D1C844F4B14D445D
S31500007D549CE74FF4AD711E4800F0C6F81A4B1B7829
S31500007D64012B9DD0ACB9039B01330FD0174B1A6876
S31500007D74013221D0DA68013220D101220C2101FB23
S31500007D8402330DEB010207CA83E807004FF0000A2D
S31500007D940EE00320FFF7D8FE22464146284605F0AA
S31500007DA477F882460220FFF7CFFEBAF1000FDAD049
S31500007DB4504607B0BDE8F08F0022DFE74FF0010A16
S31500007DC4F6E700BF30050400D62300206833002000
S31500007DD4BC04040038B5184B1B78012B28D1174D69
S31500007DE4FFF7EAFE2B6801330FD00320FFF7ACFE42
S31500007DF42C68FFF7CDFE291D82B2204605F048F80F
S31500007E0404460220FFF7A0FE9CB9EB6801330FD0AD
S31500007E140320FFF799FEEC68FFF7BAFE084982B221
S31500007E24204605F035F804460220FFF78DFE04B916
S31500007E340024204638BD00BFD62300206833002026
S31500007E447833002013B50446CDE90021FFF7B4FECC
S31500007E540420FFF779FEDDE90021204605F027F826
S31500007E6404460220FFF770FE204602B010BD000053
S31500007E7470B504460D46FFF79FFE0520FFF764FE26
S31500007E842946204605F022F806460220FFF75CFE46
S31500007E940E4B1A68501C09D0944207D861198A42BD
S31500007EA43EBF4FF0FF32C3E900229A60DA68511CE4
S31500007EB40AD0A24208D361198A423FBF4FF0FF326B
S31500007EC40349DA60C1E90122304670BD68330020F7
S31500007ED47433002008B5FFF76FFEBDE8084005F0CF
S31500007EE404B842DE7047000038B504460D4600F07B
S31500007EF4B3FD03F042FF2946204612F0C9F92B468A
S31500007F042246054901200AF0FFFB29462046BDE822
S31500007F143840FFF7E6BF00BF3C0504006E4B2DE971
S31500007F24F0415A686D4CA2655A6AE2656C4AD2F809
S31500007F3400122166D2F8042262669A6AA266DA6A96
S31500007F44E2661A6B22675A6B6267A26BDB6B12F0EE
S31500007F54040FA367D4E90F3508BF1D461BF008FCC0
S31500007F64002285420346606522655DD35D4A9542DB
S31500007F745AD8AA696264E969A164B4F85810C1F3CD
S31500007F840801062954D158498A4251D357498A428D
S31500007F944ED211884DF64262914249D140F20170A7
S31500007FA46268C4F89420A268C4F89820504A9342A0
S31500007FB438BF13464F4A93423DD3D31AE364002392
S31500007FC4C4E91F33C4E92133C4E92333494EDFF836
S31500007FD418C1DFF818E1AE4233D8D4E91FC7D4E993
S31500007FE42165D4E923124FF0000E013BDBB2FF2BCF
S31500007FF442D1BEF1000F05D0C4E91FC7C4E921650B
S31500008004C4E92312B4F85830C3F308030C2B41D83F
S31500008014022B57D9DA1E092A54D8DFE802F05A3758
S31500008024464953535353535000221D46C4E9112263
S315000080344FF42060BAE71968B1F1CD3FBDD10433DE
S31500008044B9E756F8042D6245C5D37245C3D2D107A4
S31500008054C1D50021284F57F8048B9045BBD0013178
S31500008064C9B20629F7D10BB9052301E0013BDBB2FE
S3150000807404EB8301CA67AEE7E0464FF0010EBC4647
S3150000808437462E460D4611464246AEE740F60220D6
S31500008094BDE8F0813B2B15D1184B9B6913F0020FF9
S315000080A440F2025318BF1846F2E740F60320EFE702
S315000080B440F60423B0F5206F08BF1846E8E740F6FB
S315000080C40520E5E740F60722013B4B2B98BF1046F7
S315000080D4DEE740F60120DBE700ED00E000000020CB
S315000080E400E100E0201A00204C430000C8DA030037
S315000080F49C000020401A00207C0000200080014AD9
S3150000810438B1022804D0032814BF06200320704780
S31500008114012070472DE9FF47174B062418689B88F2
S315000081240290ADF80C30012501F010FD134EDFF876
S31500008134508002AF17F8013B032216F8339006EB82
S31500008144C303D3F804A048460123514603F034FF81
S3150000815441465FFA8AF001F011FD013C01235246C3
S3150000816451464846CDE9005503F0CCFE14F0FF0411
S31500008174E0D104B0BDE8F0874F05040058050400BB
S315000081840982000008B5FFF7BBFF062816BF024B9D
S315000081940020185C08BD00BF7744002008B5FFF72F
S315000081A4AFFF06281CBF014B195408BD77440020B5
S315000081B408B5FFF7A5FF062805D0034A135CB3FAF2
S315000081C483F35B09135408BD7744002008B5FFF711
S315000081D497FF06280FD03023084A12F8301002EB16
S315000081E4C0005943064B40685B5823FA00F0C0436D
S315000081F400F0010008BD0020FCE700BF580504009C
S3150000820414C0034070B50446FFF7E0FF014600259D
S3150000821420460E46FFF7DAFFB0420146F7D1013594
S31500008224052DF5D12046FFF7ADFF8842204609D03B
S31500008234FFF7B4FF2046FFF7A5FF014620460BF0E3
S3150000824443FD70BDFFF7B4FF2046FFF79BFF0146D1
S3150000825420460BF039FD2046FFF7AAFFEAE70000A7
S3150000826410B504F091F9044604F086F900220121C0
S3150000827401FA02F3234014D01D4B1E4933F8123081
S31500008284062B14D040F2072293420DD11A4A1B48FA
S315000082941468844208D14CF23C33538013880B8013
S315000082A415E00132102AE3D1124A13800FE04FF28F
S315000082B40F03114A5088984216D11388B3F5406FBC
S315000082C428BF4FF4C0630B804CF23C335380094BF8
S315000082D41A8840F201739A4201BF094B094AD2E94E
S315000082E40001C3E9000110BD4FF4C063EBE700BF12
S315000082F488050400E64000200000002007020FF075
S31500008304BC39002094000020014B1888000A7047ED
S31500008314E6400020014B1888704700BFE640002065
S315000083242DE9F04F4D4D0446AB6BD5F850B05A07C6
S3150000833447BF0027B846D5F84CB0D5F85480D5F8D1
S3150000834440A05DBF464FD5F83CA0DFF83C91DFF86E
S315000083543C9113F0080F434B434A18BF1A46B7EB38
S3150000836408061FBF6421730801FB0B33B3FBF6F346
S3150000837487B01CBF9BB205933C494B46CDE9017AB5
S31500008384CDF8008008BF059601F02EF9B3B2CDE909
S3150000839400932046059B36491FFA8BF201F024F917
S315000083A4AB6B5B070AD49C3E5E4507D16A6D314BC5
S315000083B49A4203D22046304901F016F9BA4501D84B
S315000083C4C24504D24A4620462C4901F00DF92046FE
S315000083D40AF094F9D5E91823134337D020462849DF
S315000083E401F0EEF800260127DFF8A480DFF8A49058
S315000083F42A6E07FA06F3134207D058F82620137894
S315000084041BB14946204601F0DBF80136202EEFD198
S3150000841400260127DFF87880DFF878906A6E07FA7D
S3150000842406F3134209D008EB8603D3F880201378A9
S315000084341BB14946204601F0C3F801361D2EEDD185
S31500008444204607B0BDE8F04F01F0C8B820460D49F4
S3150000845407B0BDE8F04F01F0C7B800BF0000002028
S31500008464401A0020B5050400BC050400C405040038
S31500008474F20504009C0000202B06040057060400A5
S3150000848475060400A4060400A8050400AD0504004E
S31500008494E40F0400CE0304002DE9F8430446FFF775
S315000084A439FF40F6052398420ED8B0F5206F0DD853
S315000084B440F20253984217D040F2017398421ED0FC
S315000084C440F2015398420AD0BDE8F883A0F6022090
S315000084D45F4D03281FD8DFE800F0386598B55D497D
S315000084E4204601F081F811E020465B4901F07CF852
S315000084F4574B5A6C2046594901F076F806E0544A1F
S315000085042046D2E92523564901F06EF82046BDE8F7
S31500008514F8430AF0F3B82046524901F065F895F895
S315000085246C309F0703D520464F4901F05DF895F856
S315000085346F305E0603D520464C4901F055F895F98F
S315000085446F30002BE2DA4A49CAE72046494901F06E
S315000085544BF895F86830980704D020466A6C3F4972
S3150000856401F042F895F96830002B04DA20466A6F68
S31500008574414901F039F800260127DFF80881DFF8C0
S315000085841491AA6E07FA06F3134207D058F8262068
S3150000859413781BB14946204601F026F80136082E09
S315000085A4EFD1B3E73549204601F01EF82B492046A2
S315000085B46A6C01F019F895F86930590703D5204615
S315000085C42F4901F011F895F96930002B04DA204699
S315000085D46A6F294901F008F808262A4FDFF8B480A3
S315000085E4AB6EF340DA0707D557F8262013781BB18C
S315000085F44146204600F0F8FF0136102EF0D195F8DA
S315000086046830002B82D120496AE72049204600F0D1
S31500008614EBFF20466A6C114900F0E6FF1026194F5D
S31500008624DFF87080AB6EF340DB0707D557F82620DA
S3150000863413781BB14146204600F0D6FF01361A2EA8
S31500008644F0D163E72046124900F0CEFF6A6C51E789
S3150000865400000020B9060400F606040026070400FC
S315000086643F0704005907040071070400AB07040020
S31500008674DE0704001A0804003F0804006308040027
S315000086847A0804007C0F0400C0080400F008040003
S31500008694090904005B0804002DE9F84F0446002686
S315000086A4154DDFF85C80DFF85CA0DFF85C902A46A5
S315000086B45146204658F8043BF7B200F081FF2A7869
S315000086C4AB460135002AFAD19BF8012092B10B4939
S315000086D407F00307032F08BF4946204600F070FF42
S315000086E420460AF00BF89BF801300136002BDED148
S315000086F4BDE8F88F4946F0E7D8100400062B0400BD
S31500008704040000202A09040022E0030000F00CB84B
S3150000871400F00AB800F008B800F006B800F004B893
S3150000872400F002B800F000B872B61EF0080F09D0C7
S315000087341EF0040F0DD0DFF850E0AEE8FF1F6FF017
S3150000874402000CE0DFF840E0AEE8FF1F6FF00E0019
S3150000875405E0DFF834E0AEE8FF1F6FF00600694677
S31500008764EFF309828EE8070086460848084C8545DB
S3150000877401D3A54501D384F30888FFF7CFFB84F31F
S3150000878408881AF0D1FF0000040000202011002000
S31500008794401A0020FFF7C6BF7047704700F07E639B
S315000087A4B3F17E6F70B505460E46144616D105F034
S315000087B4CDFF18B19A210D48FFF796FB22463146A4
S315000087C4C5F30B0003F09CFF044605F0CDFF5CB136
S315000087D49D21BDE870400548FFF786BB52081AF094
S315000087E447FF08B18F21F4E770BD00BFA411040050
S315000087F437B515461A464BF234637F2D08BF00255C
S315000088049942044619D17F2241F20201684608239F
S31500008814FFF7EEFF08226846264934F0C1FF30B957
S3150000882408237F2241F2F0116846FFF7E1FF6B4609
S3150000883403CB2060616003B030BD41F2F01399426E
S315000088441BD100211C4B9D6CD86CCBB25AB9002AA3
S31500008854F1D0E0540133D9B207294FEA102002F1CE
S31500008864FF32F4D9E7E76554013104294FEA1525A7
S3150000887402F1FF32E9D10B46E9E701F47043B3F59F
S31500008884805F0AD1C1F30B0404F17E6402FB054147
S3150000889403B0BDE8304034F093BF01F46043B3F550
S315000088A4005FC8D1C1F30B040449214402FB05113E
S315000088B4EEE700BF2C1204000080E00F00E00F007A
S315000088C470B5054616461C46DBB14BF23463994235
S315000088D410D1082C28BF08247F2241F20201234626
S315000088E4FFF786FF22462846064934F059FF40B969
S315000088F441F2F011234632462846BDE87040FFF7A0
S3150000890477BF70BD2C1204002DE9F7430446E00737
S315000089140F46154603D5DD213548FFF7E5FAE90785
S3150000892403D5DE213248FFF7DFFA04F47043B3F5CA
S31500008934805F3ED1C4F30B0404F17E642D4A6B1EA2
S3150000894423449342264603D9E3212948FFF7CCFA68
S31500008954DFF89C9006EB050846453DD1A2070ED0EC
S315000089644FF6FF7337F8022BA01E43EA0243042294
S315000089740DEB02010193FFF711FF0234023DAB0731
S315000089840ED0023D25F00103FB5A04226FEA03438D
S315000089946FEA13430DEB020160190193FFF7FEFE24
S315000089A41DB32A463946204603B0BDE8F043FFF717
S315000089B4F5BE04F46043B3F5005F05D10E48C4F375
S315000089C40B0404442646C3E7EA210948FFF78CFA58
S315000089D46FF00F060024BBE716F8013BFF2BBBD054
S315000089E4F4214846FFF780FAB6E703B0BDE8F08302
S315000089F4A4110400FF1FE00F00E00F00FFF786BE7E
S31500008A041FB5124A01AB10685168128903C31A8054
S31500008A140D238DF80A3003230D4C082124208DF8EC
S31500008A240B3002F0C7FF204601A904F0E4F84FF426
S31500008A3400610223074A04F5005004F58054C2F885
S31500008A44841183615160E36104B010BD34120400E3
S31500008A540080014A00E100E0014804F0BBB800BF11
S31500008A640080014AA52803D10021024804F0A3B8D6
S31500008A74704700BF0080014A024B586800F00100AD
S31500008A84704700BF0080014A024A536A002BFCD19A
S31500008A94704700BF0080014A0020704700207047DD
S31500008AA47047000007B572B603F067F98B4B8C4923
S31500008AB45B6940228B6000230B764B768B76F02322
S31500008AC4CB760B774B778B77CA77802281F8202079
S31500008AD481F82130E023602081F82230814B81F82F
S31500008AE4232083F8002383F8012383F8022383F8E1
S31500008AF4032383F8042383F8052383F8062383F8E2
S31500008B04072383F8082383F8092383F80A2383F8C1
S31500008B140B2383F80C2383F80D2383F80E2383F8A1
S31500008B240F2383F8102383F8112383F8122383F881
S31500008B34132383F8142383F8152383F8162383F861
S31500008B44172383F8182383F8192383F81A2383F841
S31500008B541B2383F81C2383F81D2383F81E2383F821
S31500008B641F2383F8202383F82103202083F822235C
S31500008B7483F8232383F8242383F8252383F82623E1
S31500008B8483F8272383F8282383F8292383F82A23C1
S31500008B9483F82B0383F82C0383F82D2383F82E23E1
S31500008BA483F82F2383F8302383F8312383F8322381
S31500008BB483F8332383F8342383F8352383F8362361
S31500008BC483F8372383F8382383F8392383F83A2341
S31500008BD483F83B2383F83C23CB6823F4E0631B042C
S31500008BE41B0C43F0BF6343F40133CB604B6943F082
S31500008BF410034B614FF4E0234B6204F08FFAFFF746
S31500008C042FFBEFF308834FF0CD31374A043B9342F1
S31500008C1460D2364A002192B2354834F0F8FD62B685
S31500008C24684603F091FD334A936DDB0313D4536B0B
S31500008C3423F4FF0323F4FE4343F4BC1343F4A06379
S31500008C445363136B23F4704343F440431363136B6E
S31500008C5443F4E06313639DF80130012B0FD19DF8B3
S31500008C64003063B94FF000531B68234B1B68234B3A
S31500008C741B68234B1B68234B1B68234B1B68234A27
S31500008C84D2F8803043F00303C2F8803004F036FE95
S31500008C9402224FF040231A6704F0BEF901F0D8FB14
S31500008CA4002300938DF80430012368468DF80330C1
S31500008CB403F008F900F0F0F81AF088FD04F020FE3D
S31500008CC400F0FAF812F09EFE114804F0EDFF03B02E
S31500008CD45DF804FB43F8041999E700BF004000005F
S31500008CE400ED00E000E100E0E010002014100000B8
S31500008CF4A000002000C000400040002000800020AA
S31500008D0400C0002000000120004001200080004037
S31500008D14A816040040F201601AF006BDFEF754BA24
S31500008D2408B500210B20FEF74DFABDE80840FEF712
S31500008D344CBA08B1FDF7B9B9FDF7B6B9032000F08E
S31500008D44B1BA000008B5FFF7DFFA044B0B2896BF4B
S31500008D5400B2184603EB800008BD00BF861304006A
S31500008D6408B5FFF7D7FA044BC0F30F2253F82230A5
S31500008D74C0B203EB800008BD5013040010B5FFF722
S31500008D84C3FA0446FFF7C6FA10F0FF0005D1012C1A
S31500008D9423D164F07F04E4B215E0072CF9D801A3CB
S31500008DA453F824F0CB8D0000978D0000C98D000088
S31500008DB4CF8D0000CF8D0000D38D0000D78D00002D
S31500008DC4DB8D00000924204610BD0224FBE70324A2
S31500008DD4F9E70B24F7E70624F5E70446F3E700BFB3
S31500008DE438B50D46044688BB284B4A1E18605042C7
S31500008DF45041013D09F0F0FE032D46D8DFE805F0A9
S31500008E0402131E2001210846FDF750F9FFF734FE30
S31500008E141F4B187010B1A520FFF724FEBDE838409B
S31500008E24012009F0D9BE02210120FDF73FF9FFF721
S31500008E3423FE50B3BDE83840FFF726BE0421F3E70E
S31500008E4405210120BDE83840FDF730B9104B1B78E9
S31500008E541BB101210F4803F0AEFE631E5842584170
S31500008E64013C09F0DBFE032C0FD8DFE804F002080E
S31500008E740A0C012009F0D2FE01210020E2E70221BA
S31500008E84FBE70421F9E70521F7E738BDF83C0020A4
S31500008E94514C00200080014A054AD2F8203402F5DC
S31500008EA400521B0C1B04C2F82034024A136070479C
S31500008EB400C003405833002008B504F01FFA18B167
S31500008EC492210448FFF710F8BDE808400249034818
S31500008ED404F0C8BAB61304002C1F00201036002074
S31500008EE4134A1449D2F82434D2F820241340124ADF
S31500008EF49BB21360D1F80001400102D50868400115
S31500008F0406D4D1F80001800105D50968880102D587
S31500008F1443F480331360074BD3F80011490506D593
S31500008F241B685B0542BF136843F400331360704744
S31500008F3400C0034000E100E0F83C0020012838B5F9
S31500008F4404460BD0831E012B07D9042824D00528F8
S31500008F5401D102F09BFF002400E0022402F006FF88
S31500008F6405460121204604F0F9F9284602F002FFDD
S31500008F7402F0F8FE02F005FF04F09AFA02F0F4FE9D
S31500008F8402F0F4FE05460021204604F0E7F92846DF
S31500008F94BDE8384002F0EEBE0324DFE7FFF7CEBF9C
S31500008FA42DE9F04F89B011F0EBFF0546002840F09B
S31500008FB4EA80764EDFF8EC813168D8F8000019F0C3
S31500008FC469FD0446002828D033682C46D3E90001FD
S31500008FD49A6912689047336804A89B699B68984706
S31500008FE4336802209B69DB689847326805985368A2
S31500008FF4E7B2B3FBF0F3BB42916904F1010454D820
S31500009004CB680020984733689B695B68984731684A
S31500009014D8F8000019F03EFD044600275C4BDFF843
S3150000902494A1DFF89491009314BB5A4BFB5C002B7C
S3150000903400F08F80D9F8001002ABD8F8000003AA1C
S31500009044019119F061FF544B0199984208D078B9FF
S31500009054039B012B0CD0D8F8000019F09BFF019953
S31500009064DAF80030D8F800001A6819F07BFE0446D6
S31500009074009B013701334D2F0AF1040A009309F1CD
S315000090840409D1D1002C0CBF01220022434B1A70D3
S3150000909465D0434B2344072B71D8072B6FD8DFE8E1
S315000090A403F05D6A6E6C6E6E6E7012680B6907FB78
S315000090B40020984799E7D9F8003003AA194402AB6F
S315000090C4019119F021FF344B019998422ED030B307
S315000090D40136344BF1B259451868ECD3324BFB5C7C
S315000090E4002BC5D05E46DFF8BCB0F3B27E2BDBF8AE
S315000090F40000BDD8D9F8001002AB314403AA01918F
S3150000910419F002FF244B9842B2D00199DBF8000013
S3150000911419F040FF013604460028E6D0A8E7039B71
S3150000912483B9009B029A1B789A42D1D0009BDAF845
S3150000913400201B78D8F8000019F07CFD0028C7D061
S315000091440446CBE7174B0191186819F023FF0199E0
S31500009154ECE7164B264617F803B0BAE7C225114BBF
S315000091641B681B7C1BB1D3211148FEF7BDFE2846A4
S3150000917409B0BDE8F08FC325F1E7C425EFE7C5259F
S31500009184EDE7C125EBE7C625F1E700BFAC1F0020DC
S3150000919438E8030068E603000BE000F0454C0020C5
S315000091A4FF1FFF0FA81F0020B5E60300E4E4030039
S315000091B43214040034E5030004E703004C2970B5B7
S315000091C406460C4615461AD8144A127822B3144A8F
S315000091D41068144A52F82110134A125D3AB1324605
S315000091E419F00CFEC0B1BDE87040FDF723BB7F2D1E
S315000091F408BF00253246294419F066FDF2E7FF2927
S3150000920403D9BDE87040FFF75BBB40F20111BDE82E
S3150000921470400648FEF768BE70BD00BF454C00208E
S31500009224A81F002004E7030068E6030032140400C4
S315000092344C28F8B504460D46164619D8144909783B
S3150000924429B31449144F0868144951F824103C5D95
S315000092543CB1126819F086FDC8B1BDE8F840FDF7C7
S31500009264E9BA7F2D08BF0025294419F0E3FCF3E78A
S31500009274FF2805D91A463146BDE8F840FFF744BB36
S315000092844FF49A71BDE8F8400548FEF72DBEF8BDC7
S31500009294454C0020A81F002068E6030004E70300ED
S315000092A43214040008B5084B1B7863B1074B00223F
S315000092B453F82010064B186819F0E0FD18B1BDE804
S315000092C40840FDF7B7BA08BD454C002004E7030083
S315000092D4A81F0020104430B5054602B930BD01F080
S315000092E40F030A2B34BF30243724013A23440909D7
S315000092F405F8013DD2B2F0E7F0B519B3002820DA3B
S315000093042D23B0F1004F137000D04042012119E023
S31500009314801B8642ECB205F10105F9D914B9BCF1FA
S31500009324000F05D04FF0010C4D1C30345454E9B2F3
S31500009334013B13F0FF0309D130305054481CC0B22E
S31500009344F0BD002109234FF0000C024F002557F809
S31500009354046BDEE7A81404002DE9F04F4FF0000B70
S3150000936497B004AC8046894615469A465E4627461B
S31500009374297859B9E41BE4B2224639464846C0471F
S31500009384002840F0AD803444E0B2AAE0252916D086
S31500009394BBF1000F17D1204600F8011B044614AB9D
S315000093A49C42C0F0E180E41BE4B2224639464846BA
S315000093B4C047002840F094802644F6B2D3E0BBF1BF
S315000093C4000F00D101352978782906D8612907D8F4
S315000093D425295ED03AD80029CCD04FF0000BDEE721
S315000093E4A1F16202162AF8D801A353F822F000BFAD
S315000093F4A19400002595000071950000DF930000FC
S31500009404DF930000DF930000DF930000DF9300008A
S31500009414DF930000DF93000071950000DF930000E6
S31500009424DF930000DF93000035950000DF93000012
S31500009434DF93000035950000DF930000719500006E
S31500009444DF930000DF93000087940000392916D8C3
S315000094542F29C2D96A7802F0DF02582A40F0AC807C
S31500009464322905F1010B40F09B80042220465AF86C
S31500009474041B89B2FFF72EFF5D460446ADE7582963
S31500009484ABD15AF8041B02222046C9B2FFF722FFC9
S3150000949402E0204600F8011B04469EE74FF0000B4D
S315000094A4DAF800300293DAF804300193013B0393AF
S315000094B4019B9B4502D10AF1080A8EE7029B2046CE
S315000094C413F80B100222FFF705FF14AB984204466B
S315000094D40DD3C41BE4B2224639464846C04718B1E8
S315000094E4002017B0BDE8F08F26443C46F6B2039B35
S315000094F45B4581BF2046202200F8012B044614ABAD
S315000095049C420AD3E41BE4B2224639464846C04785
S315000095140028E5D126443C46F6B20BF1010BC7E719
S315000095245346204653F8042B9A4600F8012BB3E71A
S31500009534E41BE4B22246394648465AF804BBC047FF
S315000095440028CDD12644F6B2C4B21BF8042001305B
S31500009554002AF9D1224659464846C0470028BFD1B9
S3150000956483462644F6B23C46013501E76C29DAF80F
S3150000957400000AF1040B0ED16B78752B14BF012180
S31500009584002101D0642B00D101352246FFF7B4FE39
S31500009594DA46044421E775290CBF00210121F4E7CA
S315000095A4342909D15AF8045B0422290C2046FFF712
S315000095B491FE0422A9B25DE74FF0010BEFE600BF6E
S315000095C40EB403B503AA52F8041B019209F0BEFBBC
S315000095D4C0B202B05DF804EB03B070470149FFF76F
S315000095E4EFBF00BF22E003000EB433B505AA52F85C
S315000095F4041B0546019209F0A9FB04462846FFF719
S31500009604EDFFE0B202B0BDE8304003B0704708B5E4
S3150000961409F09CFBC0B208BD2DE9F04F9A46564BA3
S3150000962485B01B7806460F461546DDF83C909DF836
S3150000963444B0DDF85080002B00F08D80072A00F23C
S315000096448C800E9B002B00F08880B9F1000F00F08F
