:1040000080170020057903006583000069830000A4
:10401000A70A0A010042000004180FAC906AD00100
:104020000000000000000000000000000000000090
:104030000000000048DD0300000000000000000058
:104040000000000000000000FFFFFFFFFFFFFFFF78
:10405000FFFFFFFF00600F0067000000000000008E
:10406000FFFFFFFFFFFFFFFF8000000000000000D8
:104070000000000000000000000000000000000040
:1040800000000000000000007C4B00207C4B002062
:1040900080170020EE3C0400B0A30300200E002097
:0C40A000FC0D002000E00F0000000000FC
:1042000080170020057903006583000069830000A2
:1042100071D700006D8300007583000003790300EF
:104220000379030003790300037903000379030092
:104230007983000003790300037903000379030005
:10424000EC830000EC830000EC830000EC830000B2
:10425000EC83000009A20000E1B00000EC83000044
:10426000EC830000EC830000D59F0000FD2E0100D0
:10427000EC830000EC830000EC830000EC83000082
:10428000EC830000EC830000EC8300000379030062
:10429000EC83000041970000EC830000EC830000F9
:1042A000EC8300004D9800002D980000EC83000086
:1042B000EC830000EC830000EC830000D1090200D5
:1042C000750902007109020029020200CD090200ED
:1042D00079090200910902007D09020079F00100CC
:1042E000110A0200EC830000EC83000089860000C4
:1042F000EC83000045E20000EC830000037903003A
:10430000EC830000EC830000EC830000EC830000F1
:10431000EC830000EC830000EC830000EC830000E1
:10432000EC830000EC830000EC830000EC830000D1
:04433000EC8300001A
:10433400F8B500BFF8BC08BC9E467047F8B500BF8E
:10434400F8BC08BC9E46704710B5054C237833B9B9
:10435400044B13B1044800E000BF0123237010BDD7
:10436400F0260020000000004C31040008B5034B87
:104374001BB10349034800E000BF08BD0000000072
:10438400F42600204C310400A3F5803A704700BFA6
:10439400174B002B08BF134B9D46FFF7F5FF002179
:1043A4008B460F461348144A121A35F0CAFF0E4BB7
:1043B400002B00D098470D4B002B00D098470020CD
:1043C400002104000D000D48002802D00C4800E034
:1043D40000BF35F05BFF200029000EF0F7FF35F039
:1043E40041FF00BF000008000000000000000000C2
:1043F400801700201A2300207C4B002000000000BE
:10440400000000007047704730B50025254B87B089
:104414001D70254B4FF47C411A7808208DF8082034
:104424005A7801248DF809209A788DF810508DF867
:104434000A20DA788DF80B201A798DF80C205A7935
:104444008DF80D209A79DB798DF80E208DF80F30D8
:10445400C4238DF8113021238DF81230134B0A2216
:104464001B888DF81330124B1B888DF814300D23E4
:10447400019302AB00930F4B11F0FEFD11F064FEAB
:10448400047111F061FE4471022013F0A3FF294668
:10449400284611F055FE08490246204612F050FE07
:1044A40007B030BD9C28002041400020C23C0020C1
:1044B400723C0020A4B60300B0A303007047704709
:1044C40030B50025254B87B01D70254B4FF47C413A
:1044D4001A7808208DF808205A7801248DF80920CC
:1044E4009A788DF810508DF80A20DA788DF80B2020
:1044F4001A798DF80C205A798DF80D209A79DB7988
:104504008DF80E208DF80F30C4238DF8113021233F
:104514008DF81230134B0A221B888DF81330124B7E
:104524001B888DF814300D23019302AB00930F4BBD
:1045340011F0A2FD11F008FE047111F005FE4471A2
:10454400022013F047FF2946284611F0F9FD0849D7
:104554000246204612F0F4FD07B030BDB428002016
:1045640041400020C43C0020743C0020A4B6030059
:10457400DFA303007047704730B50025254B87B093
:104584001D70254B4FF47C411A7808208DF80820C3
:104594005A7801248DF809209A788DF810508DF8F6
:1045A4000A20DA788DF80B201A798DF80C205A79C4
:1045B4008DF80D209A79DB798DF80E208DF80F3067
:1045C400C4238DF8113021238DF81230134B0A22A5
:1045D4001B888DF81330124B1B888DF814300D2373
:1045E400019302AB00930F4B11F046FD11F0ACFDAB
:1045F400047111F0A9FD4471022013F0EBFE294669
:10460400284611F09DFD08490246204612F098FD07
:1046140007B030BDCC28002041400020C63C00201B
:10462400763C0020A4B603000EA403007047704734
:1046340030B50025254B87B01D70254B4FF47C41C8
:104644001A7808208DF808205A7801248DF809205A
:104654009A788DF810508DF80A20DA788DF80B20AE
:104664001A798DF80C205A798DF80D209A79DB7916
:104674008DF80E208DF80F30C4238DF811302123CE
:104684008DF81230134B0A221B888DF81330124B0D
:104694001B888DF814300D23019302AB00930F4B4C
:1046A40011F0EAFC11F050FD047111F04DFD44715C
:1046B400022013F08FFE2946284611F041FD0849D7
:1046C4000246204612F03CFD07B030BDE42800202D
:1046D40041400020C83C0020783C0020A4B60300E0
:1046E4003DA403007047704730B50025254B87B0C3
:1046F4001D70254B4FF47C411A7808208DF8082052
:104704005A7801248DF809209A788DF810508DF884
:104714000A20DA788DF80B201A798DF80C205A7952
:104724008DF80D209A79DB798DF80E208DF80F30F5
:10473400C4238DF8113021238DF81230134B0A2233
:104744001B888DF81330124B1B888DF814300D2301
:10475400019302AB00930F4B11F08EFC11F0F4FCAB
:10476400047111F0F1FC4471022013F033FE294668
:10477400284611F0E5FC08490246204612F0E0FC08
:1047840007B030BDFC28002041400020CA3C002076
:104794007A3C0020A4B603006CA403007047704761
:1047A40030B50025254B87B01D70254B4FF47C4157
:1047B4001A7808208DF808205A7801248DF80920E9
:1047C4009A788DF810508DF80A20DA788DF80B203D
:1047D4001A798DF80C205A798DF80D209A79DB79A5
:1047E4008DF80E208DF80F30C4238DF8113021235D
:1047F4008DF81230134B0A221B888DF81330124B9C
:104804001B888DF814300D23019302AB00930F4BDA
:1048140011F032FC11F098FC047111F095FC447114
:10482400022013F0D7FD2946284611F089FC0849D7
:104834000246204612F084FC07B030BD1429002043
:1048440041400020CC3C00207C3C0020A4B6030066
:104854009BA40300012806D1324B1980324B1880E7
:10486400324822F0A3BD022805D1314B1980314BC7
:1048740018803148F5E7032805D1304B1980304BB7
:1048840018803048EDE7042805D12F4B19802F4BB1
:1048940018802F48E5E7052805D12E4B19802E4BAB
:1048A40018802E48DDE7062805D12D4B19802D4BA5
:1048B40018802D48D5E7322806D10322194B1A80D7
:1048C4000122194B1A80CBE73C2806D10322184B4E
:1048D4001A800222174B1A80CBE7462805D10323FE
:1048E400164A1380164A1380CBE7502806D10322B8
:1048F400154B1A800422154B1A80CAE75A2806D190
:104904000322144B1A800522134B1A80C9E764282A
:1049140006D10322124B1A800622124B1A80C8E7D2
:10492400704700BFC23C0020723C00209C2800203D
:10493400C43C0020743C0020B4280020C63C002065
:10494400763C0020CC280020C83C0020783C002085
:10495400E4280020CA3C00207A3C0020FC280020E7
:10496400CC3C00207C3C002014290020002330B5DE
:10497400032285B0CDE9023301258DF806308DF888
:10498400073010230D4C8DF80A20204601AA02A9F5
:104994008DF804508DF8053007F0F3F9E560A36F46
:1049A400002BFCD040F2BA43606F584340F6FF73CB
:1049B400B0FBF3F0800005B030BD00BF0040004AFA
:1049C400002330B5094D8DB004ACCDE90133039318
:1049D4000FCD0FC495E80F0084E80F00044804AA23
:1049E40001A907F0C9FA0DB030BD00BF9CA80300AF
:1049F4000040004A014807F005BA00BF0040004AE1
:104A040010B5FFF7DDFFFFF7B1FF1A4C02461A4954
:104A14002060012012F094FBFFF7ECFF40F6B8325F
:104A240023689342154A14D9642313700120127821
:104A3400134912F085FB0122124B1A700FF0A4FCEB
:104A4400022816D1BDE810404FF4FA710E4822F046
:104A5400B9BCB3F5166F21BF64214B434FF41671F3
:104A6400A3F56A332ABFA3F5C0730023B3FBF1F3A4
:104A7400DBE710BD54280020CAA403003F400020F7
:104A8400E1A403003E400020442900200022034BFF
:104A94001A700122024B1A67704700BF4039002088
:104AA40000E003400022174B13B51A70164B1B7815
:104AB40083B10FF069FC78B90124144B1C700AF01F
:104AC4008FFD134B0090134A2046134912F038FB14
:104AD400124B1C6702B010BD0FF056FC0228F9D12E
:104AE40005224FF0FF31012024F02AFB0C4822F06C
:104AF4005DFC4FF4A0210B4802B0BDE8104022F049
:104B040061BC00BF3C29002016230020494000203E
:104B1400B3B70300FCA4030001A5030000D00340C5
:104B2400842800207C2800200023024A1370024AB3
:104B3400137070471C2900204040002070477047C4
:104B4400002313B504221946022007F0BFF80322FC
:104B5400012310460421012407F0B8F80422234657
:104B640011460320CDE9004407F056F823460322FA
:104B74000421002007F0AAF804222346114600204D
:104B8400CDE9004407F048F80322234611460220E9
:104B940007F09CF80322234611460220CDE9004485
:104BA40007F03AF8234603220421022007F08EF886
:104BB4000422234611460220CDE9004407F02CF8D4
:104BC400234603220521022007F080F8052223460C
:104BD40011460220CDE9004407F01EF803222346C3
:104BE4001046022107F072F80222234611460320E0
:104BF400CDE9004407F010F84FF08062164B002016
:104C0400C3F880211A604FF00072C3F880211A6043
:104C1400124B1349D3F8A420C2F300120A705A6944
:104C24001049C2F300120A705A6F0F49C2F3C0024E
:104C34000A705A6F0D49C2F300120A705A6F0C4978
:104C4400C2F340120A70D3F8A4300A4AC3F38003B3
:104C5400137002B010BD00BF00E100E000C00340CB
:104C6400B3430020B4430020B5430020B6430020E2
:104C7400B7430020B843002070B52B4C86B02B48B6
:104C840022F094FB204604237F22282104F0DEF83E
:104C940023880D2201339BB22380039323230193A2
:104CA40003AB4FF601510093012041F2020310F0CF
:104CB400E7FF228801201E4912F042FA67220120F0
:104CC4001C4912F03DFA052201201B4912F038FA62
:104CD4001A4D41F202021A49012004AC12F030FAD2
:104CE400FFF72EFF20460FF06DFD2A460723E15CF7
:104CF400013B02F8011BFAD20120124912F03EFADC
:104D04000024114E3146012015F8012B013412F014
:104D140035FA082CF6D10D49012012F011FAA5201C
:104D240003F0E4FC06B070BD703C0020642A00204F
:104D340015A503002CA5030045A503004140002050
:104D440061A503007DA50300860604004AFD030057
:104D5400F0B500245B4B95B01C700FF017FB4CF2C0
:104D64005D23ADF80C304CF2C443ADF810304FF471
:104D74008063ADF812301823534D8DF818302B781A
:104D840031278DF819300A238DF81A3003238DF852
:104D94001E3004238DF81F3008238DF82230302371
:104DA4008DF823308DF826308DF827308DF8293092
:104DB40033238DF82A3005238DF82B30FF238DF80B
:104DC4002E3006238DF82F30212301262022422164
:104DD4008DF824702E278DF831303C4B8DF81D2032
:104DE4001B888DF821108DF82D20ADF80E608DF8FC
:104DF4001B408DF81C408DF820408DF825708DF8EF
:104E040028708DF82C408DF830408DF832308DF8B4
:104E140036106E218DF83A1066211B0A8DF8333056
:104E24008DF83B10072369218DF834308DF83C1040
:104E3400122353218DF837308DF840104323342149
:104E44008DF838308DF841106F2338218DF83930C2
:104E54008DF83D308DF842103A2335218DF83E30DF
:104E64008DF8431052234D218DF83F308DF8443096
:104E74008DF8461045234F218DF845308DF84710A5
:104E84008DF8493054210C238DF848108DF84A30A0
:104E94008DF84C2006AB8DF84D0003A93622009402
:104EA4004FF6FC708DF835408DF84B400EF0F2FD56
:104EB40007490246304612F043F92B7833442B70ED
:104EC40015B0F0BD842800209E220020703C0020F4
:104ED40089A5030010B5024620490446012012F0BA
:104EE4002FF90FF051FA1E490246012012F028F959
:104EF4000FF04AFA022819D100221A4B4FF4FA6132
:104F040019481A7022F05EFA184B19481B6FDB0718
:104F140042BF0122174B1A6722F048FA01202246A9
:104F2400154912F00DF901200CF076FB912C0FD1EC
:104F34000FF02AFA032804BF0122104B4FF001009E
:104F440008BF1A670E49912212F0FAF8002010BD2A
:104F5400942C02BF0122074B1A67F7E7ABA50300A5
:104F6400CFA50300494000207C28002000C0034056
:104F7400642A002000E00340EEA5030000D00340B3
:104F840044A60300002273B55A4B5B4D5B4C1A7068
:104F9400012023782A785A4912F0D2F82B78022B70
:104FA4001BD12378042B18D10FF0EEF95549024692
:104FB400012012F0C5F80FF0E7F900283ED10126D0
:104FC400514B1E700AF00CFB504B0090504A304677
:104FD400504912F0B5F8504B1E672A782378022AFC
:104FE4003FD10C2B4DD926F011F84C490246012033
:104FF40012F0A6F80122484B4FF47A7148481A6718
:1050040022F0E0F92B78012B0CD12378042B01D06A
:105014000C2B07D90122404B4FF47A7141481A678F
:1050240022F0D0F921782878FFF714FC00232370AC
:105034002B7002B0BDE87040FFF7E2BC0FF0A4F99A
:105044000228CAD105224FF0FF31012024F078F85C
:10505400354822F0ABF94FF4A021344822F0B2F9DC
:10506400BBE7012A3CD1012B0DD11A46012030495E
:1050740012F066F8C6E73C2A08D1022B2ED0022291
:1050840033E0012BF2D0022BBCD127E0032A21D03C
:10509400462A03D1022B21D0032226E0042A19D068
:1050A400502A03D1022B19D004221EE0052A05D070
:1050B4005A2A07D1022B11D0052216E0012B0BD15D
:1050C4000522D3E7062A05D0642AABD1022B05D0EA
:1050D40006220AE0012BC9D0022BA3D10223C5E783
:1050E400322AC8D1022BF9D001220120114912F031
:1050F40027F887E72C2900207F42002080420020E7
:1051040090A60300ACA6030049400020B3B70300F7
:10511400FCA4030001A5030000D00340CEA60300B5
:10512400642A002040390020842800207C280020A4
:10513400E2A6030005A70300084B1870084B1A7871
:1051440001321A70074A117881421EBF0121107082
:10515400197005484FF4C87122F034B97F42002019
:10516400804200200C4500202C290020002208B594
:10517400284B1A70284B186801280CD1274B1A7831
:10518400002A45D12649187011F0DAFF3220BDE813
:105194000840FFF7D1BF02280AD1224B1A78002A0F
:1051A40036D101202049187011F0CAFF3C20EEE7E7
:1051B400032809D11D4B1A7852BB01201C491870D1
:1051C40011F0BEFF4620E2E7042809D1194B1A78F2
:1051D400F2B901201849187011F0B2FF5020D6E737
:1051E400052809D1154B1A7892B901201449187071
:1051F40011F0A6FF5A20CAE7062809D1114B1A78E4
:1052040032B901201049187011F09AFF6420BEE7EA
:1052140008BD00BF0C27002038370020A043002021
:105224001FA70300A343002031A70300A6430020C7
:1052340043A70300A943002055A70300AC43002063
:1052440067A70300AF43002079A70300002270B5CD
:105254009B4B9C491A709C4AD1F8A4301078C3F334
:10526400001398421ED0D1F8A430984CC3F3001315
:10527400974D1370002B40F0EC80237833B94FF432
:105284007A71944822F09EF8012323702B7813B985
:105294000122914B1A700120904911F051FF012213
:1052A4008F4B1A6087498F4A4B691078C3F30013F8
:1052B40098421DD04B698C4CC3F300138B4D137073
:1052C400002B40F0E180237833B94FF47A718148A0
:1052D40022F078F8012323702B7813B90122844B30
:1052E4001A700120834911F02BFF02227C4B1A60B3
:1052F4007449814A4B6F1078C3F3C003984222D09B
:105304004B6F7E4CC3F3C0037D4D1370002B40F0F4
:10531400238101207B4911F013FF237833B94FF423
:105324007A716C4822F04EF8012323702B7813B95C
:105334000122754B1A700322694B4FF47A71654848
:105344001A6022F03FF85F49704A4B6F1078C3F33C
:105354000013984222D04B6F6D4CC3F300136D4D74
:105364001370002B40F0138101206B4911F0E8FE0B
:10537400237833B94FF47A71564822F023F8012385
:1053840023702B7813B90122644B1A700422544BF6
:105394004FF47A714F481A6022F014F84949604A70
:1053A4004B6F1078C3F34013984222D04B6F5D4C7F
:1053B400C3F340135C4D1370002B40F003810120B4
:1053C4005A4911F0BDFE237833B94FF47A7141483C
:1053D40021F0F8FF012323700522414B1A602B783A
:1053E40013B90122524B1A704FF47A71394821F0E3
:1053F400E9FF34494F4AD1F8A4301078C3F380034D
:10540400984200F01081D1F8A4304B4CC3F38003D0
:105414004A4D1370002B40F0F0800120484911F0F0
:105424008FFE237833B94FF47A712A4821F0CAFFEA
:10543400012323702B7813B90122424B1A700622E0
:10544400BDE87040264B4FF47A7122481A6021F06F
:10545400B9BF01203C4911F073FE2E7856B91E4B9A
:105464001B783BB10120FFF767FE384B1A683AB945
:1054740001221A600023174A2B702370137011E75E
:10548400012A08BF1E60F5E70120314911F058FEDA
:105494002E7856B9164B1B783BB10220FFF74CFE11
:1054A4002C4B1A683AB901221A600023094A2B705E
:1054B400237013701CE7012A08BF1E60F5E700BFC4
:1054C4002429002000C00340B3430020A14300204E
:1054D400A04300200C270020A24300208BA7030038
:1054E40038370020B4430020A4430020A343002005
:1054F400A5430020ACA70300B5430020A743002028
:10550400A6430020CDA70300A8430020B6430020F3
:10551400AA430020A9430020EEA70300AB430020C8
:10552400B7430020AD430020AC4300200FA8030084
:10553400AE430020B8430020B0430020AF43002016
:1055440030A80300B14300209BA703007829002062
:10555400BCA703007C2900200120354911F0F0FD8F
:105564002E7856B9334B1B783BB10320FFF7E4FD8B
:10557400314B1A683AB901221A6000232F4A2B7062
:1055840023701370DFE6012A08BF1E60F5E70120CF
:105594002B4911F0D5FD2E7856B92A4B1B783BB117
:1055A4000420FFF7C9FD284B1A683AB901221A6092
:1055B4000023224A2B7023701370EFE6012A08BFE0
:1055C4001E60F5E70120214911F0BAFD2E7856B985
:1055D4001F4B1B783BB10520FFF7AEFD1D4B1A682E
:1055E4003AB901221A600023144A2B7023701370F5
:1055F400FFE6012A08BF1E60F5E70120164911F0F5
:105604009FFD2E7856B9154B1B783BB10620FFF74A
:1056140093FD134B1A683AB901221A600023074A12
:105624002B702370137070BD012A08BF1E60F5E74C
:10563400DDA70300A8430020802900200C270020B8
:10564400FEA70300AB430020842900201FA8030009
:10565400AE4300208829002040A80300B143002065
:105664008C29002013B50EF08FFE78B90124124B5B
:105674001C7009F0B5FF114B0090114A20461149E6
:1056840011F05EFD104B1C6702B010BD0EF07CFEE5
:105694000228F9D105224FF0FF31012023F050FDFB
:1056A4000A4821F083FE4FF4A021094802B0BDE866
:1056B400104021F087BE00BF49400020B3B703006B
:1056C400FCA4030001A5030000D0034084280020AB
:1056D4007C28002010B504460949012011F030FD52
:1056E40023685B88012B08D1E37C33B9A368DB789A
:1056F400032B02D1034821F059FE002010BD00BF46
:1057040051A803007C28002008B50A46012002495C
:1057140011F016FD012008BD77A80300704708B5F5
:1057240001F05CF843F69923B0FBF3F202FB13009B
:1057340000F56A50183080B208BD00000022F0B5B0
:10574400644B654C97B01A700EF020FE2378312715
:10575400FA2B84BF012323704CF25D23ADF814307F
:105764004CF2C443ADF818304FF44063ADF81A302E
:1057740018238DF82030237800218DF821300A2356
:105784008DF8223003238DF8263004238DF827303A
:1057940008238DF82A3030238DF82B308DF82E30E5
:1057A4008DF82F308DF8313033238DF832300523C6
:1057B4008DF83330FF238DF836300623202201255F
:1057C40042268DF82C708DF837302E2721238DF842
:1057D40023108DF824108DF828108DF834108DF8CE
:1057E40038108DF825208DF829608DF83520ADF816
:1057F40016508DF82D708DF830708DF839308DF885
:105804003E606E268DF842606626344B8DF8436008
:105814001B8869268DF83A301B0A8DF83B30072324
:105824008DF83C3012238DF8446053268DF83F30B8
:1058340043238DF8486034268DF840306F238DF86B
:10584400496038268DF841308DF845303A238DF87B
:105854004A6035268DF8463052238DF84B604D262C
:105864008DF847308DF84C3045238DF84E604F2627
:105874008DF84D308DF851300C238DF84F6054263F
:105884008DF852300DEB02038DF854208DF855003D
:1058940005AA0846009336238DF83D108DF8531061
:1058A40001918DF850600EF00EF9237803902B448B
:1058B4002370FFF734FF00F5922101F57871054854
:1058C40021F080FD2846039A054911F039FC17B0F0
:1058D400F0BD00BF7C2800209E220020703C0020E8
:1058E400BCA8030030B500242D4B2E4D1C702B7822
:1058F40087B002AA002B43D021238DF8083020233F
:105904008DF80A30284B08201B788DF809408DF853
:105914000B30264B19788DF80C1059788DF80D1032
:1059240099788DF80E10D9788DF80F1019798DF8B3
:10593400101059798DF811109979DB798DF81210BE
:105944008DF8133005230121CDE900230A22184BD9
:105954008DF8141010F090FB2C7010F0F5FB01245E
:10596400047110F0F1FB00214471084610F0E8FBCB
:10597400024620460F4907B0BDE8304011F0E0BBB5
:105984000D4B4FF47C4118681B7902901371052369
:105994000820CDE900230A22054B10F06DFBDCE75B
:1059A400442900203E4000203F4000204140002088
:1059B400A4B60300DAA8030070A9030030B50025DB
:1059C400164B85B01D70C4238DF8093021238DF842
:1059D4000A30134B01241B780A228DF80C3005235E
:1059E400019302AB4FF47C41009308200D4B8DF8DA
:1059F40008508DF80B4010F03FFB10F0A5FB04712C
:105A040010F0A2FB29464471284610F099FB064980
:105A14000246204611F094FB05B030BD4C2900200D
:105A240041400020A4B60300F3A8030030B50025CC
:105A3400164B85B01D70C4238DF8093021238DF8D1
:105A44000A30134B01241B780A228DF80C300523ED
:105A5400019302AB4FF47C41009308200D4B8DF869
:105A640008508DF80B4010F007FB10F06DFB04712B
:105A740010F06AFB29464471284610F061FB064980
:105A84000246204611F05CFB05B030BD54290020CD
:105A940041400020A4B603000CA9030030B5002542
:105AA400164B85B01D70C4238DF8093021238DF861
:105AB4000A30134B01241B780A228DF80C3005237D
:105AC400019302AB4FF47C41009308200D4B8DF8F9
:105AD40008508DF80B4010F0CFFA10F035FB04712C
:105AE40010F032FB29464471284610F029FB064980
:105AF4000246204611F024FB05B030BD5C2900208D
:105B040041400020A4B6030025A9030030B50025B8
:105B1400164B85B01D70C4238DF8093021238DF8F0
:105B24000A30134B01241B780A228DF80C3005230C
:105B3400019302AB4FF47C41009308200D4B8DF888
:105B440008508DF80B4010F097FA10F0FDFA04712C
:105B540010F0FAFA29464471284610F0F1FA064981
:105B64000246204611F0ECFA05B030BD642900204D
:105B740041400020A4B603003EA9030030B500252F
:105B8400164B85B01D70C4238DF8093021238DF880
:105B94000A30134B01241B780A228DF80C3005239C
:105BA400019302AB4FF47C41009308200D4B8DF818
:105BB40008508DF80B4010F05FFA10F0C5FA04712C
:105BC40010F0C2FA29464471284610F0B9FA064981
:105BD4000246204611F0B4FA05B030BD6C2900200D
:105BE40041400020A4B6030057A90300002208B5D1
:105BF400034B1A700EF0C8FB0122024B1A6708BD52
:105C0400642A002000E003400022014B1A70704710
:105C1400B035002007B50022064B1A7009F0E0FCED
:105C2400054B0090054A0120054911F089FA03B09B
:105C34005DF804FB34290020B3B70300FCA403007F
:105C440001A50300AB2808B50B4A10D11368032B38
:105C54000DDC01330A210948136021F0B3FB012054
:105C6400074B08491867BDE8084011F069BA0023DA
:105C7400054913600B70F2E7A42A002034290020A0
:105C840000E0034075A90300494000200246024990
:105C9400012011F055BA00BF94A90300C37B10B5CD
:105CA40023B9C47C14B901F085F800B981242046D5
:105CB40010BD08B5C37B83B9C37C012B0FD0402B27
:105CC40010D053B9017D82898B1C9A4216D3806807
:105CD40010F06DFD08F0F2FB90B9812008BD08F0CA
:105CE40007FCF9E7037D81899A1C914206D38268F7
:105CF400591C515CD05C13F03BFFEDE78020EDE7CD
:105D04000020EBE7C37B10B5ABB9C37C032B12D8DF
:105D1400DFE803F002131621017D8289CB1C9A422D
:105D240024D38068445C013110F041FD01462046D3
:105D34000BF014FEE0B9812010BD0BF08BFEF9E7E7
:105D4400017D82890B1D9A4210D3806810F02CFDCE
:105D54000BF0D2FEEEE7017D82898B1C9A4205D3BB
:105D6400806810F024FD0BF0C9FEE3E78020E3E730
:105D74000020E1E708B5C37B7BB103690A4A23F439
:105D84007F03934209D1037D81895A1C914206D332
:105D94008268D05CFFF7C2FC18B9812008BD80205E
:105DA400FCE70020FAE700BF021000AF10B5437D06
:105DB4000446012B10D10368028A598858790FF0E0
:105DC400E3F848B123685B88032B03D0192B01D077
:105DD400C32000E0812010BD637D002BF8D123682F
:105DE400228A598858790FF0C6F80028F0D0236821
:105DF4005B880F2BEED007D88BB1032BE8D120465C
:105E0400BDE81040FFF755BF202B0DD04FF60152CF
:105E14009342DDD12046BDE81040FFF7ABBF2046DA
:105E2400BDE81040FFF73ABF2046BDE81040FFF739
:105E340069BF0120704701207047012070477047F7
:105E440000207047002070470020704700207047F2
:105E5400002070470120704701207047B52070472B
:105E640000207047002070470020704700207047D2
:105E7400704700207047002070477047704700202B
:105E84007047842070477047002070477047704700
:105E94007047002070470020704770477047704774
:105EA4000120704701207047002070470020704790
:105EB4000020704700207047034B1B6818780128A6
:105EC40008BF0220704700BF443200207047002002
:105ED400704700000123034AC0E903230022027033
:105EE400184670470100FEFF7047002070470020ED
:105EF4007047002070470020704700207047002042
:105F04007047002070477047B520704700207047E5
:105F1400002070470020704770477047B5207047D5
:105F2400704770477047002070477047704770474C
:105F3400704700000023FF21084A137082F878306C
:105F440082F8653082F8773082F8793082F87A10F6
:105F540082F87B30024A1360704700BFBF430020C1
:105F640090350020044B184490F8663090F8650092
:105F7400181AC0B2704700BFBF430020F8B5214CC7
:105F840094F87B201044C2B21046FFF7EBFF4FF0A9
:105F9400000C074660461C4B224492F865501E785C
:105FA40025445FFA8CF2974224D96B7811B10AB96F
:105FB4002D2B17D0782B21D0582B05D108B137229F
:105FC4000AE0013A012A16D9602B19D8402BF6D8D9
:105FD4003A2B34BF302200229B1ADBB29E4205D9F1
:105FE40000FB06300CF1010C0135DAE70523002033
:105FF40084F87930F8BD10260020F3E70028E0D0BB
:106004005722E9E7BF430020D3220020F8B50C460D
:106014008D680A6806462849202003F019F9636848
:106024007BB92020254903F013F920200CF046FD0C
:106034002020234903F020F9BDE8F84020200CF08B
:106044003DBD002EF1D06C1E1E4E1F4D1F4F14F887
:10605400013F23B91A49202003F00EF9E5E7752B17
:1060640018D0762B18D0772B18D0732B18D0722B0E
:1060740018D0712B18D0622B18D06E2B18D02A2B65
:1060840018D01349134A212B08BF1146202003F0CE
:10609400DFF8DCE72946F9E73146F7E73946F5E763
:1060A4000D49F3E70D49F1E70D49EFE70D49EDE738
:1060B4000D49EBE70D49E9E773DF0300E1A90300AC
:1060C4004AFD0300F6A90300EBA9030002AA03009A
:1060D400E8A9030023AA03000EAA0300D5A903001C
:1060E40018AA0300CBA90300E0A90300E5A9030053
:1060F400FFF720BF034B93F8770093F87B30C01A67
:10610400C0B27047BF4300200021FFF737BF000033
:1061140010B50A4B93F87B20024453FA82F292F8AA
:10612400652013445C78A4F12D0359425941FFF7CB
:1061340025FF2D2C08BF404210BD00BFBF430020E7
:1061440038B5C443094DE40F95F87B200244D2B21C
:1061540021B11046FFF706FF001B087045FA82F2D2
:1061640092F8650004440248204438BDBF4300202F
:10617400C04300202DE9F34115460E460DF10701F9
:106184001C46FFF7DDFF9DF807308046AB4288BF11
:106194008DF807509DF807700CB1EC1BE4B2224651
:1061A4000021304634F0CDF83A464146301934F0F7
:1061B400AEF8384602B0BDE8F08138B50C4601238C
:1061C4000822FFF7D7FF04F10803621E043413F812
:1061D400011D12F8015FA3421D701170F7D138BD83
:1061E40038B5054601460120FFF710FFD5E9014304
:1061F4006CB91C46084D236863B12946202003F07E
:1062040027F821460020FFF701FF0C34F3E71B7841
:106214006E2BEFD038BD00BFCBA6030008B52020FD
:10622400034903F015F8BDE8084020200CF046BCF3
:106234003EAA030010B5FFF7F1FF054C236803B92C
:1062440010BD21460020FFF7E1FE0C34F6E700BF45
:1062540040C003001E4B2DE9F0471E4E53F820208A
:106264001D49202002F0F4FF33681BB9BDE8F04754
:10627400FFF7E0BFFFF7D2FF0024184DDFF864807A
:1062840095F87B30E7B2013B9F4204DB3068BDE800
:10629400F047FFF7A5BF4FF0000A45FA84F393F8DF
:1062A4006590A9443846FFF75DFE5FFA8AF383429E
:1062B40005D320200A4902F0CBFF0134E0E74B4428
:1062C400414620205A7802F0C3FF0AF1010AE9E7A7
:1062D400801E0020903500207EAA0300BF430020CA
:1062E400CCA60300B8C803002DE9F84F824C94F8FB
:1062F4007730002B00F09680804B04F101081B7866
:1063040013F0010F1BD000257D4EE8B2FFF72AFEE3
:1063140044FA85F393F865100246414420200CF0BA
:10632400C8FB3146202002F093FF013594F8772012
:10633400EBB29A42E9D82020724902F089FF002684
:1063440094F877A0704A44FA86F3304693F865903F
:10635400FFF708FE4FF0000C6546C1441768002F94
:1063640050D0CE46013F18E023B9002D47D1154641
:106374000C32F3E71EF8011BA1F1410BBBF1190F1D
:1063840098BF2031A3F1410B98BFC9B2BBF1190FDB
:106394009CBF2033DBB28B42EAD1AEEB09018142D0
:1063A40017F8013FE0D1002BDFD11546574B0136DA
:1063B4001D6094F87B30F6B2013384F87B30D5E964
:1063C4000132A3B312786E2A30D03F2A23D04FF083
:1063D40000094FF0050BC846072394F87710AA6804
:1063E400B14212F8087029D8AFB1424453782A2B2D
:1063F40011D0212F1CBF032384F879300BE04FF018
:10640400010CB5E7BCF1000F01D1002DCED1022360
:10641400002584F8793094F87900002868D16868F8
:106424000FF098FEBDE8F84FFFF784BD1A46B24559
:1064340089D80323154684F87930ECE7622F30D0ED
:1064440006D8002F52D0212F3AD084F8793037E083
:10645400732F15D8702FF8D9732F1FD0722F47F6CA
:10646400FF7A18BF4FF0FF3A01214846FFF786FD37
:1064740050454FF0070323D9042284F879201FE004
:10648400A7F17502022AE0D8752F04D0762FE3D144
:106494004FF6FF7AE8E74FF0FF0AE5E74FF07F0A8F
:1064A400E2E794F87B204A4454FA82F292F8652099
:1064B40022445278222A03D07B2A01D084F879B06E
:1064C400AA68424452782A2A94F879201CBF08F119
:1064D40001085FFA88F8002A9DD1212F1FBF0136D9
:1064E40009F10109F6B25FFA89F976E70322C4E7F4
:1064F400FFF7B0FE96E700BFBF4300209B44002097
:10650400CCA603007BAA030040C003009035002002
:106514002DE9F34106460D464FF000085C4C5D4FF3
:1065240066B928460DF107010CF0BCFA78B12628AB
:1065340000F0AA80012384F879304BE0002D00F0AC
:10654400A38016F8013B013D8DF80730EDB23A788F
:106554009DF807300D2A3B7001D10A2BE0D00D2B9A
:106564000CD0A3F10A025142514122788846042AF0
:10657400D6D8DFE802F0051D263C31000121F4E7FE
:1065840021B1FFF7B1FE4FF00108C9E7202B64D019
:10659400222B07D10223237094F87820642A5ED139
:1065A4000623C8E77B2B01D10323F4E70123F2E799
:1065B40009B9202BF0D194F87730112B40D1032363
:1065C400B9E7222BF7D00029E6D005234FF00108C4
:1065D40084F8793004232370B8F1000FA0D094F824
:1065E400790008B1FFF736FEFFF7A4FC98E77D2B8E
:1065F40094F87A0003D1FF28DDD005239BE7602BB4
:1066040013D8402B13D83A2B34BF302200229A1AC5
:10661400D2B20F2A10D8FF280BD0FF2302EB0012AE
:106624008DF8072084F87A30B6E75722EFE737224F
:10663400EDE784F87A2073E7202B3FF471AFDCE7B1
:106644000133DBB294F8782084F87730234483F85C
:10665400652000232370002993D1884660E72378BE
:10666400012B09D19DF80730A3F1410119299CBFE1
:106674002033DBB28DF807309DF80710A3180132E0
:10668400597084F878204BE7404602B0BDE8F081A9
:10669400BF4300200B45002049BA89B24840C0F3EB
:1066A40003134340180380B258405B0103F4FF53C3
:1066B400584070471EF086BE704770477047704759
:1066C400704770477047704770477047704770470E
:1066D400002070477047704700207047704770472C
:1066E400002070477047704770470020704770471C
:1066F400012070470120704770477047704770470A
:10670400704770472DE9F0470024204EDFF89C9035
:10671400DFF89CA05FFA84F8404620F0BFF8FF2819
:1067240005460CD122461A49307802F0A5FD30788E
:1067340001340CF0C3F9152CECD1BDE8F087154BEE
:1067440047B233EA270328BF534659F82420124995
:10675400307802F091FD002FE9DA14B1B8F1030F9B
:1067640008D10E4B15F0010F0D49307808BF1946BA
:1067740002F082FD0A2CDAD10A4B15F0010F0A4906
:10678400307808BF194602F077FDD0E712230020C5
:106794003BAB0300A008040063AB030014AB03008D
:1067A400FEAA030030AB030026AB030064AC030075
:1067B4004AFD030082B2074B4AB1000C1A8008BF9D
:1067C4004FF6CE22044B14BF18801A8070474BF644
:1067D400EF62F2E792220020942200200B4BB3F9DF
:1067E40000201888002AB8BF80F0620042001A8096
:1067F400074AB2F9001013880029BCBF83F4805300
:1068040083F00B03590011805840704792220020F6
:10681400942200200022034B1870034B1970034B81
:106824001A707047824200208142002003450020F4
:106834002DE9F74FDFF89890064699F800300F4697
:10684400002B41D04FF6FB7398423DD80025DFF86A
:106854008480DFF884A098F800409AF80000694624
:1068640050FA85F0C0B22AF09BFC082239466846EB
:106874005FFA85FB33F02EFDF8B95C4698F80030DA
:10688400A3420AD199F80020631CDBB29A4288F82B
:10689400003004BF002388F800309AF800303946ED
:1068A4001C44E4B220462AF0B9FD68B931462046BA
:1068B40003B0BDE8F04F2AF041BC99F8002001353F
:1068C400EBB29A42C9D8D9E703B0BDE8F08F00BF54
:1068D400814200200345002082420020024B1878A8
:1068E40000F07F00704700BF784B0020034B1878FE
:1068F4000130C0B2187000F07F007047784B002060
:106904001FB5030A8DF80E300323009303AB8DF8F3
:106914000D0000F0CFF905B05DF804FB1FB58DF84C
:106924000F100421030A8DF80E30009103AB8DF88B
:106934000D0000F0BFF905B05DF804FBF0B589B0B7
:106944001768BDF838509DF83C60CDF80970576859
:106954008DF81250012E4FEA1525DDF840C0BDF820
:106964004440CDF80D708DF811308DF813508DF82A
:10697400146016D0032E1BD1DCF80030CDF815308E
:10698400DCF80430CDF819309DF848308DF81D300E
:1069940016230093BDF84C2002AB00F08BF909B02C
:1069A400F0BD8DF81540240A0F238DF81640F0E74A
:1069B4000120F4E71FB50446084611461A4602238F
:1069C4008DF80D100093214603AB00F073F904B069
:1069D40010BD10B514461A460B6886B0CDF80D30BC
:1069E4004B683421CDF811300A23009303AB8DF8A2
:1069F400154000F05FF906B010BD000030B500246A
:106A040085B0ADF80A20021D92B2012A1D46ADF8E8
:106A14000840ADF80610ADF8044003D94FF6FF72F4
:106A2400904207D1064A2B46127801A928F0F6FBBA
:106A340005B030BD014601AA204628F0B5FCF7E7B1
:106A4400192300202DE9F04F2DED028B87B00C4661
:106A54001D46174600904AB3104621F0CFF8C0F304
:106A6400470A2DB3284621F0C9F8C0F34708FFF7B9
:106A74003DFF009B8DF810008DF811308DF8134008
:106A84001B0A00220621240A04A88DF812308DF86E
:106A940014408DF815A021F0AFF9ADF80E0048B9F7
:106AA400182007B0BDEC028BBDE8F08F9246D8E702
:106AB400A846DCE74FEA4A01C9B201F1060B0731E7
:106AC4005FFA81F901EB48015FFA8BF3C9B20DF16A
:106AD4000E0008EE103A21F087FB04460028DFD1AF
:106AE400834606265FFA8BF18A45BDF80E3011D82D
:106AF400424618EE101A184621F0EAFBE6B2B045F9
:106B0400BDF80E3027D80621BDF848200098FFF7BD
:106B140075FFC6E7490001F0FE013846019321F0F4
:106B2400C3FB019B02463146184621F0D1FBBDF858
:106B34000E30711FC9B23846019321F0B5FB019B99
:106B4400711C0246C9B21846023621F0C1FB0BF192
:106B5400010BF6B2C6E77600F6B231462846019339
:106B640021F0A2FB019B02464946184621F0B0FBE6
:106B7400711CC9B22846BDF80E7021F095FB09F1CD
:106B840001010246C9B2384609F1020921F0A0FB0D
:106B940001345FFA89F9B1E7F0B589B00E4602A96C
:106BA40005460DF0C3FC00287ED0FFF79FFE8DF84C
:106BB400100020F055F88DF8110020F051F83C4AEF
:106BC400000A13688DF81200CDF8133053680F21B2
:106BD400CDF81730BDF8083000228DF81C301B0AA0
:106BE4008DF81D309DF80D3004A88DF81B508DF8DC
:106BF4001E3021F001F9ADF80600002856D0002718
:106C04009DF80D30FAB2934216D801230DF10E010E
:106C14001A460DF1060021F02BF900279DF80E30DD
:106C2400FAB2934224D8324620210020BDF806301F
:106C3400FFF7E4FE09B0F0BD002128460DF0A2FCE8
:106C4400012304461A468DF805000DF105010DF1E6
:106C5400060021F00DF90123240A1A460DF105015D
:106C64000DF106008DF80540013721F001F9C7E761
:106C7400012128460DF086FC012304461A468DF8AE
:106C840005000DF105010DF1060021F0F1F80123D5
:106C9400240A1A460DF105010DF106008DF8054090
:106CA400013721F0E5F8B9E7A320C3E71820C1E7CD
:106CB4007D440020F7B50E469DF820101C4617466B
:106CC40001910546FFF712FE00222070019920462B
:106CD40021F092F8034638B13A463146284603B0CB
:106CE400BDE8F040FFF78ABE182003B0F0BD08B538
:106CF400FDF7C2FF11F07CFABDE8084006F040B988
:106D040008B5FFF7BAF811F0A1FA06F0D1FABDE818
:106D1400084007F059BC08B5FFF7B0F8BDE80840D3
:106D240008F070B90AF0ECBEFEF7D4BCFFF7E5B882
:106D34000020704738B504460D46FFF7F6F829469B
:106D44002046BDE838400CF073BBFFF7D8B8FFF716
:106D5400E1B840220321012011F042BF01220321A6
:106D6400104611F03DBF00220321012011F038BF6D
:106D740002220321012011F033BF01220021092046
:106D840011F02EBF002307B5CDE900330123694676
:106D94004FF0FF308DF8023014F026F9003818BF98
:106DA400012003B05DF804FB012070470120704707
:106DB4000120704710B5084C23681B6858790EF001
:106DC40046FC23681B685879FFF760F8002011F02F
:106DD400D1FB012010BD00BF403200202DE9F74F48
:106DE40006460D4614461F464FF0010BDFF8789017
:106DF40003F10C0A15B903B0BDE8F08F102DA846B5
:106E040028BF4FF010083A46164B5FFA88F152F843
:106E1400040B524543F8040BF9D101919AF8002070
:106E240011481A70002389F80F4089F800B089F8D6
:106E34000E302AF08FFB324601340B480199E4B23C
:106E440012F801CB10F8013B83EA0C0302F8013C71
:106E5400931BDBB29942F3D8A5EB08051646ADB2F5
:106E6400C8E700BFB0440020AF4400202DE9F74F2D
:106E740001930D9B8046009303461646BDF830905F
:106E8400324A0F4600F10C0153F8040B8B4242F8CE
:106E9400040BF9D11B784FF0020A137049232C4CD0
:106EA400237020464FEA1923A37384F80F902AF025
:106EB40051FB5246237883EA162323706378734088
:106EC40063704FF0000B1BE0C2F11005A6EB0B033F
:106ED4009BB2ADB29D4228BF1D4600231FFA83FC1E
:106EE400D018AC45C0B21BD32A44D2B2AB44102A4A
:106EF4002F441FFA8BFB03D120462AF02BFB0022E0
:106F0400B345E1D312B120462AF024FBBAF1010FB4
:106F14004FF000020ED04FF0010A4E46019FD0E719
:106F240017F803C014F800E001338CEA0E0C04F8DF
:106F340000C0D3E72368009900980B6043460421FE
:106F440003B0BDE8F04FFFF749BF00BFB0440020D5
:106F5400AF440020F7B5099FBDF820500646CDE99F
:106F640000571C46FFF782FF2DB133460122294604
:106F74002046FFF733FF002003B0F0BD2DE9F743AF
:106F84001D4604460E461746BDF82890DFF83480A7
:106F94000346494628460122FFF720FF2B463A467E
:106FA40031462046CDE90098FFF760FF04224146B0
:106FB4000B9833F08FF9002814BF7E20002003B013
:106FC400BDE8F083B943002073B51C46044D8B180B
:106FD4001E59CDE900452E60FFF7D0FF02B070BD09
:106FE400584500200020704700207047002070475B
:106FF400704770472DE9F34100240C4E0C4DDFF827
:1070040038800C4F56F8043B0BB9D8F8003035F8EB
:10701400022B3946009201202246013410F090F8E8
:10702400292CEFD102B0BDE8F08100BFA8210020D7
:107034004A3E0020C0C403005C22002008B5FFF7CC
:10704400D9FFBDE8084000F0F9B8000007B50020FA
:10705400FFF75AF8C2B2282A0DD8084B53F8223049
:107064000BB9074B1B680749012031F81210009136
:10707400054910F065F803B05DF804FBA821002071
:107084005C2200204A3E0020C0C40300FFF7B2BFC8
:107094007047000038B50020FFF736F80446012099
:1070A400FFF732F805460549012010F049F8A9B266
:1070B400E0B2BDE8384000F0D9B800BFCBC403004B
:1070C4002DE9F34100240C4E0C4DDFF838800C4FB1
:1070D40056F8043B0BB9D8F8003035F8022B394682
:1070E400009201202246013410F02AF8292CEFD115
:1070F40002B0BDE8F08100BFA82100209C3E002022
:10710400C0C403005C220020F7B502AB0446174656
:1071140003E906001FF0E2F9064620461FF0EEF9E7
:107124009DF800508EB1202C0FD83B78012B33D81A
:107134004FF6FF703A4903EB4313234431F813200D
:10714400824202D0013221F813204FF6FF72354BF0
:10715400354E33F8140036F8141090421CBF421C0C
:1071640023F8142004F0FD02092A2ED19A8AB68A43
:107174002A44B242B4BF9A829E8233F814308B42BE
:107184002ED20025294B13F8012B94422ED0013521
:10719400112DF8D103B0F0BD022BD6D14FF6FF72FA
:1071A4004FF6FF701E4B33F81410914218BF013193
:1071B40004F1210218BF23F8141033F8121081428D
:1071C4001CBF013123F81210BFE71D2CD5D15A8FF3
:1071D40056198E4203DA013A2A445A87CDE7598771
:1071E4008842CED22046FEF752FECAE731F06DF94E
:1071F4000F4B04461B78834203D8DD210D4800F071
:10720400DDFC4FF6FF710C4A04EB04142C4432F8F5
:1072140014308B42BED0013322F81430BAE700BFD9
:10722400EE3E00204A3E00209C3E002037C803006A
:10723400ED220020B3C70300723F00205222002138
:10724400014833F07EB800BF4A3E00205222FF219D
:10725400014833F076B800BF9C3E002008B5FFF724
:10726400EDFFBDE80840FFF7F1BF0000014B23F834
:10727400101070479C3E0020032310B50F4C1022C1
:10728400C4E904330E4B0F49E3610023A161216675
:107294000D49E01DC4E919120C49A3626362E3625B
:1072A4002367E3666367226233F05DF8204608498A
:1072B40033F059F82023A37110BD00BF002400202F
:1072C4006E42002048C803005E42002051C80300FB
:1072D40055C803002DE9F84FDFF87C80824698F802
:1072E4000030894616460BB9FFF7C6FF182707FB7F
:1072F4000A873D6FD7F86CB05D452BD9BC6E796EAB
:10730400641BB44228BF344648462944224632F01E
:10731400F1FFBB6E2544AB4208BF0025A144361BD8
:10732400ABEB0502964228BF164656B1182303FB61
:107334000A83596E32462944484632F0DBFF34440E
:10734400354424B1182000FB0A88C8F87050204640
:10735400BDE8F88F0024E3E70024002037B5044695
:10736400CDE9002104F09BFBDDE900210546204620
:10737400FFF7B0FF0446284604F097FB204603B00D
:1073840030BD00002DE9F843134C1E462378814696
:10739400884617460BB9FFF76FFF002504F07FFB03
:1073A40061690D4A536E3BB10135A94202F11802DD
:1073B400F8DC4FF0FF350AE0A942FADD182202FB9F
:1073C4000544C4E91898A7662367E366666704F072
:1073D4006CFB2846BDE8F88300240020FFF74CBF6F
:1073E40070B54FF060441C4B0026D3F8F0201B4DC1
:1073F40042F00102C3F8F020D3F8FC200C2042F044
:107404008072C3F8FC20164BC4F8B03F0223C4F8C2
:10741400006EC4F8806EC5F8F03003F0F7FF114B2E
:1074240000F5D52000F2FC40B0FBF3F00E4A0F4B00
:1074340001382861C4F8406E1A600D4BC4F8803ED0
:107444004FF48073C5F80433D4F8003E43F48073DA
:10745400C4F8003E70BD00BF00ED00E0000004E091
:1074640055CEACC5F8590D00FF030040001000E0F4
:107474000D00010010B50124104B0020C3F8444452
:1074840004F0C8FB234604220321002004F01EFC60
:10749400204613F0EFFAFFF7A3FF13F0ECFA084BC2
:1074A4001C70FFF79BFF2346402206490648FFF75E
:1074B40069FF064B1860C00F10BD00BF00D0034029
:1074C40053440020174500205CC80300002100201D
:1074D40038B5184C04F0E3FA2378022B05BF0323D4
:1074E40000250125237004F0E0FA15BB4FF060433A
:1074F400D3F8802ED10711D50F490A6822F44062CF
:107504000A60D3F8802E22F00102C3F8802ED3F84B
:10751400802E1202FBD4642030F038FA0023074A8C
:10752400C2F8F030C2F80433054AC2F8F03001233F
:10753400237038BD53440020001000E0000004E034
:1075440000ED00E0034BD3F8F000003818BF012031
:10755400704700BF00ED00E0D123054A03701378A3
:107564004170090A8170591CC3701170042070475E
:107574005D4500202DE9F74F91F800808246B8F16F
:10758400040F0F465FD930F0AFFA4FF6FF760024B0
:1075940008F10505DFF8B890EDB20190D9F8F020B4
:1075A4000AB1A54207D8281B18BF012004233B7049
:1075B40003B0BDE8F08F30F097FA019BC01A80B297
:1075C400B0F5FA7F41D8A4B3012C36D0EA1E04F1F9
:1075D400010B94425FFA8BFB19D1F4B24FF0604275
:1075E400D2F8801ECB0710D5D9F8FC1041F0807179
:1075F400C9F8FC10D2F8001E41F48071C2F8001ED4
:10760400116A0029F0D082F820405C46C6E7AA1E21
:10761400944202D1C6F30724E0E76A1E944210D0D4
:10762400544414F8024C31462046FFF735F8064618
:10763400D4E75B244FF0010BD0E744464FF0020B34
:10764400CCE75D24CAE70020B0E70120AEE700BF25
:1076540000ED00E000B5084B91B04022694618687F
:10766400FFF77CFE20B1C2B26946122012F05EFC24
:1076740011B05DF804FB00BF0021002000F0CCB87D
:1076840000F08ABA10B5002090B0FEF73DFD40220C
:107694006946044600F030FA034630B12246012020
:1076A40005490FF04DFD10B010BD012269460820B8
:1076B4000FF0D6FCF7E700BF6CC8030010B500F06C
:1076C40093F8002814BF79226E22012013490FF089
:1076D40037FD00F089F8F8B100F056FA002814BF1D
:1076E40079226E2201200E490FF02AFD0222012088
:1076F4000C490FF025FD0C4B01201C1F53F8042CE2
:107704000A490FF01DFDE26804F110030120BDE8F1
:10771400104006490FF014BD3F22E3E7A4C803005C
:10772400BBC80300CBC803004C320020EAC80300E6
:1077340070B500F07FF804461F4901200FF000FDEA
:107744002CB9BDE8704001201C490FF0F9BC00F0D1
:1077540079F8054622690120194926880FF0F0FCC2
:107764006288012017490FF0EBFC1749A288012019
:107774000FF0E6FC6388E28813F0100F14BF13497E
:10778400134901200FF0DCFCA268012011490FF01D
:10779400D7FCE268012010490FF0D2FC0F4A104BCD
:1077A4000120B6F5817F28BF13460E492A46BDE85D
:1077B40070400FF0C5BC00BF1FC903002CC90300F3
:1077C4004DC903006BC903008CC90300A9C9030098
:1077D400C6C90300E4C9030002CA03000DC90300BB
:1077E40017C9030020CA0300034B1878012894BF6B
:1077F40000200120704700BF5B44002038B50446D8
:10780400044D2878A04203D02146FEF741FB2C709A
:1078140038BD00BF5B440020054B1B7820B1012B11
:1078240004D80220FFF7EABF012BFBD8704700BF42
:107834005B44002008B500F019F8BDE8084005F0E5
:1078440097BD000010B5084C237853B9FFF7F2FF39
:107854000123237028B10388B3F5817F24BF037DFE
:107864002370207810BD00BF754B002070B5154BF8
:107874001B78012B25D805F063FD134D02461349EF
:1078840001200FF05DFC0120FFF7C6FF2E78FF2ECC
:1078940017D105F06DFD98B144881822C4F3400453
:1078A40031460B482C7032F04CFD54B1FFF7CAFF3F
:1078B400042806D9BDE87040D021064800F07EB9FE
:1078C400287070BD5B4400200223002043CA0300DB
:1078D4004832002055CA0300FFF7C8BF2DE9F04F16
:1078E400654B87B005468846144693E8070003AB0A
:1078F40083E80700FFF7BAFFFFF7A4FF5F4B0646D4
:1079040093F800A0BAF1010F1AD1012818D9B5FBD8
:10791400F0F300FB13539BB1594F3A68511C03D049
:107924003B7A13449D4229D0FA68531C03D03B7D13
:1079340013449D4224D040F23111524800F03EF9E4
:107944004E4B1B78012B67D1B5FBF6F306FB1353A3
:10795400002B58D16319B3FBF6F206FB1236002E46
:107964005AD0A41B9B1B08EB0401324604A80393C2
:10797400A4B232F0BFFC8DF814604DE04FF0000A61
:107984000C2303FB0A73187A4146331A5FFA83F90E
:107994000AEB4A034FEA830BA1450BF1040328BF0A
:1079A4005FFA84F918444A463844019332F0A2FC41
:1079B4000C2202FB0AFA07EB0A010A7AA4EB090477
:1079C4004A44D2B2B242A4B20A7219D10320FFF7D8
:1079D40015FF0199B2B2394457F80A0005F00EFDBB
:1079E40082460220FFF70AFF4FF0FF3207EB0B013C
:1079F40047F80B20C1E90122BAF1000F32D1C84483
:107A0400F4B14D449CE74FF4AD711E4800F0D6F834
:107A14001A4B1B78012B9DD0ACB9039B01330FD0BB
:107A2400174B1A68013221D0DA68013220D10122C1
:107A34000C2101FB02330DEB010207CA83E80700A6
:107A44004FF0000A0EE00320FFF7D8FE224641461D
:107A5400284605F0D3FC82460220FFF7CFFEBAF198
:107A6400000FDAD0504607B0BDE8F08F0022DFE700
:107A74004FF0010AF6E700BFC8CA03000223002042
:107A84004832002055CA030038B5184B1B78012B27
:107A940028D1174DFFF7EAFE2B6801330FD00320DE
:107AA400FFF7ACFE2C68FFF7CDFE291D82B22046FD
:107AB40005F0A4FC04460220FFF7A0FE9CB9EB6885
:107AC40001330FD00320FFF799FEEC68FFF7BAFEED
:107AD400084982B2204605F091FC04460220FFF7D3
:107AE4008DFE04B90024204638BD00BF02230020C7
:107AF400483200205832002013B50446CDE9002155
:107B0400FFF7B4FE0420FFF779FEDDE900212046EB
:107B140005F083FC04460220FFF770FE204602B005
:107B240010BD000070B504460D46FFF79FFE05200A
:107B3400FFF764FE2946204605F07EFC0646022037
:107B4400FFF75CFE0E4B1A68501C09D0944207D80C
:107B540061198A423EBF4FF0FF32C3E900229A60A6
:107B6400DA68511C0AD0A24208D361198A423FBF85
:107B74004FF0FF320349DA60C1E90122304670BD9B
:107B8400483200205432002008B5FFF76FFEBDE8EC
:107B9400084005F060BC000008B5064B1B78012BBB
:107BA40006D905F015FC0120FFF728FE012008BDC9
:107BB4000020FCE75B44002042DE704738B50446F1
:107BC4000D4600F08DFD03F062FF2946204612F0B9
:107BD40079F92B462246054901200AF075FF29460A
:107BE4002046BDE83840FFF7E7BF00BFD4CA030012
:107BF4006E4B2DE9F0415A686D4CA2655A6AE265F4
:107C04006C4AD2F800122166D2F8042262669A6A9B
:107C1400A266DA6AE2661A6B22675A6B6267A26B23
:107C2400DB6B12F0040FA367D4E90F3508BF1D46C0
:107C34002FF0FEFE002285420346606522655DD377
:107C44005D4A95425AD8AA696264E969A164B4F8A4
:107C54005810C1F30801062954D158498A4251D316
:107C640057498A424ED211884DF64262914249D117
:107C740040F201706268C4F89420A268C4F89820A5
:107C8400504A934238BF13464F4A93423DD3D31AC6
:107C9400E3640023C4E91F33C4E92133C4E9233373
:107CA400494EDFF818C1DFF818E1AE4233D8D4E901
:107CB4001FC7D4E92165D4E923124FF0000E013B1C
:107CC400DBB2FF2B42D1BEF1000F05D0C4E91FC7C0
:107CD400C4E92165C4E92312B4F85830C3F3080396
:107CE4000C2B41D8022B57D9DA1E092A54D8DFE8C5
:107CF40002F05A37464953535353535000221D46FA
:107D0400C4E911224FF42060BAE71968B1F1CD3FFC
:107D1400BDD10433B9E756F8042D6245C5D3724585
:107D2400C3D2D107C1D50021284F57F8048B904501
:107D3400BBD00131C9B20629F7D10BB9052301E043
:107D4400013BDBB204EB8301CA67AEE7E0464FF0C8
:107D5400010EBC4637462E460D4611464246AEE756
:107D640040F60220BDE8F0813B2B15D1184B9B69EE
:107D740013F0020F40F2025318BF1846F2E740F620
:107D84000320EFE740F60423B0F5206F08BF184640
:107D9400E8E740F60520E5E740F60722013B4B2BD8
:107DA40098BF1046DEE740F60120DBE700ED00E077
:107DB4000000002000E100E0601700204C430000B8
:107DC400B0A303009C000020801700207C0000204A
:107DD4000080014A07B501F001FD01230322194681
:107DE400184603F073FF0120064901F00FFD01233B
:107DF4001A4619461846CDE9003303F00DFF03B0C7
:107E04005DF804FB617E000001280ABF014B0020DD
:107E140018787047B2430020012804BF014B197041
:107E2400704700BFB2430020012805D1034A1378EC
:107E3400B3FA83F35B091370704700BFB2430020A9
:107E4400012809BF044B0020586C6FEA500008BF9A
:107E540000F00100704700BF00C0034038B504467D
:107E6400FFF7EEFF0146002220460D46FFF7E8FF2C
:107E7400A8420146F7D10132052AF5D12046FFF781
:107E8400C3FF8842204608D0FFF7C6FFFFF7BCFFB8
:107E9400014620460CF0C8F938BDFFF7C5FFFFF7CF
:107EA400B3FF014620460CF0BFF92046FFF7BCFFA4
:107EB400ECE7000010B504F0C7FA044604F0BCFA7D
:107EC4000022012101FA02F3234014D01D4B1E4964
:107ED40033F81230062B14D040F2072293420DD10E
:107EE4001A4A1B481468844208D14CF23C3353802C
:107EF40013880B8015E00132102AE3D1124A138053
:107F04000FE04FF20F03114A5088984216D113889C
:107F1400B3F5406F28BF4FF4C0630B804CF23C3381
:107F24005380094B1A8840F201739A4201BF094BEE
:107F3400094AD2E90001C3E9000110BD4FF4C0634E
:107F4400EBE700BFE8CA0300E43F00200000002084
:107F540007020FF03439002094000020014B1888E8
:107F6400000A7047E43F0020014B1888704700BFA7
:107F7400E43F00202DE9F04F4D4D0446AB6BD5F89E
:107F840050B05A0747BF0027B846D5F84CB0D5F8CB
:107F94005480D5F840A05DBF464FD5F83CA0DFF82B
:107FA4003C91DFF83C9113F0080F434B434A18BF50
:107FB4001A46B7EB08061FBF6421730801FB0B3395
:107FC400B3FBF6F387B01CBF9BB205933C494B4609
:107FD400CDE9017ACDF8008008BF059601F04CF98F
:107FE400B3B2CDE900932046059B36491FFA8BF2C4
:107FF40001F042F9AB6B5B070AD49C3E5E4507D1A6
:108004006A6D314B9A4203D22046304901F034F96B
:10801400BA4501D8C24504D24A4620462C4901F04B
:108024002BF920460AF04AFDD5E91823134337D02B
:108034002046284901F00CF900260127DFF8A48026
:10804400DFF8A4902A6E07FA06F3134207D058F813
:10805400262013781BB14946204601F0F9F8013671
:10806400202EEFD100260127DFF87880DFF8789002
:108074006A6E07FA06F3134209D008EB8603D3F8B5
:10808400802013781BB14946204601F0E1F80136FF
:108094001D2EEDD1204607B0BDE8F04F01F0E6B843
:1080A40020460D4907B0BDE8F04F01F0E5B800BF28
:1080B400000000208017002015CB03001CCB030018
:1080C40024CB030052CB03009C0000208BCB030085
:1080D400B7CB0300D5CB030004CC030008CB0300CB
:1080E4000DCB030044D5030072DF03002DE9F843F0
:1080F4000446FFF739FF40F6052398420ED8B0F541
:10810400206F0DD840F20253984217D040F2017309
:1081140098421ED040F2015398420AD0BDE8F88339
:10812400A0F602205F4D03281FD8DFE800F0386571
:1081340098B55D49204601F09FF811E020465B495F
:1081440001F09AF8574B5A6C2046594901F094F8BB
:1081540006E0544A2046D2E92523564901F08CF81A
:108164002046BDE8F8430AF0A9BC2046524901F074
:1081740083F895F86C309F0703D520464F4901F0EA
:108184007BF895F86F305E0603D520464C4901F024
:1081940073F895F96F30002BE2DA4A49CAE72046B2
:1081A400494901F069F895F86830980704D02046E9
:1081B4006A6C3F4901F060F895F96830002B04DAE5
:1081C40020466A6F414901F057F800260127DFF87D
:1081D4000881DFF81491AA6E07FA06F3134207D058
:1081E40058F8262013781BB14946204601F044F87C
:1081F4000136082EEFD1B3E73549204601F03CF8AB
:108204002B4920466A6C01F037F895F86930590714
:1082140003D520462F4901F02FF895F96930002B3A
:1082240004DA20466A6F294901F026F808262A4F05
:10823400DFF8B480AB6EF340DA0707D557F8262091
:1082440013781BB14146204601F016F80136102E72
:10825400F0D195F86830002B82D120496AE7204993
:10826400204601F009F820466A6C114901F004F82F
:108274001026194FDFF87080AB6EF340DB0707D58B
:1082840057F8262013781BB14146204600F0F4FF2E
:1082940001361A2EF0D163E72046124900F0ECFFB4
:1082A4006A6C51E70000002019CC030056CC03008F
:1082B40086CC03009FCC0300B9CC0300D1CC0300CF
:1082C4000BCD03003ECD03007ACD03009FCD030008
:1082D400C3CD0300DACD0300DCD4030020CE0300B9
:1082E40050CE030069CE0300BBCD03002DE9F84F47
:1082F40004460026154DDFF85C80DFF85CA0DFF84B
:108304005C902A465146204658F8043BF7B200F0E8
:108314009FFF2A78AB460135002AFAD19BF8012049
:1083240092B10B4907F00307032F08BF49462046C3
:1083340000F08EFF20460AF0C1FB9BF801300136A5
:10834400002BDED1BDE8F88F4946F0E738D60300AC
:10835400FFF90300040000208ACE03007BAA030077
:1083640000F00CB800F00AB800F008B800F006B845
:1083740000F004B800F002B800F000B872B61EF0C5
:10838400080F09D01EF0040F0DD0DFF850E0AEE85E
:10839400FF1F6FF002000CE0DFF840E0AEE8FF1FC3
:1083A4006FF00E0005E0DFF834E0AEE8FF1F6FF079
:1083B40006006946EFF309828EE8070086460848FE
:1083C400084C854501D3A54501D384F30888FFF7FC
:1083D4000FFC84F308882FF007FB00000400002042
:1083E400600E002080170020FFF7C6BF0023042280
:1083F4001946184603F06ABC084A12F8303002EBFA
:10840400C002516801228A4030214B4343F21001DB
:1084140003F1804303F570335A50704704D70300C7
:108424007047000000F07E63B3F17E6F70B50546BF
:108434000E46144616D106F0C5FC18B19A210D4813
:10844400FFF7BCFB22463146C5F30B0004F0B8F835
:10845400044606F0C5FC5CB19D21BDE870400548AA
:10846400FFF7ACBB52082FF061FA08B18F21F4E793
:1084740070BD00BF04D7030037B515461A464BF24A
:1084840034637F2D08BF00259942044619D17F2209
:1084940041F2020168460823FFF7EEFF082268460E
:1084A400264931F017FF30B908237F2241F2F01139
:1084B4006846FFF7E1FF6B4603CB2060616003B0C1
:1084C40030BD41F2F01399421BD100211C4B9D6C2D
:1084D400D86CCBB25AB9002AF1D0E0540133D9B2E6
:1084E40007294FEA102002F1FF32F4D9E7E7655477
:1084F400013104294FEA152502F1FF32E9D10B4677
:10850400E9E701F47043B3F5805F0AD1C1F30B04CA
:1085140004F17E6402FB054103B0BDE8304031F054
:10852400E9BE01F46043B3F5005FC8D1C1F30B04A5
:108534000449214402FB0511EEE700BF8CD7030078
:108544000080E00F00E00F0070B5054616461C469B
:10855400DBB14BF23463994210D1082C28BF0824B4
:108564007F2241F202012346FFF786FF2246284676
:10857400064931F0AFFE40B941F2F01123463246CC
:108584002846BDE87040FFF777BF70BD8CD7030065
:108594002DE9F7430446E0070F46154603D5DD21D0
:1085A4003548FFF70BFBE90703D5DE213248FFF717
:1085B40005FB04F47043B3F5805F3ED1C4F30B04B0
:1085C40004F17E642D4A6B1E23449342264603D94C
:1085D400E3212948FFF7F2FADFF89C9006EB05083F
:1085E40046453DD1A2070ED04FF6FF7337F8022B54
:1085F400A01E43EA024304220DEB02010193FFF79C
:1086040011FF0234023DAB070ED0023D25F00103F9
:10861400FB5A04226FEA03436FEA13430DEB020192
:1086240060190193FFF7FEFE1DB32A463946204622
:1086340003B0BDE8F043FFF7F5BE04F46043B3F5BF
:10864400005F05D10E48C4F30B0404442646C3E777
:10865400EA210948FFF7B2FA6FF00F060024BBE7DE
:1086640016F8013BFF2BBBD0F4214846FFF7A6FACE
:10867400B6E703B0BDE8F08304D70300FF1FE00FA3
:1086840000E00F00FFF76CBE1FB5124A01AB106883
:108694005168128903C31A800D238DF80A3003230D
:1086A4000D4C082124208DF80B3003F00DF82046E2
:1086B40001A904F000FA4FF400610223074A04F50B
:1086C400005004F58054C2F8841183615160E36161
:1086D40004B010BD94D703000080014A00E100E01B
:1086E400014804F0D7B900BF0080014AA52803D18E
:1086F4000021024804F0BFB9704700BF0080014A5E
:10870400024B586800F00100704700BF0080014A26
:10871400024A536A002BFCD1704700BF0080014A13
:1087240000207047002070477047000007B572B6FC
:1087340003F0ADF98B4B8C495B6940228B600023BD
:108744000B764B768B76F023CB760B774B778B7748
:10875400CA77802281F8202081F82130E02360202C
:1087640081F82230814B81F8232083F8002383F899
:10877400012383F8022383F8032383F8042383F873
:10878400052383F8062383F8072383F8082383F853
:10879400092383F80A2383F80B2383F80C2383F833
:1087A4000D2383F80E2383F80F2383F8102383F813
:1087B400112383F8122383F8132383F8142383F8F3
:1087C400152383F8162383F8172383F8182383F8D3
:1087D400192383F81A2383F81B2383F81C2383F8B3
:1087E4001D2383F81E2383F81F2383F8202383F893
:1087F4002103202083F8222383F8232383F82423CE
:1088040083F8252383F8262383F8272383F8282352
:1088140083F8292383F82A2383F82B0383F82C0372
:1088240083F82D2383F82E2383F82F2383F8302312
:1088340083F8312383F8322383F8332383F83423F2
:1088440083F8352383F8362383F8372383F83823D2
:1088540083F8392383F83A2383F83B2383F83C23B2
:10886400CB6823F4E0631B041B0C43F0BF6343F4A5
:108874000133CB604B6943F010034B614FF4E023A9
:108884004B6204F019FFFFF715FBEFF308834FF079
:10889400CD31374A043B934260D2364A002192B22A
:1088A400354831F04EFD62B6684603F0ADFE334AFA
:1088B400936DDB0313D4536B23F4FF0323F4FE43C0
:1088C40043F4BC1343F4A0635363136B23F4704366
:1088D40043F440431363136B43F4E06313639DF861
:1088E4000130012B0FD19DF8003063B94FF00053D4
:1088F4001B68234B1B68234B1B68234B1B68234BB0
:108904001B68234B1B68234AD2F8803043F00303CF
:10891400C2F8803005F0C0FA02224FF040231A67F3
:1089240004F04CFE01F0DCFB002300938DF80430CE
:10893400012368468DF8033003F04EF900F0F4F893
:108944002FF0E4F805F0AAFA00F0FEF812F0D2FDD8
:10895400114805F077FC03B05DF804FB43F80419F3
:1089640099E700BF0040000000ED00E000E100E0F6
:10897400200E00205C0D0000A000002000C000407C
:10898400004000200080002000C0002000000120E2
:1089940000400120008000404CDE030040F20160F2
:1089A4002FF022B804F008BE04F007BEFEF720BB87
:1089B40008B500210B20FEF719FBBDE80840FEF7BF
:1089C40018BB08B1FDF7B3BAFDF7B0BA032000F045
:1089D400B1BA000008B5FFF7C1FA044B0B2896BFE3
:1089E40000B2184603EB800008BD00BFE6D80300C0
:1089F40008B5FFF7B9FA044BC0F30F2253F822303D
:108A0400C0B203EB800008BDB0D8030010B5FFF777
:108A1400A5FA0446FFF7A8FA10F0FF0005D1012CCF
:108A240023D164F07F04E4B215E0072CF9D801A344
:108A340053F824F05B8A0000278A0000598A00005A
:108A44005F8A00005F8A0000638A0000678A000072
:108A54006B8A00000924204610BD0224FBE703248E
:108A6400F9E70B24F7E70624F5E70446F3E700BF2C
:108A740038B50D46044688BB284B4A1E1860504240
:108A84005041013D0AF08AFA032D46D8DFE805F08B
:108A940002131E2001210846FDF74AFAFFF730FEB3
:108AA4001F4B187010B1A520FFF720FEBDE8384019
:108AB40001200AF073BA02210120FDF739FAFFF709
:108AC4001FFE50B3BDE83840FFF722BE0421F3E790
:108AD40005210120BDE83840FDF72ABA104B1B7868
:108AE4001BB101210F4803F0C6FF631E58425841D1
:108AF400013C0AF075FA032C0FD8DFE804F00208F1
:108B04000A0C01200AF06CFA01210020E2E702219C
:108B1400FBE70421F9E70521F7E738BD5C3C0020B9
:108B2400744B00200080014A054AD2F8203402F533
:108B340000521B0C1B04C2F82034024A1360704715
:108B440000C003403832002008B504F0A5FE18B177
:108B540092210448FFF732F8BDE80840024903486F
:108B640004F04EBF16D90300A41E0020A435002033
:108B7400134A1449D2F82434D2F820241340124A58
:108B84009BB21360D1F80001400102D5086840018E
:108B940006D4D1F80001800105D50968880102D501
:108BA40043F480331360074BD3F80011490506D50D
:108BB4001B685B0542BF136843F4003313607047BE
:108BC40000C0034000E100E05C3C0020012838B50F
:108BD40004460BD0831E012B07D9042824D0052872
:108BE40001D102F0DDFF002400E0022402F048FF7E
:108BF40005460121204604F07FFE284602F044FF8A
:108C040002F03AFF02F047FF04F020FF02F036FFC3
:108C140002F036FF05460021204604F06DFE28468A
:108C2400BDE8384002F030BF0324DFE7FFF7CEBFD2
:108C34002DE9F04F89B011F01BFF0546002840F0E4
:108C4400EA80764EDFF8EC813168D8F8000019F03C
:108C540099FC0446002828D033682C46D3E9000147
:108C64009A6912689047336804A89B699B6898477F
:108C7400336802209B69DB6898473268059853681B
:108C8400E7B2B3FBF0F3BB42916904F1010454D899
:108C9400CB680020984733689B695B6898473168C4
:108CA400D8F8000019F06EFC044600275C4BDFF88E
:108CB40094A1DFF89491009314BB5A4BFB5C002BF6
:108CC40000F08F80D9F8001002ABD8F8000003AA96
:108CD400019119F091FE544B0199984208D078B94A
:108CE400039B012B0CD0D8F8000019F0CBFE01999E
:108CF400DAF80030D8F800001A6819F0ABFD044621
:108D0400009B01370133332F0AF1040A009309F160
:108D14000409D1D1002C0CBF01220022434B1A704C
:108D240065D0434B2344072B71D8072B6FD8DFE85A
:108D340003F05D6A6E6C6E6E6E7012680B6907FBF1
:108D44000020984799E7D9F8003003AA194402ABE8
:108D5400019119F051FE344B019998422ED030B351
:108D64000136344BF1B259451868ECD3324BFB5CF5
:108D7400002BC5D05E46DFF8BCB0F3B27E2BDBF827
:108D84000000BDD8D9F8001002AB314403AA019108
:108D940019F032FE244B9842B2D00199DBF800005E
:108DA40019F070FE013604460028E6D0A8E7039BBC
:108DB40083B9009B029A1B789A42D1D0009BDAF8BF
:108DC40000201B78D8F8000019F0ACFC0028C7D0AC
:108DD4000446CBE7174B0191186819F053FE01992B
:108DE400ECE7164B264617F803B0BAE7C225114B39
:108DF4001B681B7C1BB1D3211148FEF7DFFE2846FC
:108E040009B0BDE8F08FC325F1E7C425EFE7C52518
:108E1400EDE7C125EBE7C625F1E700BF241F0020DD
:108E240068B1030034B003000BE000F0654B002090
:108E3400FF1FFF0F201F002067B0030034AF0300A3
:108E440092D9030068AF03009CB00300322970B5C7
:108E540006460C4615461AD8144A127822B3144A08
:108E64001068144A52F82110134A125D3AB132467E
:108E740019F03CFDC0B1BDE87040FDF71DBC7F2D6D
:108E840008BF00253246294419F096FCF2E7FF2971
:108E940003D9BDE87040FFF757BB40F20111BDE8AC
:108EA40070400648FEF78ABE70BD00BF654B0020C7
:108EB400201F00209CB0030034B0030092D90300AB
:108EC4003228F8B504460D46164619D814490978CF
:108ED40029B31449144F0868144951F824103C5D0F
:108EE4003CB1126819F0B6FCC8B1BDE8F840FDF712
:108EF400E3BB7F2D08BF0025294419F013FCF3E7D9
:108F0400FF2805D91A463146BDE8F840FFF740BBB3
:108F14004FF49A71BDE8F8400548FEF74FBEF8BD1E
:108F2400654B0020201F002034B003009CB00300D8
:108F340092D9030008B5084B1B7863B1074B002294
:108F440053F82010064B186819F010FD18B1BDE84D
:108F54000840FDF7B1BB08BD654B00209CB0030081
:108F6400201F0020104430B5054602B930BD01F081
:108F74000F030A2B34BF30243724013A2344090950
:108F840005F8013DD2B2F0E7F0B519B3002820DAB4
:108F94002D23B0F1004F137000D04042012119E09D
:108FA400801B8642ECB205F10105F9D914B9BCF174
:108FB400000F05D04FF0010C4D1C30345454E9B26D
:108FC400013B13F0FF0309D130305054481CC0B2A8
:108FD400F0BD002109234FF0000C024F002557F883
:108FE400046BDEE708DA03002DE9F04F4FF0000BC5
:108FF40097B004AC8046894615469A465E46274695
:10900400297859B9E41BE4B2224639464846C04798
:10901400002840F0AD803444E0B2AAE0252916D0FF
:10902400BBF1000F17D1204600F8011B044614AB16
:109034009C42C0F0E180E41BE4B222463946484633
:10904400C047002840F094802644F6B2D3E0BBF138
:10905400000F00D101352978782906D8612907D86D
:1090640025295ED03AD80029CCD04FF0000BDEE79A
:10907400A1F16202162AF8D801A353F822F000BF26
:1090840031910000B5910000019200006F90000042
:109094006F9000006F9000006F9000006F900000D0
:1090A4006F9000006F900000019200006F9000002C
:1090B4006F9000006F900000C59100006F90000059
:1090C4006F900000C59100006F90000001920000B5
:1090D4006F9000006F90000017910000392916D896
:1090E4002F29C2D96A7802F0DF02582A40F0AC80F6
:1090F400322905F1010B40F09B80042220465AF8E6
:10910400041B89B2FFF72EFF5D460446ADE75829DC
:10911400ABD15AF8041B02222046C9B2FFF722FF42
:1091240002E0204600F8011B04469EE74FF0000BC6
:10913400DAF800300293DAF804300193013B039328
:10914400019B9B4502D10AF1080A8EE7029B204647
:1091540013F80B100222FFF705FF14AB98420446E4
:109164000DD3C41BE4B2224639464846C04718B161
:10917400002017B0BDE8F08F26443C46F6B2039BAE
:109184005B4581BF2046202200F8012B044614AB26
:109194009C420AD3E41BE4B2224639464846C047FF
:1091A4000028E5D126443C46F6B20BF1010BC7E793
:1091B4005346204653F8042B9A4600F8012BB3E794
:1091C400E41BE4B22246394648465AF804BBC04779
:1091D4000028CDD12644F6B2C4B21BF804200130D5
:1091E400002AF9D1224659464846C0470028BFD133
:1091F40083462644F6B23C46013501E76C29DAF889
:1092040000000AF1040B0ED16B78752B14BF0121F9
:10921400002101D0642B00D101352246FFF7B4FEB2
:10922400DA46044421E775290CBF00210121F4E743
:10923400342909D15AF8045B0422290C2046FFF78B
:1092440091FE0422A9B25DE74FF0010BEFE600BFE7
:109254000EB403B503AA52F8041B019209F092FF5D
:10926400C0B202B05DF804EB03B070470149FFF7E8
:10927400EFBF00BF7BAA03000EB433B505AA52F8B2
:10928400041B0546019209F07DFF04462846FFF7BA
:10929400EDFFE0B202B0BDE8304003B0704708B55E
:1092A40009F070FFC0B208BD2DE9F04F9A46564B45
:1092B40085B01B7806460F461546DDF83C909DF8B0
:1092C40044B0DDF85080002B00F08D80072A00F2B6
:1092D4008C800E9B002B00F08880B9F1000F00F009
:1092E4008480129BB3F5006F7FDC012802D1109BB0
:1092F400002B7AD0454B03EB05131B7B002B76D058
:10930400434C10220021684631F01BF804EB45144D
:109314001022002F59D13946204631F012F843F279
:1093240010036380BBF1000F03D1E37843F0030320
:10933400E370374A0E9B02EB451CCCE90193129B68
:109344006901013BC3F30A009DF84C30012E03F080
:1093540003034FEA836343EA001E53582D48CDF8B4
:1093640000A000EA03004EEA0003535041D1132346
:109374000CF1100ECCF80C309CE80F008EE80F00B6
:109384006FF00301DCF81C20109B61F39F02012F96
:10939400CCF81C20CCF8143003D1CCF81890CCF8BD
:1093A40004300027194A290102EB051342F8018011
:1093B400159A28465A60694622469F605E7302F0F9
:1093C400A3FF384605B0BDE8F08F0021204630F0F9
:1093D400B8FF4FF444736380BBF1000FA9D1E37865
:1093E40043F03003A4E70C48ECE70C48EAE70C48E8
:1093F400E8E7B8F1000FD4D19CF8023068F3041305
:109404008CF80230CDE700BFDB440020A8290020FF
:10941400383100200F80FFF3028000F0018000F05B
:10942400078000F038B5124B05461B78DBB1E0B17C
:1094340002F035FB0F4A00231146147B54B92B600C
:1094440001251A0101EB03131D738C5002F02DFB4F
:10945400204638BD0133082B02F11002EDD102F091
:1094640024FB0548F5E70548F3E70548F1E700BFA5
:10947400DB440020A8290020048000F0028000F0D2
:10948400018000F013B502F00AFB00230B4A147BA1
:109494007CB90133082B02F11002F8D1019002F0DB
:1094A400E7FE074B01981C7002F0FFFA204602B059
:1094B40010BD02F0FAFA0348F9E700BFA82900201A
:1094C400DB440020058000F00D4B10B51B780446EA
:1094D40093B1072812D802F0E2FA0A4B03EB041303
:1094E4001A7B2AB100241C7302F0DFFA204610BD57
:1094F40002F0DBFA0448FAE70448F8E70448F6E720
:10950400DB440020A8290020068000F0028000F03F
:10951400018000F0164B13B51868002301908DF8F4
:10952400043002F0BCFA134B1C7824B102F0BDFAEB
:10953400114802B010BD01221A7002F0B6FA0F4BA6
:109544001C731C7783F82C4083F83C4083F84C4010
:1095540083F85C4083F86C4083F87C4004230DEB73
:1095640003008DF8073002F0A5FE2046E1E700BFB6
:109574002CDA0300DB440020038000F0A82900203B
:1095840010B588B00E9C009207940D9C0246069478
:109594009DF8304005940B9C04949DF82840039456
:1095A4000024CDE9013420460B462146FFF77CFE1A
:1095B40008B010BD10B588B00E9C009207940D9CA5
:1095C400024606949DF8304005940B9C04949DF843
:1095D400284003940024CDE9013420460B460121A0
:1095E400FFF762FE08B010BD0A4A08B512785AB1F6
:1095F40007280BD8084A02EB00131B7B43B1002158
:1096040002F04AFE002008BD0448FCE70448FAE7DB
:109614000448F8E7DB440020A8290020028000F079
:10962400018000F0078000F00A4A08B512785AB1A8
:1096340007280BD8084A02EB00131B7B43B1012116
:1096440002F02AFE002008BD0448FCE70448FAE7BB
:109654000448F8E7DB440020A8290020028000F039
:10966400018000F0078000F00A4A08B5127852B170
:1096740007280AD8084A02EB00131B7B3BB102F00F
:1096840091FE002008BD0548FCE70548FAE70548B7
:10969400F8E700BFDB440020A8290020028000F086
:1096A400018000F0078000F00D4B1B7893B1072870
:1096B40012D889B10B4B03EB00131B7B73B10A4B1C
:1096C400DA6A012303FA00F010401ABF00200B707D
:1096D400087070470548704705487047054870474B
:1096E400DB440020A829002000000440028000F090
:1096F400018000F0078000F00B4A10B512780C4688
:1097040062B107280CD859B1084A02EB00131B7B3D
:1097140043B102F059FE2060002010BD0448FCE76C
:109724000448FAE70448F8E7DB440020A8290020AD
:10973400028000F0018000F0078000F02DE9F8437A
:10974400174B1F6D5B6D1F4000D5FEE701260025FA
:10975400144CDFF85480DFF85490374217D0236854
:10976400C8F850609BB1A168284601316268A160C5
:109774009847637B012B0AD148B909EB45131A7B3F
:1097840060F341021A731A7F60F341021A770135BC
:10979400082D4FEA460604F11004DED1BDE8F88333
:1097A40000000440A8290020002004403831002093
:1097B40070B504460125084E04B970BD94FAA4F0AE
:1097C400B0FA80F005FA00F324EA030456F82030D6
:1097D400002BF1D09847EFE7D435002008B51920C5
:1097E40002F074F928B14FF00072074BC3F88021DE
:1097F4001A601A2002F06AF928B14FF08062024B15
:10980400C3F880211A6008BD00E100E038B50446C1
:109814000D4602F044F9034B43F82450BDE83840A8
:1098240002F043B9D4350020064BD3F82404D3F80E
:10983400202403F50053104000F05530C3F82004F1
:10984400FFF7B6BF00C00340064BD3F82404D3F897
:10985400202403F50053104000F0AA30C3F820047C
:10986400FFF7A6BF00C0034010B500F049FB0A4C47
:109874000A4B19682368C31A01B10BB9206010BDE3
:109884004A699A423ABF9B1A0022D21A4A6128BFF7
:1098940000238968F0E700BF54370020E03B002034
:1098A400C38870B504460D463BB904F083F885427D
:1098B400064602D204F098F835460F4965610B68F4
:1098C400ABB90C60A36011E0AD1A9A6818466561E3
:1098D4002AB113465A69AA42F6D950B11A46134618
:1098E4008460A36013B15969491B596170BD00209C
:1098F400F0E70C60F5E700BFE03B002038B50F4B04
:109904000F4D1C682B6802205B691C4400F02CFB83
:10991400204600F0FDFA00230A492A680B70D0881B
:10992400800702D501230B7038BD9268002AFBD052
:1099340050690344012BF2D9F6E700BF54370020E5
:10994400E03B00200445002070B516469DF8142025
:10995400C0E903360271049ABDF81830026000228F
:10996400C380826004460D4600F0CAFA3044A06108
:109974003DB9E368656113B120462168984796B103
:10998400354602F08CF80646FFF76EFF294620465E
:10999400FFF786FF054B1B68A34201D1FFF7AEFF1B
:1099A400304602F082F8002070BD00BFE03B00208A
:1099B40000220C490B687BB183420AD183687AB1D7
:1099C400936083681BB15A6941690A445A61002053
:1099D40070471A469B68EEE70028EFD002207047D4
:1099E4000B60EEE7E03B002070B502F058F8144E2F
:1099F40005463478FCB9134B1C60134B1C60134BA5
:109A04001C8000F043FA012000F0AEFA00F0FAFAEC
:109A14000F4B0246186020B9284602F046F823206E
:109A240070BD234640F2E7310A4830F08BFA0A4B06
:109A3400186001233370284602F037F80020EFE75E
:109A4400E5440020E03B002054370020DE3F0020A6
:109A5400DC3B002018FCFFFF603700202DE9F041BB
:109A64000546F8B102F01BF80F4F0646FFF7FCFE5F
:109A74002846D7F80080FFF79BFF044628B13046FC
:109A840002F013F82046BDE8F081A8453B6803D1F5
:109A940023B1FFF733FFF2E7002BF0D1022000F0EF
:109AA4006FFAECE72224EDE7E03B002070B586B0C6
:109AB40015461E460446059180B1FFF7CFFFBDF859
:109AC4002C30002202939DF828302046CDE9006313
:109AD40005992B46FFF738FF06B070BD2220FBE73F
:109AE40038B50C46054698B191B100230B7001F0CE
:109AF400D6FF0121074B1B680BB122781AB101F084
:109B0400D4FF002038BDAB4214BF9B682170F3E73B
:109B14002220F7E7E03B0020F0B51F46002387B082
:109B24000D46164604468DF81730A0B10DF1170105
:109B3400FFF7D6FF9DF817207AB9BDF834302946CF
:109B440002939DF830302046CDE900733346FFF789
:109B5400FBFE07B0F0BD2220FBE70320F9E700007D
:109B6400F8B50C460546C8B1C1B101F098FF0646E8
:109B7400FFF77AFE6B692360134B1B68AB420FD06F
:109B840023B9304601F091FF03201CE05969226893
:109B94009B680A442260F1E700230FE0222012E0D0
:109BA400276800F0ADF9094D2B68C01A8742F3D934
:109BB40000F0A6F92B68226813441B1A3046236070
:109BC40001F073FF0020F8BDE03B00205437002073
:109BD4002DE9F0410746884601F061FF002605465D
:109BE400124B1C6824B9284601F05FFF1B2016E0C5
:109BF40063691E44E388BB4215D100F081F90C4C23
:109C04002368C01AB0420CD200F07AF922683244B8
:109C1400121A2846C8F8002001F047FF0020BDE8CA
:109C2400F0810022F5E7A468DCE700BFE03B0020F8
