:10400000401A0020114002002D930000319300005F
:10401000A70A0A010042000004180FAC906AD00100
:104020000000000000000000000000000000000090
:10403000000000002020040000000000000000003C
:104040000000000000000000FFFFFFFFFFFFFFFF78
:10405000FFFFFFFF00600F00650000000000000090
:10406000FFFFFFFFFFFFFFFF8000000000000000D8
:104070000000000000000000000000000000000040
:104080000000000000000000CE510020CE510020B2
:10409000401A0020907C040090E40300E01000200F
:0C40A000B410002000E00F000000000041
:10420000401A0020114002002D930000319300005D
:10421000E1DD0000359300003D9300000F400200F7
:104220000F4002000F4002000F4002000F4002004A
:10423000419300000F4002000F4002000F400200B7
:10424000B4930000B4930000B4930000B493000052
:10425000B493000095B10000E9BF00003D4E00009E
:10426000B4930000B493000061AF000089380100EE
:10427000B4930000B49300003D4A0000CD49000013
:10428000B4930000B4930000B49300000F40020008
:10429000B4930000CDA60000B4930000B4930000D6
:1042A000B4930000D9A70000B9A70000B4930000A0
:1042B000B4930000B4930000B4930000A918020066
:1042C0004D1802004918020001110200A518020051
:1042D00051180200691802005518020051FF010030
:1042E000E9180200B4930000B49300001D9600008A
:1042F000B4930000B5E80000B49300000F40020042
:10430000B4930000B4930000B4930000B493000091
:10431000B4930000B4930000B4930000B493000081
:10432000B4930000B4930000B4930000B493000071
:04433000B493000042
:10433400F8B500BFF8BC08BC9E467047F8B500BF8E
:10434400F8BC08BC9E46704710B5054C237833B9B9
:10435400044B13B1044800E000BF0123237010BDD7
:10436400682A002000000000AC71040008B5034B6B
:104374001BB10349034800E000BF08BD0000000072
:104384006C2A0020AC710400A3F5803A704700BF8A
:10439400174B002B08BF134B9D46FFF7F5FF002179
:1043A4008B460F461348144A121A39F014FF0E4B69
:1043B400002B00D098470D4B002B00D098470020CD
:1043C400002104000D000D48002802D00C4800E034
:1043D40000BF39F09DFE200029000FF083FC39F066
:1043E40083FE00BF00000800000000000000000081
:1043F400401A00201C250020CE510020000000009F
:10440400000000004BF66E6358436423B0FBF3F0E6
:10441400034B1860034B1A6BC3F88800704700BF46
:10442400A84100200080044070B51F4E1F4C327814
:1044340023781F4D9A420CD91E4B1F48197824F03B
:104444005FFC2078431C2370FFF7DCFF00232B6004
:1044540070BD07D2194B1848197824F051FC207804
:10446400431EF0E70A21144824F04AFC6421144A4C
:104474002B681278013312FB01F12B609942114B26
:1044840008BF19781B7808BF317021789942DFD1B1
:1044940001200D4913F0A6FD0022074B20781A7065
:1044A400BDE87040FFF7AEBFAA4A0020A94A002029
:1044B4009441002083240020B44000208124002063
:1044C400842400204646002090E4030013B50B4CDE
:1044D4000B48217824F014FC00210A4B0A4A1B786B
:1044E40001201370094A1160227809490092094A8F
:1044F400127813F077FD02B010BD00BF83240020B2
:10450400B440002082240020AA4A002094410020C4
:10451400A0E40300A94A002030B502251E4C89B04E
:1045240001201E4913F05EFD0123E5600B220421E6
:10453400002008F04FFB0D220021684639F04BFEA5
:1045440003236A46204601218DF8063008F09AFFBD
:1045540040F68513124A00211360226BC4F8883098
:10456400236B4BF66E634FF48022E3610D4B04A87A
:10457400C3F82C550125C3F834250E2239F02BFE3F
:10458400204604A98DF8105008F02FFFE560FFF7CE
:104594009DFF09B030BD00BF00800440CAE40300A1
:1045A400A841002000C0034038B504460D46FFF77B
:1045B4008DFF601E002D00F0B980072823D8DFE8A6
:1045C40000F00410188C949CA4AC01207B4913F0D7
:1045D40009FD00221320114602F052FA01220121A2
:1045E4000EE000220221132002F04AFA01220321E4
:1045F40006E000220421132002F042FA01220521E0
:10460400132002F03DFA6E4C2568012D09D12A468B
:104614000021132002F034FA00222946132002F06C
:104624002FFA2168022908D10122132002F028FA66
:1046340000220321132002F023FA2368032B09D15B
:1046440001220421132002F01BFA00220521132069
:1046540002F016FA2368042B09D101220621132043
:1046640002F00EFA00220721132002F009FA23684F
:10467400052B09D101220721122002F001FA0022A0
:104684000621122002F0FCF92368062B09D101222D
:104694000521122002F0F4F900220421122002F074
:1046A400EFF92368072B09D101220321122002F01C
:1046B400E7F900220221122002F0E2F92368082B14
:1046C4007AD101221220114602F0DAF9BDE838400D
:1046D40000221220114602F0D3B900220621132031
:1046E40002F0CEF9012207218AE7002207211220D5
:1046F40002F0C6F90122062116E00022052112204B
:1047040002F0BEF9012204210EE00022032112204E
:1047140002F0B6F90122022106E000220121122052
:1047240002F0AEF90122002112206AE707283FF6C1
:104734006AAFDFE800F0040F161D242B3239012084
:10474400204913F04FFC01220021132002F098F9B4
:10475400002244E701220221132002F091F90022F1
:1047640045E701220421132002F08AF9002246E7DA
:1047740001220621132002F083F90022B3E701226B
:104784000721122002F07CF90022B4E7012205215E
:10479400122002F075F90022B5E70122032112204C
:1047A40002F06EF90022B6E701221220114602F04F
:1047B40067F900221146B7E738BD00BFD7E403000C
:1047C400842F0020F0E4030010B504460246074994
:1047D400012013F007FC3CB9054B5B6CDB0703D4E9
:1047E400BDE81040FFF772BE10BD00BF0AE503002C
:1047F40000C0034037B56A464C4903460868496817
:1048040003F11C0403C26846191F51F8042F10F960
:10481400015B8C422A44D2B20A60F6D193F820207C
:10482400511E092920D802221A6293F82420511E0D
:10483400092936D801225A6293F82820511E1329D7
:1048440058D801229A6293F82C20511E312968D835
:104854000022DA621A6B063AD2B21A635A6B033236
:10486400D2B25A6303B030BDA2F10B01092901D8B9
:104874000422D9E7A2F11501092901D80622D3E7B8
:10488400A2F11F01092901D80822CDE7A2F12901CB
:10489400092901D86622C7E7333A092AC5D8032271
:1048A400C2E7A2F10B01092901D80222C3E7A2F150
:1048B4001501092901D80322BDE7A2F11F01092925
:1048C40001D80422B7E7A2F12901092901D8052258
:1048D400B1E7A2F13301092901D80622ABE7A2F11D
:1048E4003D01092901D80722A5E7473A092AA3D897
:1048F4000822A0E7A2F11501132901D80222A1E799
:10490400A2F12901132901D803229BE7A2F13D0159
:10491400132901D8042295E7513A122A93D80D227B
:1049240090E7333A302A95D8012292E721E5030033
:10493400002208B5044B1A700BF052F9BDE8084088
:104944000120024913F04EBB4C3000202AE503003D
:104954000022164B10B51A7010F020F9022820D14D
:104964000BF0FCF8044644F62061114824F0C8F921
:104974008CB901200F4913F035FB012009F034F9FB
:104984000D490246012013F02DFBBDE81040012023
:104994000A4913F027BB22460120094913F022FBE0
:1049A400EBE70120074913F01DFBEEE79C2A0020EA
:1049B4004C3000204CE5030086E50300C5E5030008
:1049C40069E50300AAE5030038B50125134B144C2F
:1049D4009A6C03F500539A64236B124ADB07156340
:1049E400656204D4204608F0F9FC0F4B1D630125D1
:1049F4000A48E56008F0E2FE0C4A13887F2B06D8CB
:104A0400591911800A4A80B222F8130038BD284689
:104A1400BDE83840074913F0E5BA00BF000006407E
:104A240000C0044000D0044000E00440D242002012
:104A340052420020DBE50300064B9A6C03F5005359
:104A44009A641022A3F50033C3F8A020C3F8A02071
:104A5400704700BF00C0054010B5012088B015495B
:104A640013F0C0FA0D220021684639F0B4FB02238A
:104A7400114C6A46204600218DF8063008F002FDEC
:104A84000E22002104A839F0A6FB0323204604A922
:104A9400ADF8123008F0A9FC236B4FF6FF738022A7
:104AA400E361A36943F01003A361044B1A6008B0E7
:104AB40010BD00BFECE5030000C0044000E100E0CD
:104AC4002DE9F043334E8FB06D4634460FCC0FC5FD
:104AD40094E8070001234FF4165985E807001946A6
:104AE40018460422CDF8089008F074F80422002334
:104AF4001146032008F06EF8042200231146032017
:104B040008F068F81023244FDFF89C8007F5005262
:104B1400C2F8A030C2F8A0304FF001126946C7F8BD
:104B2400E4254046C7F8CC3507AD08F0CBFD0FCEE1
:104B34000FC594E80700002385E80700012205213A
:104B44000220CDF8249008F045F8144B144CC7F813
:104B5400FC3504232046C7F8EC3507A908F0B2FD5C
:104B64004FF40042E36C43F00403E3640D4BC3F8D9
:104B740080211A60D8F84C2042F00102C8F84C2079
:104B84004FF48042C3F880211A60FFF765FF0FB02D
:104B9400BDE8F08378EA030000C00340020005008A
:104BA4000000064000E100E000C0054008B5FFF742
:104BB4008DFC01220021132001F062FF0122022159
:104BC400132001F05DFF01220421132001F058FF9E
:104BD40001220621132001F053FF01220721122094
:104BE40001F04EFF01220521122001F049FF0122AC
:104BF4000321122001F044FF01221220114601F08A
:104C04003FFF00220121132001F03AFF002203217B
:104C1400132001F035FF00220521132001F030FF9D
:104C240000220721132001F02BFF0022062112206D
:104C340001F026FF00220421122001F021FF0022AE
:104C44000221122001F01CFFBDE8084000221220BE
:104C5400114601F015BF00000022024B1A70FFF745
:104C6400A5BF00BFFC3C00202DE9F0476A4CDFF8EB
:104C7400BC8123888EB09BB2002B52D0012067499F
:104C840013F0B0F90025664EB8F80030AB4253DC9F
:104C94006E460023314634F81320013392B20E2BB2
:104CA40041F8042BF7D13046FFF7A4FD01205D49FC
:104CB40013F098F900255A4F56F8043B3946DBB2F5
:104CC40024F8153034F81520012092B2013513F080
:104CD400A7F90E2DF0D100250120534913F0A0F9B6
:104CE4002F46DFF84C91DFF84CA134F8153019F851
:104CF400012B9BB2934240F089800137072F0DD1DD
:104D0400238A9BB2042B09D1608A80B201283BD14B
:104D1400A38A9BB2042B18D1FFF748FF0135082D55
:104D2400E3D1802200213C4839F055FA0023A8F849
:104D340000300EB0BDE8F08734F81520314601206C
:104D440092B213F06DF901359EE7A38A9BB20D2B45
:104D5400E2D0A38A9BB2012B0AD11846E18AC9B2D8
:104D6400FFF722FC0320E18AC9B2FFF71DFCD5E757
:104D7400A38A9BB2022B02D1E18AC9B2F0E7A68AC8
:104D8400B6B2032ECAD1F7E7638A9BB2022B11D1C4
:104D9400A38A9BB2012B04D0A38A9BB2022B18BF17
:104DA400A38AE18A0220C9B2FFF7FEFBE18A04204C
:104DB400C9B2DAE7638A9BB2032B11D1A38A9BB2EF
:104DC400012B04D0A38A9BB2022B18BFA38AE18AC9
:104DD4000520C9B2FFF7E8FBE18A0720C9B2C4E79E
:104DE400638A9BB2042B99D1A38A9BB2012B04D072
:104DF400A38A9BB2022B18BFA38AE18A0620C9B2F8
:104E0400FFF7D2FBE18A0820C9B2AEE75146012080
:104E140013F0E8F882E700BF52420020FEE50300E9
:104E24000CE6030012E6030051EC0300D24200201A
:104E34004B46002029E6030008B5064B596903F5E3
:104E4400005251610222DA60FFF70EFF0022024B8A
:104E54001A8008BD00C00440D242002008B5FFF704
:104E640035FB00221320114601F00AFE0022022124
:104E7400132001F005FE00220421132001F000FE9E
:104E840000220621132001F0FBFD0022072112203D
:104E940001F0F6FD00220521122001F0F1FD0022AF
:104EA4000321122001F0ECFD00220121122001F067
:104EB400E7FD01221320114601F0E2FD0122032146
:104EC400132001F0DDFD01220521132001F0D8FD9E
:104ED40001220721132001F0D3FD01220621122013
:104EE40001F0CEFD01220421122001F0C9FD0122AE
:104EF4000221122001F0C4FDBDE808400122002176
:104F0400122001F0BDBD0000094B1870094B1A783E
:104F140001321A70084A117881421CBF10700122B4
:104F24004FF4FA71054818BF1A7023F0E9BE00BFA8
:104F34008E4800208F480020604B0020E42C002085
:104F4400024630B500EB81014AF201054FF6FF70CD
:104F54008A4200D130BD082452F8043BDBB25840E9
:104F640000F00103400813B180EA050398B2013C44
:104F7400F6D1EDE7F8B50368054609330B604368DD
:104F84000C46043B4B60836805338B60C368023B6B
:104F9400CB60036901330B614369073B4B61836950
:104FA40009338B61C369023BCB6190F82030022B3B
:104FB4005DD102F0D1FB0A23B0FBF3F202FB130034
:104FC400013080B2206295F8243095F82870012BC6
:104FD40095F82C6040F0838002F0BEFB0A23B0FBFE
:104FE400F3F202FB1300013080B26062012F40F043
:104FF400C48002F0B1FB1423B0FBF3F202FB1300F4
:10500400013080B2A062002E40F0E48002F0A4FBE4
:105014003223B0FBF3F202FB1300013080B2E062F2
:1050240010222B6B0120063323636B6B6F49033B08
:1050340063636F4B6F4FC3F8A020C3F8A02012F036
:10504400D1FF6D4E251F343455F8041F3846C9B2BC
:1050540008F0BAFB314601202A6812F0E1FFAC42A5
:10506400F2D10120BDE8F840644912F0D9BF042B05
:1050740008D102F071FB0A23B0FBF3F202FB130028
:105084000B309EE7062B08D102F066FB0A23B0FB27
:10509400F3F202FB1300153093E7082B08D102F05A
:1050A4005BFB0A23B0FBF3F202FB13001F3088E71B
:1050B400662B08D102F050FB0A23B0FBF3F202FB8B
:1050C400130029307DE7032B7FF47DAF02F044FB0E
:1050D4000A23B0FBF3F202FB1300333071E7022B17
:1050E40008D102F039FB0A23B0FBF3F202FB1300F0
:1050F4000B3079E7032B08D102F02EFB0A23B0FB17
:10510400F3F202FB130015306EE7042B08D102F012
:1051140023FB0A23B0FBF3F202FB13001F3063E707
:10512400052B08D102F018FB0A23B0FBF3F202FBB3
:105134001300293058E7062B08D102F00DFB0A238F
:10514400B0FBF3F202FB130033304DE7072B08D119
:1051540002F002FB0A23B0FBF3F202FB13003D3022
:1051640042E7082B7FF442AF02F0F6FA0A23B0FBC1
:10517400F3F202FB1300473036E7022F08D102F0A6
:10518400EBFA1423B0FBF3F202FB1300153038E7FB
:10519400032F08D102F0E0FA1423B0FBF3F202FB70
:1051A400130029302DE7042F08D102F0D5FA142377
:1051B400B0FBF3F202FB13003D3022E70D2F7FF426
:1051C40022AF02F0C9FA1323B0FBF3F202FB13007F
:1051D400513016E7012E7FF423AF02F0BDFA3123DC
:1051E400B0FBF3F202FB1300333017E747E603008A
:1051F40000D0034000C005400CE6030051EC03005E
:10520400F0B5012805460E468FB037D0022837D0B6
:10521400032837D0042837D0052837D0062837D0BC
:10522400072837D0082837D11D4C04230C21C4E9A2
:105234000835A6622046FFF783FEC3B2C0F30F20F1
:105244002A462363606333460120164912F0CAFEDE
:10525400154F251F04F1340655F8042F3946012053
:1052640012F0DEFEAE42F7D10120104912F0BAFE70
:1052740069462046FFF77EFE0FB0F0BD0C4CD4E724
:105284000C4CD2E70C4CD0E70C4CCEE70C4CCCE7E2
:105294000C4CCAE70C4CC8E700231B62FFDE00BFBE
:1052A400482F00205AE603007CE6030051EC03007B
:1052B400A42D0020E02D00201C2E0020582E0020BC
:1052C400942E0020D02E00200C2F0020F7B50022B1
:1052D400A64BA74EA74D1A7001202B783278A64909
:1052E40012F080FEFFF7F2F8337803F0FD04012C8E
:1052F40018D12B783470042B4AD02B780C2B17D967
:1053040001209E4912F06EFEFFF7A8FD01209C4B80
:105314002978D862FFF774FF4FF4FA61994823F0B3
:10532400EFFC05E0022B01D0042B27D102233370BC
:105334003478022C5DD12F78042F41D1FFF78EFDF4
:105344000FF02CFC022833D001208F4912F04AFEC2
:1053540001200AF069FA4FF4FA618A4823F0D0FC7C
:105364004FF47A61894823F0CBFC0120884912F07C
:1053740039FE002333702B7003B0F0BD052C01D12E
:105384000323D4E7062B01D0082BD1D10423CEE785
:105394002046804912F026FEFFF760FD784B204638
:1053A400DC622978FFF72CFF3378012BA5D0BFE707
:1053B4000120794912F016FE744823F095FCCAE7DF
:1053C4000C2F58D927F05CFB01901FF0E7F9019AE4
:1053D4000120724912F006FEFFF740FD4FF47A7186
:1053E400684823F08DFC4FF4FA61684823F088FC88
:1053F400BFE7012C0ED0322C01D0462C28D12B78BB
:10540400022B17D101202246654912F0EBFD012041
:105414005B4B0AE028780128F1D103460246604933
:10542400019012F0DFFD564B01982978D862FFF7FE
:10543400E7FE9EE7322C01D0462C9AD1012259492D
:10544400104612F0CFFD01204D4B0321D862EEE748
:105454003C2C01D0502C2AD12F78022F18D13B4656
:1054640022464F49012012F0BDFD01224E4B2978FE
:10547400DA620220DBE7012FEED13B4622463846B2
:10548400474912F0AFFD484BDF6220462978CEE74A
:105494003C2C02D0502C7FF46CAF022241490120F5
:1054A40012F0A0FD0122404B0321DA62E1E7032C54
:1054B40011D05A2C01D06E2C27D12B78022B15D168
:1054C40022463749012012F08DFD0122374B2978FD
:1054D400DA620320ABE72F78012FEED13B46224658
:1054E40038462F4912F07EFD304BCDE75A2C02D0BE
:1054F4006E2C7FF43EAF03222A49012012F072FD84
:1055040001222A4B0321DA62E3E7042C10D0642C35
:1055140002D0782C7FF42DAF2B78022B16D12246A3
:1055240001201F4912F05EFD0122214BDA620AE0DC
:105534002F78012FF0D13B4604223846184912F047
:1055440051FD1B4BDF622978042070E7642C02D0E4
:10555400782C7FF40EAF04221249012012F042FD90
:105564000122134B0321DA62EEE700BFE42C002092
:105574008E4800208F48002080E60300AEE603003A
:10558400A42D0020FC3C0020C7E603009C2A002038
:1055940010E7030095E60300E5E6030029E70300AE
:1055A4003DE7030060E70300E02D00201C2E0020EF
:1055B400582E0020002208B52E4B1A702E4B186866
:1055C40001280CD12D4B1A78002A52D12C4918707D
:1055D40012F008FD3220BDE80840FFF795BC022810
:1055E4000AD1284B1A78002A43D101202649187081
:1055F40012F0F8FC3C20EEE703280AD1234B1A787A
:10560400002A36D101202249187012F0EBFC462002
:10561400E1E7042809D11F4B1A7852BB01201E4927
:10562400187012F0DFFC5020D5E7052809D11B4B78
:105634001A78F2B901201A49187012F0D3FC5A20D2
:10564400C9E7062809D1174B1A7892B901201649DF
:10565400187012F0C7FC6420BDE7072809D1134B6A
:105664001A7832B901201249187012F0BBFC3920A3
:10567400B1E708BD8C2A0020C03C0020CF4900209F
:105684007AE70300D24900208CE70300D5490020C3
:105694009EE70300D8490020B0E70300DB4900205F
:1056A400C2E70300DE490020D4E70300E1490020FB
:1056B400E6E703000023A148A14A70B503701378FC
:1056C400ABB9A0490B78013BDBB20B70002B40F067
:1056D4001481012313709C4A13709C4A13709C4AD2
:1056E40013709C4A13709C4A13709C4A13709C4913
:1056F400954A4B69107803F0010398421DD04B6919
:10570400984C03F00103984D1370002B40F0FA807D
:10571400237833B94FF47A71944823F0F1FA0123D2
:1057240023702B7813B90122914B1A7001209149EF
:1057340012F058FC0122904B1A608949834A4B6F3E
:105744001078C3F38003984221D04B6F8B4CC3F382
:1057540080038B4D1370002B40F03C81012089495C
:1057640012F040FC237833B94FF47A717F4823F068
:10577400C7FA012323702B7813B90122824B1A70C4
:105784000120804912F02EFC02227B4B1A607449DE
:105794006F4A4B6F1078C3F34003984222D04B6F8B
:1057A4007A4CC3F340037A4D1370002B40F02D81E3
:1057B4000120784912F016FC237833B94FF47A713A
:1057C4006A4823F09DFA012323702B7813B9012230
:1057D400714B1A700322684B4FF47A7163481A6054
:1057E40023F08EFA5E495B4A4B6F107803F0010395
:1057F400984222D04B6F694C03F00103684D13703B
:10580400002B40F01D810120664912F0EBFB237848
:1058140033B94FF47A71554823F072FA0123237097
:105824002B7813B90122604B1A700422524B4FF4A7
:105834007A714E481A6023F063FA4949464AD1F80E
:10584400A4301078C3F3C003984223D0D1F8A43015
:10585400564CC3F3C003564D1370002B40F00B811C
:105864000120544912F0BEFB237833B94FF47A7106
:105874003E4823F045FA0123237005223E4B1A606B
:105884002B7813B901224C4B1A704FF47A713748B4
:1058940023F036FA3249314AD1F8A4301078C3F3F0
:1058A4008003984223D0D1F8A430444CC3F380033E
:1058B400434D1370002B40F0F9800120414912F050
:1058C40091FB237833B94FF47A71284823F018FAFE
:1058D400012323702B7813B901223B4B1A70062243
:1058E400254B4FF47A7121481A6023F009FA1220EB
:1058F40001F01EF86421114800E06421BDE8704005
:1059040023F0FEB90120314912F06CFB2E7856B910
:10591400174B1B783BB10120FFF7F6FA2C4B1A68A2
:105924003AB901221A600023104A2B7023701370B5
:1059340003E7012A08BF1E60F5E700BF942A002090
:105944006A480020182500207B2400207C240020A5
:105954007D2400207E2400207F2400208024002039
:1059640000C00340D0490020CF4900208C2A0020E9
:10597400D1490020F8E70300C03C0020D3490020AF
:10598400D249002019E80300D4490020D649002058
:10599400D54900203AE80300D7490020D94900201E
:1059A400D84900205BE80300DA490020DC490020E4
:1059B400DB4900207CE80300DD490020DF490020AA
:1059C400DE4900209DE80300E049002008E80300C8
:1059D400DC2D00200120434912F004FB2E7856B937
:1059E400414B1B783BB10220FFF78EFA3F4B1A68FC
:1059F4003AB901221A6000233D4A2B7023701370B8
:105A0400C5E6012A08BF1E60F5E70120394912F0F6
:105A1400E9FA2E7856B9384B1B783BB10320FFF7CF
:105A240073FA364B1A683AB901221A600023304AD5
:105A34002B7023701370D5E6012A08BF1E60F5E7AA
:105A440001202F4912F0CEFA2E7856B92D4B1B782F
:105A54003BB10420FFF758FA2B4B1A683AB90122DC
:105A64001A600023224A2B7023701370E5E6012A82
:105A740008BF1E60F5E70120244912F0B3FA2E781E
:105A840056B9234B1B783BB10520FFF73DFA214B58
:105A94001A683AB901221A600023154A2B70237040
:105AA4001370F7E6012A08BF1E60F5E701201A49C2
:105AB40012F098FA2E7856B9184B1B783BB1062091
:105AC400FFF722FA164B1A683AB901221A6000232A
:105AD400074A2B702370137009E7012A08BF1E6060
:105AE400F5E700BF29E80300D4490020182E002060
:105AF4008C2A00204AE80300D7490020542E0020B5
:105B04006BE80300DA490020902E00208CE80300A3
:105B1400DD490020CC2E0020ADE80300E049002040
:105B2400082F002007B504F01FFE002101230846BA
:105B3400032207F04FF8022101230846032207F04D
:105B440049F8012303221946022007F043F80123F0
:105B540003220021022007F03DF80322012311460D
:105B6400104607F037F8032201231046022107F0FC
:105B740031F800230B221846042107F02BF80123E7
:105B840002221846002107F025F8012300221846B6
:105B94001146CDE9003306F0C3FF0020024903B0EB
:105BA4005DF804EB04F0F8BDCD4700002DE9F041A9
:105BB400374C86B0204604237F22272104F00CF9B9
:105BC40023880D2201339BB2238003932323019363
:105BD40003AB4FF601510093C42041F2020310F0CD
:105BE4008DFF01202B4912F0FDF90120002302460C
:105BF4002949009012F0F6F922880120274912F071
:105C0400F1F92749012012F0EDF904ACFFF78AFFFE
:105C140009F00AF800F05CFF00F0EAFEFEF77CFCF5
:105C2400FEF74EFF1F4823F05FF820460FF0D4F92B
:105C34001D4907230A46E05C013B02F8010BFAD236
:105C44000822DFF88080DFF880E0DFF880C0174F9B
:105C5400174E184D184C194811F8013B013A48F8F1
:105C6400043B4EF8043B4CF8043B47F8043B46F82D
:105C7400043B45F8043B44F8043B40F8043BEBD1B7
:105C840001200F4912F0AEF906B0BDE8F08100BF63
:105C940030420020BEE80300E5E8030013E90300F6
:105CA40022E90300942A00204B460020582E0020AD
:105CB400942E0020D02E00200C2F0020482F0020EE
:105CC40029E50300A42D0020E02D00201C2E002037
:105CD4007FB50B46024604460D4601200C4912F0DE
:105CE40081F90C4B1B788BB185B901262A46062114
:105CF400204600960DF10F0310F053FF30B92246F1
:105D040030469DF80F30044912F06CF904B070BDB0
:105D140048E903006A48002090E903002DE9F041B6
:105D24000024574B92B01C700EF03AFF4CF25D23E6
:105D3400ADF80C304CF2C443ADF810304FF480632E
:105D4400ADF8123018234F4D8DF818302B784FF0E2
:105D54002E0C8DF819300A238DF81A3003238DF890
:105D64001E3004238DF81F3008238DF82230312390
:105D74008DF824308DF82A3005238DF82B30FF233D
:105D84008DF82E3006238DF82F3021233022012761
:105D9400202142268DF825C08DF828C04FF0430CF1
:105DA4008DF83130384B8DF823201B888DF8262050
:105DB4008DF827208DF829208DF81D108DF82D10D1
:105DC4004FF06E08ADF80E708DF81B408DF81C4036
:105DD4008DF820408DF821608DF82C408DF83040EE
:105DE4008DF832308DF838C08DF83FC04FF0540C28
:105DF4001B0A8DF8333007234FF06F0E8DF83A806D
:105E04008DF840C04FF066084FF0380C8DF83430F0
:105E14000C238DF839E08DF83B808DF83DE08DF84A
:105E240041C04FF03A0E4FF0500C4FF069088DF816
:105E340037308DF844308DF8461006AB8DF84700A6
:105E440003A900944FF6FC708DF83EE08DF842C033
:105E54008DF835408DF836608DF83C808DF84360C0
:105E64008DF845400EF0FCF908490246384612F018
:105E7400B9F82B783B442B7012B0BDE8F08100BF19
:105E8400202D00207A24002030420020A9E90300BC
:105E940010B504460D49012012F0A4F8912C0BD141
:105EA4000EF07CFE40B90120094912F09BF84FF432
:105EB400FA61084822F024FF0EF070FE022803D194
:105EC4000120054912F08EF8002010BDD6E9030028
:105ED400F7E903009C2A00201DEA030030B55A4B61
:105EE4000A461B7885B063B116290CD101230193AE
:105EF400564B00934FF6015141F20203C42010F0B7
:105F04005EFE05B030BD172903D101230193504B28
:105F1400EFE7182903D1012301934E4BE9E719292F
:105F240003D1012301934C4BE3E71A2903D1012345
:105F340001934A4BDDE71B2903D101230193484B0D
:105F4400D7E71C2903D101230193464BD1E71D292F
:105F540003D101230193444BCBE71E2903D1012331
:105F64000193424BC5E71F2903D101230193404B01
:105F7400BFE7202903D1012301933E4BB9E721292F
:105F840003D1012301933C4BB3E7222903D101231D
:105F940001933A4BADE7232903D101230193384BF5
:105FA400A7E7242903D101230193364BA1E725292F
:105FB40003D101230193344B9BE7262907D1002306
:105FC4008DF80F30012301930DF10F0391E7272979
:105FD400F5D02829F3D02929F1D02A29EFD02B296B
:105FE400EDD02C29EBD02D29E9D02E2903D1012382
:105FF4000193264B7DE72F2903D101230193244BE1
:1060040077E7302903D101230193224B71E731292A
:1060140003D101230193204B6BE732297FF471AF45
:1060240001241E4D41F202034FF6015101940095E3
:10603400C42010F0C4FD20462A78194905B0BDE8F3
:10604400304011F0CFBF00BF6A4800203E46002018
:106054003F460020404600204146002042460020A2
:106064004346002044460020454600203646002092
:106074003746002038460020394600203A460020A2
:106084003B4600203C4600203D460020832400205F
:1060940081240020464600208224002084240020FD
:1060A40044EA030070B503688EB05B88B3F57C4F97
:1060B4002ED1037D82681B4CD9B20A292BD95523D2
:1060C4002362D37B0C216362937B1648A362012372
:1060D400E362FEF735FFC3B2C0F30F2060632363AE
:1060E4000220114911F07EFF00240E4D0F4E31465F
:1060F400012055F8042B013411F092FF0E2CF6D137
:1061040001200B4911F06EFF69460648FEF732FF85
:1061140000200EB070BDD05C04EB830141F80C0C80
:106124000133C9E7E42B002062EA03007CE60300A4
:1061340051EC030008B501F00FFB43F69923B0FBC3
:10614400F3F202FB130000F56A50183080B208BD68
:106154000022F0B5584B594C93B01A700EF020FD44
:1061640023783122FA2B84BF012323704CF25D2360
:10617400ADF80C300123ADF80E304CF2C443ADF849
:1061840010304FF44063ADF8123018238DF81830F6
:1061940023788DF824208DF819300A238DF82A20CD
:1061A4008DF81A30052203238DF82B208DF81E302C
:1061B400FF2204232E278DF81F308DF82E2008236C
:1061C40006220021202542268DF822308DF82570E4
:1061D40030238DF828708DF82F20432721228DF845
:1061E4001B108DF81C108DF820108DF82C108DF8D4
:1061F40030108DF823308DF826308DF827308DF847
:1062040029304FF06E0E8DF81D508DF821608DF8F9
:106214002D508DF831208DF838708DF83F7054274B
:10622400274A4FF06F0C12888DF83AE08DF832202F
:10623400120A8DF8332007228DF840704FF0660E55
:1062440038278DF834200C228DF839C08DF83BE0C6
:106254008DF83DC04FF0690E4FF03A0C8DF8417047
:1062640050278DF837208DF8442006AA01918DF827
:1062740047000092084603AA8DF835108DF83CE0DB
:106284008DF83EC08DF845108DF836608DF842705B
:106294008DF843608DF846500DF0FBFF23780133F1
:1062A4002370FFF747FF00F5922101F5787102484A
:1062B40022F026FD13B0F0BD182D00207A24002012
:1062C4003042002030B50024144B85B01C702123CB
:1062D4008DF80A30124BC4251B780A228DF80B3036
:1062E40001238DF80C300523019302AB4FF47C415C
:1062F400009308200B4B8DF808408DF8095010F0DE
:1063040007FE10F06DFE057110F06AFE214645711E
:10631400204610F061FE05B030BD00BF302D0020D6
:10632400E3490020A4F9030030B50024144B85B0E0
:106334001C7021238DF80A30124BC4251B780A22C5
:106344008DF80B3002238DF80C300523019302AB3A
:106354004FF47C41009308200B4B8DF808408DF8D6
:10636400095010F0D5FD10F03BFE057110F038FE19
:1063740021464571204610F02FFE05B030BD00BF08
:10638400382D0020E4490020A4F9030030B500248E
:10639400144B85B01C7021238DF80A30124BC42590
:1063A4001B780A228DF80B3003238DF80C3005235B
:1063B400019302AB4FF47C41009308200B4B8DF802
:1063C40008408DF8095010F0A3FD10F009FE057186
:1063D40010F006FE21464571204610F0FDFD05B083
:1063E40030BD00BF402D0020E5490020A4F9030082
:1063F40030B50024144B85B01C7021238DF80A306D
:10640400124BC4251B780A228DF80B3004238DF817
:106414000C300523019302AB4FF47C410093082018
:106424000B4B8DF808408DF8095010F071FD10F0F9
:10643400D7FD057110F0D4FD21464571204610F0BA
:10644400CBFD05B030BD00BF482D0020E64900203B
:10645400A4F9030030B50024134B85B01C7021232C
:106464008DF80A30114BC4251B780A228DF80B30A5
:1064740005238DF80C30019302AB4FF47C4100935B
:1064840008200B4B8DF808408DF8095010F040FDA2
:1064940010F0A6FD057110F0A3FD214645712046BC
:1064A40010F09AFD05B030BD502D0020E7490020C2
:1064B400A4F9030030B50024144B85B01C702123CB
:1064C4008DF80A30124BC4251B780A228DF80B3044
:1064D40006238DF80C300523019302AB4FF47C4165
:1064E400009308200B4B8DF808408DF8095010F0EC
:1064F4000FFD10F075FD057110F072FD2146457118
:10650400204610F069FD05B030BD00BF582D0020B5
:10651400E8490020A4F9030030B50024144B85B0E9
:106524001C7021238DF80A30124BC4251B780A22D3
:106534008DF80B3007238DF80C300523019302AB43
:106544004FF47C41009308200B4B8DF808408DF8E4
:10655400095010F0DDFC10F043FD057110F040FD12
:1065640021464571204610F037FD05B030BD00BF0F
:10657400602D0020E9490020A4F9030030B500246F
:10658400144B85B01C7021238DF80A30124B08205F
:106594001B78C4258DF80B30052301930DEB000304
:1065A4000A224FF47C4100930C4B8DF808408DF87F
:1065B40009508DF80C0010F0ABFC10F011FD0571C2
:1065C40010F00EFD21464571204610F005FD05B082
:1065D40030BD00BF682D0020EA490020A4F9030063
:1065E40030B50024134B85B01C7010238DF80E3089
:1065F400114B0A221B7806211B1B18BF01238DF89F
:106604000F300423019303AB009308200B4B0125A7
:106614008DF80C408DF80D4010F07AFC10F0E0FC81
:10662400057110F0DDFC21464571204610F0D4FCC4
:1066340005B030BD702D002067480020A4F9030088
:1066440030B50024134B85B01C7010238DF80E3028
:10665400114B0A221B7806211B1B18BF01238DF83E
:106664000F300423019303AB009308200B4B022546
:106674008DF80C408DF80D4010F04AFC10F0B0FC81
:10668400057110F0ADFC21464571204610F0A4FCC4
:1066940005B030BD802D002068480020A4F9030017
:1066A40030B50024134B85B01C7010238DF80E30C8
:1066B400114B0A221B7806211B1B18BF01238DF8DE
:1066C4000F300423019303AB009308200B4B0325E5
:1066D4008DF80C408DF80D4010F01AFC10F080FC81
:1066E400057110F07DFC21464571204610F074FCC4
:1066F40005B030BD902D002069480020A4F90300A6
:1067040007B50022054B06211A70202301200093AF
:10671400034B10F0E3F903B05DF804FB782D00207F
:106724006748002007B50022054B06211A70202374
:1067340002200093034B10F0D1F903B05DF804FB81
:10674400882D00206848002007B50022054B06214B
:106754001A70202303200093034B10F0BFF903B0F9
:106764005DF804FB982D002069480020002210B534
:10677400194C1A4B20681A7048B1012817D11849CE
:1067840011F030FC0720FEF7BFFB00232360154CFB
:10679400206858B1012814D1134911F023FC0820B2
:1067A400FEF7B2FB0023114A2360137010BD0228C8
:1067B400EBD101200E4911F015FC0720FEF7A4FBD4
:1067C400E0E70228EED101200A4911F00BFC082071
:1067D400FEF79AFBE3E700BF442F0020842A002041
:1067E40094EA0300802F0020CAEA0300E249002053
:1067F400AFEA0300E5EA030001F0F00312282DE9F3
:10680400F04705460C4699463C4F8EB20CD1402BBE
:1068140023D13B493B4B0A78E2B93B480278013229
:10682400027001220A701A60122DA7F80090374DE9
:106834000DD1802C3ED13649364B0A78002A36D108
:10684400354802780132027001220A701A602E80E3
:10685400BDE8F0871A680132E5E73A88402AE3D1B7
:10686400C02BE1D1DFF89CA0DFF89C80DAF800307F
:10687400042B12D90120294911F0B4FB6E20FEF734
:1068840043FB6421264822F03BFA00231C4A88F883
:106894000030CAF800301370C6E798F80030013BA6
:1068A400012B9FBF1F4A136801331360E9E71A687D
:1068B4000132CBE72B88802BC9D1C02CC7D1154F0F
:1068C400154C3B68042B10D90120174911F08AFBA1
:1068D4007820FEF719FB6421114822F011FA0023F5
:1068E4000B4A23703B601370B1E72378013B012B03
:1068F4009FBF0E4A136801331360ECE76A2400203B
:10690400294B0020643E00205D4B00206C240020B5
:106914002A4B0020683E00205E4B0020E6E703007F
:10692400842A0020442F002000EB0300802F002045
:10693400002310B588B08DF80830104B8DF807008F
:1069440003930DF107030493012302AA0C4803A93E
:10695400ADF814300692ADF81C3006F0F3FA084C8A
:10696400012807D09DF808109DF80700FFF744FFA1
:1069740008B010BD204606F0D7F9F1E74E00040038
:106984000000014A07B501238DF807100DF1070235
:1069940001464E2008F094F903B05DF804FB0000B2
:1069A40010B40124122804FA01F3DCB20CD10E480D
:1069B400017832B12143017012205DF8044BFFF7D6
:1069C400E1BF21EA0301F6E7132809D1074801785A
:1069D4001AB1214301701320EFE721EA0301F9E71B
:1069E4005DF8044B704700BF47460020484600202E
:1069F40010B50120174911F0F5FAFF210C20FFF71B
:106A0400C1FFFF210D20FFF7BDFF00210846FFF75E
:106A1400B9FF00210120FFF7B5FF00210E4B0F4CF9
:106A2400122019702170FFF7ADFF21781320FFF7B2
:106A3400A9FF012206211220FFF7B2FF072112202D
:106A44000122FFF7ADFFBDE810400120044911F019
:106A5400C9BA00BF12EB0300474600204846002095
:106A640028EB030007B501238DF807100DF1070289
:106A74000146402008F024F903B05DF804FB00004F
:106A840010B40124122804FA01F3DCB20CD10E482C
:106A9400017832B12143017012205DF8044BFFF7F5
:106AA400E1BF21EA0301F6E7132809D10748017879
:106AB4001AB1214301701320EFE721EA0301F9E73A
:106AC4005DF8044B704700BF494600204A46002049
:106AD40038B501203A4911F085FAFF210C20FFF75F
:106AE400C1FFFF210D20FFF7BDFF00210024084650
:106AF400FFF7B8FF00210120FFF7B4FF314D324BFF
:106B0400214612201C702C70FFF7ACFF297813204B
:106B1400FFF7A8FF214601221320FFF7B1FF01224E
:106B240002211320FFF7ACFF012204211320FFF7F9
:106B3400A7FF012206211320FFF7A2FF012207214C
:106B44001220FFF79DFF012205211220FFF798FF75
:106B5400012203211220FFF793FF01221220114684
:106B6400FFF78EFF224601211320FFF789FF2246FB
:106B740003211320FFF784FF224605211320FFF78A
:106B84007FFF224607211320FFF77AFF22460621C2
:106B94001220FFF775FF224604211220FFF770FF31
:106BA400224602211220FFF76BFF214622461220C3
:106BB400FFF766FFBDE838400120044911F012BA1E
:106BC40046EB03004A460020494600205AEB0300E6
:106BD4007047000007B50022064B1A7009F076FCD6
:106BE400054B0090054A0120054911F0FBF903B05B
:106BF4005DF804FB282D0020B3FA030076EB0300B4
:106C04007BEB0300AB28084A08D11368032B05DC8F
:106C140001330A210548136022F072B800230449A5
:106C240013600B70704700BFAC300020282D00208B
:106C340053460020002307B501200093034A044B68
:106C4400044911F0CFF903B05DF804FB8FEB0300A6
:106C5400102E04007BEB03000021FFF739B800205D
:106C64007047C37B10B523B9C47C14B901F04CF848
:106C740000B98124204610BD08B5C37B1BB9C37C71
:106C84001BB1012B0FD0812008BD017D82898B1C93
:106C94009A420BD3806810F0D6FC07F047FF002817
:106CA400F1D00020F0E707F05BFFF8E78020EBE786
:106CB40008B5C37B43B9C37C012B07D0022B08D092
:106CC40013B909F0CBFD38B9812008BD09F0D6FD10
:106CD400F9E709F0E3FDF6E70020F6E708B5C37B22
:106CE4007BB103690A4A23F47F03934209D1037DEC
:106CF40081895A1C914206D38268D05CFFF7AFFFAA
:106D040018B9812008BD8020FCE70020FAE700BF05
:106D14000210000210B5437D0446012B0ED1036816
:106D2400028A598858790EF017FD38B123685B88B8
:106D3400192B01D0C32000E0812010BD637D002BFE
:106D4400F8D12368228A598858790EF0FCFC00286F
:106D5400F0D023685B88062B12D8062BEAD801A250
:106D640052F823F0976D0000396D0000396D000072
:106D7400A16D00003D6D00003D6D0000AB6D000095
:106D84004FF601529342D5D12046BDE81040FFF79B
:106D9400A5BF2046BDE81040FFF763BF2046BDE80D
:106DA4001040FFF769BF2046BDE81040FFF780BFE1
:106DB40070470120704701207047012070477047D9
:106DC4000020704700207047002070470020704763
:106DD4000020704700207047002070470120704752
:106DE40001207047B520704700207047002070478D
:106DF400002070470020704700207047704770479C
:106E0400002070477047812070477047002070470A
:106E14008420704770477047704770470020704760
:106E240000F09ABC0320704700207047034B1B6896
:106E34001878012808BF0220704700BF503800208E
:106E440070470020704700000123034AC0E9032370
:106E540000220270184670470100FEFF70470020B0
:106E640070470020704700207047002070470020C2
:106E7400704700207047002070477047B520704766
:106E8400002070470020704770470020704770470B
:106E940070477047B52070477047704770470020AF
:106EA4007047704770477047704700000023FF2108
:106EB400084A137082F8783082F8653082F87730A7
:106EC40082F8793082F87A1082F87B30024A1360B3
:106ED400704700BF114A0020143B0020044B1844A3
:106EE40090F8663090F86500181AC0B2704700BF79
:106EF400114A0020F8B5214C94F87B201044C2B20A
:106F04001046FFF7EBFF4FF0000C074660461C4BA2
:106F1400224492F865501E7825445FFA8CF2974219
:106F240024D96B7811B10AB92D2B17D0782B21D025
:106F3400582B05D108B137220AE0013A012A16D9A3
:106F4400602B19D8402BF6D83A2B34BF30220022BC
:106F54009B1ADBB29E4205D900FB06300CF1010CF2
:106F64000135DAE70523002084F87930F8BD1026CE
:106F74000020F3E70028E0D05722E9E7114A002077
:106F8400BB240020F8B50C468D680A6806462849DB
:106F9400202003F023F963687BB92020254903F0FE
:106FA4001DF920200CF052FA2020234903F02AF97D
:106FB400BDE8F84020200CF049BA002EF1D06C1E38
:106FC4001E4E1F4D1F4F14F8013F23B91A492020AC
:106FD40003F018F9E5E7752B18D0762B18D0772B2A
:106FE40018D0732B18D0722B18D0712B18D0622B99
:106FF40018D06E2B18D02A2B18D01349134A212BE2
:1070040008BF1146202003F0E9F8DCE72946F9E738
:107014003146F7E73946F5E70D49F3E70D49F1E75E
:107024000D49EFE70D49EDE70D49EBE70D49E9E7B8
:10703400830E0400B6EB030029E50300CBEB030049
:10704400C0EB0300D7EB0300BDEB0300F8EB030038
:10705400E3EB0300AAEB0300EDEB0300A0EB03005A
:10706400B5EB0300BAEB0300FFF720BF034B93F823
:10707400770093F87B30C01AC0B27047114A0020E1
:107084000021FFF737BF000010B50A4B93F87B20AF
:10709400024453FA82F292F8652013445C78A4F116
:1070A4002D0359425941FFF725FF2D2C08BF4042BB
:1070B40010BD00BF114A002038B5C443094DE40F88
:1070C40095F87B200244D2B221B11046FFF706FFA7
:1070D400001B087045FA82F292F8650004440248E5
:1070E400204438BD114A0020124A00202DE9F34102
:1070F40015460E460DF107011C46FFF7DDFF9DF80E
:1071040007308046AB4288BF8DF807509DF8077062
:107114000CB1EC1BE4B222460021304637F05BF898
:107124003A464146301937F03CF8384602B0BDE8DB
:10713400F08138B50C4601230822FFF7D7FF04F18C
:107144000803621E043413F8011D12F8015FA34200
:107154001D701170F7D138BD38B5054601460120C0
:10716400FFF710FFD5E901436CB91C46084D2368AD
:1071740063B12946202003F031F821460020FFF7AF
:1071840001FF0C34F3E71B786E2BEFD038BD00BF42
:10719400E547040008B52020034903F01FF8BDE8C3
:1071A400084020200CF052B913EC030010B5FFF78F
:1071B400F1FF054C236803B910BD21460020FFF7F9
:1071C400E1FE0C34F6E700BF0C0404001E4B2DE96D
:1071D400F0471E4E53F820201D49202002F0FEFFE8
:1071E40033681BB9BDE8F047FFF7E0BFFFF7D2FFF4
:1071F4000024184DDFF8648095F87B30E7B2013B3A
:107204009F4204DB3068BDE8F047FFF7A5BF4FF0AD
:10721400000A45FA84F393F86590A9443846FFF7C9
:107224005DFE5FFA8AF3834205D320200A4902F007
:10723400D5FF0134E0E74B44414620205A7802F060
:10724400CDFF0AF1010AE9E728200020143B0020C1
:1072540053EC0300114A0020E6470400D30D040058
:107264002DE9F84F824C94F87730002B00F096808B
:10727400804B04F101081B7813F0010F1BD000258B
:107284007D4EE8B2FFF72AFE44FA85F393F86510C1
:107294000246414420200CF0D4F83146202002F06C
:1072A4009DFF013594F87720EBB29A42E9D820206B
:1072B400724902F093FF002694F877A0704A44FACA
:1072C40086F3304693F86590FFF708FE4FF0000C04
:1072D4006546C1441768002F50D0CE46013F18E0E0
:1072E40023B9002D47D115460C32F3E71EF8011BD4
:1072F400A1F1410BBBF1190F98BF2031A3F1410B50
:1073040098BFC9B2BBF1190F9CBF2033DBB28B42CB
:10731400EAD1AEEB0901814217F8013FE0D1002B1D
:10732400DFD11546574B01361D6094F87B30F6B219
:10733400013384F87B30D5E90132A3B312786E2A85
:1073440030D03F2A23D04FF000094FF0050BC84638
:10735400072394F87710AA68B14212F8087029D864
:10736400AFB1424453782A2B11D0212F1CBF0323E1
:1073740084F879300BE04FF0010CB5E7BCF1000F55
:1073840001D1002DCED10223002584F8793094F860
:107394007900002868D168680FF028FEBDE8F84F2E
:1073A400FFF784BD1A46B24589D80323154684F8ED
:1073B4007930ECE7622F30D006D8002F52D0212F3D
:1073C4003AD084F8793037E0732F15D8702FF8D974
:1073D400732F1FD0722F47F6FF7A18BF4FF0FF3A72
:1073E40001214846FFF786FD50454FF0070323D996
:1073F400042284F879201FE0A7F17502022AE0D85C
:10740400752F04D0762FE3D14FF6FF7AE8E74FF0DB
:10741400FF0AE5E74FF07F0AE2E794F87B204A444D
:1074240054FA82F292F8652022445278222A03D038
:107434007B2A01D084F879B0AA68424452782A2A77
:1074440094F879201CBF08F101085FFA88F8002A33
:107454009DD1212F1FBF013609F10109F6B25FFA50
:1074640089F976E70322C4E7FFF7B0FE96E700BF89
:10747400114A0020E84A0020E647040050EC0300CB
:107484000C040400143B00202DE9F34106460D468C
:107494004FF000085C4C5D4F66B928460DF10701BA
:1074A4000BF0CAFF78B1262800F0AA80012384F8E3
:1074B40079304BE0002D00F0A38016F8013B013D2C
:1074C4008DF80730EDB23A789DF807300D2A3B70FD
:1074D40001D10A2BE0D00D2B0CD0A3F10A025142AA
:1074E400514122788846042AD6D8DFE802F0051DE7
:1074F400263C31000121F4E721B1FFF7B1FE4FF042
:107504000108C9E7202B64D0222B07D10223237062
:1075140094F87820642A5ED10623C8E77B2B01D136
:107524000323F4E70123F2E709B9202BF0D194F8FF
:107534007730112B40D10323B9E7222BF7D0002950
:10754400E6D005234FF0010884F879300423237032
:10755400B8F1000FA0D094F8790008B1FFF736FE17
:10756400FFF7A4FC98E77D2B94F87A0003D1FF2859
:10757400DDD005239BE7602B13D8402B13D83A2B7F
:1075840034BF302200229A1AD2B20F2A10D8FF2810
:107594000BD0FF2302EB00128DF8072084F87A3019
:1075A400B6E75722EFE73722EDE784F87A2073E74E
:1075B400202B3FF471AFDCE70133DBB294F8782081
:1075C40084F87730234483F865200023237000294E
:1075D40093D1884660E72378012B09D19DF80730C1
:1075E400A3F1410119299CBF2033DBB28DF8073088
:1075F4009DF80710A3180132597084F878204BE7DE
:10760400404602B0BDE8F081114A00205F4B0020E3
:1076140049BA89B24840C0F303134340180380B207
:1076240058405B0103F4FF53584070471FF0C2BB3E
:10763400704770477047704770477047704770478E
:107644007047704770477047704700207047704715
:10765400704700207047704770470020704770479C
:107664007047704700207047704701207047012021
:10767400704770477047704770477047704770474E
:107684002DE9F0470024204EDFF89C90DFF89CA001
:107694005FFA84F8404620F0C1FDFF2805460CD16E
:1076A40022461A49307802F0ADFD307801340BF0EF
:1076B400CDFE152CECD1BDE8F087154B47B233EA6B
:1076C400270328BF534659F824201249307802F082
:1076D40099FD002FE9DA14B1B8F1030F08D10E4B6C
:1076E40015F0010F0D49307808BF194602F08AFDE4
:1076F4000A2CDAD10A4B15F0010F0A49307808BF79
:10770400194602F07FFDD0E7122500200FED03009B
:10771400C448040037ED0300E8EC0300D2EC030096
:1077240004ED0300FAEC030038EE030029E503003E
:1077340082B2074B4AB1000C1A8008BF4FF6CE2222
:10774400044B14BF18801A8070474BF6EF62F2E7BF
:107754006E240020702400200B4BB3F900201888FD
:10776400002AB8BF80F0620042001A80074AB2F9CA
:10777400001013880029BCBF83F4805383F00B03EB
:1077840059001180584070476E2400207024002056
:107794000022034B1870034B1970034B1A70704787
:1077A4009148002090480020554B00202DE9F74FC8
:1077B400DFF89890064699F800300F46002B41D028
:1077C4004FF6FB7398423DD80025DFF88480DFF83C
:1077D40084A098F800409AF80000694650FA85F0B1
:1077E400C0B22BF0BFF90822394668465FFA85FB20
:1077F40036F0BAFCF8B95C4698F80030A3420AD1D6
:1078040099F80020631CDBB29A4288F8003004BF68
:10781400002388F800309AF8003039461C44E4B25A
:1078240020462BF0DDFA68B93146204603B0BDE8A6
:10783400F04F2BF065B999F800200135EBB29A426C
:10784400C9D8D9E703B0BDE8F08F00BF9048002045
:10785400554B002091480020024B187800F07F001F
:10786400704700BFCA510020034B18780130C0B2E2
:10787400187000F07F007047CA5100201FB5030A3A
:107884008DF80E300323009303AB8DF80D0000F048
:10789400CFF905B05DF804FB1FB58DF80F10042176
:1078A400030A8DF80E30009103AB8DF80D0000F043
:1078B400BFF905B05DF804FBF0B589B01768BDF8F1
:1078C40038509DF83C60CDF8097057688DF8125017
:1078D400012E4FEA1525DDF840C0BDF84440CDF82F
:1078E4000D708DF811308DF813508DF8146016D08A
:1078F400032E1BD1DCF80030CDF81530DCF8043051
:10790400CDF819309DF848308DF81D3016230093BA
:10791400BDF84C2002AB00F08BF909B0F0BD8DF836
:107924001540240A0F238DF81640F0E70120F4E7F0
:107934001FB50446084611461A4602238DF80D1059
:107944000093214603AB00F073F904B010BD10B5E9
:1079540014461A460B6886B0CDF80D304B683421B6
:10796400CDF811300A23009303AB8DF8154000F0D5
:107974005FF906B010BD000030B5002485B0ADF845
:107984000A20021D92B2012A1D46ADF80840ADF846
:107994000610ADF8044003D94FF6FF72904207D1A8
:1079A400064A2B46127801A929F036F905B030BDF4
:1079B400014601AA204629F0F5F9F7E71B25002026
:1079C4002DE9F04F2DED028B87B00C461D4617466E
:1079D40000904AB3104621F0AFFDC0F3470A2DB31F
:1079E400284621F0A9FDC0F34708FFF73DFF009B9F
:1079F4008DF810008DF811308DF813401B0A002209
:107A04000621240A04A88DF812308DF814408DF84C
:107A140015A021F08FFEADF80E0048B9182007B06C
:107A2400BDEC028BBDE8F08F9246D8E7A846DCE7B0
:107A34004FEA4A01C9B201F1060B07315FFA81F935
:107A440001EB48015FFA8BF3C9B20DF10E0008EEA9
:107A5400103A22F067F804460028DFD18346062650
:107A64005FFA8BF18A45BDF80E3011D8424618EE04
:107A7400101A184622F0CAF8E6B2B045BDF80E3026
:107A840027D80621BDF848200098FFF775FFC6E700
:107A9400490001F0FE013846019322F0A3F8019B4E
:107AA40002463146184622F0B1F8BDF80E30711F77
:107AB400C9B23846019322F095F8019B711C024625
:107AC400C9B21846023622F0A1F80BF1010BF6B246
:107AD400C6E77600F6B231462846019322F082F8D2
:107AE400019B02464946184622F090F8711CC9B21F
:107AF4002846BDF80E7022F075F809F1010102461E
:107B0400C9B2384609F1020922F080F801345FFA5B
:107B140089F9B1E7F0B589B00E4602A905460DF022
:107B24000FF900287ED0FFF79FFE8DF8100020F09B
:107B340035FD8DF8110020F031FD3C4A000A136830
:107B44008DF81200CDF8133053680F21CDF817309B
:107B5400BDF8083000228DF81C301B0A8DF81D304A
:107B64009DF80D3004A88DF81B508DF81E3021F0BF
:107B7400E1FDADF80600002856D000279DF80D3031
:107B8400FAB2934216D801230DF10E011A460DF1F3
:107B9400060021F00BFE00279DF80E30FAB2934246
:107BA40024D8324620210020BDF80630FFF7E4FE39
:107BB40009B0F0BD002128460DF0EEF8012304467B
:107BC4001A468DF805000DF105010DF1060021F0AE
:107BD400EDFD0123240A1A460DF105010DF10600FD
:107BE4008DF80540013721F0E1FDC7E70121284662
:107BF4000DF0D2F8012304461A468DF805000DF164
:107C040005010DF1060021F0D1FD0123240A1A46D5
:107C14000DF105010DF106008DF80540013721F045
:107C2400C5FDB9E7A320C3E71820C1E7CE4A002069
:107C3400F7B50E469DF820101C46174601910546DF
:107C4400FFF712FE002220700199204621F072FDF8
:107C5400034638B13A463146284603B0BDE8F04001
:107C6400FFF78ABE182003B0F0BD08B5FDF79EFFEC
:107C740011F084FABDE8084007F0D0BE08B5FFF75C
:107C8400C1F8BDE8084011F0A7BA08B5FFF7BDF880
:107C9400BDE8084008F022B97047FEF703BAFFF7C1
:107CA400E6B80020704738B504460D46FFF7F9F8EA
:107CB4002946204607F0D0FE29462046BDE8384034
:107CC4000CF042B8FFF7D5B8FFF7DFB80122002166
:107CD400092011F029BF002307B5CDE900330123A2
:107CE40069464FF0FF308DF8023014F0E9F800389F
:107CF40018BF012003B05DF804FB01207047012088
:107D0400704701207047000010B5084C23681B68B9
:107D140058790EF03EFB23681B685879FFF77BF80F
:107D2400002011F0EDFB012010BD00BF4C380020F5
:107D34002DE9F74F06460D4614461F464FF0010B3A
:107D4400DFF8789003F10C0A15B903B0BDE8F08FA1
:107D5400102DA84628BF4FF010083A46164B5FFA7C
:107D640088F152F8040B524543F8040BF9D1019100
:107D74009AF8002011481A70002389F80F4089F8F6
:107D840000B089F80E302BF0C7F8324601340B48A6
:107D94000199E4B212F801CB10F8013B83EA0C0319
:107DA40002F8013C931BDBB29942F3D8A5EB08051A
:107DB4001646ADB2C8E700BFFD4A0020FC4A0020C9
:107DC4002DE9F74F01930D9B804600930346164619
:107DD400BDF83090324A0F4600F10C0153F8040B01
:107DE4008B4242F8040BF9D11B784FF0020A13704E
:107DF40049232C4C237020464FEA1923A37384F89B
:107E04000F902BF089F85246237883EA16232370C7
:107E14006378734063704FF0000B1BE0C2F11005F0
:107E2400A6EB0B039BB2ADB29D4228BF1D460023B7
:107E34001FFA83FCD018AC45C0B21BD32A44D2B27B
:107E4400AB44102A2F441FFA8BFB03D120462BF09E
:107E540063F80022B345E1D312B120462BF05CF85D
:107E6400BAF1010F4FF000020ED04FF0010A4E4656
:107E7400019FD0E717F803C014F800E001338CEA3F
:107E84000E0C04F800C0D3E72368009900980B6037
:107E94004346042103B0BDE8F04FFFF749BF00BFDC
:107EA400FD4A0020FC4A0020F7B5099FBDF8205088
:107EB4000646CDE900571C46FFF782FF2DB1334635
:107EC400012229462046FFF733FF002003B0F0BD0E
:107ED4002DE9F7431D4604460E461746BDF8289083
:107EE400DFF834800346494628460122FFF720FF85
:107EF4002B463A4631462046CDE90098FFF760FF0D
:107F0400042241460B9836F02FF9002814BF7E2036
:107F1400002003B0BDE8F083EB49002073B51C4694
:107F2400044D8B181E59CDE900452E60FFF7D0FF94
:107F340002B070BDAE4B0020002070470020704797
:107F440000207047704770472DE9FF410025264EF9
:107F5400264FDFF8A8800DF05BF8ECB2A0420DD8F4
:107F64000DF056F801900DF051F803460220019AE5
:107F74001F4904B0BDE8F04110F034B820460DF1BB
:107F84000D020DF10E010DF03FF830B10220194938
:107F940010F028F804B0BDE8F081224631460220F2
:107FA400BDF80E3010F03CF89DF80D00FF2808D104
:107FB4000CF0F0FD41460246022010F013F80135A2
:107FC400C9E70DF10D020DF10E010DF01DF830B9E8
:107FD40039460220BDF80E2010F022F8E4E7022012
:107FE400054910F01DF8D5E772080400760804006E
:107FF400910804005C08040080080400860804005A
:1080040008B502200F4A10490FF0ECFF0A220220A3
:108014000E490FF0E7FF3C2202200D490FF0E2FF6A
:108024001E2202200B490FF0DDFF032202200A4921
:108034000FF0D8FFBDE808400122022007490FF0E5
:10804400D1BF00BFA9080400AD080400BB080400A8
:10805400E1080400070904001409040033090400BA
:1080640008B5012012F02CFFBDE80840820802493F
:1080740002200FF0B7BF00BF52090400002012F025
:108084001FBF022012F01CBF002008B5FEF7F8FF46
:10809400C2B2012A05D9BDE80840012004490FF005
:1080A400A1BF0120BDE8084002490FF09BBF00BFFB
:1080B400740904009F090400024B01211A78024844
:1080C40036F089B8EA240020BC4A0020704713F037
:1080D4000BBC704710B5044686B01CF044FC1CF081
:1080E40040FC912C04D106B0BDE8104021F008BF3B
:1080F400902C11D11CF033FC0E4B1B5C012B0DD1C9
:1081040000230120CDE9010303230A2200934FF643
:10811400F8713C2312F054FF06B010BD0DF11700A6
:108124000CF06AFF0028F7D19DF81730012BF3D12A
:10813400E6E700BFBC4A00202DE9F34100240C4EC1
:108144000C4DDFF838800C4F56F8043B0BB9D8F8C7
:10815400003035F8022B39460092012022460134C2
:108164000FF040FF292CEFD102B0BDE8F08100BF31
:108174008023002064440020DB0904003424002010
:1081840008B5FFF7D9FFBDE8084000F0F9B80000D2
:1081940007B50020FEF774FFC2B2282A0DD8084B99
:1081A40053F822300BB9074B1B680749012031F8FB
:1081B4001210009105490FF015FF03B05DF804FBA0
:1081C400802300203424002064440020DB090400C0
:1081D400FFF7B2BF7047000038B50020FEF750FF2C
:1081E40004460120FEF74CFF0546054901200FF027
:1081F400F9FEA9B2E0B2BDE8384000F0D9B800BF3A
:10820400E60904002DE9F34100240C4E0C4DDFF87F
:1082140038800C4F56F8043B0BB9D8F8003035F8C9
:10822400022B394600920120224601340FF0DAFE77
:10823400292CEFD102B0BDE8F08100BF80230020DB
:10824400B6440020DB09040034240020F7B502AB57
:108254000446174603E906001FF032FE0646204690
:108264001FF03EFE9DF800508EB1202C0FD83B78B5
:10827400012B33D84FF6FF703A4903EB43132344E1
:1082840031F81320824202D0013221F813204FF634
:10829400FF72354B354E33F8140036F81410904203
:1082A4001CBF421C23F8142004F0FD02092A2ED11D
:1082B4009A8AB68A2A44B242B4BF9A829E8233F81A
:1082C40014308B422ED20025294B13F8012B9442F3
:1082D4002ED00135112DF8D103B0F0BD022BD6D12B
:1082E4004FF6FF724FF6FF701E4B33F81410914295
:1082F40018BF013104F1210218BF23F8141033F818
:10830400121081421CBF013123F81210BFE71D2C4B
:10831400D5D15A8F56198E4203DA013A2A445A8724
:10832400CDE759878842CED22046FEF775FDCAE7CD
:108334001CF019FB0F4B04461B78834203D8DD2144
:108344000D4800F08FFC4FF6FF710C4A04EB041447
:108354002C4432F814308B42BED0013322F814304E
:10836400BAE700BF0845002064440020B64400205A
:10837400520D0400EA240020CE0C04008C45002099
:1083840052220021014835F026BF00BF644400207A
:108394005222FF21014835F01EBF00BFB644002021
:1083A40008B5FFF7EDFFBDE80840FFF7F1BF000097
:1083B400014B23F810107047B6440020032310B576
:1083C4000F4C1022C4E904330E4B0F49E361002320
:1083D400A16121660D49E01DC4E919120C49A3628B
:1083E4006362E3622367E3666367226236F00CF834
:1083F4002046084936F008F82023A37110BD00BFB9
:10840400002800207D480020630D04006D480020F2
:108414006C0D0400700D04002DE9F84FDFF87C802A
:10842400824698F80030894616460BB9FFF7C6FF16
:10843400182707FB0A873D6FD7F86CB05D452BD929
:10844400BC6E796E641BB44228BF34464846294446
:10845400224635F099FEBB6E2544AB4208BF002589
:10846400A144361BABEB0502964228BF164656B113
:10847400182303FB0A83596E32462944484635F0D3
:1084840083FE3444354424B1182000FB0A88C8F81C
:1084940070502046BDE8F88F0024E3E70028002050
:1084A40037B50446CDE9002104F07DFADDE9002169
:1084B40005462046FFF7B0FF0446284604F079FA43
:1084C400204603B030BD00002DE9F843134C1E468E
:1084D40023788146884617460BB9FFF76FFF0025BE
:1084E40004F061FA61690D4A536E3BB10135A9424A
:1084F40002F11802F8DC4FF0FF350AE0A942FADD78
:10850400182202FB0544C4E91898A7662367E366AA
:10851400666704F04EFA2846BDE8F8830028002078
:10852400FFF74CBF70B54FF060441C4B0026D3F8E6
:10853400F0201B4D42F00102C3F8F020D3F8FC20D8
:108544000C2042F08072C3F8FC20164BC4F8B03FF4
:108554000223C4F8006EC4F8806EC5F8F03003F04E
:10856400D9FE114B00F5D52000F2FC40B0FBF3F02E
:108574000E4A0F4B01382861C4F8406E1A600D4B47
:10858400C4F8803E4FF48073C5F80433D4F8003E39
:1085940043F48073C4F8003E70BD00BF00ED00E0FA
:1085A400000004E055CEACC5F8590D00FF030040AF
:1085B400001000E00D00010010B50124104B002054
:1085C400C3F8444404F0AAFA2346042203210020F9
:1085D40004F000FB204613F0B9F9FFF7A3FF13F0F2
:1085E400B6F9084B1C70FFF79BFF2346402206494F
:1085F4000648FFF769FF064B1860C00F10BD00BFA7
:1086040000D00340A54A00206D4B0020770D0400E4
:10861400A0220020034BD3F8F000003818BF01203B
:10862400704700BF00ED00E0D123054A03701378C2
:108634004170090A8170591CC3701170042070477D
:10864400B34B00202DE9F74F91F800808246B8F132
:10865400040F0F465FD91BF08BFD4FF6FF76002405
:1086640008F10505DFF8B890EDB20190D9F8F020D3
:108674000AB1A54207D8281B18BF012004233B7068
:1086840003B0BDE8F08F1BF073FD019BC01A80B2EC
:10869400B0F5FA7F41D8A4B3012C36D0EA1E04F118
:1086A400010B94425FFA8BFB19D1F4B24FF0604294
:1086B400D2F8801ECB0710D5D9F8FC1041F0807198
:1086C400C9F8FC10D2F8001E41F48071C2F8001EF3
:1086D400116A0029F0D082F820405C46C6E7AA1E41
:1086E400944202D1C6F30724E0E76A1E944210D0F4
:1086F400544414F8024C31462046FEF789FF0646DE
:10870400D4E75B244FF0010BD0E744464FF0020B53
:10871400CCE75D24CAE70020B0E70120AEE700BF44
:1087240000ED00E000B5084B91B04022694618689E
:10873400FFF7B6FE20B1C2B26946122012F0C0FAA9
:1087440011B05DF804FB00BFA022002010B500208A
:1087540090B0FEF795FC40226946044600F030FADA
:10876400034630B12246012005490FF03BFC10B00E
:1087740010BD0122694608200FF0C4FBF7E700BFD3
:10878400870D040010B500F093F8002814BF792277
:108794006E22012013490FF025FC00F089F8F8B18E
:1087A40000F056FA002814BF79226E2201200E49E7
:1087B4000FF018FC022201200C490FF013FC0C4BA3
:1087C40001201C1F53F8042C0A490FF00BFCE2682B
:1087D40004F110030120BDE8104006490FF002BC6B
:1087E4003F22E3E7BF0D0400D60D0400E60D0400AC
:1087F40058380020050E040070B500F07FF80446D8
:108804001F4901200FF0EEFB2CB9BDE87040012098
:108814001C490FF0E7BB00F079F8054622690120F6
:10882400194926880FF0DEFB6288012017490FF0F2
:10883400D9FB1749A28801200FF0D4FB6388E28892
:1088440013F0100F14BF1349134901200FF0CAFB92
:10885400A268012011490FF0C5FBE268012010490C
:108864000FF0C0FB0F4A104B0120B6F5817F28BFE3
:1088740013460E492A46BDE870400FF0B3BB00BF53
:108884003A0E0400470E0400680E0400860E04002D
:10889400A70E0400C40E0400E10E0400FF0E040041
:1088A4001D0F0400280E0400320E04003B0F0400C8
:1088B400034B1878012894BF00200120704700BFA3
:1088C400AE4A002038B50446044D2878A04203D0AF
:1088D4002146FEF7A2FA2C7038BD00BFAE4A002034
:1088E400054B1B7820B1012B04D80220FFF7EABF07
:1088F400012BFBD8704700BFAE4A002008B500F03A
:1089040019F8BDE8084005F08DB8000010B5084C12
:10891400237853B9FFF7F2FF0123237028B10388AA
:10892400B3F5817F24BF037D2370207810BD00BF81
:10893400C751002070B5154B1B78012B25D805F0C5
:1089440059F8134D0246134901200FF04BFB012047
:10895400FFF7C6FF2E78FF2E17D105F063F898B104
:1089640044881822C4F3400431460B482C7035F077
:1089740032FC54B1FFF7CAFF042806D9BDE87040A1
:10898400D021064800F06EB9287070BDAE4A0020B0
:10899400012500205E0F040054380020700F0400ED
:1089A400FFF7C8BF2DE9F04F654B87B005468846F1
:1089B400144693E8070003AB83E80700FFF7BAFF08
:1089C400FFF7A4FF5F4B064693F800A0BAF1010F2E
:1089D4001AD1012818D9B5FBF0F300FB13539BB14E
:1089E400594F3A68511C03D03B7A13449D4229D015
:1089F400FA68531C03D03B7D13449D4224D040F2BB
:108A04003111524800F02EF94E4B1B78012B67D1DF
:108A1400B5FBF6F306FB1353002B58D16319B3FBD4
:108A2400F6F206FB1236002E5AD0A41B9B1B08EB51
:108A34000401324604A80393A4B235F0A5FB8DF8D3
:108A440014604DE04FF0000A0C2303FB0A73187AFC
:108A54004146331A5FFA83F90AEB4A034FEA830B60
:108A6400A1450BF1040328BF5FFA84F918444A4670
:108A74003844019335F088FB0C2202FB0AFA07EB19
:108A84000A010A7AA4EB09044A44D2B2B242A4B25B
:108A94000A7219D10320FFF715FF0199B2B23944C4
:108AA40057F80A0005F002F882460220FFF70AFF91
:108AB4004FF0FF3207EB0B0147F80B20C1E901220D
:108AC400BAF1000F32D1C844F4B14D449CE74FF4DD
:108AD400AD711E4800F0C6F81A4B1B78012B9DD0CF
:108AE400ACB9039B01330FD0174B1A68013221D064
:108AF400DA68013220D101220C2101FB02330DEB93
:108B0400010207CA83E807004FF0000A0EE00320C1
:108B1400FFF7D8FE22464146284604F0C7FF8246A6
:108B24000220FFF7CFFEBAF1000FDAD0504607B0AB
:108B3400BDE8F08F0022DFE74FF0010AF6E700BF3F
:108B4400E40F04000125002054380020700F0400B5
:108B540038B5184B1B78012B28D1174DFFF7EAFEC7
:108B64002B6801330FD00320FFF7ACFE2C68FFF70E
:108B7400CDFE291D82B2204604F098FF044602204F
:108B8400FFF7A0FE9CB9EB6801330FD00320FFF779
:108B940099FEEC68FFF7BAFE084982B2204604F059
:108BA40085FF04460220FFF78DFE04B90024204609
:108BB40038BD00BF0125002054380020643800204F
:108BC40013B50446CDE90021FFF7B4FE0420FFF7F6
:108BD40079FEDDE90021204604F077FF04460220F7
:108BE400FFF770FE204602B010BD000070B50446C9
:108BF4000D46FFF79FFE0520FFF764FE2946204639
:108C040004F072FF06460220FFF75CFE0E4B1A6862
:108C1400501C09D0944207D861198A423EBF4FF0D4
:108C2400FF32C3E900229A60DA68511C0AD0A242DA
:108C340008D361198A423FBF4FF0FF320349DA601B
:108C4400C1E90122304670BD54380020603800204C
:108C540008B5FFF76FFEBDE8084004F054BF42DEDC
:108C64007047000038B504460D4600F003FD03F0DC
:108C740092FE2946204611F0EFFF2B462246054975
:108C840001200AF0E9FB29462046BDE83840FFF7F9
:108C9400E6BF00BFF00F04006E4B2DE9F0415A68A7
:108CA4006D4CA2655A6AE2656C4AD2F800122166DC
:108CB400D2F8042262669A6AA266DA6AE2661A6BDB
:108CC40022675A6B6267A26BDB6B12F0040FA36717
:108CD400D4E90F3508BF1D461BF02EFA0022854249
:108CE4000346606522655DD35D4A95425AD8AA69F8
:108CF4006264E969A164B4F85810C1F30801062953
:108D040054D158498A4251D357498A424ED2118884
:108D14004DF64262914249D140F201706268C4F852
:108D24009420A268C4F89820504A934238BF13464E
:108D34004F4A93423DD3D31AE3640023C4E91F335B
:108D4400C4E92133C4E92333494EDFF818C1DFF8FD
:108D540018E1AE4233D8D4E91FC7D4E92165D4E978
:108D640023124FF0000E013BDBB2FF2B42D1BEF1C8
:108D7400000F05D0C4E91FC7C4E92165C4E9231263
:108D8400B4F85830C3F308030C2B41D8022B57D93D
:108D9400DA1E092A54D8DFE802F05A3746495353F9
:108DA4005353535000221D46C4E911224FF420604E
:108DB400BAE71968B1F1CD3FBDD10433B9E756F82C
:108DC400042D6245C5D37245C3D2D107C1D5002154
:108DD400284F57F8048B9045BBD00131C9B20629FE
:108DE400F7D10BB9052301E0013BDBB204EB8301AE
:108DF400CA67AEE7E0464FF0010EBC4637462E4642
:108E04000D4611464246AEE740F60220BDE8F08129
:108E14003B2B15D1184B9B6913F0020F40F2025300
:108E240018BF1846F2E740F60320EFE740F60423A4
:108E3400B0F5206F08BF1846E8E740F60520E5E7DF
:108E440040F60722013B4B2B98BF1046DEE740F665
:108E54000120DBE700ED00E00000002000E100E07D
:108E6400201A00204C43000090E403009C000020E2
:108E7400401A00207C0000200080014A10B504F054
:108E840091F9044604F086F90022012101FA02F363
:108E9400234014D01D4B1E4933F81230062B14D036
:108EA40040F2072293420DD11A4A1B4814688442A7
:108EB40008D14CF23C33538013880B8015E0013207
:108EC400102AE3D1124A13800FE04FF20F03114A24
:108ED4005088984216D11388B3F5406F28BF4FF4D9
:108EE400C0630B804CF23C335380094B1A8840F228
:108EF40001739A4201BF094B094AD2E90001C3E94F
:108F0400000110BD4FF4C063EBE700BF0410040080
:108F14000A4600200000002007020FF0E03E002077
:108F240094000020014B1888000A70470A4600206C
:108F3400014B1888704700BF0A4600202DE9F04F06
:108F44004D4D0446AB6BD5F850B05A0747BF0027C8
:108F5400B846D5F84CB0D5F85480D5F840A05DBFDC
:108F6400464FD5F83CA0DFF83C91DFF83C9113F074
:108F7400080F434B434A18BF1A46B7EB08061FBFF6
:108F84006421730801FB0B33B3FBF6F387B01CBFFA
:108F94009BB205933C494B46CDE9017ACDF800805C
:108FA40008BF059601F02EF9B3B2CDE9009320462F
:108FB400059B36491FFA8BF201F024F9AB6B5B0772
:108FC4000AD49C3E5E4507D16A6D314B9A4203D266
:108FD4002046304901F016F9BA4501D8C24504D2F9
:108FE4004A4620462C4901F00DF920460AF02EFA93
:108FF400D5E91823134337D02046284901F0EEF869
:1090040000260127DFF8A480DFF8A4902A6E07FA6F
:1090140006F3134207D058F8262013781BB14946AB
:10902400204601F0DBF80136202EEFD1002601277F
:10903400DFF87880DFF878906A6E07FA06F3134257
:1090440009D008EB8603D3F8802013781BB1494676
:10905400204601F0C3F801361D2EEDD1204607B09D
:10906400BDE8F04F01F0C8B820460D4907B0BDE88F
:10907400F04F01F0C7B800BF00000020401A0020E4
:109084003110040038100400401004006E10040075
:109094009C000020A7100400D3100400F110040069
:1090A400201104002410040029100400601A040094
:1090B400820E04002DE9F8430446FFF739FF40F619
:1090C400052398420ED8B0F5206F0DD840F2025314
:1090D400984217D040F2017398421ED040F20153D7
:1090E40098420AD0BDE8F883A0F602205F4D032819
:1090F4001FD8DFE800F0386598B55D49204601F0D7
:1091040081F811E020465B4901F07CF8574B5A6C1A
:109114002046594901F076F806E0544A2046D2E93F
:109124002523564901F06EF82046BDE8F8430AF0BD
:109134008DB92046524901F065F895F86C309F07C7
:1091440003D520464F4901F05DF895F86F305E066F
:1091540003D520464C4901F055F895F96F30002BA2
:10916400E2DA4A49CAE72046494901F04BF895F842
:109174006830980704D020466A6C3F4901F042F8F1
:1091840095F96830002B04DA20466A6F414901F0F2
:1091940039F800260127DFF80881DFF81491AA6E58
:1091A40007FA06F3134207D058F8262013781BB1A8
:1091B4004946204601F026F80136082EEFD1B3E7E0
:1091C4003549204601F01EF82B4920466A6C01F00F
:1091D40019F895F86930590703D520462F4901F04D
:1091E40011F895F96930002B04DA20466A6F294991
:1091F40001F008F808262A4FDFF8B480AB6EF3407C
:10920400DA0707D557F8262013781BB141462046C4
:1092140000F0F8FF0136102EF0D195F86830002BDD
:1092240082D120496AE72049204600F0EBFF20461E
:109234006A6C114900F0E6FF1026194FDFF87080C0
:10924400AB6EF340DB0707D557F8262013781BB124
:109254004146204600F0D6FF01361A2EF0D163E7CE
:109264002046124900F0CEFF6A6C51E7000000204E
:109274003511040072110400A2110400BB11040092
:10928400D5110400ED110400271204005A12040041
:1092940096120400BB120400DF120400F61204004C
:1092A400F81904003C1304006C1304008513040033
:1092B400D71204002DE9F84F04460026154DDFF8B7
:1092C4005C80DFF85CA0DFF85C902A4651462046BB
:1092D40058F8043BF7B200F081FF2A78AB46013519
:1092E400002AFAD19BF8012092B10B4907F0030739
:1092F400032F08BF4946204600F070FF20460AF0BD
:10930400A5F89BF801300136002BDED1BDE8F88FBB
:109314004946F0E7541B04007F3804000400002091
:10932400A613040050EC030000F00CB800F00AB8D7
:1093340000F008B800F006B800F004B800F002B875
:1093440000F000B872B61EF0080F09D01EF0040F2A
:109354000DD0DFF850E0AEE8FF1F6FF002000CE024
:10936400DFF840E0AEE8FF1F6FF00E0005E0DFF825
:1093740034E0AEE8FF1F6FF006006946EFF30982A0
:109384008EE8070086460848084C854501D3A54564
:1093940001D384F30888FFF77FFC84F308881AF06C
:1093A400A7FE00000400002020110020401A002025
:1093B400FFF7C6BF7047704700F07E63B3F17E6F5E
:1093C40070B505460E46144616D105F0D5FF18B102
:1093D4009A210D48FFF746FC22463146C5F30B009F
:1093E40003F09CFF044605F0D5FF5CB19D21BDE868
:1093F40070400548FFF736BC52081AF01DFE08B14C
:109404008F21F4E770BD00BF201C040037B515465A
:109414001A464BF234637F2D08BF00259942044657
:1094240019D17F2241F2020168460823FFF7EEFFBB
:1094340008226846264934F097FE30B908237F2273
:1094440041F2F0116846FFF7E1FF6B4603CB206061
:10945400616003B030BD41F2F01399421BD1002189
:109464001C4B9D6CD86CCBB25AB9002AF1D0E05495
:109474000133D9B207294FEA102002F1FF32F4D99F
:10948400E7E76554013104294FEA152502F1FF325B
:10949400E9D10B46E9E701F47043B3F5805F0AD1E3
:1094A400C1F30B0404F17E6402FB054103B0BDE883
:1094B400304034F069BE01F46043B3F5005FC8D1B5
:1094C400C1F30B040449214402FB0511EEE700BF7C
:1094D400A81C04000080E00F00E00F0070B50546F2
:1094E40016461C46DBB14BF23463994210D1082C6A
:1094F40028BF08247F2241F202012346FFF786FF9A
:1095040022462846064934F02FFE40B941F2F011B4
:10951400234632462846BDE87040FFF777BF70BD4A
:10952400A81C04002DE9F7430446E0070F4615463E
:1095340003D5DD213548FFF795FBE90703D5DE2187
:109544003248FFF78FFB04F47043B3F5805F3ED1DC
:10955400C4F30B0404F17E642D4A6B1E234493422E
:10956400264603D9E3212948FFF77CFBDFF89C90CA
:1095740006EB050846453DD1A2070ED04FF6FF7312
:1095840037F8022BA01E43EA024304220DEB02012A
:109594000193FFF711FF0234023DAB070ED0023DE9
:1095A40025F00103FB5A04226FEA03436FEA1343D5
:1095B4000DEB020160190193FFF7FEFE1DB32A466D
:1095C4003946204603B0BDE8F043FFF7F5BE04F486
:1095D4006043B3F5005F05D10E48C4F30B040444A3
:1095E4002646C3E7EA210948FFF73CFB6FF00F0664
:1095F4000024BBE716F8013BFF2BBBD0F4214846FF
:10960400FFF730FBB6E703B0BDE8F083201C04008D
:10961400FF1FE00F00E00F00FFF786BE1FB5124AE0
:1096240001AB10685168128903C31A800D238DF8A9
:109634000A3003230D4C082124208DF80B3002F04E
:10964400C7FF204601A904F0E4F84FF400610223A7
:10965400074A04F5005004F58054C2F8841183616C
:109664005160E36104B010BDB01C04000080014AE5
:1096740000E100E0014804F0BBB800BF0080014AEB
:10968400A52803D10021024804F0A3B8704700BF05
:109694000080014A024B586800F00100704700BF87
:1096A4000080014A024A536A002BFCD1704700BF74
:1096B4000080014A00207047002070477047000076
:1096C40007B572B603F067F98B4B8C495B6940228E
:1096D4008B6000230B764B768B76F023CB760B775F
:1096E4004B778B77CA77802281F8202081F821304C
:1096F400E023602081F82230814B81F8232083F815
:10970400002383F8012383F8022383F8032383F8D7
:10971400042383F8052383F8062383F8072383F8B7
:10972400082383F8092383F80A2383F80B2383F897
:109734000C2383F80D2383F80E2383F80F2383F877
:10974400102383F8112383F8122383F8132383F857
:10975400142383F8152383F8162383F8172383F837
:10976400182383F8192383F81A2383F81B2383F817
:109774001C2383F81D2383F81E2383F81F2383F8F7
:10978400202383F82103202083F8222383F8232332
:1097940083F8242383F8252383F8262383F82723B7
:1097A40083F8282383F8292383F82A2383F82B03B7
:1097B40083F82C0383F82D2383F82E2383F82F2397
:1097C40083F8302383F8312383F8322383F8332357
:1097D40083F8342383F8352383F8362383F8372337
:1097E40083F8382383F8392383F83A2383F83B2317
:1097F40083F83C23CB6823F4E0631B041B0C43F085
:10980400BF6343F40133CB604B6943F010034B61F6
:109814004FF4E0234B6204F087FAFFF72FFBEFF3DA
:1098240008834FF0CD31374A043B934260D2364A25
:10983400002192B2354834F0CEFC62B6684603F09B
:1098440091FD334A936DDB0313D4536B23F4FF036D
:1098540023F4FE4343F4BC1343F4A0635363136B38
:1098640023F4704343F440431363136B43F4E06302
:1098740013639DF80130012B0FD19DF8003063B9BB
:109884004FF000531B68234B1B68234B1B68234B6F
:109894001B68234B1B68234B1B68234AD2F8803078
:1098A40043F00303C2F8803004F02EFE02224FF08E
:1098B40040231A6704F0BEF901F0D8FB002300939B
:1098C4008DF80430012368468DF8033003F008F95D
:1098D40000F0F0F81AF05EFC04F018FE00F0FAF85C
:1098E40012F074FD114804F0E5FF03B05DF804FBC9
:1098F40043F8041999E700BF0040000000ED00E0C0
:1099040000E100E0E010002014100000A00000209E
:1099140000C00040004000200080002000C0002063
:1099240000000120004001200080004024210400A8
:1099340040F201601AF0DCBBFEF704BB08B500215D
:109944000B20FEF7FDFABDE80840FEF7FCBA08B1AB
:10995400FDF7A9BAFDF7A6BA032000F0B1BA0000DA
:1099640008B5FFF7DFFA044B0B2896BF00B2184680
:1099740003EB800008BD00BF021E040008B5FFF71A
:10998400D7FA044BC0F30F2253F82230C0B203EBD2
:10999400800008BDCC1D040010B5FFF7C3FA0446CF
:1099A400FFF7C6FA10F0FF0005D1012C23D164F0B3
:1099B4007F04E4B215E0072CF9D801A353F824F08E
:1099C400E7990000B3990000E5990000EB990000C5
:1099D400EB990000EF990000F3990000F79900005B
:1099E4000924204610BD0224FBE70324F9E70B24D5
:1099F400F7E70624F5E70446F3E700BF38B50D465C
:109A0400044688BB284B4A1E186050425041013D11
:109A140009F08AFF032D46D8DFE805F002131E2063
:109A240001210846FDF740FAFFF734FE1F4B18707A
:109A340010B1A520FFF724FEBDE83840012009F04D
:109A440073BF02210120FDF72FFAFFF723FE50B365
:109A5400BDE83840FFF726BE0421F3E705210120C5
:109A6400BDE83840FDF720BA104B1B781BB101212B
:109A74000F4803F0AEFE631E58425841013C09F002
:109A840075FF032C0FD8DFE804F002080A0C01204C
:109A940009F06CFF01210020E2E70221FBE7042129
:109AA400F9E70521F7E738BD1C420020C651002024
:109AB4000080014A054AD2F8203402F500521B0CFA
:109AC4001B04C2F82034024A1360704700C00340EC
:109AD4004438002008B504F017FA18B1922104485C
:109AE400FFF7C0F8BDE808400249034804F0C0BAD3
:109AF400321E04004C2000202C3B0020134A144941
:109B0400D2F82434D2F820241340124A9BB21360B2
:109B1400D1F80001400102D50868400106D4D1F80B
:109B24000001800105D50968880102D543F480331A
:109B34001360074BD3F80011490506D51B685B0574
:109B440042BF136843F400331360704700C00340FE
:109B540000E100E01C420020012838B504460BD087
:109B6400831E012B07D9042824D0052801D102F033
:109B74009BFF002400E0022402F006FF05460121B9
:109B8400204604F0F1F9284602F002FF02F0F8FE44
:109B940002F005FF04F092FA02F0F4FE02F0F4FE83
:109BA40005460021204604F0DFF92846BDE8384088
:109BB40002F0EEBE0324DFE7FFF7CEBF2DE9F04F3E
:109BC40089B011F0C1FE0546002840F0EA80764EC7
:109BD400DFF8EC813168D8F8000019F03FFC044646
:109BE400002828D033682C46D3E900019A6912680A
:109BF4009047336804A89B699B68984733680220A0
:109C04009B69DB689847326805985368E7B2B3FBF1
:109C1400F0F3BB42916904F1010454D8CB680020ED
:109C2400984733689B695B6898473168D8F80000A7
