:10000000001000209D2200009B2200009B22000087
:10001000E55F00009B2200009B2200009B22000065
:100020009B2200009B2200009B220000A1FB0000FD
:100030009B220000B0EF020011FC0000E1D700009D
:1000400031D80200F19501009B2200009B220000A4
:10005000198E010049960100FD95010015960100D9
:10006000F59501009B220000312800009B22000032
:1000700031220000212200009B2200009B22000070
:100080009B2200009B2200005128000061200000FC
:10009000DD190000A11600009B2200009B22000039
:1000A0009B2200009B2200009B22000031D1000017
:1000B0004D960100F9950100457F0100F16E0000A9
:1000C000899601009B220000097F01009B2200000D
:1000D0009B2200009B2200009B2200009B2200002C
:1000E0009B2200009B2200009B2200009B2200001C
:1000F0009B2200009B2200009B22000010B5054CB3
:10010000237833B9044B13B10448AFF300800123C3
:10011000237010BD401500200000000024410300A2
:1001200008B5034B1BB103490348AFF3008008BD7A
:10013000000000004415002024410300A3F5803A8C
:10014000704700BF174B002B08BF134B9D46FFF7AE
:10015000F5FF00218B460F461348144A121A00F08F
:1001600063F80E4B002B00D098470D4B002B00D0AE
:1001700098470020002104000D000D48002802D0FF
:100180000C48AFF3008000F02BF82000290001F0AC
:100190007DFA00F011F800BF000008000000000028
:1001A000000000000010002040150020FCB90020D5
:1001B000000000000000000008B5074B044613B122
:1001C0000021AFF30080054B1868836A03B198479C
:1001D00020462EF08BFA00BF0000000028E7020046
:1001E00070B50D4D0D4C641BA4100026A64209D11C
:1001F0000B4D0C4C2EF088FA641BA4100026A6426E
:1002000005D170BD55F8043B98470136EEE755F827
:10021000043B98470136F2E73815002038150020D6
:10022000381500203C15002002440346934200D1BB
:10023000704703F8011BF9E708B5034B18707220EB
:1002400007F0BAFF08BD00BFA810002010B5A2B08B
:10025000654B1B68DC6815E09DF80C301BB96348E2
:1002600025F0F4FF0EE09DF80D10614825F0CAFF5F
:10027000029B3BB104A99DF80D00984702E05D4840
:1002800025F0E4FF002201A920460EF098F801288D
:1002900040F0A8809DF80430C03B282B00F29C80E1
:1002A00001A252F823F000BF590200007F020000B3
:1002B000D90300004D0300009D030000AB030000C4
:1002C000B7030000D9030000D9030000D9030000E0
:1002D000D9030000D9030000D9030000D9030000AE
:1002E000D9030000D9030000D9030000D90300009E
:1002F000D9030000D9030000D9030000D90300008E
:10030000D9030000D9030000D9030000D90300007D
:10031000D9030000D903000085020000C3030000D8
:10032000D9030000D9030000D9030000D90300005D
:10033000D9030000D9030000D9030000D90300004D
:10034000D9030000D9030000850200009DF80810C1
:10035000294825F057FF9DF808304BB1052B15D0E3
:10036000072B17D0082B8DD1302007F025FF89E708
:1003700008F09AF928B9322007F01EFF07F0D0FEE6
:1003800080E708F065F907F0EFFDF4E7742007F067
:1003900013FF77E7322007F00FFF73E7174825F0C8
:1003A00055FF732007F008FF6CE79DF8081014480C
:1003B00025F028FF66E79DF80810124825F022FF77
:1003C00060E79DF80C30012B04D00F490F4825F051
:1003D00019FF57E70E49F9E74FF427710D4825F04B
:1003E000E7FE4FE722B010BD801500203CE7020079
:1003F0005CE7020078E7020094E70200A8E7020049
:10040000BCE70200E8E702002CE7020010E8020067
:1004100034E7020040E8020010B5B8B0104B1B688A
:100420005C6804E008F026F9694606F0FEFE00224A
:10043000694620460DF0C3FF01280ED19DF800301B
:10044000802BEFD003D37E33DBB2022BEFD940F207
:100450001D21044825F0ACFEE9E738B010BD00BF0F
:100460008015002040E8020010B582B00023009300
:100470000B4B0C4A012105200DF017FE01460A4BDB
:1004800018600A4C03230A4A1268204625F01DFC16
:10049000204607F08BFE07F0B7FE02B010BD00BF8C
:1004A0009415002068150020901500208415002068
:1004B0007015002008B501230CF092FD08BD000066
:1004C000F0B587B004460021084606F047FD0CF061
:1004D00057FE2AF0ABFE2C4A60212C4825F084FE02
:1004E0002B4B00221A702B4825F0B0FE2A4825F02D
:1004F000ADFE2AF05FFE05462AF062FE06462AF0AF
:1005000065FE074619F084FE039002970196009558
:10051000012312220721214825F074FE20480BF008
:10052000BFFC204806F030FF0DF1170025F02EFF2C
:100530009DF8170008F0F6F8D8B19DF817201A4B6F
:100540001A72194B197A194825F05CFE2146184891
:1005500025F058FE08221749174807F041F8174BB5
:1005600002220121164820F029FA30B1002007B0FC
:10057000F0BD144825F014FFE3E740F21D311248A6
:1005800025F016FEF2E700BF2FB20200E4150020AE
:10059000A810002058E802007CE80200A4E802004D
:1005A000B50400004816002064100020C4E80200D2
:1005B000D4E80200B0100020AC10002034EC02009F
:1005C0009D0C00006C10002040E80200C378012B55
:1005D00000D0704700B58BB044238DF804300C4830
:1005E00025F034FE00202AF075FE0A4B1B684FF4FC
:1005F000FA7201A9986825F06CFB10B90BB05DF890
:1006000004FB40F2FA41044825F0D2FDF6E700BFB2
:10061000F8E802008015002040E80200014B18783D
:10062000704700BF4416002008B5FFF7F7FF08BD6C
:100630000020704708B51146024825F0E3FD01206F
:1006400008BD00BF1CE902000020704708B5FFF795
:10065000E5FF08BD08B5FFF7E7FF08BD08B5FFF7E0
:10066000E7FF08BD10B504460B4B1B6843B10123DF
:1006700022460021084800682BF0ACF830B910BDC4
:1006800040F23961054825F093FDF0E740F23C6106
:10069000024825F08DFDF2E74816002040E80200F0
:1006A00010B582B0124C2168012009F03DF91148C3
:1006B00025F0CCFD0223104A1370104A137007F086
:1006C00061FF2AF071FD019004230DEB03024FF44A
:1006D000A22120682BF07EF820B90848FFF7C2FF5E
:1006E00002B010BD40F29C51054825F061FDF4E7D1
:1006F000481600203CE902009018002078170020DE
:1007000040E8020008B50D4825F0A0FD0C4B1B6821
:100710003BB10B4B18682BF0B1F840B9FFF7C0FFA5
:1007200008BD40F2CB51074825F042FDF1E740F209
:10073000CE51044825F03CFDF0E700BF5CE9020023
:100740004816002040E8020010B582B0164B1B6826
:10075000C3B1012301AA0021134800682AF0E2FF77
:100760000146A8B1114825F04DFDFFF799FF01237F
:1007700001AA00210C4800682AF0D4FF9DF804006B
:1007800002B010BD40F21D61094825F011FDE0E7FF
:100790009DF80430074C2370074825F033FD21787D
:1007A000064825F02FFDE9E7481600208CE90200F5
:1007B00040E8020090180020ACE90200D8E90200ED
:1007C00000B583B004230DEB03024FF4A2210F48C0
:1007D00000682AF0A7FF88B92AF0E6FC0C4825F04B
:1007E00035FDFFF7B1FF0B4B1870084B196800205F
:1007F00009F09AF8012003B05DF804FB064825F0E3
:1008000025FDFFF77FFF0020F5E700BF4816002019
:10081000ECE902007817002010EA020008B5FFF7A3
:10082000CFFF08F015FA0021044807F0D1FB04209F
:1008300006F084FD702007F0BFFC08BDA011002069
:1008400008B10020704740F20240704700B583B005
:100850006B4683E8030093E8030009F071FB03B0E3
:100860005DF804FB7047000010B40246044C2346B8
:1008700000685168926807C320465DF8044B7047D2
:100880005C15002010B5044646280BD0302809D04E
:10089000B74B1B78032B5FD8DFE813F00A001D006D
:1008A0001E01A6010320FFF7C7FC0AF0F5F9EFE7E8
:1008B000732C0AD0712C0BD00122002108460AF0BB
:1008C0005BFD0120FFF7B8FC46E0FFF71BFFF1E7F7
:1008D000FFF7A4FF40E0732C3FD0452C01D0312C12
:1008E0000DD1A44B1B689B691B78DBB3A24825F094
:1008F000ADFC032006F022FD0220FFF79DFC472CF3
:1009000037D0482C43D04B2C47D04C2C53D0502CB4
:1009100057D0512C63D0552C67D0562C73D05A2CFD
:1009200077D05B2C00F083805F2C00F08680602CF9
:1009300000F09180642C00F09480652C00F09F8082
:10094000692C00F0A2806A2C00F0AD80772C00F0BA
:10095000B080782C00F0B98010BDFFF7D3FEFFF710
:100960002FFFBAE7854825F071FC012006F0E6FC70
:10097000C2E7834825F06AFC012001F015F900F078
:100980006FFF804B01221A7001F03EFAB9E77E48F2
:1009900025F05CFC00F064FFB5E77C4825F056FCD0
:1009A00000F05EFF022001F0FFF8764B01221A7082
:1009B00001F02AFAA9E7764825F048FC00F050FF3C
:1009C000A5E7744825F042FC00F04AFF032001F03F
:1009D000EBF86C4B01221A7001F016FA99E76E4899
:1009E00025F034FC00F03CFF95E76C4825F02EFC28
:1009F00000F036FF042001F0D7F8624B01221A7094
:100A000001F002FA89E7664825F020FC00F028FF93
:100A100085E7644825F01AFC00F022FF052001F06C
:100A2000C3F8584B01221A7001F0EEF979E75E48DD
:100A300025F00CFC00F014FF76E75C4825F006FC7E
:100A400000F00EFF062001F0AFF84E4B01221A70A5
:100A500001F0DAF96BE7564825F0F8FB00F000FFEB
:100A600068E7544825F0F2FB00F0FAFE072001F099
:100A70009BF8444B01221A7001F0C6F95DE74E481D
:100A800025F0E4FB00F0ECFE5AE74C4825F0DEFBD5
:100A900000F0E6FE082001F087F83A4B01221A70B8
:100AA00001F0B2F94FE7464825F0D0FB00F0D8FE40
:100AB0004CE7444825F0CAFB4348FFF7D5FE014602
:100AC0000122424807F004FC43E7414825F0BEFB01
:100AD000002006F044FC3FE7722C1AD0732C1CD087
:100AE000792C1FD0332C1DD0322C30D0322C7FF4F7
:100AF00033AF042006F022FC0120FFF79DFB0CF031
:100B000011FB00286DD001223249334807F0E0FB89
:100B100022E702200CF0F0FAE0E7FFF7F3FDFFF721
:100B20004FFEDDE7002006F009FC042006F006FC7D
:100B30000120FFF781FB0CF0F5FA28B101222549CD
:100B4000254807F0C5FBCFE70BF09CF9F6E704203A
:100B500006F0F4FB0120FFF76FFB0CF0E3FA00282E
:100B60003CD001221B491C4807F0B2FBBEE700BF86
:100B7000A8100020801500203CEA020054EA020080
:100B80006CEA02007E18002080EA020094EA02006B
:100B9000A8EA0200BCEA0200D0EA0200E4EA02008D
:100BA000F8EA02000CEB020020EB020034EB02003A
:100BB00048EB02005CEB020070EB020084EB0200E9
:100BC00098EB0200ACEB02004C160020419F0000A5
:100BD000B8EB02007010002091BB00000BF052F93E
:100BE000BFE70BF04FF98EE7732C7FF4B5AEFFF73C
:100BF00089FD2AF0ADFAAFE600B583B003E09DF8B9
:100C00000700FFF73FFE00220DF10701044B1868B3
:100C10000DF0D5FB0128F2D003B05DF804FB00BF56
:100C20009015002008B5FFF71FFE08BD00230380C4
:100C300002230B80704700002DE9F04180460F46EB
:100C400014461E462AF096FA05461F280CD80123A2
:100C500088F800303B70257030462AF08DFA0B483A
:100C600025F0F4FA00240AE040F28F61084825F0EC
:100C70009FFAECE7315D074825F0C4FA0134AC4235
:100C8000F8D3054825F0E2FABDE8F081C0EB020098
:100C900040E80200D4EB02000CEA020038B504463A
:100CA0001D4825F0D3FA01202AF014FB0EF0B2FA09
:100CB0001A4D28601A4B1C6006F088F90023194A67
:100CC0002146286807F026FCFFF7CEFB712007F0CD
:100CD00073FA0CF028F80CF07DF900200CF00CFAF7
:100CE00000F048FB0022114610460BF0E5FC002303
:100CF0000D4A04210D4824F067FF0D4825F0A6FA9F
:100D000000F0AEFD00224FF0FF31084824F06BFFE9
:100D1000B0F1FF3FF6D138BDDCEB020070150020CA
:100D20008015002034EC020048EC0200741500200D
:100D3000F0EB0200FE20704708B50248FFF792FC76
:100D400008BD00BF7817002030B5AFB00C464B7817
:100D5000042B29D00546052B34D106F007FE08B137
:100D6000022030E0AA22002103A8FFF75DFA6946BD
:100D7000284606F0C7FD70238DF80C3006238DF849
:100D80000D30A0788DF80E0001238DF80F30FFF79D
:100D9000D1FF8DF810000023009A052103A806F06A
:100DA00055FD68B902200EE091F90330002B01DAFD
:100DB000FF2008E00979A078FFF7BEFFFF2002E0DE
:100DC000FF2000E000202FB030BD000000B589B04A
:100DD0008DF8070000238DF808304E23ADF80C3055
:100DE0000423ADF80E300DF1070304930123ADF891
:100DF000143002AA0692ADF81C3003A9064803F08D
:100E000011FE02E0044803F0ADFC0128FAD09DF881
:100E1000080009B05DF804FB00C0004000B583B0D5
:100E20008DF8071001230DF1070201464E2000F056
:100E3000F9FB03B05DF804FB08B50C4825F0E2F9B6
:100E4000FF210D20FFF7EAFFFF210120FFF7E6FF5A
:100E5000C0210C20FFF7E2FFFF210020FFF7DEFF9B
:100E60000023034A1370034A137008BD58EC0200B4
:100E7000581600205916002000B583B08DF80710D1
:100E800001230DF107020146402000F0CBFB03B027
:100E90005DF804FBF8B50446164601258D40EFB217
:100EA000122802D0132C0FD0F8BD42B10E4B197886
:100EB00039430D4B19701220FFF7DEFFF2E70A4BA2
:100EC000197821EA0501F4E746B1084B197839434E
:100ED000064B19701320FFF7CFFFE5E7034B197896
:100EE00021EA0501F4E700BF5A1600205B16002036
:100EF00038B5384825F086F9FF210C20FFF7BCFFF4
:100F0000FF210D20FFF7B8FF00210846FFF7B4FFCF
:100F100000210120FFF7B0FF00242F4B1C702F4D44
:100F20002C7021461220FFF7A7FF29781320FFF726
:100F3000A3FF224621461320FFF7ACFF22460221E1
:100F40001320FFF7A7FF224604211320FFF7A2FF7B
:100F5000224606211320FFF79DFF2246072112207B
:100F6000FFF798FF224605211220FFF793FF224644
:100F700003211220FFF78EFF224601211220FFF7E6
:100F800089FF012211461320FFF784FF012203216C
:100F90001320FFF77FFF012205211320FFF77AFFBF
:100FA000012207211320FFF775FF012206211220DD
:100FB000FFF770FF012204211220FFF76BFF0122CF
:100FC00002211220FFF766FF012221461220FFF7BF
:100FD00061FF38BD74EC02005A1600205B16002039
:100FE00038B504460D46012811D0022C29D0032C17
:100FF00041D0042C59D0052C71D0062C00F08980EA
:10100000072C00F0A180082C00F0B98038BD012920
:101010000CD00029E9D1012200211320FFF73AFF6B
:10102000002201211320FFF735FFDEE700221146E1
:101030001320FFF72FFF012211461320FFF72AFF8D
:10104000D3E7012D0CD0002DD1D101220221132094
:10105000FFF720FF002203211320FFF71BFFC6E745
:10106000002202211320FFF715FF01220321132084
:10107000FFF710FFBBE7012D0CD0002DB9D10122E5
:1010800004211320FFF706FF002205211320FFF79C
:1010900001FFAEE7002204211320FFF7FBFE01222F
:1010A00005211320FFF7F6FEA3E7012D0CD0002D3C
:1010B000A1D1012206211320FFF7ECFE0022072117
:1010C0001320FFF7E7FE96E7002206211320FFF723
:1010D000E1FE012207211320FFF7DCFE8BE7012D43
:1010E0000CD0002D89D1012207211220FFF7D2FE5A
:1010F000002206211220FFF7CDFE7EE70022072105
:101100001220FFF7C7FE012206211220FFF7C2FEC0
:1011100073E7012D0DD0002D7FF472AF0122052160
:101120001220FFF7B7FE002204211220FFF7B2FEC3
:1011300066E7002205211220FFF7ACFE0122042100
:101140001220FFF7A7FE5BE7012D0DD0002D7FF4E5
:101150005AAF012203211220FFF79CFE0022022138
:101160001220FFF797FE4EE7002203211220FFF71F
:1011700091FE012202211220FFF78CFE43E7012D90
:101180000DD0002D7FF442AF012211461220FFF74F
:1011900081FE002211461220FFF77CFE36E7002276
:1011A00001211220FFF776FE012200211220FFF715
:1011B00071FE2BE77047000008B5504BD3F88C3315
:1011C0004F4A12689A420DD04C4BD3F88C134C4ABC
:1011D0001160D3F88C33002B68D0484BD3F88C3394
:1011E000012B67D0454BD3F8A03F464A12689A427C
:1011F0000DD0424BD3F8A01F424A1160D3F8A03F54
:10120000002B5BD03D4BD3F8A03F012B5AD03B4B7A
:10121000D3F8A43F3C4A12689A420DD0374BD3F81A
:10122000A41F394A1160D3F8A43F002B4ED0334B92
:10123000D3F8A43F012B4DD0304BD3F8A83F334A0D
:1012400012689A420DD02D4BD3F8A81F2F4A116077
:10125000D3F8A83F002B41D0284BD3F8A83F012B4F
:1012600040D02B4BD3F890312A4A12689A420AD0C8
:10127000274BD3F89011274A1160D3F89031ABBBBC
:101280005A2006F0ADFF224BD3F89431224A12685F
:101290009A420AD01E4BD3F894111F4A1160D3F81A
:1012A00094313BBB5F2006F09BFF08BD472006F052
:1012B00097FF97E7482006F093FF93E74B2006F04F
:1012C0008FFFA4E74C2006F08BFFA0E7502006F02C
:1012D00087FFB1E7512006F083FFADE7552006F008
:1012E0007FFFBEE7562006F07BFFBAE75B2006F0E3
:1012F00077FFC8E7602006F073FFD6E700001442CE
:10130000E0160020E4160020E8160020EC1600206D
:1013100000201442F0160020F416002008B50548FD
:1013200024F070FF044BD3F8AC3503B108BD00F0D6
:1013300097FAFBE78CEC02000010144208B5642118
:10134000014824F0F3FC08BDF816002010B5122067
:10135000FFF73CFDC0F3801410F0800F01D024B1E2
:1013600010BD642006F03CFFF9E7692006F038FF65
:10137000F6E7000070B582B0724824F067FF0121E3
:10138000714801F0B5FB012303221146002003F050
:10139000FFF8012303220821022003F0F9F80123BA
:1013A00003220921022003F0F3F8012303220A217A
:1013B000022003F0EDF8012303220421052003F0AD
:1013C000E7F8012303220521084603F0E1F8002392
:1013D00004220621052003F0DBF801245B4B1C618D
:1013E0005B4AD2F81C341B0C1B045A490B60C2F830
:1013F0002434594A0021594805F0C0FD584A0021BB
:10140000584805F0BBFD584A0021584805F0B6FD84
:10141000574E584A2146304605F0B0FD564A002145
:10142000564805F0ABFD01F0DBF9554BA02283F8DF
:10143000122383F80A23534BD3F88C13524A1160BA
:10144000D3F8A01F514A1160D3F8A41F504A11606D
:10145000D3F8A82F4F4B1A604F4BD3F890114F4A37
:101460001160D3F894214E4B1A60019400942346E6
:1014700003221146002003F00DF84A4D29460320AF
:1014800001F0C6F901940094234608221146022077
:1014900003F000F82946082001F0BAF901940094FD
:1014A000234609221146022002F0F4FF29460920B2
:1014B00001F0AEF90194009423460A22114602205D
:1014C00002F0E8FF29460A2001F0A2F901940094F5
:1014D000234604221146052002F0DCFF29460420A1
:1014E00001F096F901940094234605221146104616
:1014F00002F0D0FF2946052001F08AF900F058F9E2
:1015000000F01CFA00F052F8FFF7F2FC234602222A
:101510000B21032003F03CF8FFF78EFC01940094AC
:1015200023460B221146032002F0B4FF1E490B2074
:1015300001F06EF95021304624F0F8FB002002B093
:1015400070BD00BFA8EC020000350A0000300E405C
:1015500000A000405C160020091E00003817002083
:10156000B9110000F8160020211A0000941800207C
:10157000A01600204D130000911B000060160020F3
:1015800000E100E000001442E0160020E416002014
:10159000E8160020EC16002000201442F01600206F
:1015A000F41600203D1300001D13000010B584B098
:1015B000174824F027FE0121164801F099FA164B2E
:1015C0006C460FCB84E80F0001230B22062102207A
:1015D00002F0DEFF01230B220721022002F0D8FFD8
:1015E0000E4803234364836C23F01F0343F00C0372
:1015F0008364836C23F4F85343F4206383642146AB
:1016000003F092F8064824F0FDFD002004B010BD60
:10161000C0EC020000620400ECEC020000C00040DC
:10162000D8EC02002DE9F04387B0064688461746FD
:101630001D4603F10109012148462CF0E7FA044652
:1016400000F8018B2A4639462CF06AFBADF804609D
:101650000123ADF806300294ADF80C90CDF810D00F
:101660000023ADF8143001A9074803F0DBF902E0CC
:10167000054803F077F80128FAD020462CF0E8FA64
:10168000002007B0BDE8F08300C0004008B505F0B9
:1016900055FCFFF78FFD05F05DFC002008BD000044
:1016A000034B1A6C9A64034B0822C3F8FC20704762
:1016B0000004014000A0004400B586464FF0000C35
:1016C0004FF6FF7010E040080133DBB2072B07D85C
:1016D00010F0010FF7D04AF2010282EA5000F3E75E
:1016E0000CF1010C5FFA8CFC8C4504D21EF80C3016
:1016F00058400023EAE75DF804FB000038B50546D2
:101700000A4B0822C3F8FC20002408E0295D0848A1
:1017100024F078FD295D074803F03BFD0134072CD8
:10172000F4DD054824F06EFD38BD00BF00A0004682
:10173000FCEC02000004014004ED020030B589B069
:101740000121174801F0D4F9164D4FF6FF73EB61F4
:10175000002405940694079402238DF81A3005AAF4
:101760002146284603F028FC0194029403948DF846
:10177000104001238DF804308DF8063001A9284669
:1017800003F0D0FBAB6943F01003AB61064B4FF4A1
:1017900000221A60054824F059FD09B030BD00BF91
:1017A000001204000084014000E100E010ED02009E
:1017B00010B588B0244824F049FD0121234801F0E8
:1017C00097F90DF1040C224C0FCCACE80F0094E813
:1017D00007008CE807004FF41653039300230122FF
:1017E0000D21032002F0D4FE012304220C2103204A
:1017F00002F0CEFE002304220321052002F0C8FEE1
:10180000144B0822C3F8FC20134C01A9204603F016
:1018100079FC41F21443A367636F43F003036367EA
:10182000E36C43F00403E364E36C43F00103E3641B
:101830000A4B4FF480121A604FF400121A60FFF73F
:101840007DFF08B010BD00BF1CED02000042040087
:1018500054EF020000A000440004014000E100E059
:1018600008B50A21054824F061FA054B1A78054BA2
:101870001A70054B00221A6008BD00BFDC1800205A
:10188000C5110020B91100201C1900204BF66E6311
:1018900003FB00F0044BA3FB00304009034B18602E
:1018A000034B5867704700BF1F85EB51201900207C
:1018B0000080014008B51B4B1B781B4A10788342FF
:1018C00011D8834218D3194A136801331360184A98
:1018D0001278642101FB02F29A4216D0154B1B7854
:1018E000984217D008BD421C0F4B1A70FFF7CEFF6D
:1018F0000E4B00221A60F5E7421E0B4B1A70FFF7E1
:10190000C5FF0A4B00221A60ECE70A4B1A78054B18
:101910001A70E3E7084824F05EFA034B1878FFF7E3
:10192000B5FFDFE7B9110020B81100201C19002015
:10193000C4110020D5180020DC18002070B588B034
:10194000204824F05FFC204D0021284601F0D0F80B
:101950001E4C02266660002304220621052002F0A8
:1019600017FE0121284601F0C3F8002505950695CC
:10197000079503238DF81A3005AA0121204603F0AC
:101980001BFB4BF66E63124A13606367E361636B84
:1019900023F4F85343F4E8536363266301950295F7
:1019A00003958DF8105001258DF8045001A92046AB
:1019B00003F0B8FA6560074A2946074805F0DEFAE1
:1019C00008B070BD2CED0200000204000080014050
:1019D00020190020B5180000DC18002008B50B48BD
:1019E000036C83640A4B01225A625A6003F0CAFBFB
:1019F000084B1B88FF2B05D8591C064A1180064A44
:101A0000D05408BD054824F0FDFBFAE7000401406E
:101A1000008401407C1800207C17002050ED02005B
:101A200008B5FFF71DFF584B1B78002B57D000223D
:101A300011461320FFF72EFA002202211320FFF790
:101A400029FA002204211320FFF724FA002206219C
:101A50001320FFF71FFA002207211220FFF71AFABE
:101A6000002205211220FFF715FA0022032112207F
:101A7000FFF710FA002201211220FFF70BFA0122D2
:101A800011461320FFF706FA012203211320FFF766
:101A900001FA012205211320FFF7FCF90122072199
:101AA0001320FFF7F7F9012206211220FFF7F2F9C0
:101AB000012204211220FFF7EDF901220221122058
:101AC000FFF7E8F9012200211220FFF7E3F92E4B7E
:101AD00000221A7064212D4824F028F908BD002244
:101AE00011461320FFF7D6F9002202211320FFF739
:101AF000D1F9002204211320FFF7CCF9002206219E
:101B00001320FFF7C7F9002207211220FFF7C2F9BF
:101B1000002205211220FFF7BDF900220321122027
:101B2000FFF7B8F9002201211220FFF7B3F90022D4
:101B300001211320FFF7AEF9002203211320FFF744
:101B4000A9F9002205211320FFF7A4F9002207219B
:101B50001320FFF79FF9002206211220FFF79AF9C0
:101B6000002204211220FFF795F900220221122001
:101B7000FFF790F9002211461220FFF78BF9024B74
:101B800001221A70A6E700BFD41800209418002084
:101B900008B5034824F036FB0248FFF7AFFD08BD47
:101BA00064ED02008818002010B50446FFF758FEC7
:101BB0003E4B3F4A12781A7003225A7000229A70E4
:101BC0000221D9701A71012C19D0022C26D0032CB5
:101BD00030D0042C3AD0052C44D0062C4ED0072C03
:101BE00058D0082C16D1314C802363710621204631
:101BF000FFF762FDC0F30723A071E3710AE01C4602
:101C00000123637106212046FFF756FDC0F3072329
:101C1000A071E3712548FFF771FD10BD234C02232D
:101C2000637106212046FFF747FDC0F30723A0712B
:101C3000E371EFE71D4C0423637106212046FFF793
:101C40003BFDC0F30723A071E371E3E7174C0823C2
:101C5000637106212046FFF72FFDC0F30723A07113
:101C6000E371D7E7114C1023637106212046FFF77B
:101C700023FDC0F30723A071E371CBE70B4C2023B6
:101C8000637106212046FFF717FDC0F30723A071FB
:101C9000E371BFE7054C4023637106212046FFF73F
:101CA0000BFDC0F30723A071E371B3E78018002098
:101CB000901800202DE9F04F89B0014600F001098D
:101CC00000F0020800F00407C0F38003009300F066
:101CD0000806C0F3C00200F01005C0F3001001F0C8
:101CE0002004C1F3401C01F0400AC1F3801E01F042
:101CF000800BC1F3C0130593C1F300230693CDF805
:101D000010E0CDF80CC002900192C1F340034A46A6
:101D1000274824F077FA89F0010949460120FFF7A6
:101D20005FF9B8FA88F84FEA581841460220FFF7E1
:101D300057F9B7FA87F77F0939460320FFF750F9BB
:101D4000B6FA86F6760931460420FFF749F9B5FA66
:101D500085F56D0929460520FFF742F9B4FA84F4A8
:101D6000640921460620FFF73BF9BAFA8AFA4FEADE
:101D70005A1A51460720FFF733F9BBFA8BFB4FEA9B
:101D80005B1B59460820FFF72BF9FFF769FD094B4C
:101D900083F8009083F801809F70DE701D715C7184
:101DA00083F806A083F807B009B0BDE8F08F00BF44
:101DB0007CED0200BC11002008B50A4B01221A700C
:101DC0004378062B05D18378102B02D1C378082BDA
:101DD00000D008BD0279407940EA0220FFF76AFF8F
:101DE000F7E700BF9318002010B5002406E0601C40
:101DF000044B195DC0B2FFF7F3F80134072CF6DD90
:101E000010BD00BFBC11002010B582B0274B1B785D
:101E100013B1274B1B788BB9264824F017FA002101
:101E2000234B1970214B1970234B1A882348FEF756
:101E3000FBF9234823F0CFFF02B010BD214824F066
:101E400005FA214B1B78214A137021480370FEF7D5
:101E500009FC204B93E8030002AB03E903000024D4
:101E600006E06846FFF74AFC1B4824F0EFF901340E
:101E7000042CF6DD194823F0AEFF194824F0E6F9EA
:101E8000114B1978174824F0BDF9174824F0DEF9F2
:101E9000164B01221A705A709A70DA701A715A71C0
:101EA0009A71DA71FFF7A0FFB9E700BF7E18002032
:101EB0009118002034EE02007C1800207C170020CE
:101EC00094180020B4ED0200D818002090180020CB
:101ED0007817002060EE0200D4ED020038170020D1
:101EE000ECED0200D8E9020010EE0200BC11002067
:101EF00010B54C4B1B784C4A1278934204D0FF2B00
:101F000018D0FF2B55D010BD464A5278062AF6D17C
:101F1000444A9278102AF2D1424AD278082AEED165
:101F2000424824F093F93F48FFF746FF404B002218
:101F30001A70E8E73B4A5278062AE2D1394A927889
:101F4000102ADED1374AD278502ADAD1354AD279EE
:101F5000752AD6D0334B5B7923B3364824F076F913
:101F6000304C06212046FFF7A7FBC3B2C0F3072081
:101F7000A2799A4202D1E379834203D02E4824F019
:101F800065F912E062792D4B1A702D4B01221A70FF
:101F900032212C4823F0CAFE4EF660212A4823F055
:101FA000C5FE02E0294824F051F9214B00221A70A5
:101FB000A9E71C4B5B78062BA5D11A4B9B79992B73
:101FC000A1D1184B1B79FF2B9DD1164BDB79752BBB
:101FD00099D11F4824F03AF9124C06212046FFF708
:101FE0006BFBC3B2C0F30720A2799A4202D1E37916
:101FF000834203D0174824F029F984E7124823F0DC
:10200000EAFE104823F0E7FE134B1A880021204611
:10201000FEF70AF900230A4A1370104A1370FFF7FB
:10202000E3FE70E77C170020901800206CEE0200A1
:102030009218002084EE0200A8EE0200D8180020BA
:10204000911800209418002038170020D0EE0200CC
:10205000F4EE020024EF02007C1800207E1800201D
:1020600008B5054BDA685A6102225A60FFF740FF53
:10207000024B00221A8008BD008401407C18002019
:1020800008B500F0EAF808BD08B50421112001F0F8
:102090004DFA0121084800F02BFD0321074801F00B
:1020A00045FA0321064801F041FA0321054801F0F1
:1020B0003DFA002008BD00BF30253E0002001E0092
:1020C000030020000500240000B583B0214B01224D
:1020D0005A641A6842F480721A6001A802F004FF80
:1020E0009DF80530012B2FD91B4B4FF41872C3F804
:1020F0008C221A4AC3F89022194AC3F8F022194ACE
:10210000C3F8F822184AD2F8A43143F4F843C2F8CD
:10211000A43103F0C7F900F0B3F803F05FF903F05E
:1021200087F9FFF7B1FF03F06BF900F09FF800F0BB
:102130008FF900F09DFB0BF05FFB28F049FF04F0E6
:102140007BF803B05DF804FB9DF80430022BD9D96D
:10215000CAE700BF00000E4000400E409A6F050025
:10216000180100040084320800300E4008B50BF05E
:1021700073FB08BD08B500F0A7FA00F031FB00F0D2
:1021800087F808BD08B503F01FF928F02FFF08BD38
:10219000704708B500F040F808BD08B500F059F8E0
:1021A00004F0D2FB0BF0C2F803F008FEFFF7F1FFDA
:1021B00008BD000010B592B0144C0DF12C0CA646D1
:1021C000BEE80F00ACE80F009EE807008CE80700AF
:1021D0000DF1180C04F11C0EBEE80F00ACE80F0066
:1021E000DEF80030CCF800300DF1080C04F13003BB
:1021F0000FCB8CE80F00064B009306AB0BAA614691
:10220000044803F0C7FC12B010BD00BF70EF02001D
:1022100024190020841A002008B5FFF7CBFF08BD61
:1022200008B5024B186803F07BFD08BD841A002036
:1022300008B5024B186803F073FD08BD841A00202E
:1022400008B5012304220521002002F0A1F9002095
:1022500008BD08B5FFF7F4FF08BD08B50023042248
:102260000521184602F094F9002008BD08B50121A7
:10227000024800F03DFCFFF703FF08BD00350A00EF
:1022800008B50121014800F033FC08BD00350A0003
:1022900008B5082000F072FA08BDFEE708B500F0A6
:1022A00087F8124A0AE01068516850F8230041F894
:1022B0002300013391688B42F5D30C320C4B9A42C8
:1022C00001D20023F6E70B4A08E01168002041F82C
:1022D0002300013351688B42F7D30832064B9A42F0
:1022E00001D20023F6E7FDF72DFF00BF30440300C5
:1022F0003C4403003C4403003C4403000048704756
:10230000C0175302114BD3F8943003F00703023B7C
:10231000032B0DD8DFE803F0050F02080C4B1868FB
:102320000BE00C4B186808E00B4B1868400804E001
:10233000094B186801E04FF40040044BD3F800311A
:10234000C3F304230133B0FBF3F0704700400E40A9
:10235000D4110020CC110020D011002008B5FFF7C7
:10236000D1FF054BD3F80831C3F308230133B0FB89
:10237000F3F0024B186008BD00400E40C811002069
:10238000014B1868704700BFCC11002008B5064B00
:102390001860064BD3F8943003F00703022B00D0EB
:1023A00008BDFFF7DBFFFBE7CC11002000400E402B
:1023B000044B054A9A60D3F8882042F47002C3F8AF
:1023C0008820704700ED00E0000000004FF400405E
:1023D00070474FF47A707047014B1868704700BF20
:1023E000D4110020174B9A6A02F1704303F5F813D9
:1023F000B3F5006F11D2134BD3F82818A1F17E6307
:10240000A3F58433B3F5605F07D212680E4B9A428E
:1024100007D000230370836070470023037083603C
:1024200070470A68094B9A42F3D101230370054BA8
:10243000D3F8282892684260D3F828389B698360D3
:10244000704700BF0000E10FAD1007B007B0CD5ED0
:1024500008B50D4BD3F82828A2F17E63A3F5843389
:10246000B3F5605F0DD2094B1B781BB1022B01D075
:10247000002008E0D369984728B9044B01221A705C
:1024800001E04FF4817008BD0000E10FAC1A00209C
:102490004FF0005340F202221A804FF20F025A808E
:1024A0000A4A01239360136823F4E06343F48063D2
:1024B0001360BFF34F8F0649CA6802F4E062054B10
:1024C0001343CB60BFF34F8F00BFFDE700500E40BA
:1024D00000ED00E00400FA0508B50D4BD3F82828FC
:1024E000A2F17E63A3F58433B3F5605F0AD2126B69
:1024F000A2F17E63A3F58433B3F5605F05D29368E0
:10250000984701E04FF4817008BD4FF48170FBE7FC
:102510000000E10F08B50D4BD3F82828A2F17E6327
:10252000A3F58433B3F5605F0AD2126BA2F17E6328
:10253000A3F58433B3F5605F05D25369984701E092
:102540004FF4817008BD4FF48170FBE70000E10F8C
:1025500010B50A4BD3F82848A4F17E63A3F5843361
:10256000B3F5605F04D2236B2BB15B6A984701E03F
:102570004FF4017010BD4FF40170FBE70000E10F54
:1025800008B50D4BD3F82828A2F17E63A3F5843358
:10259000B3F5605F0AD2126BA2F17E63A3F58433B8
:1025A000B3F5605F05D2936A984701E04FF401707C
:1025B00008BD4FF40170FBE70000E10F30B5E1B05A
:1025C000124BD3F82838A3F17E63A3F58433B3F517
:1025D000605F15D20C464FF4C0726946FFF7B8FF32
:1025E000054678B921466846FFF7CAFF40F2012345
:1025F0009842F7D040F20323984203D0054601E009
:102600004FF40175284661B030BD00BF0000E10FF6
:1026100010B50D4BD3F82848A4F17E63A3F584339D
:10262000B3F5605F0AD2246BA4F17E63A3F5843313
:10263000B3F5605F05D2A36B984701E040F201104B
:1026400010BD40F20110FBE70000E10F08B50D4B93
:10265000D3F82828A2F17E63A3F58433B3F5605F35
:102660000AD2126BA2F17E63A3F58433B3F5605FE7
:1026700005D2D36B984701E040F2011008BD40F24B
:102680000110FBE70000E10F0023036070470368BF
:102690000B600160704710B514460CF0ADFD206072
:1026A000002010BD0346064A10680344054A9342C1
:1026B00002D8034A136070474FF0FF30704700BFE5
:1026C000D81100200000012008B50121224800F0A7
:1026D0000FFA012304220221052001F059FF0020F6
:1026E00001F0CCFE01211D4BC3F810180A4604204E
:1026F00000F08CFE1A4800F007FD1A4BD3F8F020CA
:1027000042F00102C3F8F020D3F8FC2042F08072BE
:10271000C3F8FC20A3F55D43134A1A6000F5D520E9
:1027200000F2FC40C008114BA3FB0030800A0138C6
:102730000F4B18610222C3F8F0204FF48072C3F8E7
:1027400004234FF060430B4AC3F8B02F0A4AC3F882
:10275000802E002008BD00BF00350A000080144212
:1027600006000E0000ED00E0FF0300401791650237
:10277000000004E055CEACC5090001004FF06041F7
:10278000D1F8003E012282401343C1F8003E0020F0
:102790007047000010B5044602E0202007E0904793
:1027A000DCB194FAA4F00028F7D0B0FA80F001234D
:1027B000834024EA0304094B03EB00135A68002A00
:1027C000EED0064B03EB00131B7B002BE7D0034B33
:1027D00003EB001399689047E2E710BDB01A0020A0
:1027E00008B5122000F0F4FF28B1084B4FF4802206
:1027F000C3F880211A600A2000F0EAFF28B1034BD9
:102800004FF48062C3F880211A6008BD00E100E047
:1028100038B505460C4600F0C8FF044B03EB051322
:102820005C6000221A7300F0C6FF38BDB01A0020A9
:1028300008B5064BD3F82804D3F81C24104000F048
:102840005530C3F82404FFF7A5FF08BD00A00040E1
:1028500008B5064BD3F82804D3F81C24104000F028
:10286000AA30C3F82404FFF795FF08BD00A000407C
:1028700008B5034B1968034B18680EF0D3FF08BD69
:10288000E0110020DC110020B0F1FF3F01D010B9B1
:102890007047024870470248704700BF21E000F0CF
:1028A00024E000F08908002301E0043001338B426A
:1028B00005D20268B2F1FF3FF7D000207047012037
:1028C00070477047F8B505460E469400224602F060
:1028D00071FAFFF7D9FF074628B922463146284644
:1028E0002BF00EFA08B93846F8BD014FFBE700BFE0
:1028F00010E000F008B50346084613F0030F02D1BC
:1029000011F0030F0AD0920019462BF009FA0020AB
:1029100008BD53F8041B40F8041B013A002AF8D103
:10292000F5E7000038B5044602F0E6F9FFF7ACFF22
:10293000054660B9084BD3F8E4301B0E0A3303F0A8
:102940001F03012199402046FFF7ACFF08B128463C
:1029500038BD024DFBE700BF0081E00F0EE000F044
:1029600010B582B0044601A802F0BEFA9DF8063008
:1029700023800122E270A270064BD3F8E4301B0ED4
:102980000A3303F01F0302FA03F36360002002B06E
:1029900010BD00BF0081E00F08B502F005F908BDC9
:1029A00008B502F0F1F8002008BD000008B500F0FD
:1029B000F5FE014B186008BD2020002008B5024B31
:1029C000186800F0EFFE08BD2020002008B50A4678
:1029D0004118013903F080FA08BD00000C4B984201
:1029E00005D90C4B984210D801210A4601E000217C
:1029F0000A46094B1A64094AD2F8003123F0807361
:102A000043EA0163C2F80031704702210122F0E776
:102A10000048E8010090D0030000C84300400E4089
:102A2000014B1868704700BF00120020114B5B6813
:102A3000002300E00133042B0CD80F4A02EBC30241
:102A400092F804C0CAB29445F4D10B4A52F833202C
:102A50008242EFD3052B0BD0074A02EBC30359790F
:102A6000044A536823F0407343EA0163536070479C
:102A70000321F5E700000E4024F0020003300F2888
:102A800028BF0F200007704708B5FFF73BFC044B39
:102A9000D3F80031C3F3042303FB000008BD00BFDB
:102AA00000400E4038B5084B1C6CA4B241F671359D
:102AB0001D64FFF723FC0021FFF7B8FFAC4202D0F2
:102AC000014B00221A6438BD00000E4038B5074B98
:102AD0001C6CA4B241F671351D64FFF7A7FFAC4230
:102AE00002D0024B00221A6438BD00BF00000E4025
:102AF00010B4C0F30323013B092B21D8DFE803F016
:102B00000508202030232620292D0024164A01E024
:102B10000024164AC0F3043054B1134BD3F84431A7
:102B200013F0010F04D1104BD3F840311C42FAD1FD
:102B300002F1424303F5801300EBC3008000016003
:102B40005DF8044B70470124094AE3E71024094A61
:102B5000E0E74FF48034084ADCE70024074AD9E76D
:102B60000024074AD6E700BF00400E40C0400E4098
:102B7000E0400E40E8400E40F0400E4050410E4014
:102B8000B0400E40C0F30313013B092B6BD8DFE8C4
:102B900003F0050B111B6A6A2127415F334BD3F801
:102BA0000001C0F304207047304BD3F81401C0F388
:102BB000042070472D4BD3F80001C0F30060431C84
:102BC0000120984001387047284BD3F80C01C0F31E
:102BD00008207047254BD3F80801C0F30820704740
:102BE000234B984204D0234B98420AD000207047D0
:102BF0001E4BD3F8203103F00F0301209840013819
:102C000070471A4BD3F82031C3F3011301209840C9
:102C100001387047184B984207D003F5B01303F5FD
:102C2000805398420AD000207047104BD3F82831C7
:102C3000C3F3011301209840013870470B4BD3F8C0
:102C40002801C0F30120031D01209840013870477E
:102C50000A4B984201D000207047044BD3F8300152
:102C600000F0030070470020704700BF00400E4096
:102C70008006160080162E0090171A00A009140076
:102C800008B5FFF77FFF013008BD000010B50C4606
:102C9000C0F30313013B092B2FD8DFE813F00A0020
:102CA0002F0039004A002E002E0056007600CF007B
:102CB0001501FFF7F7FE9148FFF790FE904BD3F810
:102CC000001121F4F85141EA0421C3F80011FFF783
:102CD00045FB8C4BDB6B13F0400F04D18A4BD3F8D0
:102CE000C830002BFAD1874B5968C1F30141FFF777
:102CF000EDFEFFF707FBFFF771FE10BD804BD3F829
:102D0000141121F4F85141EA0421C3F81411F4E735
:102D100069B1B1FA81F1C1F11F04794BD3F8001107
:102D200021F0807141EA0461C3F80011E5E7202138
:102D3000F1E7734BD3F80C1121F4FF3121F48071CA
:102D400041EA0421C3F80C11D7E7FFF7ABFE6C4B47
:102D5000D3F8081121F4FF3121F4807141EA0421F4
:102D6000C3F80811FFF7FAFA664BDB6B13F0400F5C
:102D700004D1654BD3F8C830002BFAD1614B5968A8
:102D8000C1F30141FFF7A2FEB7E7604B98421AD0AA
:102D90005F4B984234D05F4B9842AED1584BD3F83A
:102DA000443113F0010F05D1554BD3F8403113F4E2
:102DB000802FF9D1524BD3F8301121F00301214378
:102DC000C3F8301199E7013118D0B1FA81F3C3F19A
:102DD0001F024B4BD3F8443113F0010F05D1484B80
:102DE000D3F8403113F0040FF9D14549D1F820311F
:102DF00023F00F031343C1F820317EE72023E6E7D9
:102E0000013119D0B1FA81F3C3F11F023C4BD3F861
:102E1000443113F0010F05D1394BD3F8403113F091
:102E2000040FF9D13649D1F8203123F0300343EAB9
:102E30000213C1F8203160E72023E5E7364B9842C2
:102E400022D003F5B01303F5805398427FF455AFB9
:102E5000013137D0B1FA81F3C3F11B02284BD3F80B
:102E6000443113F0010F05D1254BD3F8403113F055
:102E7000400FF9D12249D1F8283123F4407343EAB5
:102E80000223C1F8283138E7013119D0B1FA81F3B2
:102E9000C3F11F021A4BD3F8443113F0010F05D1CF
:102EA000174BD3F8403113F0400FF9D11449D1F842
:102EB000283123F0300343EA0213C1F828311CE71C
:102EC0002023E5E72023C7E7124B98427FF415AF94
:102ED0000B4BD3F8443113F0010F05D1084BD3F855
:102EE000403113F4802FF9D1054BD3F8301121F084
:102EF00003012143C3F83011FFE600BF0148E80198
:102F000000400E4000300E400000C6438006160010
:102F100080162E00A009140090171A0000F00F0070
:102F20000138072865D8DFE800F0041B2A643E4D0D
:102F300064553B4BD3F8943003F00703023B052B59
:102F40000CD8DFE803F0055803070B09022070478F
:102F5000042070470B2070470C20704705207047F5
:102F60002F4BD3F8803003F00703022B45D0042BFE
:102F700045D0012B01D00120704703207047284B1A
:102F8000D3F8843003F00703013B032B09D8DFE8B3
:102F900003F002380604032070470A207047062019
:102FA0007047012070471E4BD3F8883003F00703A9
:102FB000022B28D0042B28D0012B01D001207047F0
:102FC00003207047164B1B6F13F001031FD003B390
:102FD00009207047124BD3F85C3103F03003202BEB
:102FE00019D0302B19D0102B01D0012070470720A9
:102FF00070470020704703207047022070470A2066
:10300000704702207047022070470A20704707204F
:10301000704701207047042070470820704700BFA8
:1030200000400E4010B50446FFF778FF1B4B9C4252
:1030300012D01B4B9C4215D01A4B9C4206D0013833
:10304000032828D8DFE800F014171D1A164BD3F810
:10305000800000F00700F2E7134BD3F8840000F083
:103060000700ECE7104BD3F8880000F00700E6E714
:10307000FFF7ACF910BDFFF7AFF9FBE7FFF7A9F9D0
:10308000F8E7FFF73FF9084BD3F80031C3F30063CB
:103090000133D840EEE70020ECE700BF030020003A
:1030A0000500240002001E0000400E4008B507483D
:1030B000FFF734FF072804D0092805D1FFF722F9CC
:1030C00003E0FFF7ADFC00E0002008BD06000E00A5
:1030D00008B10020704710B504460A48FFF71EFFEC
:1030E000072805D0082809D0042804D0204610BDA0
:1030F000FFF796FCFBE7FFF743F9F8E7FFF7C4FC9F
:10310000F5E700BFB800320038B500F47813B3F526
:10311000B01F00F0938005463BD8B3F5402F00F078
:10312000828010D9B3F5801F00F0AA80B3F5A01FEC
:1031300027D15748FFF776FF564BD3F8303103F0CD
:103140000303D8401CE0B3F5802F61D005D9B3F557
:10315000202F14D1FFF7D6F812E0002B55D0B3F58D
:10316000003F0AD1FFF7CEF84A4BD3F80831C3F33A
:1031700008230133B0FBF3F002E0002000E0002060
:1031800038BDB3F5602F02D1FFF790FFF8E70020BC
:10319000F6E7B3F5381F5BD00ED9B3F5481F72D0F0
:1031A000B3F5781F21D1FFF7ADF804462846FFF7A5
:1031B00067FDB4FBF0F0E3E7B3F5001F52D006D98A
:1031C000B3F5101F0FD13248FFF72CFFD8E7B3F546
:1031D000D01F4BD0B3F5F01F03D12F48FFF722FFCC
:1031E000CEE70020CCE70020CAE7B3F5401F0AD1A4
:1031F0002A48FFF717FF274BD3F82831C3F30123E1
:103200000433D840BCE70020BAE7FFF77BF8B7E704
:10321000FFF778F81F4BD3F80C31C3F308230133C1
:10322000B0FBF3F0ACE7FFF76DF81A4BD3F81431AD
:10323000C3F304230133B0FBF3F0A1E71648FFF713
:10324000F1FE144BD3F8203103F00F03D84097E779
:103250001148FFF7E7FE0F4BD3F82031C3F30113FA
:10326000D8408DE70D48FFF7DDFE89E70B48FFF7F3
:10327000D9FE084BD3F82831C3F30113D8407FE7B8
:10328000FFF7CEFB7CE70020FFF722FF78E700BFC7
:103290000500240000400E4002001E000300200034
:1032A000014B1868704700BFD01100200138032877
:1032B00018D8DFE800F00211070C0B4B186AC0F3B6
:1032C00008007047084B186900F07F007047064BF4
:1032D000986900F07F007047034BD3F89C00C0F35F
:1032E0000A0070470020704700400E4038B50C4679
:1032F0000138032812D8DFE800F0022E1220C1F3B3
:1033000008041F4BD3F86838002BFAD11D4A136A02
:1033100023F4FF7323F001032343136238BD01F04C
:103320007F04174BD3F86038002BFAD1154A136984
:1033300023F07F031C431461F0E701F07F04104B7E
:10334000D3F86438002BFAD10E4A936923F07F0337
:103350001C439461E2E70B4DD5F890306B6A23F083
:10336000300343F010036B62C1F3C310FFF786FB19
:103370002A6B054B1340234303432B63CEE700BF67
:103380000020C84300400E4000F8FF0F134B5B6A5B
:1033900013F0300F09D0202914D0302915D009B1ED
:1033A0000F4A04E04FF4400201E04FF440020B4B9F
:1033B000D3F8903032EA0303F9D112F4800F07D129
:1033C000012070474FF40002F1E74FF44002EEE7AE
:1033D000024BD3F8A000C0F38020704700400E409D
:1033E000FF33E13F022801D00120704710B529B119
:1033F000054B4FF48064C3F8A84059660AB9012010
:1034000010BDFFF7C3FFFBE700400E4070B5042876
:1034100000F28580DFE800F0484250033C000223C0
:1034200001250024AC46002967D002284AD000219B
:103430003B4B1D663B4B23449B001B68002BF9D084
:10344000002A6CD0374C6444A4002368002BF9D0C8
:10345000022864D1002962D0314B5B6A13F0010F5E
:1034600046D001222021FFF7BDFF0220FFF71EFFFB
:103470000646012200210220FFF7C8FF3146022044
:10348000FFF734FF264B1D662368002BFCD046E077
:103490002023102504244FF0050CC4E78023402589
:1034A00006244FF0070CBEE74FF400734FF480750D
:1034B00008244FF0090CB6E70823042502244FF036
:1034C000030CB0E7164B5B6A13F0300F0ED1164BAE
:1034D000DB6B134B5B6A13F0010FA9D0104E736ABC
:1034E00023F0300343F010037362A1E700219FE74C
:1034F00000210220FFF74AFFB7E709490B66084B96
:10350000D3F890100123A3401942F8D13AB1044BEB
:10351000D3F89020012303FA0CF31A42F7D170BDBF
:1035200000400E408004F21000300E4070B5054699
:103530000C4611280CD0002605F00F056B1E072B3A
:1035400000F28780DFE803F01E7A1C856F9985A55D
:10355000042903D005290BD00026EDE7FEF710FF64
:103560000646002EE8D00021304600F001FDE3E7DA
:10357000FFF796FE0646604B9842F2D80026DBE73E
:103580005E4D51E0023C0A2C63D8DFE804F00644AB
:10359000093F6262626262474A000020042504E03B
:1035A0005748FFF71BFA0220054601221146FFF794
:1035B0002DFFFFF777FA4EB1524BDB6B13F0400F44
:1035C00004D1514BD3F8C830002BFAD14F4B5D6773
:1035D000FEF7C4FE0446FEF795FEFFF7FFF9494BE0
:1035E000DB6B13F0400F04D1474BD3F8C830002BEE
:1035F000FAD1444B5968C1F301412046FFF766FAFE
:103600003EBB0121002000F0B3FC22E03C48FFF764
:10361000E5F90320C9E701200325C6E703200525B6
:10362000C3E70725C5E73A4D013C092C11D8DFE86F
:1036300004F007091110101810101022354DF3E78F
:10364000002305E0012211460020FFF7DFFE0223E0
:103650002B6070BD012211461046FFF7D7FE0123F3
:10366000F6E7FEF74FFEFFF7B9F92B4B0122C3F83F
:1036700008260323ECE70423EAE7072C05D0092CEE
:10368000E7D1224B01221A67E3E7204B00221A6799
:10369000DFE7013C072CDCD801A353F824F000BF7E
:1036A000C13600005336000053360000E5360000F6
:1036B0005336000053360000C5360000F3360000D4
:1036C000002105E0012211460420FFF79FFE0121A1
:1036D0000E4AD2F85C3123F0300343EA0113C2F8FA
:1036E0005C31B6E7012211460220FFF78FFE02216E
:1036F000EEE70321ECE700BF002D310184400E40CE
:103700000148E80100300E400000C64300400E4072
:1037100088400E4080400E400010C84370B50446FB
:103720001120FFF7FBFB012200210220FFF76EFEB4
:10373000237C022B2AD00022154E736A23F001034A
:10374000134373622278134BC3F8A024A288637AD0
:1037500043EAC223F362356B05F07F65E38845EAEF
:10376000C325A37A1D43207A45EAC015FFF786F9E1
:1037700005433563627BA37B1B0143EA0233E27B93
:103780001343227B43EA0243736370BD0122D3E7F4
:1037900000400E400000C84372B67047EFF310803F
:1037A00072B6704700B962B67047EFF311806023BC
:1037B00083F31188704780F311887047034B586872
:1037C000C0F30800003818BF0120704700ED00E08A
:1037D0004209064B53F8223000F01F0023FA00F094
:1037E00080F0010000F00100704700BF00E100E040
:1037F00030B40D684C688A68CB680560046002606C
:10380000036030BC704730B4056804680268036820
:103810000D604C608A60CB6030BC704738B50446A0
:103820000D46FFF7E5FF05F110012046FFF7E0FF29
:1038300038BD38B504460D46FFF7E5FF05F1100128
:103840002046FFF7E0FF38BD38B504460D46FFF7C8
:10385000CFFF05F110012046FFF7CAFF05F1200157
:103860002046FFF7C5FF05F130012046FFF7C0FFF6
:1038700038BD0000114BDB6B13F0400F1DD10F4B17
:10388000DB6B13F0400F04D10D4BD3F8C830002B85
:10389000FAD10A4B1A68C2F301225B68C3F30143F1
:1038A0009A4205D9054A136843F010031360704724
:1038B000024A136823F010031360704700300E4073
:1038C0000000C643074B1B6813F0100F05D0064BD2
:1038D0001B69C3F30443082B00D07047034B044A11
:1038E0001A60FAE700300E4000400E40D011002070
:1038F000C0EA21011A48C26CC2F30322194B1B888B
:1039000003F1280103EB51032833013202EB82015A
:10391000B3FBF1F3013B072B28BF0723C16C21F058
:10392000EE6141EA036343F48013C3640E4BB3F9C1
:103930000030002B13DB9BB203F1280103EB510392
:103940002833510801EB4202B3FBF2F3072B28BFE7
:103950000723026D22F0700242EA031303657047E9
:1039600000300E40DA200020DC200020024B1880BE
:10397000024B1980704700BFDA200020DC200020B5
:1039800010B1012804D07047034B044A9A65704770
:10399000014B034A9A65704700300E40774020572C
:1039A000372110B71A4BD3F83032032929D8DFE872
:1039B00001F002121518DBB24AB91B0333F470414F
:1039C00021D11448C16E21F470411943C166012A06
:1039D00009D001207047C3F30723EDE7C3F3074382
:1039E000EAE71B0EE8E71B0333F470420DD10949E7
:1039F000D1F8E02022F470421343C1F8E0300120F6
:103A0000704700207047002070470020704700BFBB
:103A10000081E00F00300E401B02A2B101221343CF
:103A2000B3F5007F4DD022D8B3F5807F42D00CD9BA
:103A300040F20112934215D1294BD3F824321A0EC9
:103A4000C3F3074310E00022E9E763B3012B06D17B
:103A5000234BD3F82432C3F30722DBB204E0002265
:103A6000134601E00022134603600A607047B3F575
:103A7000407F2DD040F20132934206D1184BD3F84B
:103A800028321A0EC3F30743EEE740F201229342B5
:103A900006D1134BD3F82832C3F30722DBB2E3E796
:103AA00000221346E0E70E4BD3F81C32C3F3072283
:103AB000DBB2D9E70A4BD3F81C321A0EC3F3074323
:103AC000D2E7074BD3F82032C3F30722DBB2CBE7B0
:103AD000034BD3F820321A0EC3F30743C4E700BFE9
:103AE0000081E00F03285CD8DFE800F002213448B1
:103AF000334BD3F8F021C2F3031C0CEB8C0C02F017
:103B00000F0303EB4C0CC2F3033303EB8300C2F34C
:103B1000032303EB4003B3EB0C0306D0294AB2FBAB
:103B2000F3F000FB0CFC93423ED908467047244B4F
:103B3000D3F8F021C2F3035C0CEB8C0CC2F303430B
:103B400003EB4C0C130F03EB8300C2F3036303EB93
:103B50004003E0E71A4BD3F8F421C2F3031C0CEB4B
:103B60008C0C02F00F0303EB4C0CC2F3033303EB9A
:103B70008300C2F3032303EB4003CCE7104BD3F8DD
:103B8000F421C2F3035C0CEB8C0CC2F3034303EB94
:103B90004C0C130F03EB8300C2F3036303EB4003EE
:103BA000B9E700239C46B6E7ACF5353CACF5247C80
:103BB000642303FB01C101EB500CBCFBF0F0704728
:103BC0000081E00F80B5010010B5002855D0464BAC
:103BD000DB6B13F0400F07D1444B1B78C3F102029B
:103BE00010239340404A1361414AD2F8804104F0C7
:103BF000010445F60E03C2F880313E4B1B6803F00A
:103C0000010003F01001084303F04001084303F0F2
:103C10000401014303F480730B431366324BDB6BE7
:103C200013F0400F04D1344BD3F8C830002BFAD135
:103C30002D4B1B6813F0100F0DD02D4BD3F84031D6
:103C400013F0807FF9D12D4B1A68294B1A612C4B48
:103C50001B78052B30D02A4B197805293FD1254BED
:103C60001B6813F0010F02D1214B02221A661CB10E
:103C70001F4B0022C3F8802110BD1D4BD3F89020AC
:103C80001C4B1A601120FFF749F91D4B1870164B99
:103C9000DB6B13F0400F04D1174BD3F8C830002B67
:103CA000FAD1114B5B68C3F30143104A1370104BF8
:103CB0001A69124B1A60DFE7124B18680A4BDB6B6C
:103CC00013F0400F04D10C4BD3F8C830002BFAD1BD
:103CD000054B5968C1F30141FEF7F8FEBBE711201F
:103CE000FFF724FCBBE700BF00300E40E5200020BA
:103CF00000400E40D42000200000C643E0200020F9
:103D0000DE200020D0110020074A136823F44073FE
:103D1000417843EA012313604378022B00D07047B7
:103D2000024B5B6AFBE700BF00300E4000400E40D4
:103D3000704770477047000038B5044608BBFFF76E
:103D400099FD194A136943F004031361FFF7F0FF6B
:103D5000FFF7EFFF154B1B6813F0100F15D130BFA5
:103D6000FFF7E8FF02F07AFCC4B10120FFF72CFF57
:103D70000E4AD2F84C3123F00043C2F84C3184B1E2
:103D800038BD0020FFF720FFD9E7FFF707FD054604
:103D90002AF0C6FC2846FFF705FDE1E7FFF792FD94
:103DA000E6E7FEF7DBFAEBE700ED00E000300E405F
:103DB00038B5044668BBFFF75DFD1F4BD3F8802183
:103DC00045F60E01C3F880114FF42071196612F008
:103DD000010F02D00022C3F88021184A136943F072
:103DE00004031361FFF7A4FF154B1B6813F0100FBA
:103DF00013D130BF02F032FCC4B10120FFF7E4FE62
:103E00000F4AD2F84C3123F00043C2F84C3184B150
:103E100038BD0020FFF7D8FECDE7FFF7BFFC054611
:103E20002AF07EFC2846FFF7BDFCE3E7FFF74AFDDA
:103E3000E6E7FEF793FAEBE700400E4000ED00E006
:103E400000300E4008B50020FFF7BEFE08BD08B5E3
:103E50000120FFF7B9FE08BD134B9A6922F03F021B
:103E60000378D3B104234178C9B102210B4381788F
:103E7000B9B108210B43C178012900D000210B43BF
:103E800001790B431343084A9361136823F44033C9
:103E9000417943EA0143136070470023E3E70021BF
:103EA000E4E70021E6E700BF00300E4070477047AE
:103EB00038B50D4B9C6924F4403444F400349D69BA
:103EC00045F440354AF6E8529A60FFF7EFFFFFF7F6
:103ED000EEFF002303E0044A946195610133032B54
:103EE000F9DD014B9C6138BD00300E401D4BDB6B92
:103EF00013F0400F35D170B504460D46194BDB6BFE
:103F000013F0400F04D1184BD3F8C830002BFAD16E
:103F1000144B5B68C3F301439C4218D0134BD3F896
:103F20000031FEF7EFF90646022C11D0C4F102026F
:103F3000102393400B4A136145B1D36B13F0400F2C
:103F400004D1094BD3F8C830002BFAD124B170BD8D
:103F50000221FEF7BBFDE9E700213046FEF7B6FD82
:103F6000F5E7704700300E400000C64300400E40A9
:103F700038B5114BDB6B13F0400F0BD10C4650B131
:103F80000E4B1B7813B10E4B98420FD921460020DF
:103F9000FFF7ACFF38BD0B4BD3F80001C0F3042092
:103FA000451CFEF7AFF905FB00F0E9E721460220CA
:103FB000FFF79CFFEEE700BF00300E40E42000203A
:103FC000002D310100400E4008B50278034B1A70F5
:103FD00001210020FFF7CCFF08BD00BFE420002036
:103FE00010B41E4B5A6B4AF6E85159631B4B9B6F3A
:103FF00013F0010FFAD1194B1B6C13F0030303D01C
:1040000017490124C1F8B44ADBB283421AD0134BDA
:104010009B6F13F0010FFAD110490B6C23F00303CF
:1040200003430B640D4B9B6F13F0010FFAD1003863
:1040300018BF01200A4BC3F8B40A012A09D05DF861
:10404000044B70470028FAD1054B0022C3F8B42A6C
:10405000F5E7024B00225A63F1E700BF00300E4043
:104060000000C6432DE9F04F8DB00091019200236E
:1040700009930A930B93069307930893039304936E
:104080000593664A1288ADF808208DF80A30A0F52D
:10409000E163B3F5966F00F2B0800646B0F5E16FCC
:1040A0008CBF4FF001094FF000096FD94FF49664AF
:1040B0004FF4E165B6F5E16F6DD9594BD3F818327D
:1040C00008931A0E0592C3F307430893DFF854814F
:1040D000D8F84C70C7F301778DF808703B464A4614
:1040E00003A906A8FFF798FCD8F8E030C3F301282D
:1040F0008DF8098043464A4604A907A8FFF78CFCBF
:10410000721B089B0599C91A02FB01F1B1FBF4F17E
:104110000B9119440B91DDF80CA0DDF818C0AAEB47
:104120000C0502FB05F5B5FBF4F509956544099509
:10413000DDF810E00798AEEB000B0BFB02F2B2FBD0
:10414000F4F40A9404440A94059A8A4259D38B429F
:1041500059D8A64559D3A04259D8AA4559D3AC45F8
:1041600059D8019B73B12F4BDB6D23F4FE4323F031
:10417000020343EA0123B6F5E16F16D902210B438E
:10418000284AD365009B93B9012037E04FF4167499
:104190004FF496658EE7224BD3F818320893C3F399
:1041A00007220592DBB2089390E70021E7E700229F
:1041B00039464846FFF7F6FB00B301224146484620
:1041C000FFF7F0FBD0B1AC4238BF2C460994E72C86
:1041D00028BFE7240994134B5B6E23F4FF7323F08D
:1041E000010343EA4403B6F5E16F04D90122134306
:1041F0000C4A536602E00022F9E700200DB0BDE84A
:10420000F08F0020FAE70020F8E70020F6E7002012
:10421000F4E70020F2E70020F0E700BF4CF00200D6
:104220000081E00F00300E4008B5214B1A6FDB6CA7
:1042300013F0010F09D012F0060F06D013281FD972
:10424000143813281ED8082323E0194BDB6C13F015
:10425000010F09D112F0060F06D1092814D90A3826
:10426000092813D8082314E0114BDB6C13F0010369
:104270000FD012F0060F0BD1272817D8082308E01B
:10428000042306E0102304E0042302E0102300E0EE
:104290000023013B1A0342EA03220549CB6C23F4B5
:1042A0007F431343CB64FFF725FB08BD1023F0E7E2
:1042B00000300E4008B5074BD3F88039064A136F1B
:1042C00023F0070303431367044B1888FFF7ACFF81
:1042D00008BD00BF0000C64300300E40D8200020BB
:1042E00008B5084AD36E43F08073D366064BD3F803
:1042F00080391BB10420FFF7DDFF08BD0020FFF768
:10430000D9FFFAE700300E400000C64338B5044636
:10431000B0F90C10C3884A2B09D9B3F5FA7F33D30F
:1043200040F6C312934232D84FF0005200E0002210
:10433000224BDB6C23F0405323F00103002929DBDF
:1043400001210A4313431D4AD364D2F8E03043F4F9
:104350004073C2F8E030A288194B1A80FFF7C0FF03
:10436000B4F90C102089FFF701FBA088FFF75CFF70
:10437000A07BFFF705FB012211466088FFF772FE64
:10438000054648B9284638BD4FF08052D0E74FF077
:104390004052CDE70021D4E7084AD36B43F4806351
:1043A000D3636078FFF71CFEA37A202B04D0002291
:1043B000044BC3F89427E5E70122F9E700300E40EB
:1043C000D82000200000C64338B505464168007873
:1043D000FFF788FB0446A9682878FFF783FB2B7852
:1043E00023BB164AA2FB0413D90801EB8103A4EBFB
:1043F00043031B0443EA0153A2FB0012D20843EA21
:10440000023302EB8202A0EB420243EA02232A7B40
:104410006AB1042213436A7B5AB108221343AA7B70
:104420004AB101221343064AC2F8903038BD002237
:10443000F0E70022F2E70022F4E700BFCDCCCCCCBD
:1044400000300E4003280AD8DFE800F0020E0A0C04
:10445000064B03F1424303F580135B01196070477B
:10446000034BF6E7034BF4E7034BF2E790300E40C3
:1044700098300E409C300E4094300E40044AD2F8E2
:10448000443423F003030343C2F84434704700BFAD
:1044900000A000402DE9F8430C4615461E46072AA9
:1044A00041D893004FF00F0808FA03F800FA03F719
:1044B000FFF774F9324AD2F8001487EA010303EADD
:1044C00008034B40C2F80034FFF76CF94FF00008C6
:1044D000072D3FD8A90003278F4004F003048C4028
:1044E000FFF75CF9264BD3F8082454403C40544075
:1044F000C3F80844FFF756F9224B2B449B001E607B
:10450000214B2B449B009DF820201A600123AB40D7
:104510001B4AC2F824341D4B2B449B009DF82420D9
:104520001A60BDE8F883A2F108084FEA88030F2754
:1045300007FA03F900FA03F7FFF730F9104BD3F845
:104540000424574007EA09075740C3F80474FFF7EB
:1045500029F9BDE74FEA8808032707FA08F704F0AE
:10456000030404FA08F4FFF719F9054BD3F80C24F7
:1045700054403C405440C3F80C44FFF713F9BBE7E8
:1045800000A0004080208510A020851040218510CB
:104590002DE9F04704460E461F4690463AB183B3D4
:1045A00000EB400109010122B2402D4B5A50072E69
:1045B0002FD804EB44031B01DFF8AC909944B300FF
:1045C0004FF00F0A0AFA03FA08FA03F5FFF7E6F8C4
:1045D000D9F8002085EA020303EA0A035340C9F828
:1045E0000030FFF7DFF8B8F1000F08D177B304EB24
:1045F00044042401012101FA06F6194B1E51BDE8BD
:10460000F08700EB400109010122B240154B5A50DE
:10461000CDE704EB44031B01DFF850909944A6F169
:10462000080292004FF00F0A0AFA02FA08FA02F59D
:10463000FFF7B4F8D9F8003085EA030202EA0A026B
:104640005A40C9F80020FFF7ADF8CCE704EB44046A
:104650002401012101FA06F6024B1E51CFE700BFEB
:104660000CA000460CA0004404A0004008A000409C
:1046700000E0C369C36813F4807FFAD1704700007B
:1046800002B970472DE9F04105460C46174603F084
:104690000308036823F4407303604FEA0826FFF71A
:1046A0007DF82B685E4006F440765E402E60FFF792
:1046B00079F82CB9134B9D4219D0134B9D421BD056
:1046C0002B68124B13F8083003FB07F26AB1A4EB16
:1046D000C7031344013BB3FBF2F3013B2A6812F01A
:1046E000020F01D003B901232B61BDE8F081084816
:1046F000FEF70AFD0446E3E70648FEF705FD04461B
:10470000DEE700BF00C0004000C4004050F00200DF
:10471000006204000072040000F1424000F58010C5
:10472000400101607047000038B505460C46002383
:1047300003640B4BC3634A7882F0010200F14243E9
:1047400003F58013DB0001339B001A600B7B8A6842
:104750004968FFF795FF21782846FFF7DDFF38BD50
:10476000FFFF0700AB4B98421AD003F580639842D5
:1047700040F04D81A84B10B59C68426B12F4C06F9D
:1047800010D11978082900F23A81DFE811F01900F8
:104790003F006A008500A700C300EC0001012E0164
:1047A0009E4BE8E712F4007F04D0FD225A700922E4
:1047B0001A7013E012F4806FF9D0FE225A70F6E7F7
:1047C000618811F0100F17D02288120A02F0060239
:1047D00042F0F00201211970C26241601A78092A80
:1047E00040F01E810022026493F90120012A00F0AA
:1047F0000B8193F9010014E1248804F0FE042246A1
:1048000011F0020FE6D044F00102E3E712F0800F4E
:1048100016D112F0400FE1D04022C263628812F03C
:10482000100F16D112F0020F18D007221A701A7941
:1048300004EBC2042289012AD0D108224260CDE7CC
:104840008022C263FF225A7008221A70022242603C
:10485000C4E702221A702278C262BFE705221A70EA
:104860008BE712F0800F0BD112F0400FB6D0402230
:10487000C263628812F0020F0BD003221A707CE729
:104880008022C263FF225A7008221A7002224260FC
:10489000A4E705221A7070E7618811F0100F16D096
:1048A0002288120A02F0060242F0F00211F0040F10
:1048B00007D042F00102197904EBC10421890129D2
:1048C00009D00421197001214160C26286E7228863
:1048D00002F0FE02EAE708214160F2E712F0800FE1
:1048E0000CD112F0400F3FF479AF4022C2636288CE
:1048F00012F0040F0BD007221A706FE78022C263F8
:10490000FF225A7008221A700222426066E70522CE
:104910001A7032E759881A7904EBC20CBCF808C047
:10492000614516D3002159800132D2B21A716188D3
:1049300011F0040F0AD111F0010F02D1012A7FF604
:104940001CAF08221A700222426047E703221A7045
:1049500013E704EBC20252684C1C5C80525CC262DA
:1049600006221A703AE712F0800F08D112F0400FB9
:104970003FF434AF4022C26305221A70FDE6802264
:10498000C263FF225A7008221A700222426025E791
:1049900012F0200F3FF422AF93F804E004EBCE02B4
:1049A0001289C169C9B2B3F802C0624508D904EBE3
:1049B000CE0464680CF1010EA3F802E004F80C10B8
:1049C00059888A4204D808221A700222426005E7F8
:1049D00004214160012A7FF601AF5988013A9142D2
:1049E0007FF4FCAE08224260F8E612F4807F3FF4C8
:1049F000F5AE4FF48072C26309221A70EEE6FB2214
:104A00005A7009221A70E9E600225A70F1E66FF036
:104A10000300704700C00040F4200020E820002080
:104A2000012010BD10B504461C4B98422BD003F555
:104A30008063984229D11A4BA26812F0010F01D06D
:104A4000202262604A8812F0020F01D00889F8B172
:104A500012F0040F01D00A8AEAB100221A70012074
:104A600058705A801A719960C02363602046FFF71E
:104A7000FFFD0C4BE363236C43F4FC63236420468B
:104A8000FFF770FE10BD084BD6E76FF00300F9E7A3
:104A90006FF00300F6E76FF00300F3E700C000409B
:104AA000F4200020FFFF0700E820002011B10129B9
:104AB00002D070470261704742617047436B13F048
:104AC000020FFBD111B10123436070470223436001
:104AD00070470B784BB9836813F0010F05D0436B17
:104AE00013F0020FFBD1022343604B780BB14FF45C
:104AF00080538A780AB9CA6822B143F40073CA683D
:104B000002B10261CA780AB143F480730A790AB12A
:104B100043F040034A790AB143F080038A7943EABB
:104B20008203CA7943EA02130A7A134303600B78BB
:104B30004BB1836813F0010F05D1436B13F0020FE3
:104B4000FBD101234360704711B1012902D07047A6
:104B500082617047C2617047436B002BFCD1704784
:104B600010B50446FFF7F8FF1E236360002323609F
:104B700023616361A361E361E3621F23A3622046B3
:104B8000FFF7EAFF10BD0000054B5A685B68054B54
:104B900041F671321A649A6822F001029A607047F5
:104BA00000300E4000000E40034B9A6822F00102D4
:104BB0009A6000221A64704700000E400C4B0D4AA8
:104BC000D26912F0010F02D00BB1013BF7E74BB1F4
:104BD000084B18610122DA60DB6913F0040F04D17D
:104BE000002070476FF0020070474FF0FF307047B1
:104BF0008096980000000E408C46D1B90020704786
:104C0000DBB1114BDB6913F0020F19D1614512D2F0
:104C100050F8042B0C4B9A6101310822DA600B4BDF
:104C2000094AD26912F0010FEAD0002BE8D0013B0B
:104C3000F6E70021EAE7002070476FF002007047B6
:104C40006FF00100704700BF00000E408096980092
:104C50002DE9F04780460E46254B196C1FFA81F965
:104C600041F671311964234948684968996841F0EF
:104C700001019960970800231D4614E01C498A68C9
:104C800022F001028A60B9F1000F2DD00A460021FE
:104C9000116429E051463046FFF7AEFF0346C0B924
:104CA000554406EB8A06BD4213D208EB8504204624
:104CB000FFF784FF03460028E0D1C4F30A04C4F5DB
:104CC0000064A308A7EB050ABAEB940FE2D39A4657
:104CD000E0E707498A6822F001028A60B9F1000F13
:104CE00002D00A46002111641846BDE8F08700BFD3
:104CF00000000E4000300E4010B42B4B196C89B2EE
:104D000041F671321A64294A546852689A6842F02E
:104D100001029A6018610122DA60DB6913F0040F66
:104D20000BD1214B0222DA60214B1F4AD26912F0CB
:104D3000010F0ED06BB1013BF7E71B4A936823F0DC
:104D40000103936011B1134600221A644FF0FF3043
:104D50000DE0154AD26912F0020F0BD1B3B1124A1D
:104D6000936823F001039360E1B1002010645DF8C3
:104D7000044B70470C4A936823F00103936011B110
:104D8000134600221A646FF00100F0E7064A9368A8
:104D900023F00103936011B1134600221A646FF0EF
:104DA0000200E4E70020E2E700000E4000300E4081
:104DB0008096980008B5FFF74BFF08BD014B012214
:104DC0009A60704700500E4010B4184B5C68002386
:104DD00018460BE0B2F5803F21D0154A52F8332037
:104DE000224202D0214200D110430133082B19D8AE
:104DF0000F4A02EBC30251680E4AD2F8E82112F0C2
:104E0000040FEAD10A4A52F83320B2F5006F06D0F7
:104E1000E0D8B2F5007F02D0B2F5806FDDD141F469
:104E20008071DAE75DF8044B704700BF00500E4018
:104E300054F002000040E00F4A790B7891F801C06D
:104E400043EA8C0391F802C043EA8C1391F803C043
:104E500043EA0C1391F804C043EACC2343EA02333B
:104E60008A7943EA424304300001014A13507047F3
:104E700000200440014B1860704700BF00008442CE
:104E8000037813B3012342780AB3042213438278D0
:104E9000FAB110221343C278EAB1202213430279F7
:104EA00043EA0223427943EA02338279AAB14FF4FA
:104EB00000421343C27943EA0243027A7AB14FF4C3
:104EC00000321343074A136070470023DBE70022D8
:104ED000DCE70022DEE70022E0E70022E9E700222B
:104EE000EFE700BF002004400D4AD2F8E4309B00F9
:104EF00003F03C03D2F8E010C1F381110B4383703F
:104F0000D2F8E03003F03F034370D2F8E83003F00A
:104F1000F003D2F8EC20C2F303121343037070477E
:104F200000FF0FE010B40B780BB90223436000239D
:104F300043628A78CB781B0443EA02638A7943EAA6
:104F40008223CA7943EA02230A7A13434A7822B3B6
:104F5000402213434A7A12B3802213438A7A02B35F
:104F600020221343CA7AF2B1102213430A7BE2B122
:104F7000082213430A79D2B14FF400524C79C4B1DC
:104F80004FF0805C42EA0C02134303600B780BB1D4
:104F9000012343605DF8044B70470022D9E70022EB
:104FA000DBE70022DDE70022DFE70022E1E7002265
:104FB000E4E74FF0000CE5E710B4147853781B06D3
:104FC00043EA8463947843EA0443D47843EA04339D
:104FD000147943EA8423547943EA042394792343DC
:104FE000D479D4B14FF080442343147ABCB14FF04C
:104FF00000542343547AA4B110242343947A94B1E7
:105000004FF0040C43EA0C03D27A43EA02730631F0
:10501000090143505DF8044B70470024E4E7002485
:10502000E7E70024E9E74FF0000CEBE741F08001EF
:105030008165704770B5054616461C460846D1B1D5
:10504000402C20D01BD804B3202C13D1082106FB00
:1050500001F14B0803EB4013B3FBF1F3203B0C4A87
:1050600002EAC3032A6822F060022A602A68144315
:105070002C606B6170BD0748FEF746F8E0E7602CD6
:10508000F8D10421E3E70621E1E71021DFE700BFC3
:10509000F8FF7F0040410500CB435B0003F00A03AB
:1050A000C360C1607047000040F6AA63C36000237C
:1050B000036041F20502426083604361C3640F4AAA
:1050C0008264036643678367C3670D4B984207D0CA
:1050D00003F58063984203D003F58063984201D1C1
:1050E000002303650023836503F1804303F58233C6
:1050F000984200D070470023C365FBE7F9FF010029
:105100000000014038B505460C46FFF7CDFFA37CF3
:105110001BB12B6843F080432B60E37C002B2CD128
:10512000637B228A1343E28913436B60237BA2686B
:1051300061682846FFF77EFF637D1BB12B6843F44F
:1051400080332B60A37D1BB12B6843F400432B609D
:10515000E37D1B0703F0E043227E120502F4E00228
:1051600013432B666B6F23F030036B676B6F627EAC
:1051700013436B672378EB6038BD217D2846FFF72A
:1051800055FFCDE7036913F0800FFBD0C069C0B2B3
:105190007047036913F0400FFBD041637047036809
:1051A00013F0100F15D1002300E00133826812F0D4
:1051B000010F03D047F22F529342F6DD036803F04C
:1051C00001038B4205D000F1424000F58010400100
:1051D00001607047036813F0010F09D0836813F072
:1051E000020F05D1836813F0010FFBD10123436047
:1051F00070470B78002B3BD001234A78002A39D026
:10520000022213438A78002A36D04FF0804213439B
:10521000CA789AB3042213430A798AB30822134343
:105220004A797AB3202213438A796AB3402213431E
:10523000CA795AB3102213430A7A43EA02334A7AEC
:1052400043EA02230A7B1AB34FF0004213438A7ADF
:1052500043EA0243C97A43EA01610023826812F0FB
:10526000010F17D047F22F52934213DC0133F5E7B9
:105270000023C2E70022C4E70022C8E70022CAE7F1
:105280000022CCE70022CEE70022D0E70022D2E7BE
:105290000022DBE70160704738B504460DF016F8D0
:1052A000054DA446BCE80F000FC59CE80F0085E83B
:1052B0000F00002038BD00BF0021002047F6FF731B
:1052C0009A4277D0022977D870B53D4B03EBC100E5
:1052D0008078012838BF0120844613F83130012B33
:1052E00022D0374B03EBC1035C68002C66D0B4F9C5
:1052F0000050954204DBB4F90250954200DC15469B
:10530000A388FF2B2BD02826C8230022AE465B1B88
:1053100093FBF6F313442A4A02EBC1014D78691E50
:10532000994231D319462FE0254B03EBC103D878BE
:10533000A0EB0C000025A8420ED9431BA0EB5303A1
:105340001F4C04EBC104646834F91340944201DC3F
:105350001D46F0E7581EEEE76044C0B229E0B4F9FC
:105360000630B4F908600122D0E703F5FA73154A54
:10537000A2FB03239B094A1C954210D904EBC206E9
:10538000B6889E420BD3114604EBC1029368B2F972
:10539000062002FB0E33002BE7DA0023E5E704EBDF
:1053A000C1018A889A4200D31A46624500D310464A
:1053B000C0B270BDFF207047002070470020F8E7A2
:1053C00000210020D34D621008B50348FFF764FFA9
:1053D00001200CF07DFF08BD20FA020010B584B05A
:1053E000064BEC460FCB8CE80F0000248DF80140F3
:1053F0006046FEF78BFF204604B010BD9CF0020013
:1054000010B582B000240094ADF8044001238DF85B
:1054100001308DF8033020238DF8043002238DF8FD
:1054200005306846FEF718FD204602B010BD0000AA
:1054300010B586B00DF1040C164C0FCCACE80F0083
:105440002368ACF80030144BD3F8B43013F4002FB9
:1054500012D1114BD3F8B830C3F30803B3F1FF3FB7
:1054600014D0ADF80A300D48FCF790FF01A8FEF704
:1054700055F9002006B010BD4FF0FF33084A1288DE
:105480004FF6FF718A42E9D01346E7E740F23F1337
:10549000E7E700BFACF002000081E00FC017530245
:1054A0000001E00F6FF0040307E003F00F010A4A68
:1054B0000A44A021117601335BB22E2B09DC002BAC
:1054C000F3DB03F1604202F56142A02182F8001390
:1054D000F1E70020704700BFFCEC00E030B583B07E
:1054E000FEF75CF90E4B1D780E4B1C68FEF75AF95F
:1054F00008F036FA08B1FF2D03D154B1204603B0AD
:1055000030BD01AA064B19780020FDF7C4F8019CB4
:10551000F3E7FEF743F9044B1C68FEF743F9EDE7A8
:1055200004120020202100202421002010B5044670
:10553000FEF734F9024B1C60FEF734F9002010BD71
:105540002421002070B50C461546034638B153B1EE
:105550005E6856B12A4621461868B04770BDFFF70D
:10556000BDFF0346F3E72320F8E72320F6E780F8A2
:105570002410704790F82400704790F82B00704773
:1055800080F82E10704790F82E007047F8B504464A
:105590000F46154690F82430A3B900260120AE42EC
:1055A00022D294F82630002BF9D02368397820468F
:1055B0009847C8B901370136F1E723680D21204625
:1055C00098470AE000260120AE420DD294F826301A
:1055D000002BF9D03B780A2BEFD0236817F8011B7A
:1055E000204698470136EFE7F8BD70B504460D46F2
:1055F000164608F01FF902280AD0324629462046EE
:10560000FFF7C4FF08F016F902280BD0002070BD88
:105610004FF0FF31D4F8D80008F0FEF90028ECD0A4
:105620000220F4E7D4F8D80008F034FA0020EEE7BE
:1056300070B504460D46FEF7B8F8A6699EB1E2695A
:105640002369D35C2B70236901332361226A93425F
:105650000CD0A369013BA361FEF7ADF8A368204617
:105660009847304670BDFEF7A6F8FAE7002323619D
:10567000EFE738B50446FEF798F8054603E0D4F89E
:10568000840008F00DFBD4F8840008F049FBA369FE
:105690009842F4D304E00021D4F8840008F0BCFA66
:1056A000D4F8840008F03CFBA3699842F3D828465C
:1056B000FEF781F838BD2DE9F04182B007460E466D
:1056C00090461D4608F0B6F802280ED000232B6045
:1056D0002B6843451AD231463846FFF7A9FFA8B1D7
:1056E00001362C6801342C60F2E74FF0FF31386B43
:1056F00008F092F968BB97F82E30002BE6D04FF0F7
:10570000FF31D7F8840008F087FADFE797F82730F1
:1057100063B13846FFF7ADFF08F08CF8022812D0CD
:105720002B68A3B1002002B0BDE8F08111238DF8F1
:10573000073001220DF107013846FFF756FF01231C
:1057400087F82730E5E7386B08F0A4F9E8E71B2075
:10575000E9E70220E7E770B5044690F82B300A46E7
:1057600001B113B102B983B970BD90F82C60FEF796
:1057700015F805460121304600F090FD2846FEF759
:1057800011F8012384F82B30EEE794F82C60FEF733
:1057900005F805460021304600F080FD2846FEF75A
:1057A00001F8002384F82B30DEE7000038B5054609
:1057B000046808F03FF8022854D0FFF78FFE8542B6
:1057C0005CD094F92830002B08DB03F01F015B0943
:1057D00001228A4060332B4941F8232094F9283074
:1057E000002B0CDB03F01F015B0901228A402033F0
:1057F000244941F82320BFF34F8FBFF36F8F94F9F3
:105800002930002B08DB03F01F015B0901228A40CD
:1058100060331C4941F8232094F92930002B0CDB1C
:1058200003F01F015B0901228A402033154941F82A
:105830002320BFF34F8FBFF36F8FD4F8840008F09D
:105840008BFA206B08F05CF9D4F8D80008F058F90E
:1058500000232B606B60AB602B616B61E3682046BB
:10586000984738BD4FF0FF31D4F8D80008F0D4F88D
:105870004FF0FF31206B08F0CFF89EE70020FFF7D4
:1058800055FE9EE700E100E02DE9F04389B01546A2
:105890005268002A00F0B08006460C461F46AB68EE
:1058A000002B00F0AB804FF4967200212046FAF7EF
:1058B000BBFC6B68E361AB6823622B7B84F824300C
:1058C000AB7B84F825304FF0010884F8268084F8FB
:1058D00027802760109B6360119BA360129BE3608D
:1058E00095F9003084F8283095F9013084F8293092
:1058F0003460434B7360434BB360434B3361434B62
:105900007361434BF360434B3362434B736284F8E0
:105910002E80424B04930027059704F1340306932D
:105920004FF05009CDF81C9004A808F01DF8206332
:1059300004F1DC03069304A808F016F8C4F8D800B4
:10594000374B0093019704F188030293CDF80C9034
:105950006A463946A86808F0F7F8C4F88400314B65
:10596000B361314BF3619DF8503084F82D309DF8D0
:105970004C3084F82C3084F82B7084F82A80697BB2
:105980002046FFF7E8FE95F90130BB4208DB03F043
:105990001F015B0942468A406033244941F82320B5
:1059A00095F90130002B07DB03F01F015B09012291
:1059B0008A401E4941F8232095F90030002B08DB6E
:1059C00003F01F015B0901228A406033174941F847
:1059D000232095F90030002B07DB03F01F015B0942
:1059E00001228A40114941F823203046FFF79EFDED
:1059F000002009B0BDE8F0832220FAE72120F8E773
:105A0000EB550000B75600006F55000075550000BB
:105A1000AD5700008155000087550000C0F002001E
:105A2000CCF00200575700007B55000000E100E079
:105A300010B50446FDF7B9FEA269236A9A4203D362
:105A4000FDF7B9FE002010BDFDF7B5FE0120FAE715
:105A500030B583B004460D46AFF30080FDF7A5FED8
:105A600094F825301BB1132D1DD0112D21D0E269E2
:105A70006369D554636901336361A2690132A2612C
:105A8000226A93421BD0FDF796FE07F0D3FE023840
:105A9000012817D994F825301BB1A269236A9A42CC
:105AA00015D003B030BD002384F82630FDF783FE07
:105AB000F7E7012384F82630FDF77DFEF1E70023A8
:105AC0006361E0E7D4F8840008F0EAF8E2E7132322
:105AD0008DF8073001220DF107012046FFF756FD32
