S02700007A776176655F41544C41535F4B4E585F574954485F4F4E4C595F434E54524C342E7333372A
S21400000000100020051D000073A1020073A102006D
S214000010B9AC020073A1020073A1020073A1020032
S21400002073A1020073A1020073A102000101000087
S21400003073A10200B4FB02003101000045CA0200B1
S21400004039F0010071EF020073A1020073A10200F3
S2140000508182020081EF02007DEF0200698A0200C1
S21400006075EF0200C9260000D9270000450A0000E7
S214000070C91C0000B91C000073A1020073A1020095
S21400008073A1020073A10200F927000019080000FE
S214000090390600000D08000073A1020073A10200DB
S2140000A073A1020073A1020073A1020025BC000028
S2140000B09D8A020079EF02007D7302008D690000C0
S2140000C0D98A020073A102004173020073A10200E4
S2140000D073A1020073A102008109000061090000FB
S2140000E073A1020073A1020073A1020073A10200B3
S2140000F073A1020073A1020073A1020000000000B9
S214000100074B19680868B0E8F04F80F30988BFF31A
S2140001106F8F4FF0000080F311887047AFF30080B8
S2140001203C59002000000000000000000000000015
S214000130EFF30980BFF36F8F154B1A681EF0100F90
S21400014008BF20ED108A20E9F04F10602DE9090065
S2140001504FF0200080F31188BFF34F8FBFF36F8FEF
S2140001600CF054FB4FF0000080F3118809BC1968AE
S2140001700868B0E8F04F1EF0100F08BFB0EC108A09
S21400018080F30988BFF36F8F704700BFAFF300801E
S2140001903C590020000000000000000000000000A5
S2140001A001F0FF01102A2BDB10F0070F08D010F823
S2140001B0013B013A8B422DD010F0070F42B3F6D127
S2140001C0F0B441EA012141EA014122F007047FF040
S2140001D000070023F0E80256083C85EA010586EA97
S2140001E0010685FA47F5A3FA87F586FA47F6A5FAD3
S2140001F087F68EB9EED1F0BC01F0FF0102F00702DF
S21400020032B110F8013B013A83EA010313B1F8D189
S2140002100020704701387047002D06BF354603386A
S214000220073815F0010F07D1013015F4807F02BFA3
S214000230013015F4C03F0130F0BC0138704700BFF4
S21400024038B504460D46012812D0022C1DD0032CCA
S21400025028D0042C33D0344B1B88022B45D0334B8C
S2140002601B88022B4AD0324B1B88022B4FD038BD3E
S214000270472007F0B3FC2C4A1388013313804FF451
S214000280FA712C4816F03EF9DFE7482007F0A6FC86
S214000290264A1388013313804FF4FA71254816F066
S2140002A031F9D4E7492007F099FC214A1388013335
S2140002B013804FF4FA711F4816F024F9C9E71E4C54
S2140002C025704A2007F08AFC207828F08DFE002250
S2140002D01A4B29F01DF812A3D3E9002328F0EEFEEE
S2140002E029F0FEF8164B1870B5E7002211460120DB
S2140002F001F0BEF8134816F037F8B0E700220121E7
S214000300104601F0B5F8104816F02EF8ABE70122BB
S2140003100021084601F0ACF8A9E700BFAFF3008063
S2140003200000000000E06F4094B9002096B900205D
S21400033098B90020A0450020CDB900200000594003
S214000340CCB9002004F5020014F5020000000000FD
S21400035038B5274B1D78284628F046FE0022254B48
S21400036028F0D6FF20A3D3E9002328F0A7FE29F023
S214000370B7F8C4B2224629461F4815F0D1FF1F4BD6
S2140003801B7833B91E4B1B7863B91E4B1B78D3B949
S21400039038BD21461C4800F0B9FE154B1A781B4B99
S2140003A01A70EFE72146184800F00EFF104B1B7836
S2140003B0174A1370052BE8D1342007F075FB154853
S2140003C015F0D2FFE1E721460F4800F05BFF084B2F
S2140003D01B78114A1370052BDAD1104B01221A70C4
S2140003E00F4815F0C1FFD3E70000000000E06F40A3
S2140003F0CDB900200000594080F70200D1B9002096
S214000400D2B90020D3B90020E0450020CEB90020A4
S214000410CFB90020A8F70200D0B90020D5B9002037
S214000420BCF7020010B5054C237833B9044B13B162
S2140004300448AFF300800123237010BD4044002021
S21400044000000000B451030008B5034B1BB103497C
S2140004500348AFF3008008BD0000000044440020BD
S214000460B4510300A3F5803A704700BF174B002B2A
S21400047008BF134B9D46FFF7F5FF00218B460F463E
S2140004801348144A121A29F09DFD0E4B002B00D07B
S21400049098470D4B002B00D0984700200021040001
S2140004A00D000D48002802D00C48AFF3008000F085
S2140004B02BF82000290029F0AEFD00F011F800BF4F
S2140004C000000800000000000000000000100020EF
S2140004D07415002034BC002000000000000000005E
S2140004E008B5074B044613B10021AFF30080054B57
S2140004F01868836A03B19847204629F005FD00BFB7
S2140005000000000000F5020070B50D4D0D4C641B98
S214000510A4100026A64209D10B4D0C4C2EF0DEFF8F
S214000520641BA4100026A64205D170BD55F8043BF6
S21400053098470136EEE755F8043B98470136F2E750
S2140005406C1500206C1500206C150020701500201E
S2140005500023034A1380034A1380034A138070471C
S21400056094B9002096B9002098B900202DE9F041F2
S2140005702C4B197806294DD003294FD02A4815F060
S214000580CFFEBDE8F081294B1B5D012B3CD0022B32
S2140005903CD0032B3CD0712B0FD104250DE04FF03F
S2140005A0FF0842462946224815F0BAFE414628462C
S2140005B0FFF746FE4746042D19D00134E4B21D4B22
S2140005C01B78A342DDD92646002CDCD0042CF4D1BF
S2140005D06B1EDBB2022BEED8144B13F80480B8F176
S2140005E0000FDED0B8F1010FD9D0B846D9E70336F0
S2140005F00E4B9F5D3A4629460D4815F091FE39464A
S2140006002846FFF71DFED8E71D46D6E71D46D4E769
S2140006101D46D2E7002427462546D0E7452007F0AA
S214000620DDFAAEE7C8B9002030F502005C440020D1
S21400063020F50200C7B9002008B56C48036C836437
S2140006406B4B01225A625A6029F0D7FF694B1B7820
S214000650013B0A2B00F2BD80DFE803F006152433C9
S2140006603C455F6B7B9BAE00552803D0614B0B224D
S2140006701A702EE0604A13781844C0B210705D4BB2
S21400068002221A7025E0AA2803D05A4B0B221A70B1
S2140006901FE0594A13781844C0B21070554B032215
S2140006A01A7016E0022803D0524B0B221A7010E084
S2140006B0514A13781844C0B210704E4B04221A7078
S2140006C007E04D4A13781844C0B21070494B052213
S2140006D01A7008BD484A13781844C0B21070454BCB
S2140006E006221A70F5E7431FDBB2012B0AD903284E
S2140006F008D0404B0B221A700023404A1370404A21
S2140007001370E6E73C4A13780344DBB213703C4BA5
S2140007101870384B07221A70DBE7374A1378034401
S214000720DBB2137080B2374B1880324B08221A7037
S214000730CFE7314A13780344DBB21370314A13888B
S2140007409BB240EA032080B210802A4B09221A701E
S214000750BFE7294A13780344DBB21370294A13888B
S2140007609BB2013B9BB21380244B1B78402B02D9D3
S214000770204A0B211170244AD05401331F4A1370AB
S214000780204B1B889BB2002BA3D11A4B0A221A704F
S2140007909FE7194B1B78DBB283420AD00023164A28
S2140007A01370184A1380154A1370124B01221A70E0
S2140007B08FE7FFF7DBFEF1E700230F4A1370114ABD
S2140007C013800E4A13700E4A13700A4B01221A70D9
S2140007D07FE70023084A13700A4A1380074A1370FB
S2140007E0074A1370034B01221A7072E70004014097
S2140007F00084014048150020C6B90020C7B9002073
S214000800C8B9002092B900205C440020014B1A6C45
S2140008109A64704700040140084BDA685A61022265
S2140008205A600023064A1370064A1380064A13705D
S214000830064A1370064B01221A7070470084014066
S214000840C6B9002092B90020C7B90020C8B9002058
S2140008504815002030B589B00121154802F0B8F8D7
S214000860144D4FF6FF73EB6100240594069407942D
S21400087002238DF81A3005AA2146284629F038FEAC
S214000880019402940394ADF8104001238DF80430CF
S2140008908DF8063001A9284629F0D9FDAB6943F04A
S2140008A01003AB61044B4FF400221A6009B030BD50
S2140008B0001204000084014000E100E010B588B09A
S2140008C00121204802F084F80DF1040C1E4C0FCCD8
S2140008D0ACE80F0094E807008CE80700002301222C
S2140008E00721022003F040FD0123042206210220F6
S2140008F003F03AFD154C01A9204629F03EFE40F6CD
S2140009000B33A367636F43F003036367E36C43F043
S2140009100403E364E36C43F00103E3640C4B4FF41D
S21400092080121A604FF400121A60FFF793FF094A0C
S2140009300121094806F068FA084815F0F1FC08B0ED
S21400094010BD00BF0042040014F60200000401407F
S21400095000E100E051050000A045002054F502002B
S21400096008B5054A136C936413F0010F00D108BD57
S214000970024815F0D5FCFAE70008014064F50200CD
S21400098010B52848036C8364274B01225A625A60CC
S21400099029F033FE0446302810D0B02827D0BC28D3
S2140009A017D1224B1B78002B34D1204B01221A7012
S2140009B000231F4A13701F4A13700AE01D4B1B7852
S2140009C073B91C4B01221A700023194A1370174A78
S2140009D01370194A13881949CC540133138010BD7B
S2140009E0174815F09DFC144B00221A80E9E7104BBF
S2140009F01B7843B90E4B01221A7000230D4A137060
S214000A000A4A1370E5E70E4815F08AFC0A4B0022E6
S214000A101A80EFE70A4815F083FC074B00221A807D
S214000A20C3E700BF0008014000800140C9B90020AC
S214000A30CBB90020CAB9002090B900209C44002001
S214000A400004030038B5394BDA685A6102225A604E
S214000A50374B1B88A3B1374B1B781BB1364B1B7823
S214000A60302B17D0354B1B781BB1334B1B78B02B74
S214000A7028D0334B1B781BB12F4B1B78BC2B4FD089
S214000A8000232C4A13702D4A13702D4A1370284ADF
S214000A90138038BD284B5B7A102BE3D1264B9B7A0C
S214000AA0002BDFD1244C257B2946264815F038FC40
S214000AB0254B1A782946204600F068FE234815F094
S214000AC02FFCCFE71C4B1B7A102BD2D11A4B5B7A2C
S214000AD0002BCED1184CE57A29461D4815F020FC8F
S214000AE0194B1A782946204600F0ACFE174815F038
S214000AF017FCBEE701340A2C14DC0F4B195D1548B1
S214000B0015F00EFC082CF5D10B4B1A7A124B1B78FD
S214000B109A42EFD0084B1979D87800F011FDE9E732
S214000B200024E8E7094815F0FBFBA9E70080014030
S214000B3090B90020CAB900209C440020CBB9002000
S214000B40C9B9002080F50200D5B9002000040300D2
S214000B50ACF50200D8F50200CCB9002030B589B05B
S214000B600121154801F034FF144D4FF6FF73EB6179
S214000B70002405940694079402238DF81A3005AADB
S214000B802146284629F0B4FC019402940394ADF85B
S214000B90104001238DF804308DF8063001A9284650
S214000BA029F055FCAB6943F01003AB61044B4FF4DE
S214000BB000621A6009B030BD0002040000800140E7
S214000BC000E100E010B588B00121224801F000FFE6
S214000BD00DF1040C204C0FCCACE80F0094E8070095
S214000BE08CE807004FF4964303934FF40073ADF878
S214000BF01230002301220521084603F0B5FB01232D
S214000C0004221146052003F0AFFB144C01A9204630
S214000C1029F0B3FC41F21113A367636F43F003039B
S214000C206367E36C43F00403E364E36C43F001039F
S214000C30E3640B4B40225A6080225A60FFF78EFF17
S214000C40084A0121084806F0DFF8084815F068FB56
S214000C5008B010BD0052040014F60200000801405F
S214000C6000E100E051050000A0450020E0F502008C
S214000C7038B50C4B186000240BE00A4D2B68195D44
S214000C80094815F04DFB2B68195D084829F0BCFC97
S214000C900134074B1B889BB2A342EEDC054815F0D7
S214000CA03FFB38BD9C450020F4F5020000080140DB
S214000CB0381500200004030030B587B0844601AC28
S214000CC01A4D0FCD0FC42B6823708DF813C06146E4
S214000CD0174815F025FB174B1B881A0A8DF80720B6
S214000CE08DF8083000231A4608E003F1180169441D
S214000CF011F8141C0A4492B201339BB20F2BF4D99C
S214000D008DF81420002409E004F118036B4413F84E
S214000D10141C094829F078FC0134A4B2102CF3D92D
S214000D20044A13880133138007B030BD30F6020042
S214000D30FCF502009AB900200004014030B5AFB0BF
S214000D400C464B78042B29D00546052B3ED106F0E1
S214000D50E9F908B102203AE0AA22002103A829F006
S214000D6031F96946284606F0B1F970238DF80C3043
S214000D7006238DF80D30A0788DF80E0001238DF82F
S214000D800F3000F085F88DF810000023009A05213A
S214000D9003A82AF0F1F9B8B9022018E00D4815F0BA
S214000DA0BFFA94F90330002B05DB2179A07800F018
S214000DB0A3F8FF200BE0084815F0B2FAE1780748E0
S214000DC015F0AEFAFF2002E0FF2000E000202FB072
S214000DD030BD00BF44F602005CF602006CF602006E
S214000DE010B582B004461D4815F0BEFA01201CF06E
S214000DF017FE2EF016F91A4A60211A4815F086FAE0
S214000E002146194815F08CFA0AF078F804460DF1D8
S214000E1007001AF02DFC9DF807002AF02AFC90B176
S214000E209DF807302372217A104815F079FA0AF0F7
S214000E3069F80346022201210D4814F0A7FD38B1D7
S214000E40002002B010BD04F108001BF037FAEAE7F4
S214000E507F2108481BF0E6FFF2E700BF80F602009D
S214000E6025F002002046002094F60200B8F60200A4
S214000E70A9100000C8F6020008B50246302300217B
S214000E800248006820F006FF08BD00BFE4110020FD
S214000E9001380B282BD8DFE800F006090C0F1215D6
S214000EA0181B1E212427134B18887047114B58888F
S214000EB07047104B988870470E4BD88870470D4B7C
S214000EC0188970470B4B588970470A4B188B704728
S214000ED0084B588B7047074B988B7047054B988C80
S214000EE07047044BD88C7047024B188D7047FE2015
S214000EF0704700BFE045002038B50546084629F093
S214000F0069F804460146204815F00AFA6B1E0B2BBA
S214000F100AD8DFE803F0060D1115191D2125292D25
S214000F2031351A4B9D811C801848FFF7A5FF38BD48
S214000F30164BDD815C80F7E7144B1D829C80F3E73F
S214000F40124B5D82DC80EFE7104B9D821C81EBE745
S214000F500E4BDD825C81E7E70C4BDD831C83E3E709
S214000F600A4B1D845C83DFE7084B5D849C83DBE7CC
S214000F70064B5D859C84D7E7044B9D85DC84D3E7D0
S214000F80024BDD851C85CFE7D4F60200E045002045
S214000F9010B51C4815F0E8F91B480123838103802F
S214000FA04FF0020CA0F80EC00521418003220282F9
S214000FB04FF0080EA0F804E004244482A0F806C00F
S214000FC0818202810624C48243810724C483A0F858
S214000FD018C0A0F820E042834FF0090CA0F822C009
S214000FE04FF0000CA0F81CC04FF00A0CA0F82AC066
S214000FF081840B218185C2840C22C2850385FFF77C
S2140010003BFF10BD00F70200E045002008B5084889
S21400101015F0AAF9074B186820F0AAFF10B9FFF7D9
S214001020B7FF08BD4FF4197103481BF0FBFEF6E747
S21400103010F70200E4110020C8F6020070B58CB06C
S214001040054630236A4600211548006820F06CFEED
S214001050014670B1134815F063F9FFF7D7FF302348
S2140010606A4600210E4C206820F05EFE01460028ED
S214001070F0D16C46AE460CAEA446BCE80F00CEF8E7
S2140010800000CEF80410CEF80820CEF80C306446E7
S2140010900EF1100EB445EFD128460CB070BD00BF5F
S2140010A0E411002040F7020030B58DB004460BF086
S2140010B00DFD214607F042F805F02EFF0AF01EF857
S2140010C004202AF033F80F4815F04EF96846FFF76B
S2140010D0B5FFEC460C4C0CADA646DCF80000DCF880
S2140010E00410DCF80820DCF80C30AEE80F000CF139
S2140010F0100C7446AC45EFD12AF05CFA0028FBD100
S2140011000DB030BD60F70200E04500202DE9F0414B
S21400111088B084460D462B4C94E8070008AB03E9DC
S21400112007006E460C340FCC0FC623683360BCF83D
S2140011300630BCF80840240244EAC32424B2BCF9B2
S2140011400A301C43A7B20F2300E0013B002BFCDA59
S2140011503F0AE4B2BCF80030BCF8026006F00F06A6
S21400116046EA0316F6B29CF804808DF81F508DF8F8
S21400117015608DF817808DF819708DF81B400C21BE
S21400118005A828F036FF002301E00133DBB20B2B65
S214001190FBD98DF811508DF813008DF803608DF88B
S2140011A005808DF807708DF80940002301E00133B3
S2140011B0DBB2132BFBD96846FFF75AFD08B0BDE833
S2140011C0F08100BF88FA02002DE9F04188B084461D
S2140011D00D462B4C94E8070008AB03E907006E4663
S2140011E00C340FCC0FC623683360BCF81830BCF83C
S2140011F01A40240244EAC32424B2BCF91C301C431F
S214001200A7B20F2300E0013B002BFCDA3F0AE4B252
S214001210BCF80030BCF8026006F00F0646EA03167B
S214001220F6B29CF804808DF81F508DF815608DF886
S21400123017808DF819708DF81B400C2105A828F032
S214001240D8FE002301E00133DBB20B2BFBD98DF86F
S21400125011508DF813008DF803608DF805808DF819
S21400126007708DF80940002301E00133DBB2132B31
S214001270FBD96846FFF7FCFC08B0BDE8F08100BF6C
S21400128088FA02002DE9F04188B084460D462D4CC0
S21400129094E8070008AB03E907006E460C340FCC51
S2140012A00FC623683360BCF82430BCF826402402FE
S2140012B044EAC32424B2BCF928301C43A7B20F2347
S2140012C000E0013B002BFCDA3F0AE4B2BCF8003039
S2140012D0BCF8028008F00F0848EA03185FFA88F89E
S2140012E09CF804608DF81F508DF81580360146F086
S2140012F00206F6B28DF816608DF819708DF81B4050
S2140013000C2105A828F075FE002301E00133DBB2AE
S2140013100B2BFBD98DF811508DF813008DF8038038
S2140013208DF804608DF807708DF80940002301E001
S2140013300133DBB2132BFBD96846FFF799FC08B0E4
S214001340BDE8F08188FA020010B54A2808D8472878
S21400135037D34738032834D8DFE800F01D344C6410
S214001360712808D077282CD1334814F0FDFF0020D0
S21400137029F0EDFE25E000F097FB04462AF06DFD0F
S21400138020B1002120462AF04FFD1AE0FF2120461A
S2140013902AF04AFD15E0294C2178294814F0C0FFB0
S2140013A02078FFF789FC0123264A1370264A13701B
S2140013B0264A1380264A13700023264A1370264AAC
S2140013C0137010BD254C2178254814F0A9FF20780D
S2140013D0FFF772FC01231B4A53701B4A53701B4ACB
S2140013E00221518000221A490A701A490B701A4BC2
S2140013F01A70E6E71B4C21781B4814F091FF207802
S214001400FFF75AFC01230F4A93700F4A93700F4A56
S2140014100321918000220E490A700E490A700E4A76
S2140014201370CEE7114B1B781BB1104B00221A70BD
S214001430C7E7FEF78DFFC4E714F80200CEB9002018
S214001440C8F70200184600201C4600201046002060
S214001450D1B90020D2B90020D3B90020CFB90020DE
S214001460E0F70200D0B90020FCF70200D4B9002053
S21400147070B50D46144610B95DB9A4B970BD0F4ECF
S214001480002131700E48FFF741FE3078FFF714FC5C
S214001490F2E70C4D002129700948FFF795FE2878E1
S2140014A0FFF70AFCE9E7084C002121700448FFF723
S2140014B0E9FE2078FFF700FCE0E700BFCEB9002089
S2140014C0E0450020CFB90020D0B9002070B50D4609
S2140014D0144658B1164B1B781BBB6421144E317052
S2140014E01448FFF713FE3078FFF7E6FB5DB1124BAA
S2140014F01B78C3B96421104D29700E48FFF764FEAF
S2140015002878FFF7D9FB5CB10C4B1B786BB96421CC
S2140015100A4C21700748FFF7B5FE2078FFF7CCFB92
S21400152070BD0021DAE70021E5E70021F0E700BF03
S214001530CEB90020E0450020CFB90020D0B9002069
S2140015402DE9F041144641EA00210FB2C1F302260C
S214001550CD0A484BDB88B3EBD12F09D0454B1B8B0C
S2140015609D4231D0434B9B8C9D425AD0BDE8F081C2
S214001570B3B2404A12899342F0D1FBB23D4A528937
S2140015809342EBD1472006F029FB642101FB04F3CC
S214001590394981FB03211944C1F3C711DFF8F080F4
S2140015A088F80010354814F0BBFE354B19783548DE
S2140015B014F0B6FE344B1978344814F0B1FE98F89F
S2140015C00000FFF779FBC9E7B3B22A4A528B934271
S2140015D0C8D1FBB2274A928B9342C3D1482006F06B
S2140015E0FDFA642303FB04F2234B83FB021313442C
S2140015F0DB11DFF88C8088F80030254B19782548F9
S21400160014F08EFE98F80010234814F089FE1E4B46
S2140016101978224814F084FE98F80000FFF74CFB77
S214001620A0E7B6B2134BDB8C9E429FD1FFB2114BA4
S2140016301B8D9F429AD1492006F0D0FA642303FB03
S21400164004F40D4B83FB04231C44E4110E4D2C7054
S2140016500F4B1978124814F063FE094B197811489D
S21400166014F05EFE2978104814F05AFE2878FFF72A
S21400167023FB7BE7E0450020818080801CF8020089
S214001680CFB900203CF80200D0B900205CF8020078
S214001690CEB900207CF802009CF80200BCF80200DC
S2140016A0E0F8020000F9020024F902002DE9F043F8
S2140016B085B08146884617461E46591C02920191FF
S2140016C0CDF800800B4602462A4814F029FE2A4B25
S2140016D0A3FB062303F0FE0404EB5304341BE4B21E
S2140016E0264D0123AB812B800223EB8105236B80E3
S2140016F003232B820823AB80012C1AD0022C25D082
S21400170024B131461E4814F00BFE0AE004226A8219
S214001710A5F806900522AA82A5F808800622EA8285
S2140017206F811648FFF7A8FB022C1CD005B0BDE859
S214001730F083124B0722DA83A3F8189008221A8443
S214001740A3F81A8009225A849F83EAE70B4B0A22E1
S2140017505A85A3F824900B229A85A3F826800C229B
S214001760DA851F85DDE7074814F0DAFD064B002210
S2140017701A70DBE748F90200ABAAAAAAE0450020E7
S21400178084F9020098F90200D5B900202DE9F84343
S214001790E9B1054616468946234B01221A708F1C6E
S2140017A0224B83FB0737FFB2731EDBB2032B12D824
S2140017B006EB46085FFA88F8A8F10304E4B2884509
S2140017C000D9884631461A4814F0AAFD08E01948A0
S2140017D014F0A6FD22E0184814F0A2FD1EE0013425
S2140017E0A04515DD63000D33EA5CE31D15F81330E4
S2140017F043EA0223D80AC3F30221DAB2B742EED391
S214001800094B1B78002BEAD0E3B2FFF74FFFE6E761
S214001810C84505D23146094814F082FDBDE8F88374
S214001820074814F07DFDF9E7D6B900205655555502
S2140018302CFA0200D8F90200F4F9020048FA020075
S21400184068FA02002DE9F843E9B1054616468946CE
S214001850234B01221A708F1C224B83FB0737FFB2E3
S214001860731EDBB2032B12D806EB46085FFA88F825
S214001870A8F10304E4B2884500D9884631461A48E0
S21400188014F04EFD08E0194814F04AFD22E018480E
S21400189014F046FD1EE00134A04515DDA31D15F825
S2140018A0132061000D316B5C43EA0223D80AC3F3B0
S2140018B00221DAB2B742EED3094B1B78002BEAD0EE
S2140018C0E3B2FFF7F3FEE6E7C84505D2314609481E
S2140018D014F026FDBDE8F883074814F021FDF9E76B
S2140018E0D6B90020565555552CFA0200D8F90200F4
S2140018F0F4F9020048FA020068FA020008B501216D
S2140019005E4801F065F8002304220221184602F022
S2140019102BFD002304220321184602F025FD002398
S21400192004221146184602F01FFD0023042205215A
S214001930184602F019FD002304220B21012002F0B4
S21400194013FD002304220C21012002F00DFD0023CC
S21400195004220D21012002F007FD002304220E219F
S214001960012002F001FD002304220F21012002F0D5
S214001970FBFC002304220621022002F0F5FC0023D3
S21400198004220721022002F0EFFC00230422082193
S214001990022002F0E9FC002304220921022002F0C2
S2140019A0E3FC002304220A21022002F0DDFC0023CF
S2140019B004220B21022002F0D7FC00230422092176
S2140019C0032002F0D1FC002304220A21032002F0A7
S2140019D0CBFC002304220B21032002F0C5FC0023CD
S2140019E004220C21032002F0BFFC002304220E2157
S2140019F0032002F0B9FC002304220F21032002F08A
S214001A00B3FC002304221946052002F0ADFC002397
S214001A1004220121052002F0A7FC00230422022153
S214001A20052002F0A1FC002304220321052002F079
S214001A309BFC002304221146052002F095FC00239F
S214001A4004220521084602F08FFC0023042206210A
S214001A50052002F089FC002304220721052002F05D
S214001A6083FC012304220021084602F07DFC0123AA
S214001A7004221946002002F077FC08BD00350A0053
S214001A8010B50446012805D8013C054800EB44047F
S214001A90607810BD252103481BF0C4F9F4E700BFA9
S214001AA064100020A8FA0200004870476810002062
S214001AB010B50446032805D84CB1013C054800EB98
S214001AC0440010BD382104481BF0ACF9F4E7014887
S214001AD0F7E700BFF0FA0200C8FA020038B501F0D6
S214001AE0EDFC01210D4800F073FF0122114610465F
S214001AF001F01AFC0A4D0124C5F880402246214612
S214001B00204601F011FCC5F88440224621462046B6
S214001B1001F00AFCC5F88840002038BD30253E009C
S214001B2000400E4000B583B0214B01225A641A686B
S214001B3042F480721A6001A802F028FF9DF8053072
S214001B40012B2FD91B4B4FF41872C3F88C221A4A5C
S214001B50C3F89022194AC3F8F022194AC3F8F822AB
S214001B60184AD2F8A43143F4F843C2F8A43103F07B
S214001B703FFB00F0BFF803F0EBFA03F0FBFAFFF7C9
S214001B80ADFF28F01BFE00F0ABF800F08FF900F078
S214001B9043FE0AF06FF81BF0EFFE04F0CFF803B038
S214001BA05DF804FB9DF80430022BD9D9CAE700BFC4
S214001BB000000E4000400E409A6F05001801000419
S214001BC00084320800300E40012900D9704708B55D
S214001BD0034B1B68186808B1436A984708BD00BFE6
S214001BE0CC11002030B599B0274D11ACAC46BCE8FE
S214001BF00F000FC49CE8070084E8070000240B943D
S214001C000C940D940E940F941094204B0B93204B31
S214001C100C9301228DF8372002238DF839300323E8
S214001C208DF83B301E238DF83F308DF8403009ABE1
S214001C301C3595E8030083E803000DF10C0C0394B3
S214001C40049405940694079408948CE803000C23E7
S214001C508DF814300D238DF815300E4B0693202387
S214001C6007938DF820200C4B00930BAB11AA61460E
S214001C700A4803F059FD054621464FF4E13028F0A6
S214001C8069FA284619B030BDF8FA02000000014093
S214001C9000320400D847002080460020F847002085
S214001CA008B50349034804F0ADF8FFF79BFF08BDED
S214001CB0C4110020D047002008B5024828F074FF61
S214001CC008BD00BFF847002008B5024828F06CFFA2
S214001CD008BD00BFF847002000487047ACFB020074
S214001CE008B50121024800F073FE28F09DF908BDF2
S214001CF000350A0008B50121014800F069FE08BD5C
S214001D0000350A0008B500F087F8124A0AE01068A5
S214001D10516850F8230041F82300013391688B4244
S214001D20F5D30C320C4B9A4201D20023F6E70B4A4D
S214001D3008E01168002041F82300013351688B4207
S214001D40F7D30832064B9A4201D20023F6E7FEF795
S214001D508DFB00BFF0540300FC540300FC5403004A
S214001D60FC54030000487047C0175302114BD3F8C9
S214001D70943003F00703023B032B0DD8DFE803F093
S214001D80050F02080C4B18680BE00C4B186808E0AF
S214001D900B4B1868400804E0094B186801E04FF444
S214001DA00040044BD3F80031C3F304230133B0FBE7
S214001DB0F3F0704700400E40DC110020D4110020E4
S214001DC0D811002008B5FFF7D1FF054BD3F808312E
S214001DD0C3F308230133B0FBF3F0024B186008BDD1
S214001DE000400E40D0110020014B1868704700BF1D
S214001DF0D411002008B5064B1860064BD3F8943073
S214001E0003F00703022B00D008BDFFF7DBFFFBE75C
S214001E10D411002000400E40044B054A9A60D3F8C7
S214001E20882042F47002C3F88820704700ED00E076
S214001E3000000000014B1868704700BFDC1100204E
S214001E40174B9A6A02F1704303F5F813B3F5006F67
S214001E5011D2134BD3F82818A1F17E63A3F584336F
S214001E60B3F5605F07D212680E4B9A4207D0002384
S214001E7003708360704700230370836070470A68AE
S214001E80094B9A42F3D101230370054BD3F8282857
S214001E9092684260D3F828389B698360704700BF19
S214001EA00000E10FAD1007B007B0CD5E08B5114BCE
S214001EB0D3F82828A2F17E63A3F58433B3F5605FD8
S214001EC011D211680C4B994210D10C4B1B781BB1E8
S214001ED0022B01D0002008E0D369984728B9074BA9
S214001EE001221A7001E04FF4817008BD4FF4817032
S214001EF0FBE700BF0000E10F07B0CD5ED7B90020BA
S214001F004FF0005340F202221A804FF20F025A801E
S214001F100A4A01239360136823F4E06343F4806362
S214001F201360BFF34F8F0649CA6802F4E062054BA0
S214001F301343CB60BFF34F8F00BFFDE700500E404A
S214001F4000ED00E00400FA0508B50D4BD3F828288C
S214001F50A2F17E63A3F58433B3F5605F0AD2126BF9
S214001F60A2F17E63A3F58433B3F5605F05D2936870
S214001F70984701E04FF4817008BD4FF48170FBE78D
S214001F800000E10F08B50D4BD3F82828A2F17E63B8
S214001F90A3F58433B3F5605F0AD2126BA2F17E63B9
S214001FA0A3F58433B3F5605F05D25369984701E023
S214001FB04FF4817008BD4FF48170FBE70000E10F1D
S214001FC010B50A4BD3F82848A4F17E63A3F58433F2
S214001FD0B3F5605F04D2236B2BB15B6A984701E0D0
S214001FE04FF4017010BD4FF40170FBE70000E10FE5
S214001FF008B50D4BD3F82828A2F17E63A3F58433E9
S214002000B3F5605F0AD2126BA2F17E63A3F5843348
S214002010B3F5605F05D2936A984701E04FF401700C
S21400202008BD4FF40170FBE70000E10F30B5E1B0EA
S214002030124BD3F82838A3F17E63A3F58433B3F5A7
S214002040605F15D20C464FF4C0726946FFF7B8FFC2
S214002050054678B921466846FFF7CAFF40F20123D5
S2140020609842F7D040F20323984203D0054601E099
S2140020704FF40175284661B030BD00BF0000E10F87
S21400208010B50D4BD3F82848A4F17E63A3F584332E
S214002090B3F5605F0AD2246BA4F17E63A3F58433A4
S2140020A0B3F5605F05D2A36B984701E040F20110DC
S2140020B010BD40F20110FBE70000E10F08B50D4B24
S2140020C0D3F82828A2F17E63A3F58433B3F5605FC6
S2140020D00AD2126BA2F17E63A3F58433B3F5605F78
S2140020E005D2D36B984701E040F2011008BD40F2DC
S2140020F00110FBE70000E10F0346064A10680344A0
S214002100054A934202D8034A136070474FF0FF30E7
S214002110704700BFE01100200000012008B5012133
S214002120294800F055FC012304220221052002F074
S2140021301BF9002002F08EF80121244BC3F810187A
S2140021400A46042001F0F0F8214800F047FF214B32
S214002150D3F8F02042F00102C3F8F020D3F8FC20B8
S21400216042F08072C3F8FC20A3F55D431A4A1A6059
S21400217000F5D52000F2FC40C008184BA3FB003049
S214002180800A0138164B18610222C3F8F0204FF47B
S2140021908072C3F804234FF06043124AC3F8B02F8E
S2140021A0114AC3F8802ED3F8002E42F48072C3F88A
S2140021B0002EFF2283F82020D3F8002E22F480720F
S2140021C0C3F8002E002008BD00350A000080144227
S2140021D006000E0000ED00E0FF03004017916502C8
S2140021E0000004E055CEACC5090001004FF0604386
S2140021F0D3F8803E13F0010F01D1112070470E4A2C
S214002200D2F8FC3043F08073C2F8FC304FF06043E5
S214002210D3F8002E4FF0010C0CFA00FC42EA0C0238
S214002220C3F8002E53F82030002BE8D04FF0604360
S21400223003F820100020704700ED00E0F0B585B0F0
S2140022400C4694469DF83410664A1278002A00F030
S214002250BD800546BCF1070F00F2BA800A9A002A34
S21400226000F0B8800B9A002A00F0B6800E9AB2F5FD
S214002270006F00F3B38001285BD05B4A02EB0C12C0
S214002280127B002A00F0AC8000220092019202929B
S2140022900392564A02EB4C1E002C4FD14FEA4C16C6
S2140022A000209051CEF80400CEF80800CEF80C00BE
S2140022B09EF8020040F010008EF802009EF8030020
S2140022C040F030008EF8030021B9C1B241F003019E
S2140022D08EF8031000930E9B013B444A4FEA4C10C5
S2140022E002EB4C11165A63F30E1616520A9B8B60BD
S2140022F00B9B4B60CB789DF83C2062F38303CB703E
S214002300012D36D0109B002B56D0374A4FEA0C11C1
S21400231002EB0C1310985050119A5A6000249C60DF
S2140023205D7372466946604602F002F9204605B0C3
S214002330F0BD0C9A002AA0D12D48F8E72B4F4FEAA3
S2140023404C1607EB4C120020B85150609060D060DD
S214002350907840F010009070D07840F00300D07075
S2140023600029B7D107EB4C12C1B241F03001D17051
S214002370B0E70E460A7B42F001020A73D2B242F080
S21400238002020A73CA68042161F39F02F26006F132
S214002390100796E80F0087E80F00F2696FF0030158
S2140023A061F39F02F2610C9B7361012CAAD10B9A18
S2140023B0B2610C9A7260A5E7002DA6D10B4B03EB19
S2140023C04C139A786FF304129A709EE70948AEE7AA
S2140023D00748ACE70648AAE70548A8E70448A6E782
S2140023E00548A4E7D8B9002020480020A0480020CF
S2140023F0018000F0028000F0078000F0134B1B788D
S214002400FBB110B50446F0B127F057FF0023072BA9
S21400241013D80F4A02EB0312127B0AB10133F6E718
S21400242023600B4A190102EB031301241C730024DA
S214002430545027F048FF204602E027F044FF0548A6
S21400244010BD054870470548FAE700BFD8B9002018
S21400245020480020048000F0028000F0018000F098
S21400246038B527F02AFF04460023072B06DC0C4A63
S21400247002EB0312127B12B90133F6E7002222B1F7
S214002480204627F020FF074838BD02F005F8002553
S214002490054B1D70204627F016FF2846F4E700BFC0
S2140024A020480020058000F0D8B900200F4B1B788C
S2140024B0BBB110B50446072815D827F0FEFE0C4B16
S2140024C003EB04131B7B1BB927F0FDFE09480BE04A
S2140024D0074B03EB041300241C7327F0F4FE20467E
S2140024E002E005487047054810BD00BFD8B9002077
S2140024F020480020068000F0028000F0018000F0F6
S21400250000B583B0144B1B68019300238DF804308C
S21400251027F0D3FE114B1B7833B9104B01221A70EB
S21400252027F0D1FE002309E027F0CDFE0C480FE08F
S2140025300C4A02EB0312002111730133072BF7DD5F
S21400254004238DF807300DEB030001F0C7FF0020D1
S21400255003B05DF804FB00BF04FC0200D8B90020FD
S214002560038000F02048002008B50A4B1B785BB1BA
S21400257007280BD8084B03EB00131B7B43B1002145
S21400258001F0A2FF002008BD0448FCE70448FAE773
S2140025900448F8E7D8B9002020480020028000F060
S2140025A0018000F0078000F008B50A4B1B785BB18D
S2140025B007280BD8084B03EB00131B7B43B1012104
S2140025C001F082FF002008BD0448FCE70448FAE753
S2140025D00448F8E7D8B9002020480020028000F020
S2140025E0018000F0078000F008B50A4B1B7853B155
S2140025F007280AD8084B03EB00131B7B3BB101F0FE
S214002600EBFF002008BD0548FCE70548FAE705484B
S214002610F8E700BFD8B9002020480020028000F06C
S214002620018000F0078000F00F4B1B78A3B107284D
S21400263014D8A9B10D4B03EB00131B7B93B10C4BC5
S2140026401B6E012202FA00F0184002D00A70002029
S214002650704700230B70704706487047064870475F
S2140026600548704705487047D8B900202048002024
S21400267000200E40028000F0018000F0078000F08D
S2140026800C4B1B7873B110B50C4607280CD869B1F3
S214002690094B03EB00131B7B53B101F0B1FF207015
S2140026A0002010BD054870470548FAE70448F8E7DB
S2140026B00448F6E7D8B9002020480020028000F041
S2140026C0018000F0078000F0F8B5194B1F6EDB6E36
S2140026D01F4002D40125002402E0FEE701346D000D
S2140026E0072C24D83D42F9D0114B9D662301114A90
S2140026F0D358002BF2D002EB0416B1680131B1605A
S21400270072682046984780F00100C0B2737B012BA8
S214002710E4D10028E2D0084B03EB44131A7B6FF396
S21400272041021A731A7F6FF341021A77D6E7F8BD93
S21400273000200E4020480020A048002010B5044687
S21400274002E0202007E09047DCB194FAA4F00028CD
S214002750F7D0B0FA80F00123834024EA0304094B43
S21400276003EB00135A68002AEED0064B03EB001367
S2140027701B7B002BE7D0034B03EB001399689047B5
S214002780E2E710BDA049002008B5122000F04AFF7D
S21400279028B1084B4FF48022C3F880211A600A2023
S2140027A000F040FF28B1034B4FF48062C3F880214D
S2140027B01A6008BD00E100E038B505460C4627F073
S2140027C07CFD044B03EB05135C6000221A7327F0B4
S2140027D07AFD38BDA049002008B5064BD3F828047A
S2140027E0D3F81C24104000F05530C3F82404FFF73B
S2140027F0A5FF08BD00A0004008B5064BD3F8280486
S214002800D3F81C24104000F0AA30C3F82404FFF7C5
S21400281095FF08BD00A0004008B5034B1968034BA0
S21400282018681FF061F908BDE8110020E4110020C7
S214002830B0F1FF3F01D010B9704702487047024818
S214002840704700BF21E000F024E000F0F8B5054630
S2140028500E469400224627F0F6FDFFF7E9FF0746EE
S21400286028B92246314628462CF0FDFB08B93846E2
S214002870F8BD014FFBE700BF10E000F038B5044696
S21400288001F090FFFFF7D4FF054608B1284638BD93
S21400289002F0A2F80146204627F0B2FC0028F5D147
S2140028A0004DF3E70EE000F008B527F0FFFC014B03
S2140028B0186008BDC04E002008B5024B186827F007
S2140028C0F9FC08BDC04E00200C4B984205D90C4BB5
S2140028D0984210D801210A4601E000210A46094B19
S2140028E01A64094AD2F8003123F0807343EA016380
S2140028F0C2F80031704702210122F0E70048E801E3
S2140029000090D0030000C84300400E40014B1868FA
S214002910704700BF08120020114B5B68002300E0E0
S2140029200133042B0CD80F4A02EBC30292F804C002
S214002930CAB29445F4D10B4A52F833208242EFD300
S214002940052B0BD0074A02EBC3035979044A536898
S21400295023F0407343EA0163536070470321F5E7B1
S21400296000000E402CFC020008B5FFF7FFF9044BF0
S214002970D3F80031C3F3042303FB000008BD00BFF7
S21400298000400E4038B5084B1C6CA4B241F67135B9
S2140029901D64FFF7E7F90021FFF7BEFFAC4202D047
S2140029A0014B00221A6438BD00000E4038B5074BB4
S2140029B01C6CA4B241F671351D64FFF7ADFFAC4246
S2140029C002D0024B00221A6438BD00BF00000E4041
S2140029D010B4C0F30323013B092B21D8DFE803F032
S2140029E00508202030232620292D0024164A01E041
S2140029F00024164AC0F3043054B1134BD3F84431C4
S214002A0013F0010F04D1104BD3F840311C42FAD119
S214002A1002F1424303F5801300EBC300800001601F
S214002A205DF8044B70470124094AE3E71024094A7D
S214002A30E0E74FF48034084ADCE70024074AD9E789
S214002A400024074AD6E700BF00400E40C0400E40B4
S214002A50E0400E40E8400E40F0400E4050410E4030
S214002A60B0400E40C0F30313013B092B6BD8DFE8E0
S214002A7003F0050B111B6A6A2127415F334BD3F81D
S214002A800001C0F304207047304BD3F81401C0F3A4
S214002A90042070472D4BD3F80001C0F30060431CA0
S214002AA00120984001387047284BD3F80C01C0F33A
S214002AB008207047254BD3F80801C0F3082070475C
S214002AC0234B984204D0234B98420AD000207047EC
S214002AD01E4BD3F8203103F00F0301209840013835
S214002AE070471A4BD3F82031C3F3011301209840E6
S214002AF001387047184B984207D003F5B01303F51A
S214002B00805398420AD000207047104BD3F82831E3
S214002B10C3F3011301209840013870470B4BD3F8DC
S214002B202801C0F30120031D01209840013870479A
S214002B300A4B984201D000207047044BD3F830016E
S214002B4000F0030070470020704700BF00400E40B2
S214002B508006160080162E0090171A00A009140092
S214002B6010B50C46C0F30313013B092B2FD8DFE842
S214002B7013F00A002F0039004A002E002E005600DF
S214002B807600CF001501FFF7FDFE9148FFF79CFE8B
S214002B90904BD3F8001121F4F85141EA0421C3F810
S214002BA00011FFF70FF98C4BDB6B13F0400F04D1CD
S214002BB08A4BD3F8C830002BFAD1874B5968C1F33B
S214002BC00141FFF7F3FEFFF7D1F8FFF77DFE10BDDA
S214002BD0804BD3F8141121F4F85141EA0421C3F8CC
S214002BE01411F4E769B1B1FA81F1C1F11F04794B10
S214002BF0D3F8001121F0807141EA0461C3F8001196
S214002C00E5E72021F1E7734BD3F80C1121F4FF31EF
S214002C1021F4807141EA0421C3F80C11D7E7FFF7CD
S214002C20B1FE6C4BD3F8081121F4FF3121F480710A
S214002C3041EA0421C3F80811FFF7C4F8664BDB6BC2
S214002C4013F0400F04D1654BD3F8C830002BFAD1EF
S214002C50614B5968C1F30141FFF7A8FEB7E7604B27
S214002C6098421AD05F4B984234D05F4B9842AED110
S214002C70584BD3F8443113F0010F05D1554BD3F818
S214002C80403113F4802FF9D1524BD3F8301121F094
S214002C9003012143C3F8301199E7013118D0B1FA86
S214002CA081F3C3F11F024B4BD3F8443113F0010FED
S214002CB005D1484BD3F8403113F0040FF9D14549FC
S214002CC0D1F8203123F00F031343C1F820317EE7FB
S214002CD02023E6E7013119D0B1FA81F3C3F11F02D0
S214002CE03C4BD3F8443113F0010F05D1394BD3F8E0
S214002CF0403113F0040FF9D13649D1F8203123F0D2
S214002D00300343EA0213C1F8203160E72023E5E7E9
S214002D10364B984222D003F5B01303F58053984201
S214002D207FF455AF013137D0B1FA81F3C3F11B02FE
S214002D30284BD3F8443113F0010F05D1254BD3F8B7
S214002D40403113F0400FF9D12249D1F8283123F44D
S214002D50407343EA0223C1F8283138E7013119D01D
S214002D60B1FA81F3C3F11F021A4BD3F8443113F0C2
S214002D70010F05D1174BD3F8403113F0400FF9D1AE
S214002D801449D1F8283123F0300343EA0213C1F87E
S214002D9028311CE72023E5E72023C7E7124B98429B
S214002DA07FF415AF0B4BD3F8443113F0010F05D168
S214002DB0084BD3F8403113F4802FF9D1054BD3F8E4
S214002DC0301121F003012143C3F83011FFE600BFA4
S214002DD00148E80100400E4000300E400000C643A7
S214002DE08006160080162E00A009140090171A0000
S214002DF000F00F000138072865D8DFE800F0041B54
S214002E002A643E4D64553B4BD3F8943003F00703D9
S214002E10023B052B0CD8DFE803F0055803070B0927
S214002E2002207047042070470B2070470C20704724
S214002E30052070472F4BD3F8803003F00703022B92
S214002E4045D0042B45D0012B01D00120704703202C
S214002E507047284BD3F8843003F00703013B032B5D
S214002E6009D8DFE803F002380604032070470A207A
S214002E70704706207047012070471E4BD3F88830F5
S214002E8003F00703022B28D0042B28D0012B01D0F7
S214002E900120704703207047164B1B6F13F0010389
S214002EA01FD003B309207047124BD3F85C3103F0F0
S214002EB03003202B19D0302B19D0102B01D0012035
S214002EC07047072070470020704703207047022095
S214002ED070470A20704702207047022070470A2079
S214002EE0704707207047012070470420704708206D
S214002EF0704700BF00400E4010B50446FFF778FF4D
S214002F001B4B9C4212D01B4B9C4215D01A4B9C422A
S214002F1006D00138032828D8DFE800F014171D1A59
S214002F20164BD3F8800000F00700F2E7134BD3F8F7
S214002F30840000F00700ECE7104BD3F8880000F0A0
S214002F400700E6E727F016F910BDFEF773FFFBE76C
S214002F5027F013F9F8E7FEF709FF084BD3F800311E
S214002F60C3F300630133D840EEE70020ECE700BF70
S214002F70030020000500240002001E0000400E4052
S214002F8008B50748FFF734FF072804D0092805D1FD
S214002F90FEF7ECFE03E0FFF7B9FC00E0002008BDFA
S214002FA006000E0008B10020704710B504460A4817
S214002FB0FFF71EFF072805D0082809D0042804D0EC
S214002FC0204610BDFFF7A2FCFBE7FEF70DFFF8E773
S214002FD0FFF7CAFCF5E700BFB800320038B500F4CA
S214002FE07813B3F5B01F00F0938005463BD8B3F5D1
S214002FF0402F00F0828010D9B3F5801F00F0AA8021
S214003000B3F5A01F27D15748FFF776FF564BD3F8E6
S214003010303103F00303D8401CE0B3F5802F61D0B5
S21400302005D9B3F5202F14D1FEF7A0FE12E0002B31
S21400303055D0B3F5003F0AD1FEF798FE4A4BD3F8B9
S2140030400831C3F308230133B0FBF3F002E000209D
S21400305000E0002038BDB3F5602F02D1FFF790FFE7
S214003060F8E70020F6E7B3F5381F5BD00ED9B3F5C6
S214003070481F72D0B3F5781F21D1FEF777FE0446BD
S214003080284627F00CF9B4FBF0F0E3E7B3F5001F91
S21400309052D006D9B3F5101F0FD13248FFF72CFFD8
S2140030A0D8E7B3F5D01F4BD0B3F5F01F03D12F48A8
S2140030B0FFF722FFCEE70020CCE70020CAE7B3F5F3
S2140030C0401F0AD12A48FFF717FF274BD3F82831AD
S2140030D0C3F301230433D840BCE70020BAE7FEF769
S2140030E045FEB7E7FEF742FE1F4BD3F80C31C3F39D
S2140030F008230133B0FBF3F0ACE7FEF737FE1A4BBC
S214003100D3F81431C3F304230133B0FBF3F0A1E783
S2140031101648FFF7F1FE144BD3F8203103F00F03E7
S214003120D84097E71148FFF7E7FE0F4BD3F820315A
S214003130C3F30113D8408DE70D48FFF7DDFE89E79E
S2140031400B48FFF7D9FE084BD3F82831C3F3011319
S214003150D8407FE7FFF7DAFB7CE70020FFF722FF87
S21400316078E700BF0500240000400E4002001E0065
S2140031700300200008B5FFF705FC0D4B07225A6731
S214003180FEF7F4FDFFF7A0FBFEF71CFE094BDB6B1A
S21400319013F0400F04D1084BD3F8C830002BFAD1F7
S2140031A0044B5968C1F30141FFF700FC08BD00BF9E
S2140031B000400E4000300E400000C643014B188011
S2140031C0704700BF3A1500200138032818D8DFE8FA
S2140031D000F00211070C0B4B186AC0F3080070478A
S2140031E0084B186900F07F007047064B986900F09E
S2140031F07F007047034BD3F89C00C0F30A0070476B
S2140032000020704700400E4038B50C4601380328B1
S21400321012D8DFE800F0022E1220C1F308041F4B7C
S214003220D3F86838002BFAD11D4A136A23F4FF73CB
S21400323023F001032343136238BD01F07F04174BCC
S214003240D3F86038002BFAD1154A136923F07F03B0
S2140032501C431461F0E701F07F04104BD3F8643888
S214003260002BFAD10E4A936923F07F031C43946126
S214003270E2E70B4DD5F890306B6A23F0300343F04D
S21400328010036B62C1F3C31027F003F82A6B054BDB
S2140032901340234303432B63CEE700BF0020C843FD
S2140032A000400E4000F8FF0F134B5B6A13F0300F20
S2140032B009D0202914D0302915D009B10F4A04E0CE
S2140032C04FF4400201E04FF440020B4BD3F890302D
S2140032D032EA0303F9D112F4800F07D101207047B8
S2140032E04FF40002F1E74FF44002EEE7024BD3F84A
S2140032F0A000C0F38020704700400E40FF33E13F3F
S214003300022801D00120704710B529B1054B4FF4B3
S2140033108064C3F8A84059660AB9012010BDFFF7BB
S214003320C3FFFBE700400E4070B5042800F285801E
S214003330DFE800F0484250033C0002230125002449
S214003340AC46002967D002284AD000213B4B1D66B8
S2140033503B4B23449B001B68002BF9D0002A6CD003
S214003360374C6444A4002368002BF9D0022864D1AB
S214003370002962D0314B5B6A13F0010F46D0012260
S2140033802021FFF7BDFF0220FFF71EFF06460122A1
S21400339000210220FFF7C8FF31460220FFF734FF66
S2140033A0264B1D662368002BFCD046E02023102504
S2140033B004244FF0050CC4E78023402506244FF074
S2140033C0070CBEE74FF400734FF4807508244FF0E7
S2140033D0090CB6E70823042502244FF0030CB0E7D7
S2140033E0164B5B6A13F0300F0ED1164BDB6B134B8C
S2140033F05B6A13F0010FA9D0104E736A23F03003F6
S21400340043F010037362A1E700219FE7002102202A
S214003410FFF74AFFB7E709490B66084BD3F8901049
S2140034200123A3401942F8D13AB1044BD3F89020B7
S214003430012303FA0CF31A42F7D170BD00400E4088
S2140034408004F21000300E4010B50446F0B101289A
S21400345021D0FFF797FA24BB154B04225A67FEF7D4
S21400346085FCFFF731FAFEF7ADFC124BDB6B13F071
S214003470400F04D1104BD3F8C830002BFAD10D4BB7
S2140034805968C1F30141FFF791FA10BD01221146B8
S214003490FFF74AFFDDE7012211461046FFF744FF1B
S2140034A0D7E7012CDBD1024B03225A67D7E700BFD0
S2140034B000400E4000300E400000C64310B5FEF738
S2140034C093FC0446002100F03FFC1A48FFF7FCF985
S2140034D0012211460220FFF727FFFFF753FA4CB1EF
S2140034E0154BDB6B13F0400F04D1144BD3F8C830E8
S2140034F0002BFAD1124B02225A67FEF737FCFFF771
S214003500E3F9FEF75FFC0C4BDB6B13F0400F04D1C6
S2140035100A4BD3F8C830002BFAD1074B5968C1F3D1
S2140035200141FFF743FA04B110BD0121002000F06D
S2140035300BFCF9E70148E80100300E400000C643E6
S21400354000400E4008B5012211460320FFF7ECFEAE
S214003550FFF718FA0C4B05225A67FEF707FCFFF731
S214003560B3F9FEF72FFC094BDB6B13F0400F04D1C9
S214003570074BD3F8C830002BFAD1044B5968C1F377
S2140035800141FFF713FA08BD00400E4000300E4020
S2140035900000C64370B504461120FFF729FC01223F
S2140035A000210220FFF7C0FE237C022B2AD0002237
S2140035B0154E736A23F00103134373622278134B8C
S2140035C0C3F8A024A288637A43EAC223F362356B69
S2140035D005F07F65E38845EAC325A37A1D43207A74
S2140035E045EAC01526F055FE05433563627BA37B8E
S2140035F01B0143EA0233E27B1343227B43EA024386
S214003600736370BD0122D3E700400E400000C8433C
S214003610034B5868C0F30800003818BF01207047F5
S21400362000ED00E04209064B53F8223000F01F0080
S21400363023FA00F080F0010000F00100704700BFA0
S21400364000E100E0114BDB6B13F0400F1DD10F4B78
S214003650DB6B13F0400F04D10D4BD3F8C830002BB2
S214003660FAD10A4B1A68C2F301225B68C3F301431E
S2140036709A4205D9054A136843F010031360704751
S214003680024A136823F010031360704700300E40A0
S2140036900000C643074B1B6813F0100F05D0064BFF
S2140036A01B69C3F30443082B00D07047034B044A3E
S2140036B01A60FAE700300E4000400E40D811002095
S2140036C0C0EA21011A48C26CC2F30322194B1B88B8
S2140036D003F1280103EB51032833013202EB820188
S2140036E0B3FBF1F3013B072B28BF0723C16C21F086
S2140036F0EE6141EA036343F48013C3640E4BB3F9EF
S2140037000030002B13DB9BB203F1280103EB5103BF
S2140037102833510801EB4202B3FBF2F3072B28BF14
S2140037200723026D22F0700242EA03130365704716
S21400373000300E409EB90020A0B90020024B188031
S214003740024B1980704700BF9EB90020A0B9002028
S21400375010B1012804D07047034B044A9A6570479D
S214003760014B034A9A65704700300E407740205759
S214003770372110B71A4BD3F83032032929D8DFE89F
S21400378001F002121518DBB24AB91B0333F470417C
S21400379021D11448C16E21F470411943C166012A33
S2140037A009D001207047C3F30723EDE7C3F30743AF
S2140037B0EAE71B0EE8E71B0333F470420DD1094914
S2140037C0D1F8E02022F470421343C1F8E030012023
S2140037D0704700207047002070470020704700BFE9
S2140037E00081E00F00300E401B02A2B101221343FD
S2140037F0B3F5007F4DD022D8B3F5807F42D00CD9E8
S21400380040F20112934215D1294BD3F824321A0EF6
S214003810C3F3074310E00022E9E763B3012B06D1A8
S214003820234BD3F82432C3F30722DBB204E0002292
S214003830134601E00022134603600A607047B3F5A2
S214003840407F2DD040F20132934206D1184BD3F878
S21400385028321A0EC3F30743EEE740F201229342E2
S21400386006D1134BD3F82832C3F30722DBB2E3E7C3
S21400387000221346E0E70E4BD3F81C32C3F30722B0
S214003880DBB2D9E70A4BD3F81C321A0EC3F3074350
S214003890D2E7074BD3F82032C3F30722DBB2CBE7DD
S2140038A0034BD3F820321A0EC3F30743C4E700BF16
S2140038B00081E00F03285CD8DFE800F002213448DE
S2140038C0334BD3F8F021C2F3031C0CEB8C0C02F044
S2140038D00F0303EB4C0CC2F3033303EB8300C2F37A
S2140038E0032303EB4003B3EB0C0306D0294AB2FBD9
S2140038F0F3F000FB0CFC93423ED908467047244B7D
S214003900D3F8F021C2F3035C0CEB8C0CC2F3034338
S21400391003EB4C0C130F03EB8300C2F3036303EBC0
S2140039204003E0E71A4BD3F8F421C2F3031C0CEB78
S2140039308C0C02F00F0303EB4C0CC2F3033303EBC7
S2140039408300C2F3032303EB4003CCE7104BD3F80A
S214003950F421C2F3035C0CEB8C0CC2F3034303EBC1
S2140039604C0C130F03EB8300C2F3036303EB40031B
S214003970B9E700239C46B6E7ACF5353CACF5247CAD
S214003980642303FB01C101EB500CBCFBF0F0704755
S2140039900081E00F80B5010010B5002850D0504BD4
S2140039A0DB6B13F0400F07D14E4B1B78C3F10202BE
S2140039B0102393404A4A13614B4AD2F8804104F0E0
S2140039C0010445F60E03C2F88031484B1B6803F02D
S2140039D0010003F01001084303F04001084303F020
S2140039E00401014303F480730B4313663C4BDB6B0B
S2140039F013F0400F04D13E4BD3F8C830002BFAD159
S214003A00374B1B6813F0100F0DD0374BD3F84031EF
S214003A1013F0807FF9D1374B1A68334B1A61364B57
S214003A201B78052B2BD0344B1B78023B0A2B3CD83B
S214003A30DFE803F038494D3B3B3B3B3B3B505300F4
S214003A40294BD3F89020294B1A601120FFF7D0F9A4
S214003A50294B1870224BDB6B13F0400F04D1244B1C
S214003A60D3F8C830002BFAD11D4B5B68C3F3014373
S214003A701C4A13701C4B1A691E4B1A6022E01F4B1F
S214003A801868174BDB6B13F0400F04D1184BD3F8B4
S214003A90C830002BFAD1124B5968C1F30141FEF72A
S214003AA085FFC0E70020FFF7CFFC104B1B6813F024
S214003AB0010F02D10C4B02221A661CB10A4B0022DF
S214003AC0C3F8802110BD0120FFF7BEFCEDE7FFF72D
S214003AD0F5FCEAE7FFF736FDE7E7FFF74BFBE4E721
S214003AE000300E40DAB9002000400E40744F00202F
S214003AF00000C643784F0020D9B90020D811002016
S214003B00074A136823F44073417843EA012313609D
S214003B104378022B00D07047024B5B6AFBE700BF7E
S214003B2000300E4000400E4038B5044608BBFFF794
S214003B3089FD194A136943F00403136126F007FC54
S214003B4026F006FC154B1B6813F0100F15D130BF7E
S214003B5026F0FFFB02F0F8FAC4B10120FFF71CFFC5
S214003B600E4AD2F84C3123F00043C2F84C3184B1EF
S214003B7038BD0020FFF710FFD9E726F097FB054673
S214003B802BF0BAFC284626F095FBE1E7FFF782FD0E
S214003B90E6E7FEF717F9EBE700ED00E000300E4031
S214003BA038B5044668BBFFF74DFD1F4BD3F88021A0
S214003BB045F60E01C3F880114FF42071196612F015
S214003BC0010F02D00022C3F88021184A136943F07F
S214003BD00403136126F0BBFB154B1B6813F0100F94
S214003BE013D130BF02F0B0FAC4B10120FFF7D4FE03
S214003BF00F4AD2F84C3123F00043C2F84C3184B15E
S214003C0038BD0020FFF7C8FECDE726F04FFB05467F
S214003C102BF072FC284626F04DFBE3E7FFF73AFD53
S214003C20E6E7FEF7CFF8EBE700400E4000ED00E0D9
S214003C3000300E40134B9A6922F03F020378D3B14E
S214003C4004234178C9B102210B438178B9B1082118
S214003C500B43C178012900D000210B4301790B43A7
S214003C601343084A9361136823F44033417943EAC7
S214003C700143136070470023E3E70021E4E70021D7
S214003C80E6E700BF00300E4038B50D4B9C6924F4C3
S214003C90403444F400349D6945F440354AF6E85211
S214003CA09A6026F061FB26F060FB002303E0044ADE
S214003CB0946195610133032BF9DD014B9C6138BD9E
S214003CC000300E401D4BDB6B13F0400F35D170B546
S214003CD004460D46194BDB6B13F0400F04D1184B0E
S214003CE0D3F8C830002BFAD1144B5B68C3F30143FA
S214003CF09C4218D0134BD3F80031FEF737F806462F
S214003D00022C11D0C4F10202102393400B4A136117
S214003D1045B1D36B13F0400F04D1094BD3F8C8302C
S214003D20002BFAD124B170BD0221FEF73FFEE9E771
S214003D3000213046FEF73AFEF5E7704700300E40A9
S214003D400000C64300400E4038B5114BDB6B13F045
S214003D50400F0BD10C4650B10E4B1B7813B10E4BD7
S214003D6098420FD921460020FFF7ACFF38BD0B4B19
S214003D70D3F80001C0F30420451CFDF7F7FF05FB50
S214003D8000F0E9E721460220FFF79CFFEEE700BFC0
S214003D9000300E407C4F0020002D310100400E40C8
S214003DA008B50278034B1A7001210020FFF7CCFFFC
S214003DB008BD00BF7C4F002010B41E4B5A6B4AF65D
S214003DC0E85159631B4B9B6F13F0010FFAD1194B47
S214003DD01B6C13F0030303D017490124C1F8B44A3F
S214003DE0DBB283421AD0134B9B6F13F0010FFAD14C
S214003DF010490B6C23F0030303430B640D4B9B6FBE
S214003E0013F0010FFAD1003818BF01200A4BC3F88F
S214003E10B40A012A09D05DF8044B70470028FAD18D
S214003E20054B0022C3F8B42AF5E7024B00225A637A
S214003E30F1E700BF00300E400000C6432DE9F04F0A
S214003E408DB000910192002309930A930B93069379
S214003E5007930893039304930593664A1288ADF874
S214003E6008208DF80A30A0F5E163B3F5966F00F2EE
S214003E70B0800646B0F5E16F8CBF4FF001094FF0F9
S214003E8000096FD94FF496644FF4E165B6F5E16F1B
S214003E906DD9594BD3F8183208931A0E0592C3F30E
S214003EA007430893DFF85481D8F84C70C7F30177BE
S214003EB08DF808703B464A4603A906A8FFF794FC0F
S214003EC0D8F8E030C3F301288DF8098043464A4607
S214003ED004A907A8FFF788FC721B089B0599C91A56
S214003EE002FB01F1B1FBF4F10B9119440B91DDF8E3
S214003EF00CA0DDF818C0AAEB0C0502FB05F5B5FB17
S214003F00F4F5099565440995DDF810E00798AEEBE1
S214003F10000B0BFB02F2B2FBF4F40A9404440A947E
S214003F20059A8A4259D38B4259D8A64559D3A042FE
S214003F3059D8AA4559D3AC4559D8019B73B12F4BD4
S214003F40DB6D23F4FE4323F0020343EA0123B6F5B8
S214003F50E16F16D902210B43284AD365009B93B91B
S214003F60012037E04FF416744FF496658EE7224B27
S214003F70D3F818320893C3F307220592DBB20893EE
S214003F8090E70021E7E7002239464846FFF7F2FBB4
S214003F9000B3012241464846FFF7ECFBD0B1AC42E5
S214003FA038BF2C460994E72C28BFE7240994134B06
S214003FB05B6E23F4FF7323F0010343EA4403B6F574
S214003FC0E16F04D9012213430C4A536602E0002233
S214003FD0F9E700200DB0BDE8F08F0020FAE70020DA
S214003FE0F8E70020F6E70020F4E70020F2E70020DC
S214003FF0F0E700BF54FC02000081E00F00300E40E6
S21400400008B5214B1A6FDB6C13F0010F09D012F0C4
S214004010060F06D013281FD9143813281ED80823D5
S21400402023E0194BDB6C13F0010F09D112F0060FD9
S21400403006D1092814D90A38092813D8082314E009
S214004040114BDB6C13F001030FD012F0060F0BD1EF
S214004050272817D8082308E0042306E0102304E0E6
S214004060042302E0102300E00023013B1A0342EA87
S21400407003220549CB6C23F47F431343CB64FFF73D
S21400408021FB08BD1023F0E700300E4008B5074BB3
S214004090D3F88039064A136F23F0070303431367E8
S2140040A0044B1888FFF7ACFF08BD00BF0000C643EE
S2140040B000300E409CB9002008B5084AD36E43F085
S2140040C08073D366064BD3F880391BB10420FFF704
S2140040D0DDFF08BD0020FFF7D9FFFAE700300E40ED
S2140040E00000C64338B50446B0F90C10C3884A2B06
S2140040F009D9B3F5FA7F33D340F6C312934232D8C8
S2140041004FF0005200E00022224BDB6C23F04053BD
S21400411023F00103002929DB01210A4313431D4A2A
S214004120D364D2F8E03043F44073C2F8E030A2889B
S214004130194B1A80FFF7C0FFB4F90C102089FFF75F
S214004140FDFAA088FFF75CFFA07BFFF701FB0122CA
S21400415011466088FFF772FE054648B9284638BD06
S2140041604FF08052D0E74FF04052CDE70021D4E721
S214004170084AD36B43F48063D3636078FFF71CFE72
S214004180A37A202B04D00022044BC3F89427E5E73B
S2140041900122F9E700300E409CB900200000C6431B
S2140041A038B5054641680078FFF784FB0446A968E1
S2140041B02878FFF77FFB2B7823BB164AA2FB041355
S2140041C0D90801EB8103A4EB43031B0443EA015324
S2140041D0A2FB0012D20843EA023302EB8202A0EBF3
S2140041E0420243EA02232A7B6AB1042213436A7B13
S2140041F05AB108221343AA7B4AB101221343064A46
S214004200C2F8903038BD0022F0E70022F2E7002224
S214004210F4E700BFCDCCCCCC00300E4003280AD843
S214004220DFE800F0020E0A0C064B03F1424303F5EA
S21400423080135B0119607047034BF6E7034BF4E706
S214004240034BF2E790300E4098300E409C300E4004
S21400425094300E40044AD2F8443423F00303034358
S214004260C2F84434704700BF00A000402DE9F84370
S2140042700C4615461E46072A41D893004FF00F08F5
S21400428008FA03F800FA03F726F010F8324AD2F8D4
S214004290001487EA010303EA08034B40C2F800341F
S2140042A026F008F84FF00008072D3FD8A90003278E
S2140042B08F4004F003048C4025F0F8FF264BD3F81B
S2140042C0082454403C405440C3F8084425F0F2FF0C
S2140042D0224B2B449B001E60214B2B449B009DF8D9
S2140042E020201A600123AB401B4AC2F824341D4B21
S2140042F02B449B009DF824201A60BDE8F883A2F1A9
S21400430008084FEA88030F2707FA03F900FA03F7AD
S21400431025F0CCFF104BD3F80424574007EA0907D2
S2140043205740C3F8047425F0C5FFBDE74FEA880878
S214004330032707FA08F704F0030404FA08F425F044
S214004340B5FF054BD3F80C2454403C405440C3F80A
S2140043500C4425F0AFFFBBE700A00040802085108E
S214004360A0208510402185102DE9F04704460E4612
S2140043701F4690463AB183B300EB40010901012283
S214004380B2402D4B5A50072E2FD804EB44031B0186
S214004390DFF8AC909944B3004FF00F0A0AFA03FA1C
S2140043A008FA03F525F082FFD9F8002085EA020313
S2140043B003EA0A035340C9F8003025F07BFFB8F142
S2140043C0000F08D177B304EB44042401012101FA5D
S2140043D006F6194B1E51BDE8F08700EB40010901B7
S2140043E00122B240154B5A50CDE704EB44031B01A3
S2140043F0DFF850909944A6F1080292004FF00F0A99
S2140044000AFA02FA08FA02F525F050FFD9F8003049
S21400441085EA030202EA0A025A40C9F8002025F09B
S21400442049FFCCE704EB44042401012101FA06F617
S214004430024B1E51CFE700BF0CA000460CA0004464
S21400444004A0004008A00040114BD3F8182422EA2C
S2140044500002C3F81824D3F8182401400A43C3F80E
S2140044601824D3F82C240243C3F82C2403F559232C
S2140044709B6903F03003202B06D0064A936923F08D
S214004480300343F010039361014BC3F824047047D4
S21400449000A0004000300E4008B5094B4FF40072F3
S2140044A0C3F88020BFF34F8FBFF36F8F054B0021FB
S2140044B0D96619624FF4AA40FEF78AFA08BD00BF13
S2140044C000E100E000200E4081F00101024B0344B1
S2140044D09B001960704700BFA001F11010B504469C
S2140044E001214FF4AA40FEF773FA23786178A27888
S2140044F042EA012242EA03620B4B1A6000221A6269
S214004500DA625A634FF00042DA664FF0FF329A667C
S214004510064A4FF40071C2F88011E3785B01DBB203
S21400452082F80933116010BD00200E4000E100E063
S21400453070B50C46C3B201259D40254EB5660B6886
S21400454000EB400106EB0111C1F88030637BC1F837
S214004550883094F80AC0E37A1B0543EA0C4394F8C3
S2140045600CC043EA4C53C1F8843022F00302C1F871
S214004570982025F0A2FEF36E2B43F366237A13B140
S214004580736B2B437363637A1BB1114AD36A2B4355
S214004590D3620F4B1B68227922B1D243120262F417
S2140045A07F42134062790AB143EA0223A2791AB124
S2140045B0D24362F0FF021340E27902B11343044A89
S2140045C01360044B9D62D56325F07DFE70BD00BF71
S2140045D000200E4000200E4410B5C0B201248440D6
S2140045E025F06BFE044AD36E23EA0403D366034B1E
S2140045F01C6225F068FE10BD00200E4000200E4410
S21400460010B5C0B20124844025F057FE084B1B6A43
S214004610234206D1064B9B6A34EA030306D00024E5
S21400462000E0002425F04FFE204610BD0124F9E7E7
S21400463000200E40054B5A685B68054B41F6713208
S2140046401A649A6822F001029A60704700300E40A1
S21400465000000E40034B9A6822F001029A60002286
S2140046601A64704700000E400C4B0D4AD26912F0D7
S214004670010F02D00BB1013BF7E74BB1084B1861B5
S2140046800122DA60DB6913F0040F04D100207047C2
S2140046906FF0020070474FF0FF307047809698002A
S2140046A000000E408C46D1B900207047DBB1114B9C
S2140046B0DB6913F0020F19D1614512D250F8042BB2
S2140046C00C4B9A6101310822DA600B4B094AD26919
S2140046D012F0010FEAD0002BE8D0013BF6E70021EC
S2140046E0EAE7002070476FF0020070476FF00100A5
S2140046F0704700BF00000E40809698002DE9F047F6
S21400470080460E46254B196C1FFA81F941F6713129
S2140047101964234948684968996841F0010199601D
S214004720970800231D4614E01C498A6822F00102FF
S2140047308A60B9F1000F2DD00A460021116429E0E5
S21400474051463046FFF7AEFF0346C0B9554406EB68
S2140047508A06BD4213D208EB85042046FFF784FF85
S21400476003460028E0D1C4F30A04C4F50064A30895
S214004770A7EB050ABAEB940FE2D39A46E0E707499F
S2140047808A6822F001028A60B9F1000F02D00A4658
S214004790002111641846BDE8F08700BF00000E40F7
S2140047A000300E4010B42B4B196C89B241F67132B2
S2140047B01A64294A546852689A6842F001029A605C
S2140047C018610122DA60DB6913F0040F0BD1214B6C
S2140047D00222DA60214B1F4AD26912F0010F0ED076
S2140047E06BB1013BF7E71B4A936823F00103936024
S2140047F011B1134600221A644FF0FF300DE0154A3F
S214004800D26912F0020F0BD1B3B1124A936823F0AB
S21400481001039360E1B1002010645DF8044B70471B
S2140048200C4A936823F00103936011B113460022EB
S2140048301A646FF00100F0E7064A936823F001035C
S214004840936011B1134600221A646FF00200E4E789
S2140048500020E2E700000E4000300E4080969800F0
S214004860014B01229A60704700500E4010B4184B5E
S2140048705C68002318460BE0B2F5803F21D0154A4D
S21400488052F83320224202D0214200D11043013395
S214004890082B19D80F4A02EBC30251680E4AD2F809
S2140048A0E82112F0040FEAD10A4A52F83320B2F592
S2140048B0006F06D0E0D8B2F5007F02D0B2F5806F68
S2140048C0DDD141F48071DAE75DF8044B704700BF34
S2140048D000500E4058FC02000040E00F4A790B786A
S2140048E091F801C043EA8C0391F802C043EA8C13A6
S2140048F091F803C043EA0C1391F804C043EACC23B2
S21400490043EA02338A7943EA424304300001014A0B
S2140049101350704700200440014B1860704700BFDA
S21400492000008442037813B3012342780AB30422BA
S21400493013438278FAB110221343C278EAB12022D8
S2140049401343027943EA0223427943EA0233827927
S214004950AAB14FF400421343C27943EA0243027AF3
S2140049607AB14FF400321343074A136070470023AE
S214004970DBE70022DCE70022DEE70022E0E7002299
S214004980E9E70022EFE700BF002004400D4AD2F816
S214004990E4309B0003F03C03D2F8E010C1F3811131
S2140049A00B438370D2F8E03003F03F034370D2F835
S2140049B0E83003F0F003D2F8EC20C2F303121343FE
S2140049C00370704700FF0FE0024BD3F8F000D3F8F7
S2140049D0F41070470081E00F044BD3F8E4301B0E50
S2140049E00A3303F01F030120984070470081E00F50
S2140049F0024BD3F8FC0080B2704700BF0081E00F86
S214004A00024BD3F8FC00C0F3074070470081E00F6C
S214004A1070B5054616461C460846D1B1402C20D037
S214004A201BD804B3202C13D1082106FB01F14B0838
S214004A3003EB4013B3FBF1F3203B0C4A02EAC3033B
S214004A402A6822F060022A602A6814432C606B6190
S214004A5070BD0748FEF7C2FAE0E7602CF8D10421E3
S214004A60E3E70621E1E71021DFE700BFF8FF7F005C
S214004A704041050040F6AA63C3600023036041F28C
S214004A800502426083604361C3640F4A8264036622
S214004A9043678367C3670D4B984207D003F580636F
S214004AA0984203D003F58063984201D10023036542
S214004AB00023836503F1804303F58233984200D0D8
S214004AC070470023C365FBE7F9FF010000000140C3
S214004AD038B5044629F04BFB054DA446BCE80F004C
S214004AE00FC59CE80F0085E80F00002038BD00BF0A
S214004AF0804F002047F6FF739A427AD002297AD870
S214004B0070B53F4B03EBC1008078012838BF012009
S214004B10844613F83130012B24D0394B03EBC10304
S214004B205C68002C69D0B4F90030934204DBB4F919
S214004B300230934200DC1346A288FF2A2DD00025BF
S214004B402826C8229E46D21A92FBF6F22A4412B2B1
S214004B502B4B03EBC1014D78954201DD002A31DA7B
S214004B606A1E2FE0264B03EBC103DB78181A0025DC
S214004B7085420FD2431BA0EB5303214C04EBC10E1E
S214004B80DEF8044034F91340944201DC1D46EFE79A
S214004B90581EEDE76044C0B22AE0B4F90620B4F926
S214004BA008600125CEE75C331649A1FB03139B0979
S214004BB0013212B2164695420FDD04EBC201898817
S214004BC099420AD304EBC2018B68B1F9061001FBC7
S214004BD00E33002BE7DA0023E5E7721E04EBC20271
S214004BE092889A4200D31A46624500D31046C0B255
S214004BF070BDFF207047002070470020F8E700BF18
S214004C00804F0020D34D621008B50348FFF760FFC1
S214004C10012029F0AEFA08BDB01B030010F1860F84
S214004C2014D00EDC10F1930F13D010F1870F05D1BE
S214004C300B4B994207D06FF06D0070474FF0FF3076
S214004C40704748B970476FF0720070476FF0710098
S214004C5070476FF06F0070474FF0FF30704700BF2F
S214004C600500000210B5044C214600F04BF9214621
S214004C70FFF7D4FF10BD00BF0500000208B500F026
S214004C8065F90249FFF7CAFF08BD00BF050000022C
S214004C9000B583B00023019301AB142200F0E8F9BD
S214004CA00249FFF7BBFF03B05DF804FB05000002F6
S214004CB008B5034B034A0449044808F043FE08BD00
S214004CC023A702004BA7020077A7020085A70200D1
S214004CD0F8B5174B1B7803F0FF040BB12046F8BD60
S214004CE006F0E6FF0546012805D80027104B1B787E
S214004CF09BB900260CE007F017F8071EF6DAEDE77A
S214004D000C4B1B680C4A642000FB062098470136B3
S214004D10012EF5DD064B01221A70012D01D8012463
S214004D20DCE7384607F024F80028D7DB0124D5E76F
S214004D30DBB90020E8120020A44F002038B5FFF7AA
S214004D40C7FF002407E00021286E07F09FF80346FF
S214004D5088B99BB10134012C14D81A4D642303FB87
S214004D6004552DB106F0A4FF0228ECD00023F0E78E
S214004D706FF01B03EDE76FF01D03EAE7124B53F8E5
S214004D80340000E0002068B10F4B03EBC4046268F7
S214004D900E4B13449B0001221A600D4A1368013320
S214004DA0136038BD0A4B1C6804F00104094B1B68ED
S214004DB0044A642000FB04209847034B53F8340051
S214004DC0E2E700BFA44F0020A0FC02008005F2101E
S214004DD0A04F0020EC12002008B50E4B984206D0DB
S214004DE003F58063984200D008BD012200E000224F
S214004DF0094B03EBC2035968084B0B449B00002188
S214004E001960074B1B680749642000FB021098478F
S214004E10EAE700BF00000F40A0FC02008005F21089
S214004E20F0120020A44F00202DE9F04389B004467C
S214004E300D4690461F46DDF84090FFF77FFF2E4B4D
S214004E409C4255D10646002404604460C46443680E
S214004E5023F44063436004634463A44609E055F8C2
S214004E602C301BBA08AA02EB8C0242F8203C0CF14C
S214004E70010CBCF1070FF2D925F018FA0446694672
S214004E8006F5827025F038FA204625F013FA1B4BFB
S214004E90336500240EE025F009FA054608EB841178
S214004EA006F5D27025F03EFA284625F003FA144B94
S214004EB0336501344C45EED325F0F8F904463946FF
S214004EC006F5807025F023FA204625F0F3F93046E3
S214004ED0FFF782FF002205E057F822301BBA47F89A
S214004EE022300132072AF7D9002009B0BDE8F08346
S214004EF06FF08800F9E700BF05000002888AC80145
S214004F00070D8101B8B170B50E4605466C2200212A
S214004F1025F058F80B4B9E4210D10B4C0FCCE86096
S214004F2029616A61AB610FCCE86129626A62AB6293
S214004F302E60002070BD6FF0860070476FF0850011
S214004F40F8E700BF05000002B0FC0200002800F0F1
S214004F5085802DE9F04F83B00F4614460546F9B11B
S214004F602A68424B9A427CD1002C7DD06B6803F0B5
S214004F703F08C8F1400623446B60A34202D2AB68E8
S214004F800133AB60B8F1000F01D0B4420DD23F2C14
S214004F9056D94FEA941917F0030F1ED0002648E0A2
S214004FA0002ADDD06FF086004CE005F12C09324671
S214004FB0394609EB08002AF066F8294651F80C0B2A
S214004FC0012300930B464A46FFF72EFF3744A8F10D
S214004FD0400844444FF00008D9E7294651F80C0B26
S214004FE0CDF800900B463A46FFF71EFF23E005F18A
S214004FF02C0207EB8613104603F1400BD3F800A0F3
S214005000D3F804E0D3F808C0D968C0F800A0C0F808
S21400501004E0C0F808C0C160103310305B45EDD125
S214005020294651F80C0B012300930B46FFF7FCFEB4
S21400503001364E45DBD324F03F031F4404F03F0403
S2140050401CB9002003B0BDE8F08F05F12C00224605
S214005050394640442AF017F80020F3E76FF0860040
S21400506070476FF08800EDE70020EBE705000002D0
S21400507000285FD0F0B583B00E461F4605464BB1FC
S2140050806EB12968304B994257D1132A58D900205F
S214005090844628E0002AF3D06FF0860031E0002A2C
S2140050A0EFD06FF086002CE0C0F10202920005EB14
S2140050B080035C68E300DBB26344D11D694401F8F9
S2140050C0083C6109931D6B4403F8081C610B531DD3
S2140050D06B4403F8081C630D04326A4402F8083C6B
S2140050E04FEA547C01300128DED96A6802F03F029C
S2140050F0372A08D8C2F1380214492846FFF726FF97
S21400510020B103B0F0BDC2F17802F5E70822694687
S2140051102846FFF71BFF0028F3D114233B60EB68FB
S2140051202C696969AA6933607460B160F260EB69E2
S2140051303361E6E76FF0860070476FF08800E0E7BF
S2140051406FF08900DDE700BF05000002D0FC02001A
S21400515010B584B0064BEC460FCB8CE80F0000244D
S2140051608DF801406046FEF7BDFF204604B010BD36
S21400517010FD020010B586B00DF1040C184C0FCCD3
S214005180ACE80F002368ACF80030164BD3F8B43008
S21400519013F4002F16D1134BD3F8B830C3F308031B
S2140051A0B3F1FF3F18D0ADF80A300F48FCF722FEE7
S2140051B001A8FEF7EFF94FF4FA70FDF7FFFF0020A5
S2140051C006B010BD4FF0FF33084A12884FF6FF7145
S2140051D08A42E5D01346E3E740F23F13E3E700BF19
S2140051E020FD02000081E00FC01753020001E00F0F
S2140051F06FF0040307E003F00F010A4A0A44A021F7
S214005200117601335BB22E2B09DC002BF3DB03F1A6
S214005210604202F56142A02182F80013F1E7002007
S214005220704700BFFCEC00E030B583B025F03EF8D8
S2140052300E4B1D780E4B1C6825F03CF827F00EFC34
S21400524008B1FF2D03D154B1204603B030BD01AAEA
S214005250064B1978002024F09AFF019CF3E725F00E
S21400526025F8044B1C6825F025F8EDE749150020C5
S2140052706C5000207050002010B5044625F016F83B
S214005280024B1C6025F016F8002010BD7050002060
S21400529010B586B01446137A03EB43031B0103F1E3
S2140052A0804303F56223D3F89420E16823690B4416
S2140052B09A4216D06169914215D38B1AABB9012375
S2140052C0637694F82D304BB1002384F83530E369CB
S2140052D0132120469847636A20469847002006B068
S2140052E010BD0A46E6E79B1AE8E7049405490391D1
S2140052F0002102910193012300936368216824F042
S21400530064FFEBE79152000070B584B004460D468A
S21400531090F83C6006F0CCFC022803D084F83C50A1
S21400532004B070BD05B15EB1002DF7D1002EF5D0EA
S214005330D4F8940006F04AFF0023C4F89430EDE752
S2140053400A4B00930021019104F198030293502325
S21400535003936A46012006F031FEC4F89400237ECB
S214005360002BDBD006F0D6FED8E700BF34FD0200E7
S21400537030B589B0044600234376007AFDF7F4F88A
S214005380237A03EB43031B0103F1804303F56223F7
S214005390D3F89420E56823692B449A4214D06369B5
S2140053A0934213D00123237694F83C3043BB0DF18F
S2140053B01F01207AFDF764F99DF81F3063BB207A41
S2140053C0FDF7F2F809B030BD2A46E8E70023237659
S2140053D0656194F82D3003B12563636A20469847CB
S2140053E023690494144A0392002202920193012333
S2140053F0009363682A462168207A24F0E6FEDEE7FA
S214005400237ED4F8940006F0C5FE0028CFD1D4F849
S214005410940006F07FFECAE70DF11E01207AFDF724
S21400542003F99DF81E30002BC9D122460021207AB0
S214005430FFF72EFFC3E700BF9152000038B50546C0
S214005440046806F035FC02285CD0FFF7EDFE8542C6
S21400545064D094F93630002B08DB03F01F015B099B
S21400546001228A4060332F4941F8232094F93630D0
S214005470002B0CDB03F01F015B0901228A4020335E
S214005480284941F82320BFF34F8FBFF36F8F94F95D
S2140054903730002B08DB03F01F015B0901228A402E
S2140054A06033204941F8232094F93730002B0CDB79
S2140054B003F01F015B0901228A402033194941F895
S2140054C02320BFF34F8FBFF36F8FD4F8940006F0FE
S2140054D07DFE206C06F04EFDD4F8E80006F04AFD8E
S2140054E0207AFDF781F8207AFCF7E0FFFCF7B8FF9A
S2140054F000232B606B60AB602B616B61A36A204658
S214005500984738BD4FF0FF31D4F8E80006F0BEFCEF
S2140055104FF0FF31206C06F0B9FC96E70020FFF74D
S214005520ABFE96E700E100E02DE9F0438FB00646BB
S2140055300C4615461F464FF49E720021204624F066
S21400554041FD95E8030084E8030000232376EB681A
S214005550E3602A69226163612A7D84F82C20AA7D93
S21400556084F82D202363012384F8343084F8353002
S214005570E761169B2362179B6362189BA36295F9EB
S214005580083084F8363095F9093084F837303460BE
S214005590564B7360564BB360564B3361564B736134
S2140055A0564BF360FCF7ACFF18B1554A904240F0FA
S2140055B09780002104F10800FCF720FF002840F047
S2140055C09180504B3362504B73624FF0010884F861
S2140055D03C804E4B0A9300270B9704F144030C9330
S2140055E04FF05009CDF834900AA806F0F7FB206477
S2140055F0474B0A930B9704F1EC030C930AA806F0AA
S214005600EDFBC4F8E800434B0693079704F19803B4
S2140056100893CDF8249006AA3946404606F0CEFCFC
S214005620C4F894003C4BB3613C4BF3619DF8683082
S21400563084F83B309DF8643084F83A3084F839704A
S21400564084F83880697D204625F029FA95F90930D6
S214005650BB4208DB03F01F015B0942468A40603309
S2140056602F4941F8232095F90930002B07DB03F07A
S2140056701F015B0901228A40294941F8232023693A
S2140056800494284A03920022029201930123009375
S2140056906368E2682168207A24F097FD044618BB08
S2140056A095F90830002B08DB03F01F015B09012287
S2140056B08A4060331A4941F8232095F90830002BB8
S2140056C007DB03F01F015B0901228A40144941F8F9
S2140056D023203046FFF7D0FD20460FB0BDE8F0830C
S2140056E01024F9E71024F7E71024F5E7FBA80200DA
S2140056F02FAA020015A802001BA802003D540000B5
S214005700038000F00953000027A8020040FD0200B5
S2140057104CFD020034FD02009FAA020021A80200F0
S21400572000E100E0915200002DE9F04186B01646F7
S2140057301C460C9D0123049303935A4B02935A4B29
S214005740019300230093594B0A462946FFF7ECFEC7
S214005750074618B1384606B0BDE8F0812368C5F89C
S2140057603C316368C5F84031637A85F84531237A61
S21400577085F84431E37A85F84731A37A85F84631CF
S214005780637B85F84931237B85F84831E37B85F8D0
S2140057904B31A37B85F84A3101214548FDF718F9BE
S2140057A001214448FDF714F901230422617A207A86
S2140057B0FEF7DAFD01230222E17AA07AFEF7D4FD95
S2140057C001216068FDF704F94FF0000886F80080B4
S2140057D03146206824F0D1FE2268536F43F003035D
S2140057E053672268936F23F4F85323F01F03617CFA
S2140057F043EA0123A17C0B439367236803225A677D
S21400580085F84C81737E202B32D028D8002B34D0DC
S214005810102B22D1012385F84C31002600230222CA
S214005820617B207BFEF7A0FDE27C2368DA672268B6
S214005830536E43F0040353662268536F43F010031D
S2140058405367E6B9D5F83C21D36C43F00403D36420
S2140058500521206824F08AFE7CE723277AE7302B90
S21400586004D1032385F84C310126D7E7232771E7B7
S214005870022385F84C310126E3E70026E1E7002302
S2140058800422E17BA07BFEF76FFD2268D36F217DAB
S21400589043EA0123D3672268536F43F0200353671C
S2140058A0D0E700BF01AB0200F3AA02008DAB0200F6
S2140058B04041050000350A0070B586B00023059308
