S01200007A776176655F41544C41532E733337E1
S21400000000100020CD1500002B9202002B9202005B
S214000010719D02002B9202002B9202002B9202008E
S2140000202B9202002B9202002B920200010100008C
S2140000302B92020068E5020031010000F7B70200CB
S214000040E5E2010023DD02002B9202002B92020063
S214000050ED74020033DD02002FDD0200D57C0200C5
S21400006027DD0200911F0000A1200000110D0000F6
S21400007099150000891500002B9202002B920200B1
S2140000802B9202002B920200C1200000610B0000A0
S21400009075090000490B00002B9202002B9202000B
S2140000A02B9202002B9202002B920200DDAE000083
S2140000B0097D02002BDD0200E965020055620000A2
S2140000C0457D02002B920200AD6502002B920200D5
S2140000D02B9202002B920200DD0C0000A90C0000FF
S2140000E02B9202002B9202002B9202002B9202000F
S2140000F02B9202002B9202002B92020000000000BE
S214000100074B19680868B0E8F04F80F30988BFF31A
S2140001106F8F4FF0000080F311887047AFF30080B8
S2140001203C58002000000000000000000000000016
S214000130EFF30980BFF36F8F154B1A681EF0100F90
S21400014008BF20ED108A20E9F04F10602DE9090065
S2140001504FF0200080F31188BFF34F8FBFF36F8FEF
S2140001600BF0B0FC4FF0000080F3118809BC196852
S2140001700868B0E8F04F1EF0100F08BFB0EC108A09
S21400018080F30988BFF36F8F704700BFAFF300801E
S2140001903C580020000000000000000000000000A6
S2140001A001F0FF01102A2BDB10F0070F08D010F823
S2140001B0013B013A8B422DD010F0070F42B3F6D127
S2140001C0F0B441EA012141EA014122F007047FF040
S2140001D000070023F0E80256083C85EA010586EA97
S2140001E0010685FA47F5A3FA87F586FA47F6A5FAD3
S2140001F087F68EB9EED1F0BC01F0FF0102F00702DF
S21400020032B110F8013B013A83EA010313B1F8D189
S2140002100020704701387047002D06BF354603386A
S214000220073815F0010F07D1013015F4807F02BFA3
S214000230013015F4C03F0130F0BC0138704700BFF4
S214000240F0B585B0A84B1B78002B5CD1A74B1B786C
S214000250002B40F0C080A64B1B78002B00F0A1803E
S214000260A44815F0B9F9A44B1978A44815F0B4F9C8
S21400027000F090FEA24B1E78A24B9E70A24B987880
S21400028028F012F996A3D3E9002327F091FE28F070
S21400029075F99E4CA4FB0035ED099D4B987828F027
S2140002A003F98FA3D3E9002327F082FE28F066F92E
S2140002B0A4FB0034E409974B9888FF2800F2F580E9
S2140002C028F0F2F886A3D3E9002327F071FE28F081
S2140002D055F98E4BA3FB0023C3F3CF1300228E4F9A
S2140002E0039602920193A4B20094ABB28B4A1E21ED
S2140002F0384628F0D5FB3946894815F06DF938465A
S21400030000F0BEFD4DE07C4B19787C4815F064F992
S21400031000F040FE7A4B1E787A4B1E707A4B1878A7
S21400032028F0C2F86EA3D3E9002327F041FE28F098
S21400033025F9764CA4FB0035ED09754B187828F0A6
S214000340B3F867A3D3E9002327F032FE28F016F9A6
S214000350A4FB0034E4096F4B1888FF2823D828F044
S214000360A3F85FA3D3E9002327F022FE28F006F9BE
S214000370664BA3FB0023C3F3CF130022694F0396FB
S21400038002920193A4B20094ABB2644A1E2138468E
S21400039028F086FB3946624815F01EF9384600F00C
S2140003A06FFD05B0F0BDB0F5007F11D0A0F58070F0
S2140003B028F07AF84AA3D3E9002327F0F9FD28F0BD
S2140003C0DDF8524BA3FB0023C3F3CF130122D5E77E
S2140003D002220023D2E7544815F0FEF8464B19785F
S2140003E0464815F0F9F800F0D5FD454B1E78454B0C
S2140003F05E70454B587828F057F839A3D3E90023A8
S21400040027F0D6FD28F0BAF8404CA4FB0035ED09DD
S2140004103F4B587828F048F831A3D3E9002327F05B
S214000420C7FD28F0ABF8A4FB0034E409394B588824
S214000430FF2822D828F038F829A3D3E9002327F08C
S214000440B7FD28F09BF8314BA3FB0023C3F3CF1373
S2140004500022364F039602920193A4B20094ABB2E8
S2140004602E4A1E21384628F01BFB39462C4815F02C
S214000470B3F8384600F004FD93E7B0F5007F11D0DE
S214000480A0F5807028F010F815A3D3E9002327F014
S2140004908FFD28F073F81D4BA3FB0023C3F3CF1387
S2140004A00122D6E702220023D3E7B0F5007F11D061
S2140004B0A0F5807027F0F8FF09A3D3E9002327F002
S2140004C077FD28F05BF8114BA3FB0023C3F3CF1393
S2140004D0012204E70222002301E700BFAFF30080F9
S2140004E00000000000E06F40C4B80020C5B800203F
S2140004F0C6B8002034E40200C3B80020E0E30200DF
S214000500C8B8002074440020784400208180808091
S214000510BC4400206C44002000450020F4E30200A8
S21400052010E40200C044002028E40200E04400205A
S21400053030B585B0624B1B78002B38D0614B1878ED
S21400054027F0B2FF5CA3D3E9002327F031FD28F0A3
S21400055015F85D4DA5FB0034E4095C4B187827F0D0
S214000560A3FF55A3D3E9002327F022FD28F006F8C1
S214000570A5FB0023DB09564A1288FF2A07D9B2F5E5
S214000580007F41D0A2F5807292B2512100E0502146
S214000590504D029101929BB20093A3B24E4A1E2187
S2140005A0284628F07DFA29464C4815F015F84C4B9D
S2140005B01B78002B3BD0434B587827F075FF3EA3A3
S2140005C0D3E9002327F0F4FC27F0D8FF3E4DA5FB27
S2140005D00034E4093D4B587827F066FF36A3D3E98C
S2140005E0002327F0E5FC27F0C9FFA5FB0023DB0965
S2140005F0374A5288FF2A0AD9B2F5007F44D0A2F5BE
S214000600807292B2512103E052210022C0E75021AD
S214000610344D029101929BB20093A3B22E4A1E2142
S214000620284628F03DFA29462F4814F0D5FF2F4BD0
S2140006301B78002B3BD0234B987827F035FF1EA362
S214000640D3E9002327F0B4FC27F098FF1E4DA5FB46
S2140006500034E4091D4B987827F026FF16A3D3E94B
S214000660002327F0A5FC27F089FFA5FB0023DB0964
S214000670174A9288FF2A0AD9B2F5007F19D0A2F548
S214000680807292B2512103E052210022C0E750212D
S214000690174D029101929BB20093A3B20E4A1E21FF
S2140006A0284628F0FDF92946124814F095FF05B0B3
S2140006B030BD52210022EBE70000000000E06F4052
S2140006C0C4B800207844002081808080BC4400208C
S2140006D06C4400202045002040E4020058E402005C
S2140006E0C5B800204045002074E40200C6B80020CB
S2140006F06045002090E4020010B5054C237833B91D
S214000700044B13B10448AFF300800123237010BDDF
S21400071050430020000000000436030008B5034BD9
S2140007201BB103490348AFF3008008BD000000007A
S2140007305443002004360300A3F5803A704700BFF8
S214000740174B002B08BF134B9D46FFF7F5FF002104
S2140007508B460F461348144A121A28F0B5FC0E4B67
S214000760002B00D098470D4B002B00D09847002058
S214000770002104000D000D48002802D00C48AFF3FD
S214000780008000F02BF82000290028F0A5FC00F0DF
S21400079011F800BF00000800000000000000000084
S2140007A0001000208814002024BB00200000000059
S2140007B00000000008B5074B044613B10021AFF354
S2140007C00080054B1868836A03B19847204628F0D6
S2140007D01DFC00BF00000000B0E2020070B50D4D29
S2140007E00D4C641BA4100026A64209D10B4D0C4CE0
S2140007F02DF04CFD641BA4100026A64205D170BD4A
S21400080055F8043B98470136EEE755F8043B984701
S2140008100136F2E7801400208014002080140020A7
S21400082084140020014B00221A80704794B80020E0
S21400083070B504460D46012806D0022C1FD0032CA6
S21400084021D0042C23D070BD472006F083FD134E24
S2140008503388013333804FF47A71114814F0AEFFB9
S2140008603388062B07D00D4B1B880F2BE5D146206F
S21400087006F070FDE1E7452006F06CFDF3E7482042
S21400088006F068FDDBE7492006F064FDD9E7054B76
S2140008901D704A2006F05EFDD5E700BF94B8002024
S2140008A0EC430020C3B800202DE9F0412C4B19780A
S2140008B006294DD003294FD02A4814F08DFEBDE8F6
S2140008C0F081294B1B5D012B3CD0022B3CD0032B27
S2140008D03CD0712B0FD104250DE04FF0FF084246A7
S2140008E02946224814F078FE41462846FFF7A0FF26
S2140008F04746042D19D00134E4B21D4B1B78A342A1
S214000900DDD92646002CDCD0042CF4D16B1EDBB2DD
S214000910022BEED8144B13F80480B8F1000FDED08B
S214000920B8F1010FD9D0B846D9E703360E4B9F5D14
S2140009303A4629460D4814F04FFE39462846FFF73A
S21400094077FFD8E71D46D6E71D46D4E71D46D2E713
S214000950002427462546D0E7452006F0FBFCAEE7F8
S214000960C2B80020C4E202006C430020B4E20200D9
S214000970C1B8002008B56C48036C83646B4B012239
S2140009805A625A6028F095FE694B1B78013B0A2B89
S21400099000F2BD80DFE803F0061524333C455F6BAC
S2140009A07B9BAE00552803D0614B0B221A702EE0BD
S2140009B0604A13781844C0B210705D4B02221A7059
S2140009C025E0AA2803D05A4B0B221A701FE0594A7A
S2140009D013781844C0B21070554B03221A7016E0F4
S2140009E0022803D0524B0B221A7010E0514A13789B
S2140009F01844C0B210704E4B04221A7007E04D4ADD
S214000A0013781844C0B21070494B05221A7008BDFE
S214000A10484A13781844C0B21070454B06221A7024
S214000A20F5E7431FDBB2012B0AD9032808D0404B59
S214000A300B221A700023404A1370404A1370E6E7F0
S214000A403C4A13780344DBB213703C4B1870384BA7
S214000A5007221A70DBE7374A13780344DBB21370B9
S214000A6080B2374B1880324B08221A70CFE7314AD3
S214000A7013780344DBB21370314A13889BB240EA02
S214000A80032080B210802A4B09221A70BFE7294A39
S214000A9013780344DBB21370294A13889BB2013BD8
S214000AA09BB21380244B1B78402B02D9204A0B2183
S214000AB01170244AD05401331F4A1370204B1B88F0
S214000AC09BB2002BA3D11A4B0A221A709FE7194B30
S214000AD01B78DBB283420AD00023164A1370184AEA
S214000AE01380154A1370124B01221A708FE7FFF716
S214000AF0DBFEF1E700230F4A1370114A13800E4AFB
S214000B0013700E4A13700A4B01221A707FE70023F7
S214000B10084A13700A4A1380074A1370074A13706C
S214000B20034B01221A7072E7000401400084014062
S214000B305A140020C0B80020C1B80020C2B8002057
S214000B4092B800206C43002008B5034814F044FD1A
S214000B50024B1A6C9A6408BDDCE2020000040140F5
S214000B60084BDA685A6102225A600023064A13705C
S214000B70064A1380064A1370064A1370064B012273
S214000B801A70704700840140C0B8002092B8002058
S214000B90C1B80020C2B800205A14002030B589B071
S214000BA00121154801F078FB144D4FF6FF73EB61F9
S214000BB0002405940694079402238DF81A3005AA9B
S214000BC02146284628F0F0FC019402940394ADF8E0
S214000BD0104001238DF804308DF8063001A9284610
S214000BE028F091FCAB6943F01003AB61044B4FF463
S214000BF000221A6009B030BD0012040000840140D3
S214000C0000E100E010B588B00121204801F044FB67
S214000C100DF1040C1E4C0FCCACE80F0094E8070056
S214000C208CE80700002301220721022003F000F8C9
S214000C30012304220621022002F0FAFF154C01A926
S214000C40204628F0F6FC40F60B33A367636F43F0AC
S214000C5003036367E36C43F00403E364E36C43F06D
S214000C600103E3640C4B4FF480121A604FF4001239
S214000C701A60FFF793FF094A0121094805F01AFC9C
S214000C80084814F0A9FC08B010BD00BF00420400DC
S214000C9050E302000004014000E100E025080000E7
S214000CA0EC430020F4E2020008B5094A136C936492
S214000CB013F0010F07D1074B4FF40062DA664FF4CA
S214000CC08062DA6608BD044814F086FCF3E700BFCD
S214000CD00008014000A0004404E3020008B50848EC
S214000CE0036C8364074B01225A625A6028F0E1FCC9
S214000CF0054A13880549C8540133138008BD00BF50
S214000D00000801400080014090B80020AC4300205D
S214000D1038B5094BDA685A6102225A60074D084C0A
S214000D202946204614F058FC2946204614F054FC68
S214000D30044B00221A8038BD00800140AC430020DE
S214000D401CE3020090B8002030B589B00121154898
S214000D5001F0A2FA144D4FF6FF73EB6100240594E0
S214000D600694079402238DF81A3005AA21462846D1
S214000D7028F01AFC019402940394ADF81040012365
S214000D808DF804308DF8063001A9284628F0BBFB04
S214000D90AB6943F01003AB61044B4FF400621A607A
S214000DA009B030BD000204000080014000E100E010
S214000DB010B588B001212A4801F06EFA0DF1040C36
S214000DC0284C0FCCACE80F0094E807008CE807002E
S214000DD04FF416530393002301220521084602F020
S214000DE027FF012304221146052002F021FF0023DD
S214000DF004220A21022002F01BFF002304220B21FA
S214000E00022002F015FF184B4FF48062DA664FF4AA
S214000E100062DA66154C01A9204628F00AFC41F269
S214000E201113A367636F43F003036367E36C43F038
S214000E300403E364E36C43F00103E3640C4B4022D9
S214000E405A6080225A60FFF77FFF0A4A01210A484B
S214000E5005F030FB094814F0BFFB08B010BD00BF1A
S214000E600052040050E3020000A0004400080140C5
S214000E7000E100E025080000EC43002024E3020027
S214000E8070B505460D4B4FF40062DA664FF480628B
S214000E90DA662CF0DFFF0646002408E0295D0848E5
S214000EA014F09AFB295D074828F00AFC0134B44286
S214000EB0F4DB054814F090FB70BD00BF00A00046B0
S214000EC038E30200000801403CE3020010B5044687
S214000ED00AF058FF214606F0C3FB05F073FB09F045
S214000EE061FA042029F0D0F9034814F099FB29F0A0
S214000EF082FB0028FBD110BD6CE3020010B582B067
S214000F0004461D4814F08CFB01201BF0E5FE2CF077
S214000F1061FF1A4A60211A4814F054FB214619480A
S214000F2014F05AFB09F03EF904460DF1070019F0DB
S214000F30FBFC9DF8070029F035FC90B19DF80730C2
S214000F402372217A104814F047FB09F02FF9034664
S214000F50022201210D4813F075FE38B1002002B0C0
S214000F6010BD04F108001AF005FBEAE774210848F2
S214000F701BF0B4F8F2E700BF8CE30200D7DD0200F6
S214000F8080450020A0E30200C4E30200CD0E00006E
S214000F90D4E3020082B03E4B1A7807EE902AF8EEB1
S214000FA0E76A9FED3C7AC6EE877A9FED3B7A67EE5E
S214000FB0877ABCEEE77A8DED017A9DF804303749E2
S214000FC00B70511E09290FD9A2F1150108290BD95A
S214000FD0A2F12901082907D9A2F13D01082903D960
S214000FE0A2F15101082920D807EE103AB8EEC77AC8
S214000FF077EEC77AB6EE007AF4EEC77AF1EE10FA1C
S21400100005DD0133DBB225490B7001330B7012F09E
S214001010010F05D1642A03D020490B7801330B70E9
S2140010200AB91E4B1A7002B07047A2F10B010829CC
S21400103003D8013319490B70E9E7A2F146010929E3
S2140010400BD9A2F11E01092907D9A2F133010829FB
S21400105003D9A2F15B01082914D807EE103AB8EEBE
S214001060C77A77EEC77AB6EE007AF4EEC77AF1EE74
S21400107010FA03DD013309490B70C8E7013307494D
S2140010800B70C4E7642AC2D1044BFF211970BEE777
S214001090C3B800200000C84200007F43C8B8002044
S2140010A010B5044601464E4814F096FA473C2B2CE1
S2140010B041D8DFE804F026415D794040404040409A
S2140010C0404040404040404040404040404040401B
S2140010D0404040404040404040404040404040400B
S2140010E0168E00F05FF9044629F072FF20B1002149
S2140010F0204629F054FF1EE0FF21204629F04FFF2E
S21400110019E0384814F08CFA0124374B1C70374B22
S2140011101C70374B1C80374B1C700023364A1370EC
S214001120364A1370FFF704FA354B1C7041F28831CB
S214001130344814F043FB10BD334814F071FA012410
S214001140294B5C70294B5C70294B02225A80002385
S214001150284A1370284A1470284A1370FFF7E8F9D3
S214001160274B1C7041F28831264814F027FBE2E733
S214001170264814F055FA01241B4B9C701B4B9C70A0
S2140011801B4B03229A8000231A4A13701A4A1370C4
S2140011901A4B1C70FFF7CCF9194B1C7041F28831C2
S2140011A0184814F00BFBC6E7154C2278184B197834
S2140011B0184814F011FA23781BB1114B00221A704C
S2140011C0B9E7FFF73DF84FF4FA71134814F0F6FA52
S2140011D0B1E7124814F024FA002029F066F8AAE7CE
S2140011E0ACE40200E0E4020078440020BC440020A6
S2140011F06C440020C4B80020C5B80020C6B8002043
S214001200C7B800202C440020F4E4020008E50200E1
S214001210C3B800201CE502007C4400203CE5020028
S21400122008B501215E4801F037F8002304220221A8
S214001230184602F0FDFC002304220321184602F0A3
S214001240F7FC002304221146184602F0F1FC0023A6
S21400125004220521184602F0EBFC002304220B2191
S214001260012002F0E5FC002304220C21012002F0FC
S214001270DFFC002304220D21012002F0D9FC00230C
S21400128004220E21012002F0D3FC002304220F21A9
S214001290012002F0CDFC002304220621022002F0E9
S2140012A0C7FC002304220721022002F0C1FC002311
S2140012B004220821022002F0BBFC0023042209219C
S2140012C0022002F0B5FC002304220A21022002F0CC
S2140012D0AFFC002304220B21022002F0A9FC00230D
S2140012E004220921032002F0A3FC002304220A2181
S2140012F0032002F09DFC002304220B21032002F0B1
S21400130097FC002304220C21032002F091FC00230A
S21400131004220E21032002F08BFC002304220F215E
S214001320032002F085FC002304221946052002F063
S2140013307FFC002304220121052002F079FC002313
S21400134004220221052002F073FC0023042203215C
S214001350052002F06DFC002304221146052002F051
S21400136067FC002304220521084602F061FC0023E6
S21400137004220621052002F05BFC0023042207213C
S214001380052002F055FC012304220021084602F045
S2140013904FFC012304221946002002F049FC08BD38
S2140013A000350A00004870476410002038B501F088
S2140013B0E9FC01210D4800F06FFF0122114610469E
S2140013C001F016FC0A4D0124C5F88040224621464D
S2140013D0204601F00DFCC5F88440224621462046F2
S2140013E001F006FCC5F88840002038BD30253E00D8
S2140013F000400E4000B583B0214B01225A641A68A3
S21400140042F480721A6001A802F024FF9DF80530AD
S214001410012B2FD91B4B4FF41872C3F88C221A4A93
S214001420C3F89022194AC3F8F022194AC3F8F822E2
S214001430184AD2F8A43143F4F843C2F8A43103F0B2
S2140014403BFB00F0BBF803F0E7FA03F0F7FAFFF710
S214001450ADFF28F00FFA00F0A7F800F08BF900F0C7
S2140014603FFE09F063FD1BF0E3FB04F0CBF803B08E
S2140014705DF804FB9DF80430022BD9D9CAE700BFFB
S21400148000000E4000400E409A6F05001801000450
S2140014900084320800300E40012900D9704708B594
S2140014A0034B1B68186808B1436A984708BD00BF1D
S2140014B0E010002030B599B0274D11ACAC46BCE822
S2140014C00F000FC49CE8070084E8070000240B9474
S2140014D00C940D940E940F941094204B0B93204B69
S2140014E00C9301228DF8372002238DF83930032320
S2140014F08DF83B301E238DF83F308DF8403009AB19
S2140015001C3595E8030083E803000DF10C0C0394EA
S214001510049405940694079408948CE803000C231E
S2140015208DF814300D238DF815300E4B06932023BE
S21400153007938DF820200C4B00930BAB11AA614645
S2140015400A4803F055FD054621464FF4E13027F0E2
S2140015505DFE284619B030BD44E50200000001409B
S2140015600032040038470020E0450020584700209D
S21400157008B50349034804F0A9F8FFF79BFF08BD28
S214001580D81000203047002008B5024828F068FB35
S21400159008BD00BF5847002008B5024828F060FB89
S2140015A008BD00BF5847002008B50121024800F0DA
S2140015B073FE27F09AFD08BD00350A0008B5012124
S2140015C0014800F069FE08BD00350A0008B500F0C5
S2140015D087F8124A0AE01068516850F8230041F86C
S2140015E02300013391688B42F5D30C320C4B9A42A0
S2140015F001D20023F6E70B4A08E01168002041F804
S2140016002300013351688B42F7D30832064B9A42C7
S21400161001D20023F6E7FFF793F800BFC4380300B3
S214001620D0380300D0380300D03803000048704795
S214001630C0175302114BD3F8943003F00703023B54
S214001640032B0DD8DFE803F0050F02080C4B1868D3
S2140016500BE00C4B186808E00B4B1868400804E0D9
S214001660094B186801E04FF40040044BD3F80031F2
S214001670C3F304230133B0FBF3F0704700400E4081
S214001680F0100020E8100020EC10002008B5FFF74E
S214001690D1FF054BD3F80831C3F308230133B0FB61
S2140016A0F3F0024B186008BD00400E40E410002026
S2140016B0014B1868704700BFE810002008B5064BBD
S2140016C01860064BD3F8943003F00703022B00D0C3
S2140016D008BDFFF7DBFFFBE7E810002000400E40E8
S2140016E0044B054A9A60D3F8882042F47002C3F887
S2140016F08820704700ED00E000000000014B1868ED
S214001700704700BFF0100020174B9A6A02F1704332
S21400171003F5F813B3F5006F11D2134BD3F828185E
S214001720A1F17E63A3F58433B3F5605F07D2126838
S2140017300E4B9A4207D00023037083607047002345
S2140017400370836070470A68094B9A42F3D10123FD
S2140017500370054BD3F8282892684260D3F82838DF
S2140017609B698360704700BF0000E10FAD1007B0B3
S21400177007B0CD5E08B5114BD3F82828A2F17E63DA
S214001780A3F58433B3F5605F11D211680C4B994210
S21400179010D10C4B1B781BB1022B01D0002008E0A7
S2140017A0D369984728B9074B01221A7001E04FF415
S2140017B0817008BD4FF48170FBE700BF0000E10FA9
S2140017C007B0CD5EC9B800204FF0005340F20222A9
S2140017D01A804FF20F025A800A4A01239360136858
S2140017E023F4E06343F480631360BFF34F8F06492E
S2140017F0CA6802F4E062054B1343CB60BFF34F8F19
S21400180000BFFDE700500E4000ED00E00400FA05C2
S21400181008B50D4BD3F82828A2F17E63A3F58433D0
S214001820B3F5605F0AD2126BA2F17E63A3F5843330
S214001830B3F5605F05D29368984701E04FF4817076
S21400184008BD4FF48170FBE70000E10F08B50D4BB3
S214001850D3F82828A2F17E63A3F58433B3F5605F3E
S2140018600AD2126BA2F17E63A3F58433B3F5605FF0
S21400187005D25369984701E04FF4817008BD4FF4D4
S2140018808170FBE70000E10F10B50A4BD3F828483B
S214001890A4F17E63A3F58433B3F5605F04D2236BB3
S2140018A02BB15B6A984701E04FF4017010BD4FF40E
S2140018B00170FBE70000E10F08B50D4BD3F82828B0
S2140018C0A2F17E63A3F58433B3F5605F0AD2126B90
S2140018D0A2F17E63A3F58433B3F5605F05D2936A05
S2140018E0984701E04FF4017008BD4FF40170FBE724
S2140018F00000E10F30B5E1B0124BD3F82838A3F161
S2140019007E63A3F58433B3F5605F15D20C464FF4BF
S214001910C0726946FFF7B8FF054678B921466846A3
S214001920FFF7CAFF40F201239842F7D040F20323A4
S214001930984203D0054601E04FF40175284661B091
S21400194030BD00BF0000E10F10B50D4BD3F828489E
S214001950A4F17E63A3F58433B3F5605F0AD2246BEB
S214001960A4F17E63A3F58433B3F5605F05D2A36B61
S214001970984701E040F2011010BD40F20110FBE76D
S2140019800000E10F08B50D4BD3F82828A2F17E63BE
S214001990A3F58433B3F5605F0AD2126BA2F17E63BF
S2140019A0A3F58433B3F5605F05D2D36B984701E0A7
S2140019B040F2011008BD40F20110FBE70000E10F05
S2140019C00346064A10680344054A934202D8034A6F
S2140019D0136070474FF0FF30704700BFF4100020D0
S2140019E00000012008B50121294800F055FC01231C
S2140019F004220221052002F01BF9002002F08EF8D6
S214001A000121244BC3F810180A46042001F0F0F810
S214001A10214800F047FF214BD3F8F02042F00102A6
S214001A20C3F8F020D3F8FC2042F08072C3F8FC2004
S214001A30A3F55D431A4A1A6000F5D52000F2FC4073
S214001A40C008184BA3FB0030800A0138164B1861FB
S214001A500222C3F8F0204FF48072C3F804234FF03C
S214001A606043124AC3F8B02F114AC3F8802ED3F849
S214001A70002E42F48072C3F8002EFF2283F8202046
S214001A80D3F8002E22F48072C3F8002E002008BD82
S214001A9000350A000080144206000E0000ED00E04B
S214001AA0FF03004017916502000004E055CEACC568
S214001AB0090001004FF06043D3F8803E13F0010F99
S214001AC001D1112070470E4AD2F8FC3043F08073E3
S214001AD0C2F8FC304FF06043D3F8002E4FF0010CF4
S214001AE00CFA00FC42EA0C02C3F8002E53F8203031
S214001AF0002BE8D04FF0604303F82010002070471A
S214001B0000ED00E0F0B585B00C4694469DF8341024
S214001B10664A1278002A00F0BD800546BCF1070F21
S214001B2000F2BA800A9A002A00F0B8800B9A002ABF
S214001B3000F0B6800E9AB2F5006F00F3B38001286D
S214001B405BD05B4A02EB0C12127B002A00F0AC80E2
S214001B5000220092019202920392564A02EB4C1E19
S214001B60002C4FD14FEA4C1600209051CEF80400BE
S214001B70CEF80800CEF80C009EF8020040F01000E8
S214001B808EF802009EF8030040F030008EF8030046
S214001B9021B9C1B241F003018EF8031000930E9BE9
S214001BA0013B444A4FEA4C1002EB4C11165A63F3C1
S214001BB00E1616520A9B8B600B9B4B60CB789DF8DB
S214001BC03C2062F38303CB70012D36D0109B002B94
S214001BD056D0374A4FEA0C1102EB0C1310985050AF
S214001BE0119A5A6000249C605D737246694660468E
S214001BF002F002F9204605B0F0BD0C9A002AA0D1EA
S214001C002D48F8E72B4F4FEA4C1607EB4C120020F6
S214001C10B85150609060D060907840F0100090709E
S214001C20D07840F00300D0700029B7D107EB4C12F3
S214001C30C1B241F03001D170B0E70E460A7B42F0E7
S214001C4001020A73D2B242F002020A73CA68042181
S214001C5061F39F02F26006F1100796E80F0087E82E
S214001C600F00F2696FF0030161F39F02F2610C9BB3
S214001C707361012CAAD10B9AB2610C9A7260A5E727
S214001C80002DA6D10B4B03EB4C139A786FF304127E
S214001C909A709EE70948AEE70748ACE70648AAE709
S214001CA00548A8E70448A6E70548A4E7CAB8002000
S214001CB08047002000480020018000F0028000F0ED
S214001CC0078000F0134B1B78FBB110B50446F0B14B
S214001CD027F04FFB0023072B13D80F4A02EB031203
S214001CE0127B0AB10133F6E723600B4A190102EBB7
S214001CF0031301241C730024545027F040FB204695
S214001D0002E027F03CFB054810BD05487047054833
S214001D10FAE700BFCAB8002080470020048000F021
S214001D20028000F0018000F038B527F022FB044660
S214001D300023072B06DC0C4A02EB0312127B12B9B7
S214001D400133F6E7002222B1204627F018FB0748A9
S214001D5038BD02F005F80025054B1D70204627F01B
S214001D600EFB2846F4E700BF80470020058000F001
S214001D70CAB800200F4B1B78BBB110B50446072825
S214001D8015D827F0F6FA0C4B03EB04131B7B1BB994
S214001D9027F0F5FA09480BE0074B03EB0413002481
S214001DA01C7327F0ECFA204602E005487047054809
S214001DB010BD00BFCAB8002080470020068000F093
S214001DC0028000F0018000F000B583B0144B1B6861
S214001DD0019300238DF8043027F0CBFA114B1B78C3
S214001DE033B9104B01221A7027F0C9FA002309E014
S214001DF027F0C5FA0C480FE00C4A02EB031200214C
S214001E0011730133072BF7DD04238DF807300DEB34
S214001E10030001F0C7FF002003B05DF804FB00BF1D
S214001E20B8E50200CAB80020038000F08047002012
S214001E3008B50A4B1B785BB107280BD8084B03EB99
S214001E4000131B7B43B1002101F0A2FF002008BD58
S214001E500448FCE70448FAE70448F8E7CAB8002054
S214001E6080470020028000F0018000F0078000F02C
S214001E7008B50A4B1B785BB107280BD8084B03EB59
S214001E8000131B7B43B1012101F082FF002008BD37
S214001E900448FCE70448FAE70448F8E7CAB8002014
S214001EA080470020028000F0018000F0078000F0EC
S214001EB008B50A4B1B7853B107280AD8084B03EB22
S214001EC000131B7B3BB101F0EBFF002008BD05486B
S214001ED0FCE70548FAE70548F8E700BFCAB800205F
S214001EE080470020028000F0018000F0078000F0AC
S214001EF00F4B1B78A3B1072814D8A9B10D4B03EBE1
S214001F0000131B7B93B10C4B1B6E012202FA00F0F0
S214001F10184002D00A700020704700230B707047EC
S214001F20064870470648704705487047054870479A
S214001F30CAB800208047002000200E40028000F033
S214001F40018000F0078000F00C4B1B7873B110B5D1
S214001F500C4607280CD869B1094B03EB00131B7B12
S214001F6053B101F0B1FF2070002010BD0548704746
S214001F700548FAE70448F8E70448F6E7CAB8002038
S214001F8080470020028000F0018000F0078000F00B
S214001F90F8B5194B1F6EDB6E1F4002D401250024D6
S214001FA002E0FEE701346D00072C24D83D42F9D04C
S214001FB0114B9D662301114AD358002BF2D002EB39
S214001FC00416B1680131B16072682046984780F007
S214001FD00100C0B2737B012BE4D10028E2D0084B8D
S214001FE003EB44131A7B6FF341021A731A7F6FF3E5
S214001FF041021A77D6E7F8BD00200E408047002041
S2140020000048002010B5044602E0202007E0904774
S214002010DCB194FAA4F00028F7D0B0FA80F00123DF
S214002020834024EA0304094B03EB00135A68002A92
S214002030EED0064B03EB00131B7B002BE7D0034BC5
S21400204003EB001399689047E2E710BD00490020B3
S21400205008B5122000F04AFF28B1084B4FF4802242
S214002060C3F880211A600A2000F040FF28B1034B15
S2140020704FF48062C3F880211A6008BD00E100E0DA
S21400208038B505460C4627F074F9044B03EB0513E8
S2140020905C6000221A7327F072F938BD00490020F0
S2140020A008B5064BD3F82804D3F81C24104000F0DB
S2140020B05530C3F82404FFF7A5FF08BD00A0004074
S2140020C008B5064BD3F82804D3F81C24104000F0BB
S2140020D0AA30C3F82404FFF795FF08BD00A000400F
S2140020E008B5034B1968034B18681EF053FE08BD6D
S2140020F0FC100020F8100020B0F1FF3F01D010B90E
S2140021007047024870470248704700BF21E000F061
S21400211024E000F0F8B505460E469400224627F067
S214002120EEF9FFF7E9FF074628B92246314628466A
S2140021302BF072FE08B93846F8BD014FFBE700BF2A
S21400214010E000F038B5044601F090FFFFF7D4FF2A
S214002150054608B1284638BD02F0A2F801462046DA
S21400216027F0AAF80028F5D1004DF3E70EE000F0BE
S21400217008B527F0F7F8014B186008BD204E002080
S21400218008B5024B186827F0F1F808BD204E00206D
S2140021900C4B984205D90C4B984210D801210A46A0
S2140021A001E000210A46094B1A64094AD2F80031B8
S2140021B023F0807343EA0163C2F8003170470221BE
S2140021C00122F0E70048E8010090D0030000C84371
S2140021D000400E40014B1868704700BF1C110020DD
S2140021E0114B5B68002300E00133042B0CD80F4A28
S2140021F002EBC30292F804C0CAB29445F4D10B4A6B
S21400220052F833208242EFD3052B0BD0074A02EB5D
S214002210C3035979044A536823F0407343EA0163C1
S214002220536070470321F5E700000E40E0E502002A
S21400223008B5FFF7FFF9044BD3F80031C3F30423C6
S21400224003FB000008BD00BF00400E4038B5084B39
S2140022501C6CA4B241F671351D64FFF7E7F9002146
S214002260FFF7BEFFAC4202D0014B00221A6438BD15
S21400227000000E4038B5074B1C6CA4B241F6713511
S2140022801D64FFF7ADFFAC4202D0024B00221A6479
S21400229038BD00BF00000E4010B4C0F30323013B5E
S2140022A0092B21D8DFE803F005082020302326205C
S2140022B0292D0024164A01E00024164AC0F30430F3
S2140022C054B1134BD3F8443113F0010F04D1104B23
S2140022D0D3F840311C42FAD102F1424303F5801391
S2140022E000EBC300800001605DF8044B70470124DA
S2140022F0094AE3E71024094AE0E74FF48034084A25
S214002300DCE70024074AD9E70024074AD6E700BFDF
S21400231000400E40C0400E40E0400E40E8400E40F8
S214002320F0400E4050410E40B0400E40C0F3031344
S214002330013B092B6BD8DFE803F0050B111B6A6A1B
S2140023402127415F334BD3F80001C0F304207047C8
S214002350304BD3F81401C0F3042070472D4BD3F84C
S2140023600001C0F30060431C01209840013870470C
S214002370284BD3F80C01C0F308207047254BD3F840
S2140023800801C0F308207047234B984204D0234B23
S21400239098420AD0002070471E4BD3F8203103F035
S2140023A00F0301209840013870471A4BD3F82031AC
S2140023B0C3F301130120984001387047184B984228
S2140023C007D003F5B01303F5805398420AD00020D7
S2140023D07047104BD3F82831C3F3011301209840FF
S2140023E0013870470B4BD3F82801C0F30120031DBA
S2140023F001209840013870470A4B984201D00020CF
S2140024007047044BD3F8300100F0030070470020FB
S214002410704700BF00400E408006160080162E0053
S21400242090171A00A009140010B50C46C0F3031349
S214002430013B092B2FD8DFE813F00A002F003900E4
S2140024404A002E002E0056007600CF001501FFF73A
S214002450FDFE9148FFF79CFE904BD3F8001121F447
S214002460F85141EA0421C3F80011FFF70FF98C4B2D
S214002470DB6B13F0400F04D18A4BD3F8C830002B27
S214002480FAD1874B5968C1F30141FFF7F3FEFFF716
S214002490D1F8FFF77DFE10BD804BD3F8141121F460
S2140024A0F85141EA0421C3F81411F4E769B1B1FA0E
S2140024B081F1C1F11F04794BD3F8001121F080712E
S2140024C041EA0461C3F80011E5E72021F1E7734B08
S2140024D0D3F80C1121F4FF3121F4807141EA042174
S2140024E0C3F80C11D7E7FFF7B1FE6C4BD3F8081111
S2140024F021F4FF3121F4807141EA0421C3F8081168
S214002500FFF7C4F8664BDB6B13F0400F04D1654B46
S214002510D3F8C830002BFAD1614B5968C1F301419A
S214002520FFF7A8FEB7E7604B98421AD05F4B984279
S21400253034D05F4B9842AED1584BD3F8443113F0A9
S214002540010F05D1554BD3F8403113F4802FF9D144
S214002550524BD3F8301121F003012143C3F8301158
S21400256099E7013118D0B1FA81F3C3F11F024B4B42
S214002570D3F8443113F0010F05D1484BD3F840315E
S21400258013F0040FF9D14549D1F8203123F00F0399
S2140025901343C1F820317EE72023E6E7013119D046
S2140025A0B1FA81F3C3F11F023C4BD3F8443113F068
S2140025B0010F05D1394BD3F8403113F0040FF9D190
S2140025C03649D1F8203123F0300343EA0213C1F82C
S2140025D0203160E72023E5E7364B984222D003F50A
S2140025E0B01303F5805398427FF455AF013137D0CE
S2140025F0B1FA81F3C3F11B02284BD3F8443113F030
S214002600010F05D1254BD3F8403113F0400FF9D117
S2140026102249D1F8283123F4407343EA0223C1F853
S214002620283138E7013119D0B1FA81F3C3F11F021E
S2140026301A4BD3F8443113F0010F05D1174BD3F8DA
S214002640403113F0400FF9D11449D1F8283123F066
S214002650300343EA0213C1F828311CE72023E5E7DC
S2140026602023C7E7124B98427FF415AF0B4BD3F8E5
S214002670443113F0010F05D1084BD3F8403113F461
S214002680802FF9D1054BD3F8301121F003012143F7
S214002690C3F83011FFE600BF0148E80100400E40D5
S2140026A000300E400000C6438006160080162E003E
S2140026B0A009140090171A0000F00F000138072830
S2140026C065D8DFE800F0041B2A643E4D64553B4B9A
S2140026D0D3F8943003F00703023B052B0CD8DFE851
S2140026E003F0055803070B090220704704207047C3
S2140026F00B2070470C207047052070472F4BD3F8EF
S214002700803003F00703022B45D0042B45D0012B65
S21400271001D00120704703207047284BD3F884303F
S21400272003F00703013B032B09D8DFE803F0023868
S2140027300604032070470A207047062070470120D1
S21400274070471E4BD3F8883003F00703022B28D0BF
S214002750042B28D0012B01D001207047032070479E
S214002760164B1B6F13F001031FD003B309207047ED
S214002770124BD3F85C3103F03003202B19D0302BEA
S21400278019D0102B01D00120704707207047002079
S214002790704703207047022070470A2070470220C7
S2140027A07047022070470A207047072070470120B4
S2140027B07047042070470820704700BF00400E4056
S2140027C010B50446FFF778FF1B4B9C4212D01B4BFC
S2140027D09C4215D01A4B9C4206D00138032828D8B4
S2140027E0DFE800F014171D1A164BD3F8800000F02F
S2140027F00700F2E7134BD3F8840000F00700ECE77D
S214002800104BD3F8880000F00700E6E726F00EFD30
S21400281010BDFEF773FFFBE726F00BFDF8E7FEF7AB
S21400282009FF084BD3F80031C3F300630133D840E7
S214002830EEE70020ECE700BF0300200005002400C0
S21400284002001E0000400E4008B50748FFF734FFA0
S214002850072804D0092805D1FEF7ECFE03E0FFF7B1
S214002860B9FC00E0002008BD06000E0008B10020FC
S214002870704710B504460A48FFF71EFF072805D024
S214002880082809D0042804D0204610BDFFF7A2FC73
S214002890FBE7FEF70DFFF8E7FFF7CAFCF5E700BF1A
S2140028A0B800320038B500F47813B3F5B01F00F066
S2140028B0938005463BD8B3F5402F00F0828010D9B0
S2140028C0B3F5801F00F0AA80B3F5A01F27D15748A4
S2140028D0FFF776FF564BD3F8303103F00303D840AA
S2140028E01CE0B3F5802F61D005D9B3F5202F14D1A5
S2140028F0FEF7A0FE12E0002B55D0B3F5003F0AD13C
S214002900FEF798FE4A4BD3F80831C3F30823013389
S214002910B0FBF3F002E0002000E0002038BDB3F585
S214002920602F02D1FFF790FFF8E70020F6E7B3F537
S214002930381F5BD00ED9B3F5481F72D0B3F5781F99
S21400294021D1FEF777FE0446284626F004FDB4FBA8
S214002950F0F0E3E7B3F5001F52D006D9B3F5101F29
S2140029600FD13248FFF72CFFD8E7B3F5D01F4BD076
S214002970B3F5F01F03D12F48FFF722FFCEE7002064
S214002980CCE70020CAE7B3F5401F0AD12A48FFF774
S21400299017FF274BD3F82831C3F301230433D8405D
S2140029A0BCE70020BAE7FEF745FEB7E7FEF742FEB3
S2140029B01F4BD3F80C31C3F308230133B0FBF3F0FD
S2140029C0ACE7FEF737FE1A4BD3F81431C3F30423F3
S2140029D00133B0FBF3F0A1E71648FFF7F1FE144B06
S2140029E0D3F8203103F00F03D84097E71148FFF7DC
S2140029F0E7FE0F4BD3F82031C3F30113D8408DE721
S214002A000D48FFF7DDFE89E70B48FFF7D9FE084BB8
S214002A10D3F82831C3F30113D8407FE7FFF7DAFB7A
S214002A207CE70020FFF722FF78E700BF05002400C0
S214002A3000400E4002001E000300200008B5FFF70D
S214002A4005FC0D4B07225A67FEF7F4FDFFF7A0FBC7
S214002A50FEF71CFE094BDB6B13F0400F04D1084B4E
S214002A60D3F8C830002BFAD1044B5968C1F30141A2
S214002A70FFF700FC08BD00BF00400E4000300E40CF
S214002A800000C643014B1880704700BF4C1400205E
S214002A900138032818D8DFE800F00211070C0B4BAA
S214002AA0186AC0F308007047084B186900F07F00EA
S214002AB07047064B986900F07F007047034BD3F8C9
S214002AC09C00C0F30A0070470020704700400E408C
S214002AD038B50C460138032812D8DFE800F0022E7D
S214002AE01220C1F308041F4BD3F86838002BFAD124
S214002AF01D4A136A23F4FF7323F001032343136272
S214002B0038BD01F07F04174BD3F86038002BFAD19C
S214002B10154A136923F07F031C431461F0E701F0A4
S214002B207F04104BD3F86438002BFAD10E4A936911
S214002B3023F07F031C439461E2E70B4DD5F89030F9
S214002B406B6A23F0300343F010036B62C1F3C310CB
S214002B5026F0FBFB2A6B054B1340234303432B63F2
S214002B60CEE700BF0020C84300400E4000F8FF0F2D
S214002B70134B5B6A13F0300F09D0202914D030298C
S214002B8015D009B10F4A04E04FF4400201E04FF4BB
S214002B9040020B4BD3F8903032EA0303F9D112F41B
S214002BA0800F07D1012070474FF40002F1E74FF481
S214002BB04002EEE7024BD3F8A000C0F38020704737
S214002BC000400E40FF33E13F022801D0012070474D
S214002BD010B529B1054B4FF48064C3F8A840596678
S214002BE00AB9012010BDFFF7C3FFFBE700400E4007
S214002BF070B5042800F28580DFE800F048425003F4
S214002C003C00022301250024AC46002967D0022898
S214002C104AD000213B4B1D663B4B23449B001B6860
S214002C20002BF9D0002A6CD0374C6444A4002368EB
S214002C30002BF9D0022864D1002962D0314B5B6AA0
S214002C4013F0010F46D001222021FFF7BDFF02201E
S214002C50FFF71EFF0646012200210220FFF7C8FFED
S214002C6031460220FFF734FF264B1D662368002BF3
S214002C70FCD046E02023102504244FF0050CC4E7C2
S214002C808023402506244FF0070CBEE74FF4007360
S214002C904FF4807508244FF0090CB6E70823042586
S214002CA002244FF0030CB0E7164B5B6A13F0300FAC
S214002CB00ED1164BDB6B134B5B6A13F0010FA9D0DA
S214002CC0104E736A23F0300343F010037362A1E7DB
S214002CD000219FE700210220FFF74AFFB7E70949D6
S214002CE00B66084BD3F890100123A3401942F8D185
S214002CF03AB1044BD3F89020012303FA0CF31A429E
S214002D00F7D170BD00400E408004F21000300E4037
S214002D1010B50446F0B1012821D0FFF797FA24BB7E
S214002D20154B04225A67FEF785FCFFF731FAFEF7CB
S214002D30ADFC124BDB6B13F0400F04D1104BD3F8F5
S214002D40C830002BFAD10D4B5968C1F30141FFF78B
S214002D5091FA10BD01221146FFF74AFFDDE7012276
S214002D6011461046FFF744FFD7E7012CDBD1024B94
S214002D7003225A67D7E700BF00400E4000300E40DF
S214002D800000C64310B5FEF793FC0446002100F091
S214002D903FFC1A48FFF7FCF9012211460220FFF714
S214002DA027FFFFF753FA4CB1154BDB6B13F0400FC0
S214002DB004D1144BD3F8C830002BFAD1124B0222A0
S214002DC05A67FEF737FCFFF7E3F9FEF75FFC0C4B9C
S214002DD0DB6B13F0400F04D10A4BD3F8C830002B3E
S214002DE0FAD1074B5968C1F30141FFF743FA04B122
S214002DF010BD0121002000F00BFCF9E70148E801B6
S214002E0000300E400000C64300400E4008B50122C8
S214002E1011460320FFF7ECFEFFF718FA0C4B0522CD
S214002E205A67FEF707FCFFF7B3F9FEF72FFC094BCE
S214002E30DB6B13F0400F04D1074BD3F8C830002BE0
S214002E40FAD1044B5968C1F30141FFF713FA08BDE4
S214002E5000400E4000300E400000C64370B50446E9
S214002E601120FFF729FC012200210220FFF7C0FEF7
S214002E70237C022B2AD00022154E736A23F001030E
S214002E80134373622278134BC3F8A024A288637A94
S214002E9043EAC223F362356B05F07F65E38845EAB3
S214002EA0C325A37A1D43207A45EAC01526F04DFABD
S214002EB005433563627BA37B1B0143EA0233E27B57
S214002EC01343227B43EA0243736370BD0122D3E7B8
S214002ED000400E400000C843034B5868C0F308008B
S214002EE0003818BF0120704700ED00E04209064B8D
S214002EF053F8223000F01F0023FA00F080F00100A3
S214002F0000F00100704700BF00E100E0114BDB6BF2
S214002F1013F0400F1DD10F4BDB6B13F0400F04D1A5
S214002F200D4BD3F8C830002BFAD10A4B1A68C2F3FF
S214002F3001225B68C3F301439A4205D9054A136828
S214002F4043F0100313607047024A136823F010031F
S214002F501360704700300E400000C643074B1B68E6
S214002F6013F0100F05D0064B1B69C3F30443082B60
S214002F7000D07047034B044A1A60FAE700300E4050
S214002F8000400E40EC100020C0EA21011A48C26C36
S214002F90C2F30322194B1B8803F1280103EB5103EC
S214002FA02833013202EB8201B3FBF1F3013B072B1E
S214002FB028BF0723C16C21F0EE6141EA036343F4A6
S214002FC08013C3640E4BB3F90030002B13DB9BB2A7
S214002FD003F1280103EB51032833510801EB4202A9
S214002FE0B3FBF2F3072B28BF0723026D22F0700213
S214002FF042EA03130365704700300E4098B800207D
S2140030009AB80020024B1880024B1980704700BF08
S21400301098B800209AB8002010B1012804D0704754
S214003020034B044A9A657047014B034A9A657047FA
S21400303000300E4077402057372110B71A4BD3F890
S2140030403032032929D8DFE801F002121518DBB266
S2140030504AB91B0333F4704121D11448C16E21F4E0
S21400306070411943C166012A09D001207047C3F395
S2140030700723EDE7C3F30743EAE71B0EE8E71B0366
S21400308033F470420DD10949D1F8E02022F47042A1
S2140030901343C1F8E030012070470020704700203D
S2140030A070470020704700BF0081E00F00300E40E0
S2140030B01B02A2B101221343B3F5007F4DD022D8E4
S2140030C0B3F5807F42D00CD940F20112934215D15D
S2140030D0294BD3F824321A0EC3F3074310E000221C
S2140030E0E9E763B3012B06D1234BD3F82432C3F3AD
S2140030F00722DBB204E00022134601E0002213465A
S21400310003600A607047B3F5407F2DD040F201326D
S214003110934206D1184BD3F828321A0EC3F307434E
S214003120EEE740F20122934206D1134BD3F8283241
S214003130C3F30722DBB2E3E700221346E0E70E4BB9
S214003140D3F81C32C3F30722DBB2D9E70A4BD3F815
S2140031501C321A0EC3F30743D2E7074BD3F82032CC
S214003160C3F30722DBB2CBE7034BD3F820321A0EA9
S214003170C3F30743C4E700BF0081E00F03285CD811
S214003180DFE800F002213448334BD3F8F021C2F3D5
S214003190031C0CEB8C0C02F00F0303EB4C0CC2F37D
S2140031A0033303EB8300C2F3032303EB4003B3EBC9
S2140031B00C0306D0294AB2FBF3F000FB0CFC93424A
S2140031C03ED908467047244BD3F8F021C2F3035C7F
S2140031D00CEB8C0CC2F3034303EB4C0C130F03EB0A
S2140031E08300C2F3036303EB4003E0E71A4BD3F814
S2140031F0F421C2F3031C0CEB8C0C02F00F0303EB60
S2140032004C0CC2F3033303EB8300C2F3032303EB3C
S2140032104003CCE7104BD3F8F421C2F3035C0CEB6D
S2140032208C0CC2F3034303EB4C0C130F03EB83002D
S214003230C2F3036303EB4003B9E700239C46B6E7FB
S214003240ACF5353CACF5247C642303FB01C101EBF3
S214003250500CBCFBF0F070470081E00F80B5010019
S21400326010B5002850D0504BDB6B13F0400F07D141
S2140032704E4B1B78C3F10202102393404A4A136157
S2140032804B4AD2F8804104F0010445F60E03C2F81A
S2140032908031484B1B6803F0010003F0100108431F
S2140032A003F04001084303F00401014303F4807374
S2140032B00B4313663C4BDB6B13F0400F04D13E4BC5
S2140032C0D3F8C830002BFAD1374B1B6813F0100F19
S2140032D00DD0374BD3F8403113F0807FF9D1374B00
S2140032E01A68334B1A61364B1B78052B2BD0344BA0
S2140032F01B78023B0A2B3CD8DFE803F038494D3BED
S2140033003B3B3B3B3B505300294BD3F89020294B8B
S2140033101A601120FFF7D0F9294B1870224BDB6B8F
S21400332013F0400F04D1244BD3F8C830002BFAD149
S2140033301D4B5B68C3F301431C4A13701C4B1A6990
S2140033401E4B1A6022E01F4B1868174BDB6B13F0FE
S214003350400F04D1184BD3F8C830002BFAD1124BCB
S2140033605968C1F30141FEF785FFC0E70020FFF76B
S214003370CFFC104B1B6813F0010F02D10C4B02223E
S2140033801A661CB10A4B0022C3F8802110BD01202A
S214003390FFF7BEFCEDE7FFF7F5FCEAE7FFF736FDC3
S2140033A0E7E7FFF74BFBE4E700300E40CCB8002021
S2140033B000400E40D44E00200000C643D84E0020E9
S2140033C0CBB80020EC100020074A136823F44073A3
S2140033D0417843EA012313604378022B00D07047FC
S2140033E0024B5B6AFBE700BF00300E4000400E4019
S2140033F038B5044608BBFFF789FD194A136943F040
S2140034000403136125F0FFFF25F0FEFF154B1B6834
S21400341013F0100F15D130BF25F0F7FF02F0F8FAC1
S214003420C4B10120FFF71CFF0E4AD2F84C3123F03E
S2140034300043C2F84C3184B138BD0020FFF710FFBE
S214003440D9E725F08FFF05462AF02EFF284625F0FF
S2140034508DFFE1E7FFF782FDE6E7FEF717F9EBE7FA
S21400346000ED00E000300E4038B5044668BBFFF7BC
S2140034704DFD1F4BD3F8802145F60E01C3F8801191
S2140034804FF42071196612F0010F02D00022C3F823
S2140034908021184A136943F00403136125F0B3FF33
S2140034A0154B1B6813F0100F13D130BF02F0B0FAA3
S2140034B0C4B10120FFF7D4FE0F4AD2F84C3123F0F6
S2140034C00043C2F84C3184B138BD0020FFF7C8FE77
S2140034D0CDE725F047FF05462AF0E6FE284625F00C
S2140034E045FFE3E7FFF73AFDE6E7FEF7CFF8EBE741
S2140034F000400E4000ED00E000300E40134B9A698D
S21400350022F03F020378D3B104234178C9B10221E7
S2140035100B438178B9B108210B43C178012900D04B
S21400352000210B4301790B431343084A9361136848
S21400353023F44033417943EA014313607047002384
S214003540E3E70021E4E70021E6E700BF00300E4095
S21400355038B50D4B9C6924F4403444F400349D691E
S21400356045F440354AF6E8529A6025F059FF25F0B2
S21400357058FF002303E0044A946195610133032B4E
S214003580F9DD014B9C6138BD00300E401D4BDB6BF6
S21400359013F0400F35D170B504460D46194BDB6B62
S2140035A013F0400F04D1184BD3F8C830002BFAD1D3
S2140035B0144B5B68C3F301439C4218D0134BD3F8FB
S2140035C00031FEF737F80646022C11D0C4F102028D
S2140035D0102393400B4A136145B1D36B13F0400F91
S2140035E004D1094BD3F8C830002BFAD124B170BDF2
S2140035F00221FEF73FFEE9E700213046FEF73AFEDD
S214003600F5E7704700300E400000C64300400E400D
S21400361038B5114BDB6B13F0400F0BD10C4650B195
S2140036200E4B1B7813B10E4B98420FD92146002043
S214003630FFF7ACFF38BD0B4BD3F80001C0F30420F6
S214003640451CFDF7F7FF05FB00F0E9E721460220E1
S214003650FFF79CFFEEE700BF00300E40DC4E002078
S214003660002D310100400E4008B50278034B1A7059
S21400367001210020FFF7CCFF08BD00BFDC4E002074
S21400368010B41E4B5A6B4AF6E85159631B4B9B6F9E
S21400369013F0010FFAD1194B1B6C13F0030303D080
S2140036A017490124C1F8B44ADBB283421AD0134B3F
S2140036B09B6F13F0010FFAD110490B6C23F0030334
S2140036C003430B640D4B9B6F13F0010FFAD10038C8
S2140036D018BF01200A4BC3F8B40A012A09D05DF8C6
S2140036E0044B70470028FAD1054B0022C3F8B42AD1
S2140036F0F5E7024B00225A63F1E700BF00300E40A8
S2140037000000C6432DE9F04F8DB0009101920023D2
S21400371009930A930B9306930793089303930493D2
S2140037200593664A1288ADF808208DF80A30A0F591
S214003730E163B3F5966F00F2B0800646B0F5E16F30
S2140037408CBF4FF001094FF000096FD94FF4966413
S2140037504FF4E165B6F5E16F6DD9594BD3F81832E1
S21400376008931A0E0592C3F307430893DFF85481B3
S214003770D8F84C70C7F301778DF808703B464A4678
S21400378003A906A8FFF794FCD8F8E030C3F3012895
S2140037908DF8098043464A4604A907A8FFF788FC27
S2140037A0721B089B0599C91A02FB01F1B1FBF4F1E3
S2140037B00B9119440B91DDF80CA0DDF818C0AAEBAC
S2140037C00C0502FB05F5B5FBF4F50995654409956E
S2140037D0DDF810E00798AEEB000B0BFB02F2B2FB35
S2140037E0F4F40A9404440A94059A8A4259D38B4204
S2140037F059D8A64559D3A04259D8AA4559D3AC455D
S21400380059D8019B73B12F4BDB6D23F4FE4323F095
S214003810020343EA0123B6F5E16F16D902210B43F2
S214003820284AD365009B93B9012037E04FF41674FD
S2140038304FF496658EE7224BD3F818320893C3F3FD
S21400384007220592DBB2089390E70021E7E7002203
S21400385039464846FFF7F2FB00B301224146484688
S214003860FFF7ECFBD0B1AC4238BF2C460994E72CEE
S21400387028BFE7240994134B5B6E23F4FF7323F0F1
S214003880010343EA4403B6F5E16F04D9012213436A
S2140038900C4A536602E00022F9E700200DB0BDE8AE
S2140038A0F08F0020FAE70020F8E70020F6E7002077
S2140038B0F4E70020F2E70020F0E700BF08E6020089
S2140038C00081E00F00300E4008B5214B1A6FDB6C0C
S2140038D013F0010F09D012F0060F06D013281FD9D7
S2140038E0143813281ED8082323E0194BDB6C13F07A
S2140038F0010F09D112F0060F06D1092814D90A388B
S214003900092813D8082314E0114BDB6C13F00103CD
S2140039100FD012F0060F0BD1272817D8082308E07F
S214003920042306E0102304E0042302E0102300E052
S2140039300023013B1A0342EA03220549CB6C23F419
S2140039407F431343CB64FFF721FB08BD1023F0E74A
S21400395000300E4008B5074BD3F88039064A136F7F
S21400396023F0070303431367044B1888FFF7ACFFE5
S21400397008BD00BF0000C64300300E4096B80020C9
S21400398008B5084AD36E43F08073D366064BD3F867
S21400399080391BB10420FFF7DDFF08BD0020FFF7CC
S2140039A0D9FFFAE700300E400000C64338B504469B
S2140039B0B0F90C10C3884A2B09D9B3F5FA7F33D374
S2140039C040F6C312934232D84FF0005200E0002275
S2140039D0224BDB6C23F0405323F00103002929DB44
S2140039E001210A4313431D4AD364D2F8E03043F45E
S2140039F04073C2F8E030A288194B1A80FFF7C0FF68
S214003A00B4F90C102089FFF7FDFAA088FFF75CFFD9
S214003A10A07BFFF701FB012211466088FFF772FECC
S214003A20054648B9284638BD4FF08052D0E74FF0DB
S214003A304052CDE70021D4E7084AD36B43F48063B5
S214003A40D3636078FFF71CFEA37A202B04D00022F5
S214003A50044BC3F89427E5E70122F9E700300E404F
S214003A6096B800200000C64338B505464168007881
S214003A70FFF784FB0446A9682878FFF77FFB2B78BE
S214003A8023BB164AA2FB0413D90801EB8103A4EB5F
S214003A9043031B0443EA0153A2FB0012D20843EA85
S214003AA0023302EB8202A0EB420243EA02232A7BA5
S214003AB06AB1042213436A7B5AB108221343AA7BD5
S214003AC04AB101221343064AC2F8903038BD00229C
S214003AD0F0E70022F2E70022F4E700BFCDCCCCCC22
S214003AE000300E4003280AD8DFE800F0020E0A0C69
S214003AF0064B03F1424303F580135B0119607047E0
S214003B00034BF6E7034BF4E7034BF2E790300E4027
S214003B1098300E409C300E4094300E40044AD2F846
S214003B20443423F003030343C2F84434704700BF11
S214003B3000A000402DE9F8430C4615461E46072A0D
S214003B4041D893004FF00F0808FA03F800FA03F77D
S214003B5025F008FC324AD2F8001487EA010303EA8B
S214003B6008034B40C2F8003425F000FC4FF0000874
S214003B70072D3FD8A90003278F4004F003048C408C
S214003B8025F0F0FB264BD3F8082454403C40544024
S214003B90C3F8084425F0EAFB224B2B449B001E602A
S214003BA0214B2B449B009DF820201A600123AB403C
S214003BB01B4AC2F824341D4B2B449B009DF824203E
S214003BC01A60BDE8F883A2F108084FEA88030F27B9
S214003BD007FA03F900FA03F725F0C4FB104BD3F8F5
S214003BE00424574007EA09075740C3F8047425F031
S214003BF0BDFBBDE74FEA8808032707FA08F704F07D
S214003C00030404FA08F425F0ADFB054BD3F80C24A6
S214003C1054403C405440C3F80C4425F0A7FBBBE797
S214003C2000A0004080208510A0208510402185102F
S214003C302DE9F04704460E461F4690463AB183B338
S214003C4000EB400109010122B2402D4B5A50072ECD
S214003C502FD804EB44031B01DFF8AC909944B30063
S214003C604FF00F0A0AFA03FA08FA03F525F07AFB72
S214003C70D9F8002085EA020303EA0A035340C9F88C
S214003C80003025F073FBB8F1000F08D177B304EBD2
S214003C9044042401012101FA06F6194B1E51BDE821
S214003CA0F08700EB400109010122B240154B5A5043
S214003CB0CDE704EB44031B01DFF850909944A6F1CE
S214003CC0080292004FF00F0A0AFA02FA08FA02F502
S214003CD025F048FBD9F8003085EA030202EA0A021A
S214003CE05A40C9F8002025F041FBCCE704EB440419
S214003CF02401012101FA06F6024B1E51CFE700BF50
S214003D000CA000460CA0004404A0004008A0004000
S214003D10114BD3F8182422EA0002C3F81824D3F86B
S214003D20182401400A43C3F81824D3F82C2402436D
S214003D30C3F82C2403F559239B6903F03003202B8A
S214003D4006D0064A936923F0300343F010039361CC
S214003D50014BC3F82404704700A0004000300E401A
S214003D6008B5094B4FF40072C3F88020BFF34F8F9D
S214003D70BFF36F8F054B0021D96619624FF4AA4036
S214003D80FEF78AFA08BD00BF00E100E000200E4002
S214003D9081F00101024B03449B001960704700BF8D
S214003DA0A001F11010B5044601214FF4AA40FEF719
S214003DB073FA23786178A27842EA012242EA036223
S214003DC00B4B1A6000221A62DA625A634FF0004206
S214003DD0DA664FF0FF329A66064A4FF40071C2F870
S214003DE08011E3785B01DBB282F80933116010BD05
S214003DF000200E4000E100E070B50C46C3B201257D
S214003E009D40254EB5660B6800EB400106EB0111A0
S214003E10C1F88030637BC1F8883094F80AC0E37A32
S214003E201B0543EA0C4394F80CC043EA4C53C1F814
S214003E30843022F00302C1F8982025F09AFAF36E37
S214003E402B43F366237A13B1736B2B437363637A46
S214003E501BB1114AD36A2B43D3620F4B1B682279DE
S214003E6022B1D243120262F47F42134062790AB151
S214003E7043EA0223A2791AB1D24362F0FF0213404A
S214003E80E27902B11343044A1360044B9D62D56382
S214003E9025F075FA70BD00BF00200E4000200E44CD
S214003EA010B5C0B20124844025F063FA044AD36EEC
S214003EB023EA0403D366034B1C6225F060FA10BDA8
S214003EC000200E4000200E4410B5C0B201248440ED
S214003ED025F04FFA084B1B6A234206D1064B9B6A15
S214003EE034EA030306D0002400E0002425F047FA55
S214003EF0204610BD0124F9E700200E40054B5A6805
S214003F005B68054B41F671321A649A6822F001022A
S214003F109A60704700300E4000000E40034B9A68CF
S214003F2022F001029A6000221A64704700000E40D8
S214003F300C4B0D4AD26912F0010F02D00BB1013BB7
S214003F40F7E74BB1084B18610122DA60DB6913F022
S214003F50040F04D1002070476FF0020070474FF046
S214003F60FF3070478096980000000E408C46D1B90E
S214003F7000207047DBB1114BDB6913F0020F19D13B
S214003F80614512D250F8042B0C4B9A61013108227D
S214003F90DA600B4B094AD26912F0010FEAD0002B07
S214003FA0E8D0013BF6E70021EAE7002070476FF013
S214003FB0020070476FF00100704700BF00000E401F
S214003FC0809698002DE9F04780460E46254B196CE2
S214003FD01FFA81F941F67131196423494868496826
S214003FE0996841F001019960970800231D4614E086
S214003FF01C498A6822F001028A60B9F1000F2DD0B0
S2140040000A460021116429E051463046FFF7AEFF0C
S2140040100346C0B9554406EB8A06BD4213D208EBE8
S21400402085042046FFF784FF03460028E0D1C4F34A
S2140040300A04C4F50064A308A7EB050ABAEB940FBC
S214004040E2D39A46E0E707498A6822F001028A60CE
S214004050B9F1000F02D00A46002111641846BDE8E7
S214004060F08700BF00000E4000300E4010B42B4B0F
S214004070196C89B241F671321A64294A546852683A
S2140040809A6842F001029A6018610122DA60DB69E0
S21400409013F0040F0BD1214B0222DA60214B1F4A8A
S2140040A0D26912F0010F0ED06BB1013BF7E71B4A45
S2140040B0936823F00103936011B1134600221A643B
S2140040C04FF0FF300DE0154AD26912F0020F0BD107
S2140040D0B3B1124A936823F001039360E1B1002064
S2140040E010645DF8044B70470C4A936823F0010394
S2140040F0936011B1134600221A646FF00100F0E7D6
S214004100064A936823F00103936011B11346002218
S2140041101A646FF00200E4E70020E2E700000E40B9
S21400412000300E4080969800014B01229A6070473E
S21400413000500E4010B4184B5C68002318460BE085
S214004140B2F5803F21D0154A52F83320224202D0E1
S214004150214200D110430133082B19D80F4A02EB35
S214004160C30251680E4AD2F8E82112F0040FEAD1D1
S2140041700A4A52F83320B2F5006F06D0E0D8B2F5FE
S214004180007F02D0B2F5806FDDD141F48071DAE7AE
S2140041905DF8044B704700BF00500E400CE602006E
S2140041A00040E00F4A790B7891F801C043EA8C038F
S2140041B091F802C043EA8C1391F803C043EA0C134B
S2140041C091F804C043EACC2343EA02338A7943EAEF
S2140041D0424304300001014A135070470020044057
S2140041E0014B1860704700BF00008442037813B389
S2140041F0012342780AB3042213438278FAB11022CC
S2140042001343C278EAB120221343027943EA022319
S214004210427943EA02338279AAB14FF4004213434B
S214004220C27943EA0243027A7AB14FF4003213436A
S214004230074A136070470023DBE70022DCE7002212
S214004240DEE70022E0E70022E9E70022EFE700BF12
S214004250002004400D4AD2F8E4309B0003F03C03F3
S214004260D2F8E010C1F381110B438370D2F8E0302E
S21400427003F03F034370D2F8E83003F0F003D2F8BF
S214004280EC20C2F3031213430370704700FF0FE0E5
S214004290024BD3F8F000D3F8F41070470081E00F1B
S2140042A0044BD3F8E4301B0E0A3303F01F0301203F
S2140042B0984070470081E00F024BD3F8FC0080B2B4
S2140042C0704700BF0081E00F024BD3F8FC00C0F33C
S2140042D0074070470081E00F70B5054616461C463D
S2140042E00846D1B1402C20D01BD804B3202C13D1C3
S2140042F0082106FB01F14B0803EB4013B3FBF1F377
S214004300203B0C4A02EAC3032A6822F060022A60B5
S2140043102A6814432C606B6170BD0748FEF7C2FA2A
S214004320E0E7602CF8D10421E3E70621E1E710215D
S214004330DFE700BFF8FF7F004041050040F6AA63B4
S214004340C3600023036041F205024260836043615C
S214004350C3640F4A8264036643678367C3670D4B73
S214004360984207D003F58063984203D003F5806334
S214004370984201D1002303650023836503F180433F
S21400438003F58233984200D070470023C365FBE7ED
S214004390F9FF01000000014038B5044628F0C0FDD2
S2140043A0054DA446BCE80F000FC59CE80F0085E845
S2140043B00F00002038BD00BFE04E002047F6FF7318
S2140043C09A427AD002297AD870B53F4B03EBC100E7
S2140043D08078012838BF0120844613F83130012B3D
S2140043E024D0394B03EBC1035C68002C69D0B4F9C8
S2140043F00030934204DBB4F90230934200DC1346EB
S214004400A288FF2A2DD000252826C8229E46D21A2A
S21400441092FBF6F22A4412B22B4B03EBC1014D7805
S214004420954201DD002A31DA6A1E2FE0264B03EBA7
S214004430C103DB78181A002585420FD2431BA0EB78
S2140044405303214C04EBC10EDEF8044034F913404C
S214004450944201DC1D46EFE7581EEDE76044C0B20B
S2140044602AE0B4F90620B4F908600125CEE75C33EB
S2140044701649A1FB03139B09013212B21646954258
S2140044800FDD04EBC201898899420AD304EBC2010E
S2140044908B68B1F9061001FB0E33002BE7DA002318
S2140044A0E5E7721E04EBC20292889A4200D31A46CF
S2140044B0624500D31046C0B270BDFF207047002092
S2140044C070470020F8E700BFE04E0020D34D621092
S2140044D008B50348FFF760FF012028F023FD08BD5C
S2140044E00000030010F1860F14D00EDC10F1930FBD
S2140044F013D010F1870F05D10B4B994207D06FF000
S2140045006D0070474FF0FF30704748B970476FF046
S214004510720070476FF0710070476FF06F00704761
S2140045204FF0FF30704700BF0500000210B5044C86
S214004530214600F04BF92146FFF7D4FF10BD00BF1F
S2140045400500000208B500F065F90249FFF7CAFF4A
S21400455008BD00BF0500000200B583B0002301932C
S21400456001AB142200F0E8F90249FFF7BBFF03B0E5
S2140045705DF804FB0500000208B5034B034A044936
S214004580044808F03BFB08BDDB97020003980200D6
S2140045902F9802003D980200F8B5174B1B7803F0E1
S2140045A0FF040BB12046F8BD06F0DEFC05460128E8
S2140045B005D80027104B1B789BB900260CE006F0A8
S2140045C00FFD071EF6DAEDE70C4B1B680C4A64205D
S2140045D000FB062098470136012EF5DD064B01222A
S2140045E01A70012D01D80124DCE7384606F01CFDC0
S2140045F00028D7DB0124D5E7CDB80020FC11002029
S214004600044F002038B5FFF7C7FF002407E000215D
S214004610286E06F097FD034688B99BB10134012C3D
S21400462014D81A4D642303FB04552DB106F09CFCE8
S2140046300228ECD00023F0E76FF01B03EDE76FF0E5
S2140046401D03EAE7124B53F8340000E0002068B17F
S2140046500F4B03EBC40462680E4B13449B0001220D
S2140046601A600D4A13680133136038BD0A4B1C6884
S21400467004F00104094B1B68044A642000FB042074
S2140046809847034B53F83400E2E700BF044F00207E
S21400469054E602008005F210004F002000120020B1
S2140046A008B50E4B984206D003F58063984200D0BA
S2140046B008BD012200E00022094B03EBC203596843
S2140046C0084B0B449B0000211960074B1B680749E9
S2140046D0642000FB02109847EAE700BF00000F4086
S2140046E054E602008005F21004120020044F002059
S2140046F02DE9F04389B004460D4690461F46DDF886
S2140047004090FFF77FFF2E4B9C4255D10646002473
S21400471004604460C464436823F4406343600463F5
S2140047204463A44609E055F82C301BBA08AA02EBED
S2140047308C0242F8203C0CF1010CBCF1070FF2D9B8
S21400474024F010FE0446694606F5827024F030FE1A
S214004750204624F00BFE1B4B336500240EE024F0AD
S21400476001FE054608EB841106F5D27024F036FEED
S214004770284624F0FBFD144B336501344C45EED33C
S21400478024F0F0FD0446394606F5807024F01BFE42
S214004790204624F0EBFD3046FFF782FF002205E0BE
S2140047A057F822301BBA47F822300132072AF7D9C9
S2140047B0002009B0BDE8F0836FF08800F9E700BF7D
S2140047C005000002888AC801070D8101B8B170B5DE
S2140047D00E4605466C22002124F076FC0B4B9E42CA
S2140047E010D10B4C0FCCE86029616A61AB610FCC2D
S2140047F0E86129626A62AB622E60002070BD6FF0CD
S214004800860070476FF08500F8E700BF05000002DD
S21400481064E60200002800F085802DE9F04F83B0A2
S2140048200F4614460546F9B12A68424B9A427CD197
S214004830002C7DD06B6803F03F08C8F14006234487
S2140048406B60A34202D2AB680133AB60B8F1000FD5
S21400485001D0B4420DD23F2C56D94FEA941917F026
S214004860030F1ED0002648E0002ADDD06FF0860039
S2140048704CE005F12C093246394609EB080029F0D0
S214004880DBFA294651F80C0B012300930B464A46E7
S214004890FFF72EFF3744A8F1400844444FF00008C5
S2140048A0D9E7294651F80C0BCDF800900B463A464E
S2140048B0FFF71EFF23E005F12C0207EB86131046D8
S2140048C003F1400BD3F800A0D3F804E0D3F808C0F7
S2140048D0D968C0F800A0C0F804E0C0F808C0C160FD
S2140048E0103310305B45EDD1294651F80C0B0123EF
S2140048F000930B46FFF7FCFE01364E45DBD324F053
S2140049003F031F4404F03F041CB9002003B0BDE879
S214004910F08F05F12C0022463946404429F08CFAE7
S2140049200020F3E76FF0860070476FF08800EDE731
S2140049300020EBE70500000200285FD0F0B583B04A
S2140049400E461F4605464BB16EB12968304B99425C
S21400495057D1132A58D90020844628E0002AF3D0DD
S2140049606FF0860031E0002AEFD06FF086002CE072
S214004970C0F10202920005EB80035C68E300DBB244
S2140049806344D11D694401F8083C6109931D6B44DA
S21400499003F8081C610B531D6B4403F8081C630DD9
S2140049A004326A4402F8083C4FEA547C013001287D
S2140049B0DED96A6802F03F02372A08D8C2F1380208
S2140049C014492846FFF726FF20B103B0F0BDC2F118
S2140049D07802F5E7082269462846FFF71BFF0028FD
S2140049E0F3D114233B60EB682C696969AA693360CC
S2140049F07460B160F260EB693361E6E76FF08600E1
S214004A0070476FF08800E0E76FF08900DDE700BFD1
S214004A100500000284E6020010B584B0064BEC46A2
S214004A200FCB8CE80F0000248DF801406046FEF79F
S214004A30BDFF204604B010BDC4E6020010B586B027
S214004A400DF1040C184C0FCCACE80F002368ACF842
S214004A500030164BD3F8B43013F4002F16D1134B96
S214004A60D3F8B830C3F30803B3F1FF3F18D0ADF85E
S214004A700A300F48FCF722FE01A8FEF7EFF94FF4C4
S214004A80FA70FDF7FFFF002006B010BD4FF0FF33B1
S214004A90084A12884FF6FF718A42E5D01346E3E7CC
S214004AA040F23F13E3E700BFD4E602000081E00FC8
S214004AB0C01753020001E00F6FF0040307E003F095
S214004AC00F010A4A0A44A021117601335BB22E2B4D
S214004AD009DC002BF3DB03F1604202F56142A02102
S214004AE082F80013F1E70020704700BFFCEC00E0FE
S214004AF030B583B024F036FC0E4B1D780E4B1C6888
S214004B0024F034FC26F083FE08B1FF2D03D154B107
S214004B10204603B030BD01AA064B1978002024F0C9
S214004B2092FB019CF3E724F01DFC044B1C6824F068
S214004B301DFCEDE75B140020CC4F0020D04F00207A
S214004B4010B5044624F00EFC024B1C6024F00EFC4C
S214004B50002010BDD04F002010B586B01446137A42
S214004B6003EB43031B0103F1804303F56223D3F8F1
S214004B709420E16823690B449A4216D061699142F9
S214004B8015D38B1AABB90123637694F82D304BB14D
S214004B90002384F83530E369132120469847636A7A
S214004BA020469847002006B010BD0A46E6E79B1A46
S214004BB0E8E704940549039100210291019301233B
S214004BC000936368216824F05CFBEBE7594B000018
S214004BD070B584B004460D4690F83C6006F0C4F903
S214004BE0022803D084F83C5004B070BD05B15EB115
S214004BF0002DF7D1002EF5D0D4F8940006F042FC34
S214004C000023C4F89430EDE70A4B0093002101918D
S214004C1004F198030293502303936A46012006F09A
S214004C2029FBC4F89400237E002BDBD006F0CEFBD5
S214004C30D8E700BFE8E6020030B589B00446002396
S214004C404376007AFDF7F4F8237A03EB43031B015F
S214004C5003F1804303F56223D3F89420E5682369C3
S214004C602B449A4214D06369934213D001232376CF
S214004C7094F83C3043BB0DF11F01207AFDF764F930
S214004C809DF81F3063BB207AFDF7F2F809B030BDFF
S214004C902A46E8E700232376656194F82D3003B1B1
S214004CA02563636A2046984723690494144A03924E
S214004CB00022029201930123009363682A4621682A
S214004CC0207A24F0DEFADEE7237ED4F8940006F09D
S214004CD0BDFB0028CFD1D4F8940006F077FBCAE7D6
S214004CE00DF11E01207AFDF703F99DF81E30002B0A
S214004CF0C9D122460021207AFFF72EFFC3E700BF66
S214004D00594B000038B50546046806F02DF9022810
S214004D105CD0FFF7EDFE854264D094F93630002B68
S214004D2008DB03F01F015B0901228A4060332F492C
S214004D3041F8232094F93630002B0CDB03F01F01DA
S214004D405B0901228A402033284941F82320BFF31B
S214004D504F8FBFF36F8F94F93730002B08DB03F0CB
S214004D601F015B0901228A406033204941F8232055
S214004D7094F93730002B0CDB03F01F015B0901228E
S214004D808A402033194941F82320BFF34F8FBFF3E1
S214004D906F8FD4F8940006F075FB206C06F046FA88
S214004DA0D4F8E80006F042FA207AFDF781F8207A77
S214004DB0FCF7E0FFFCF7B8FF00232B606B60AB60EE
S214004DC02B616B61A36A2046984738BD4FF0FF31D0
S214004DD0D4F8E80006F0B6F94FF0FF31206C06F084
S214004DE0B1F996E70020FFF7ABFE96E700E100E09A
S214004DF02DE9F0438FB006460C4615461F464FF485
S214004E009E720021204624F05FF995E8030084E8AE
S214004E10030000232376EB68E3602A69226163615E
S214004E202A7D84F82C20AA7D84F82D202363012374
S214004E3084F8343084F83530E761169B2362179B7C
S214004E406362189BA36295F9083084F8363095F9AA
S214004E50093084F837303460564B7360564BB36075
S214004E60564B3361564B7361564BF360FCF7ACFF01
S214004E7018B1554A904240F09780002104F108008E
S214004E80FCF720FF002840F09180504B3362504BD7
S214004E9073624FF0010884F83C804E4B0A9300275B
S214004EA00B9704F144030C934FF05009CDF834905F
S214004EB00AA806F0EFF82064474B0A930B9704F114
S214004EC0EC030C930AA806F0E5F8C4F8E800434B98
S214004ED00693079704F198030893CDF8249006AA42
S214004EE03946404606F0C6F9C4F894003C4BB36118
S214004EF03C4BF3619DF8683084F83B309DF8643095
S214004F0084F83A3084F8397084F83880697D204611
S214004F1024F021FE95F90930BB4208DB03F01F019F
S214004F205B0942468A4060332F4941F8232095F9B1
S214004F300930002B07DB03F01F015B0901228A40C2
S214004F40294941F8232023690494284A0392002221
S214004F5002920193012300936368E2682168207A35
S214004F6024F08FF9044618BB95F90830002B08DBAF
S214004F7003F01F015B0901228A4060331A4941F899
S214004F80232095F90830002B07DB03F01F015B098F
S214004F9001228A40144941F823203046FFF7D0FD0D
S214004FA020460FB0BDE8F0831024F9E71024F7E799
S214004FB01024F5E7B3990200E79A0200CD980200A4
S214004FC0D3980200054D0000038000F0D14B00008E
S214004FD0DF980200F4E6020000E70200E8E60200BE
S214004FE0579B0200D998020000E100E0594B0000F0
S214004FF02DE9F04186B016461C460C9D012304930D
S21400500003935A4B02935A4B019300230093594B38
S2140050100A462946FFF7ECFE074618B1384606B0A2
S214005020BDE8F0812368C5F83C316368C5F84031B7
S214005030637A85F84531237A85F84431E37A85F832
S2140050404731A37A85F84631637B85F84931237B5F
S21400505085F84831E37B85F84B31A37B85F84A31E8
S21400506001214548FDF718F901214448FDF714F9D8
S21400507001230422617A207AFEF7DAFD0123022258
S214005080E17AA07AFEF7D4FD01216068FDF704F905
S2140050904FF0000886F800803146206824F0C9FAF0
S2140050A02268536F43F0030353672268936F23F419
S2140050B0F85323F01F03617C43EA0123A17C0B43D2
S2140050C09367236803225A6785F84C81737E202BEA
S2140050D032D028D8002B34D0102B22D1012385F8CB
S2140050E04C31002600230222617B207BFEF7A0FDC8
S2140050F0E27C2368DA672268536E43F00403536643
S2140051002268536F43F010035367E6B9D5F83C2185
S214005110D36C43F00403D3640521206824F082FA9C
S2140051207CE723277AE7302B04D1032385F84C311C
S2140051300126D7E7232771E7022385F84C3101269D
S214005140E3E70026E1E700230422E17BA07BFEF7ED
S2140051506FFD2268D36F217D43EA0123D36722685F
S214005160536F43F020035367D0E700BFB99B02009C
S214005170AB9B0200459C02004041050000350A003A
S21400518070B586B0002305930493BFF35F8F3F4C42
S214005190636A23F480336362D4F8943023F0010307
S2140051A0C4F89430BFF34F8FBFF36F8F4FF00050AB
S2140051B024F0D5FD364A1368400000F03E0040F06B
S2140051C0985040F00110C4F898304FF00051C4F8E1
S2140051D09C10C4F8A000013313602E4D2E4CA5423F
S2140051E013D1BFF35F8F294B0522C3F894205A6A68
S2140051F042F480325A62BFF34F8FBFF36F8FBFF314
S2140052004F8FBFF36F8F06B070BD03AB019304AB37
S214005210009305AB2A1B2946204624F084FD0398FC
S214005220C208072800D82022049B5B1BB3FBF2F3BE
S214005230012101FA03F3DBB2013BDBB2059E013D1F
S214005240AD1BB5FBF2F50D44AB40DBB2A41BB4FBC3
S214005250F2F201FA02F4013CE4B21C4324F07FFDB2
S2140052600B4D2A68430003F03E0343EA042343F051
S214005270407343F001130549C1F89820C1F89C60BB
S214005280C1F8A03001322A60ABE700BF00ED00E0B5
S214005290D44F0020801400206814002070B586B01B
S2140052A004460D46002305930493BFF35F8F334BEC
S2140052B05E6A26F480365E62D3F8946026F00106B5
S2140052C0C3F89460BFF34F8FBFF36F8F03AB0193A8
S2140052D004AB009305AB24F026FD0398C20807280C
S2140052E000D82022049B5B1B1344013BB3FBF2F364
S2140052F04FF0010C0CFA03F3DBB2013BDBB2059E68
S214005300AD1B013DB5FBF2F5AB40DBB2A41B14446C
S214005310013CB4FBF2F40CFA04F4013CE4B21C4386
S214005320FF2C29D024F01BFD15490A68430003F022
S2140053303E0343EA042444F0985444F001140F4B0F
S214005340C3F89820C3F89C60C3F8A04001320A60F6
S214005350BFF35F8F0522C3F894205A6A42F4803266
S2140053605A62BFF34F8FBFF36F8FBFF34F8FBFF3FA
S2140053706F8F002006B070BD2820FBE700ED00E030
S214005380D44F0020BFF34F8F0549CA6802F4E0628D
S214005390044B1343CB60BFF34F8F00BFFDE700BF46
S2140053A000ED00E00400FA05012000E001300228CC
S2140053B004D8431E024AD35C002BF7D0C0B2704715
S2140053C000500020F8B506460F46032903D8DFE84C
S2140053D001F00A040608002506E0042504E010256E
S2140053E002E0402500E00125032E05D8DFE806F0A0
S2140053F002070A0D45F002050B4B1C6809E045F054
S2140054000805F9E745F02005F6E745F08005F3E7DF
S214005410246844B163681A682A42F9D05B68394642
S21400542030469847F4E7F8BDFC4F0020134B1B7836
S21400543013B310B5124B1B785BB9002024F0B3FCF5
S21400544068B9104B01221A700F4B1A780F4B1A705E
S21400545010BD24F0A7FC0A4B00221A70EDE700F0FE
S214005460F9FA064B00221A70074C01212078FFF744
S214005470A9FF01232370EBE7704700BFD4B80020D4
S214005480D0B80020D3B80020CEB80020D7B800206F
S21400549008B50B4B1B78024660B101210B44084946
S2140054A00B7032B1074B1B78012B02D9064B1B78C9
S2140054B013B108BDFF21F1E7FFF7B8FFF9E700BF1A
S2140054C000500020CEB80020D3B8002010B523F03E
S2140054D049FF0446054B1B782BB9FFF7A7FF20466C
S2140054E023F044FF10BD23F041FFFBE7CFB80020B8
S2140054F010B523F037FF0446164B1B78D3B1164B76
S2140055001B782BB9144B01221A70144B00221A7008
S214005510134B1B7893B9204623F028FF012024F074
S21400552042FC23F01FFF04460B4B1B7863B9094B64
S21400553000221A70204623F019FF10BD24F032FC1A
S214005540074B00221A70E6E700F084FA024B0022AE
S2140055501A70ECE7D4B80020CFB80020D3B80020EB
S214005560D0B8002010B584B0A0B1831EDBB2012BEA
S21400557013D803A9002000F04FFC70B91C4B1B6821
S214005580039A9A4212D80120FFF782FF194B012294
S2140055901A7002E0174B1B780BB904B010BD002040
S2140055A0FFF776FF134B00221A70F6E7124B1C68C3
S2140055B000F096FA0444039B9C4206D30120FFF7B2
S2140055C067FF0C4B01221A70E7E700F0B3FA60B9E8
S2140055D0002343F00203019300230093074A039934
S2140055E0091B074824F0E7FBD7E70423F1E700BFD1
S2140055F0F84F0020D6B8002008500020CD540000F8
S214005600D84F002038B523F0ADFE0446124B1B7869
S2140056107BB900F075FB0546D0B9104823F00CFEA8
S21400562000F03EFE0E4B00221A6000F039FC0D4BD7
S214005630186000F075F924F0B8FB0B4B1860064BA9
S21400564001221A70204623F091FE0025284638BD18
S214005650204623F08BFEF9E7D1B80020FC4F00204F
S2140056600850002004500020F84F002038B50138BC
S214005670144B1B5C0A46A1B101210B4411490B5483
S21400568072B1114B1D78012D0AD9FFF78DFE044625
S214005690012808D9032D09D00B4B1878A0420AD14F
S2140056A038BDFF21E9E7FFF723FFF5E70228F3D12E
S2140056B000F024FAF0E72146FFF784FE024B1C7048
S2140056C0EEE700BF00500020CEB8002038B50446F4
S2140056D0416023F047FE05462146034823F0AFFD10
S2140056E0284623F043FE38BDFC4F0020014B1868C7
S2140056F0704700BF0850002038B523F033FE05463B
S214005700094B1B78012B0AD9FFF7F0FF044600F07F
S214005710E7F90444284623F029FE204638BD23F046
S21400572025FE0024F9E700BFCEB80020064B1B6814
S21400573003FB00F000F5742000F23F20034BA3FBB0
S2140057400030800C704700BF0450002083DE1B43EF
S21400575038B524F011FB0546AFF3008026F0C5FEF1
S21400576000283CD1AFF30080284624F009FB98E0DF
S2140057700020FFF78DFE4B4B00221A7033E024F01A
S2140057800CFB3DE02146FFF71DFE41E0464B0122A3
S2140057901A70464B187800F089F9454B1B781BB1F8
S2140057A0444B1A78414B1A70AFF30080284624F019
S2140057B0E7FA24F0E1FA05463F4B1B7843B13E4B2F
S2140057C000221A70394B1B783A4A1078834231D03F
S2140057D03A4800F0D1FA07F0D7F9002830D0314B1C
S2140057E01B78002BC4D1FFF7DFFDFFF7BBFEFFF7EA
S2140057F0DBFD0446012803D92B4B1B78002BBED0BB
S2140058002A4B1878A04205D0294B1B78002BB9D01C
S214005810264B1C70012CBCD9234B1B78002BB8D10F
S214005820274B1B78002BB1D124F0BBFA254B012265
S2140058301A70ABE701211D4B1970FFF7C3FDC7E7D0
S214005840194B1B78F3B11A4B00221A701D4B1B78AC
S21400585073B124F0A7FA1B4B00221A7008E001204F
S21400586000F024F9284624F08BFA24F085FA054641
S214005870002024F098FA0028F1D000F0EBF80A4B4C
S21400588000221A700020FFF76DFE084C00212078D9
S214005890FFF798FD00232370AFF30080284624F01E
S2140058A06FFA38BDD6B80020D4B80020CEB8002095
S2140058B0D3B80020D7B80020D2B80020D84F002098
S2140058C0D5B80020D0B80020134B1B78834222D0D6
