S01A00007A776176655F41544C41535F4B4E585F4E45572E73333740
S214000000001000203D190000679A0200679A02005F
S214000010ADA50200679A0200679A0200679A02007E
S214000020679A0200679A0200679A020001010000C0
S214000030679A0200F4EF02003101000049C1020095
S21400004055E9010075E60200679A0200679A020009
S2140000509D7B020085E6020081E6020085830200A1
S21400006079E602000123000011240000A109000027
S21400007009190000F9180000679A0200679A020042
S214000080679A0200679A020031240000F107000018
S21400009011060000E5070000679A0200679A020052
S2140000A0679A0200679A0200679A02004DB5000040
S2140000B0B98302007DE60200996C0200C565000067
S2140000C0F5830200679A02005D6C0200679A0200E0
S2140000D0679A0200679A02006D090000390900005D
S2140000E0679A0200679A0200679A0200679A0200FF
S2140000F0679A0200679A0200679A020000000000F2
S214000100074B19680868B0E8F04F80F30988BFF31A
S2140001106F8F4FF0000080F311887047AFF30080B8
S214000120D45700200000000000000000000000007F
S214000130EFF30980BFF36F8F154B1A681EF0100F90
S21400014008BF20ED108A20E9F04F10602DE9090065
S2140001504FF0200080F31188BFF34F8FBFF36F8FEF
S2140001600BF0E8FF4FF0000080F3118809BC196817
S2140001700868B0E8F04F1EF0100F08BFB0EC108A09
S21400018080F30988BFF36F8F704700BFAFF300801E
S214000190D45700200000000000000000000000000F
S2140001A001F0FF01102A2BDB10F0070F08D010F823
S2140001B0013B013A8B422DD010F0070F42B3F6D127
S2140001C0F0B441EA012141EA014122F007047FF040
S2140001D000070023F0E80256083C85EA010586EA97
S2140001E0010685FA47F5A3FA87F586FA47F6A5FAD3
S2140001F087F68EB9EED1F0BC01F0FF0102F00702DF
S21400020032B110F8013B013A83EA010313B1F8D189
S2140002100020704701387047002D06BF354603386A
S214000220073815F0010F07D1013015F4807F02BFA3
S214000230013015F4C03F0130F0BC0138704700BFF4
S21400024038B504460D46012812D0022C1DD0032CCA
S21400025028D0042C33D0324B1B88022B45D0314B90
S2140002601B88022B47D0304B1B88022B4CD038BD46
S214000270472007F069FA2A4A1388013313804FF49F
S214000280FA712A4815F0D2FDDFE7482007F05CFA3D
S214000290244A1388013313804FF4FA71234815F06B
S2140002A0C5FDD4E7492007F04FFA1F4A13880133EB
S2140002B013804FF4FA711D4815F0B8FDC9E71C4CC1
S2140002C025704A2007F040FA207828F01BFB002211
S2140002D0184B28F0ABFC10A3D3E9002328F07CFBD6
S2140002E028F08CFD144B1870B5E70022114601204B
S2140002F001F046F8B3E700220121104601F040F86D
S2140003000E4815F0C5FCAEE701220021084601F0B4
S21400031037F8ACE7AFF300800000000000E06F4065
S2140003202CB800202EB8002030B80020C44300208F
S21400033062B800200000594061B8002004EC0200BA
S21400034030B5A5B0684600F037FE482269460DEB8A
S21400035002002EF01AFA204B1D78284628F0D2FA12
S21400036000221E4B28F062FC19A3D3E9002328F0D4
S21400037033FB28F043FDC4B222462946184815F040
S21400038063FC184B1B783BB9174B1B786BB9174BA4
S2140003901B789BB925B030BD214612A800F034FE6C
S2140003A00D4B1A78124B1A70EEE7214612A800F091
S2140003B089FE094B1A780F4B1A70E8E7214612A8F7
S2140003C000F0DEFE044B1A780B4B1A70E2E700BF13
S2140003D00000000000E06F4062B8002000005940B6
S2140003E0E8ED020066B8002067B8002068B8002074
S2140003F063B8002064B8002065B8002010B5054C2E
S214000400237833B9044B13B10448AFF300800123BB
S214000410237010BD58430020000000000C4103006C
S21400042008B5034B1BB103490348AFF3008008BD72
S214000430000000005C4300200C410300A3F5803A56
S214000440704700BF174B002B08BF134B9D46FFF7A6
S214000450F5FF00218B460F461348144A121A29F05E
S2140004603FFA0E4B002B00D098470D4B002B00D0C8
S21400047098470020002104000D000D48002802D0F7
S2140004800C48AFF3008000F02BF82000290029F07C
S21400049041FA00F011F800BF00000800000000005C
S2140004A000000000001000208C140020C8BA0020B5
S2140004B0000000000000000008B5074B044613B11A
S2140004C00021AFF30080054B1868836A03B1984794
S2140004D0204629F0A7F900BF0000000000EC02004B
S2140004E070B50D4D0D4C641BA4100026A64209D114
S2140004F00B4D0C4C2EF074FB641BA4100026A64279
S21400050005D170BD55F8043B98470136EEE755F81F
S214000510043B98470136F2E7841400208414002038
S21400052084140020881400200023034A1380034A02
S2140005301380034A138070472CB800202EB8002082
S21400054030B800202DE9F0412C4B197806294DD003
S21400055003294FD02A4815F077FBBDE8F081294BD8
S2140005601B5D012B3CD0022B3CD0032B3CD0712BC7
S2140005700FD104250DE04FF0FF08424629462248D9
S21400058015F062FB41462846FFF75AFE4746042D03
S21400059019D00134E4B21D4B1B78A342DDD92646A0
S2140005A0002CDCD0042CF4D16B1EDBB2022BEED870
S2140005B0144B13F80480B8F1000FDED0B8F1010F29
S2140005C0D9D0B846D9E703360E4B9F5D3A46294642
S2140005D00D4815F039FB39462846FFF731FED8E7B7
S2140005E01D46D6E71D46D4E71D46D2E7002427461B
S2140005F02546D0E7452007F0A7F8AEE760B800200C
S2140006002CEC0200744300201CEC02005FB80020B3
S21400061008B56C48036C83646B4B01225A625A60BF
S21400062029F065FC694B1B78013B0A2B00F2BD8064
S214000630DFE803F0061524333C455F6B7B9BAE007A
S214000640552803D0614B0B221A702EE0604A1378AF
S2140006501844C0B210705D4B02221A7025E0AA281A
S21400066003D05A4B0B221A701FE0594A13781844CD
S214000670C0B21070554B03221A7016E0022803D041
S214000680524B0B221A7010E0514A13781844C0B22D
S21400069010704E4B04221A7007E04D4A1378184427
S2140006A0C0B21070494B05221A7008BD484A13782C
S2140006B01844C0B21070454B06221A70F5E7431F67
S2140006C0DBB2012B0AD9032808D0404B0B221A7044
S2140006D00023404A1370404A1370E6E73C4A1378FA
S2140006E00344DBB213703C4B1870384B07221A7069
S2140006F0DBE7374A13780344DBB2137080B2374B1C
S2140007001880324B08221A70CFE7314A1378034418
S214000710DBB21370314A13889BB240EA032080B2E2
S21400072010802A4B09221A70BFE7294A137803441F
S214000730DBB21370294A13889BB2013B9BB213802D
S214000740244B1B78402B02D9204A0B211170244AD7
S214000750D05401331F4A1370204B1B889BB2002BCA
S214000760A3D11A4B0A221A709FE7194B1B78DBB2EB
S21400077083420AD00023164A1370184A1380154A7B
S2140007801370124B01221A708FE7FFF7DBFEF1E7BA
S21400079000230F4A1370114A13800E4A13700E4A34
S2140007A013700A4B01221A707FE70023084A137061
S2140007B00A4A1380074A1370074A1370034B012234
S2140007C01A7072E7000401400084014060140020A3
S2140007D05EB800205FB8002060B800202AB800206D
S2140007E074430020014B1A6C9A6470470004014061
S2140007F0084BDA685A6102225A600023064A1370D0
S214000800064A1380064A1370064A1370064B0122E6
S2140008101A707047008401405EB800202AB8002095
S2140008205FB8002060B800206014002030B589B0A2
S2140008300121154801F0E8FE144D4FF6FF73EB61F9
S214000840002405940694079402238DF81A3005AA0E
S2140008502146284629F0C6FA019402940394ADF87E
S214000860104001238DF804308DF8063001A9284683
S21400087029F067FAAB6943F01003AB61044B4FF401
S21400088000221A6009B030BD001204000084014046
S21400089000E100E010B588B00121204801F0B4FE68
S2140008A00DF1040C1E4C0FCCACE80F0094E80700CA
S2140008B08CE80700002301220721022003F070FBCA
S2140008C0012304220621022003F06AFB154C01A92D
S2140008D0204629F0CCFA40F60B33A367636F43F04B
S2140008E003036367E36C43F00403E364E36C43F0E1
S2140008F00103E3640C4B4FF480121A604FF40012AD
S2140009001A60FFF793FF094A0121094805F08AFF9C
S214000910084815F099F908B010BD00BF0042040061
S214000920A8EC02000004014000E100E029050000F8
S214000930C443002050EC020008B5094A136C9364C7
S21400094013F0010F07D1074B4FF40062DA664FF43D
S2140009508062DA6608BD044815F076F9F3E700BF52
S2140009600008014000A0004460EC020008B50848FA
S214000970036C8364074B01225A625A6029F0B7FA67
S214000980054A13880549C8540133138008BD00BFC3
S214000990000801400080014028B80020B443002031
S2140009A010B50E4BDA685A6102225A60002400E045
S2140009B001340A2C0DDC082CFAD1094B1A7A094BA3
S2140009C01B789A42F4D0064B1979D87800F010FDBF
S2140009D0EEE7054B00221A8010BD00BF00800140E4
S2140009E0B443002061B8002028B8002030B589B094
S2140009F00121154801F008FE144D4FF6FF73EB6118
S214000A00002405940694079402238DF81A3005AA4C
S214000A102146284629F0E6F9019402940394ADF89D
S214000A20104001238DF804308DF8063001A92846C1
S214000A3029F087F9AB6943F01003AB61044B4FF420
S214000A4000621A6009B030BD000204000080014058
S214000A5000E100E010B588B001212C4801F0D4FD7B
S214000A600DF1040C2A4C0FCCACE80F0094E80700FC
S214000A708CE807004FF4964303934FF40073ADF8E9
S214000A801230002301220521084603F089FA0123CB
S214000A9004221146052003F083FA002304220A21CB
S214000AA0022003F07DFA002304220B21022003F02B
S214000AB077FA184B4FF48062DA664FF40062DA6613
S214000AC0154C01A9204629F0D2F941F21113A3676B
S214000AD0636F43F003036367E36C43F00403E3646C
S214000AE0E36C43F00103E3640C4B40225A6080221F
S214000AF05A60FFF77BFF0A4A01210A4805F092FE7A
S214000B00094815F0A1F808B010BD00BF0052040057
S214000B10A8EC020000A000440008014000E100E04C
S214000B2029050000C44300207CEC020010B50D4BE4
S214000B304FF40062DA664FF48062DA660A4B186099
S214000B40002406E0084B1B68195D084829F0D6F912
S214000B500134074B1B889BB2A342F3DC054815F013
S214000B6073F810BD00A00046C043002000080140F6
S214000B7050140020C4ED020030B587B0844601ACA6
S214000B801A4D0FCD0FC42B6823708DF813C0614625
S214000B90174815F059F8174B1B881A0A8DF80720C6
S214000BA08DF8083000231A4608E003F1180169445E
S214000BB011F8141C0A4492B201339BB20F2BF4D9DD
S214000BC08DF81420002409E004F118036B4413F890
S214000BD0141C094829F092F90134A4B2102CF3D958
S214000BE0044A13880133138007B030BDC4EC0200FA
S214000BF090EC020032B800200004014030B5AFB0DF
S214000C000C464B78042B29D00546052B3ED105F023
S214000C1097FF08B102203AE0AA22002103A828F094
S214000C205FFE6946284605F05FFF70238DF80C309E
S214000C3006238DF80D30A0788DF80E0001238DF870
S214000C400F3000F09DF88DF810000023009A052163
S214000C5003A829F05DFFB8B9022018E00D4814F08B
S214000C60F3FF94F90330002B05DB2179A07800F020
S214000C70CFF8FF200BE0084814F0E6FFE1780748BD
S214000C8014F0E2FFFF2002E0FF2000E000202FB07B
S214000C9030BD00BFD8EC0200F0EC020000ED020010
S214000CA010B504460BF0A6FB214606F0D3FE05F071
S214000CB041FE09F0B7FE042029F004FF034814F0B3
S214000CC0E7FF2AF0B6F80028FBD110BD14ED0200AD
S214000CD010B582B004461D4814F0DAFF01201CF05F
S214000CE033FB2DF020FD1A4A60211A4814F0A2FFAB
S214000CF02146194814F0A8FF09F094FD04460DF1AA
S214000D0007001AF049F99DF807002AF069F990B132
S214000D109DF807302372217A104814F095FF09F0E9
S214000D2085FD0346022201210D4814F0C3FA38B1AE
S214000D30002002B010BD04F108001AF053FFEAE7E5
S214000D407E2108481BF002FDF2E700BF34ED0200EA
S214000D5029E702009C44002048ED02006CED0200EA
S214000D60A10C00007CED020008B5024648230021D5
S214000D700248006820F01CFC08BD00BFFC100020E4
S214000D800138112840D8DFE800F0090C0F121518BA
S214000D901B1E2124272A2D303336393C1B4B18883E
S214000DA070471A4B58887047184B98887047174BEF
S214000DB0D8887047154B18897047144B5889704768
S214000DC0124B188B7047114B588B70470F4B988BF4
S214000DD070470E4BD88B70470C4B188C70470B4BDC
S214000DE0588C7047094B188E7047084B588E7047C2
S214000DF0064B988E7047054BD88E7047034B188F5E
S214000E007047024B588F7047FE20704704440020FE
S214000E1008B5431E112B0DD8DFE803F0091014188F
S214000E201C2024282C3034383C4044494E53274B51
S214000E30988119802548FFF797FF08BD234BD88176
S214000E405980F7E7214B18829980F3E71F4B5882A9
S214000E50D980EFE71D4B98821981EBE71B4BD882B0
S214000E605981E7E7194B98841983E3E7174BD88431
S214000E705983DFE7154B18859983DBE7134B5885B5
S214000E80D983D7E7114B98851984D3E70F4BD885BC
S214000E905984CFE70D4B98871986CBE70B4BD8873D
S214000EA05986C7E7094BA3F840009986C2E7074B67
S214000EB0A3F84200D986BDE7044BA3F8440019877F
S214000EC0B8E7024BA3F846005987B3E7044400206E
S214000ED010B52B4814F0DCFE2A48012383810380DA
S214000EE04FF0020EA0F80EE0052242800321018298
S214000EF04FF0080CA0F804C004244482A0F806E0D2
S214000F00828201810624C482438107248484038369
S214000F10A0F826C0428309240485A0F81CC00A2431
S214000F204485A0F81EE04FF00B0EA0F82CE00184DC
S214000F304FF00C0EA0F82EE04FF0000EA0F822E0C6
S214000F404FF00D0EA0F83CE003864FF00E0EA0F812
S214000F503EE042864FF00F0EA0F840E0A0F834C006
S214000F604FF0100CA0F842C0C2861122A0F8442010
S214000F7001871222A0F846204387FFF7F5FE10BD32
S214000F8088ED02000444002008B5084814F080FEEE
S214000F90074B186820F07AFC10B9FFF799FF08BDD8
S214000FA040F2C22103481BF0D1FBF6E798ED0200A1
S214000FB0FC1000207CED020030B593B005464823B7
S214000FC06A4600210E48006820F03CFB014670B1DE
S214000FD00C4814F039FEFFF7D7FF48236A46002175
S214000FE0074C206820F02EFB01460028F0D148224E
S214000FF0694628462DF0C9FB284613B030BD00BF11
S214001000FC100020C8ED02002DE9F04188B08446AF
S2140010100D462B4C94E8070008AB03E907006E4624
S2140010200C340FCC0FC623683360BCF80630BCF80F
S2140010300840240244EAC32424B2BCF90A301C4304
S214001040A7B20F2300E0013B002BFCDA3F0AE4B214
S214001050BCF80030BCF8026006F00F0646EA03163D
S214001060F6B29CF804808DF81F508DF815608DF848
S21400107017808DF819708DF81B400C2105A828F0F4
S21400108037FC002301E00133DBB20B2BFBD98DF8D4
S21400109011508DF813008DF803608DF805808DF8DB
S2140010A007708DF80940002301E00133DBB2132BF3
S2140010B0FBD96846FFF73AFD08B0BDE8F08100BFEF
S2140010C090EF02002DE9F04188B084460D462B4C87
S2140010D094E8070008AB03E907006E460C340FCC13
S2140010E00FC623683360BCF81E30BCF820402402CC
S2140010F044EAC32424B2BCF922301C43A7B20F230F
S21400110000E0013B002BFCDA3F0AE4B2BCF81830E2
S214001110BCF81A6006F00F0646EA0316F6B29CF80C
S2140011201C808DF81F508DF815608DF817808DF88F
S21400113019708DF81B400C2105A828F0D9FB002358
S21400114001E00133DBB20B2BFBD98DF811508DF883
S21400115013008DF803608DF805808DF807708DF804
S2140011600940002301E00133DBB2132BFBD96846AC
S214001170FFF7DCFC08B0BDE8F08100BF90EF02008E
S2140011802DE9F04188B084460D462D4C94E80700C2
S21400119008AB03E907006E460C340FCC0FC6236875
S2140011A03360BCF83630BCF83840240244EAC32426
S2140011B024B2BCF93A301C43A7B20F2300E0013B2F
S2140011C0002BFCDA3F0AE4B2BCF83030BCF83280C0
S2140011D008F00F0848EA03185FFA88F89CF83460AD
S2140011E08DF81F508DF81580360146F00206F6B2CF
S2140011F08DF816608DF819708DF81B400C2105A827
S21400120028F076FB002301E00133DBB20B2BFBD981
S2140012108DF811508DF813008DF803808DF804605A
S2140012208DF807708DF80940002301E00133DBB22A
S214001230132BFBD96846FFF779FC08B0BDE8F081B0
S21400124090EF020010B54A2808D847283AD3473806
S214001250032837D8DFE800F01D374F67712808D01D
S21400126077282FD1374814F013FD002029F03BFCD7
S21400127028E000F04FFA04462AF0F3FA20B10021E5
S21400128020462AF0D5FA1DE0FF2120462AF0D0FAA3
S21400129018E0342006F0D6F92B4C21782B4814F0B1
S2140012A0D3FC2078FFF768FC0123294A1370294AEB
S2140012B01370294A1380294A13700023284A137092
S2140012C0284A137010BD284C2178284814F0BCFC1E
S2140012D02078FFF751FC01231D4A53701D4A5370B6
S2140012E01D4A0221518000221C490A701C490B70BD
S2140012F01C4B1A70E6E71E4C21781E4814F0A4FC1E
S2140013002078FFF739FC0123114A9370114A937035
S214001310114A03219180002210490A7010490A7070
S214001320104A1370CEE7144B1B781BB1124B0022E9
S2140013301A70C7E7FFF704F84FF4FA710F4814F075
S21400134075FDBFE75CEE020063B8002010EE0200F9
S21400135054440020984400204C44002066B80020E6
S21400136067B8002068B8002064B8002028EE0200A5
S21400137065B8002044EE020069B8002058440020FA
S21400138070B5A4B006460D4614466846FFF714FE30
S214001390482269460DEB02002DF0F7F91EB965B933
S2140013A0ACB924B070BD0F4E0021317012A8FFF703
S2140013B02BFE3078FFF7E0FBF1E70B4D002129709C
S2140013C012A8FFF77FFE2878FFF7D6FBE8E7074C62
S2140013D00021217012A8FFF7D3FE2078FFF7CCFB80
S2140013E0DFE700BF63B8002064B8002065B80020BF
S2140013F02DE9F04192B005460C4616466846FFF7C2
S214001400DBFD44EA05210FB2C1F30225CC0ABDF884
S2140014100630B3EBD12F0AD0BDF81E309C4232D036
S214001420BDF836309C425BD012B0BDE8F081ABB25E
S214001430BDF808209342EFD1FBB2BDF80A209342D4
S214001440EAD1472006F080F9642101FB06F339490A
S21400145081FB03211944C1F3C711DFF8F08088F837
S2140014600010354814F0F0FB344B1978344814F06B
S214001470EBFB344B1978344814F0E6FB98F8000080
S214001480FFF77AFBC8E7ABB2BDF820209342C7D17E
S214001490FBB2BDF822209342C2D1482006F054F990
S2140014A0642303FB06F2234B83FB02131344DB1176
S2140014B0DFF8888088F80030244B1978244814F028
S2140014C0C3FB98F80010234814F0BEFB1D4B197898
S2140014D0214814F0B9FB98F80000FFF74DFB9FE792
S2140014E0ADB2BDF838309D429ED1FFB2BDF83A305D
S2140014F09F4299D1492006F027F9642303FB06F69C
S2140015000C4B83FB06231E44F6110E4C26700F4B25
S2140015101978124814F098FB084B1978104814F004
S21400152093FB21780F4814F08FFB2078FFF724FBFD
S2140015307AE700BF8180808064EE020064B80020F5
S21400154084EE020065B80020A4EE020063B8002016
S214001550C4EE0200E4EE020004EF020028EF0200F0
S21400156048EF02006CEF020008B501215E4801F06A
S2140015704BF8002304220221184602F011FD002336
S21400158004220321184602F00BFD00230422114614
S214001590184602F005FD002304220521184602F035
S2140015A0FFFC002304220B21012002F0F9FC00239B
S2140015B004220C21012002F0F3FC002304220D215A
S2140015C0012002F0EDFC002304220E21012002F08F
S2140015D0E7FC002304220F21012002F0E1FC002397
S2140015E004220621022002F0DBFC0023042207214D
S2140015F0022002F0D5FC002304220821022002F07B
S214001600CFFC002304220921022002F0C9FC00239B
S21400161004220A21022002F0C3FC002304220B212C
S214001620022002F0BDFC002304220921032002F060
S214001630B7FC002304220A21032002F0B1FC002399
S21400164004220B21032002F0ABFC002304220C2111
S214001650032002F0A5FC002304220E21032002F042
S2140016609FFC002304220F21032002F099FC002394
S21400167004221946052002F093FC002304220121CF
S214001680052002F08DFC002304220221052002F032
S21400169087FC002304220321052002F081FC00239E
S2140016A004221146052002F07BFC002304220521BB
S2140016B0084602F075FC002304220621052002F0ED
S2140016C06FFC002304220721052002F069FC012399
S2140016D004220021084602F063FC01230422194676
S2140016E0002002F05DFC08BD00350A0010B5044677
S2140016F0012805D8013C054800EB4404607810BD7D
S214001700252103481BF022F8F4E700BF64100020F0
S214001710B0EF0200004870476810002038B501F0AE
S214001720E9FC01210D4800F06FFF0122114610462A
S21400173001F016FC0A4D0124C5F8804022462146D9
S214001740204601F00DFCC5F884402246214620467E
S21400175001F006FCC5F88840002038BD30253E0064
S21400176000400E4000B583B0214B01225A641A682F
S21400177042F480721A6001A802F024FF9DF805303A
S214001780012B2FD91B4B4FF41872C3F88C221A4A20
S214001790C3F89022194AC3F8F022194AC3F8F8226F
S2140017A0184AD2F8A43143F4F843C2F8A43103F03F
S2140017B03BFB00F0BBF803F0E7FA03F0F7FAFFF79D
S2140017C0ADFF28F075FC00F0A7F800F08BF900F0EC
S2140017D03FFE09F0E3FE1BF063FD04F0CBF803B018
S2140017E05DF804FB9DF80430022BD9D9CAE700BF88
S2140017F000000E4000400E409A6F050018010004DD
S2140018000084320800300E40012900D9704708B520
S214001810034B1B68186808B1436A984708BD00BFA9
S214001820E410002030B599B0274D11ACAC46BCE8AA
S2140018300F000FC49CE8070084E8070000240B9400
S2140018400C940D940E940F941094204B0B93204BF5
S2140018500C9301228DF8372002238DF839300323AC
S2140018608DF83B301E238DF83F308DF8403009ABA5
S2140018701C3595E8030083E803000DF10C0C039477
S214001880049405940694079408948CE803000C23AB
S2140018908DF814300D238DF815300E4B069320234B
S2140018A007938DF820200C4B00930BAB11AA6146D2
S2140018B00A4803F055FD054621464FF4E13028F06E
S2140018C0C3F8284619B030BDD0EF02000000014032
S2140018D00032040054460020FC44002074460020D9
S2140018E008B50349034804F0A9F8FFF79BFF08BDB5
S2140018F0DC1000204C46002008B5024828F0CEFD3B
S21400190008BD00BF7446002008B5024828F0C6FD92
S21400191008BD00BF7446002008B50121024800F04B
S21400192073FE28F000F808BD00350A0008B501214E
S214001930014800F069FE08BD00350A0008B500F051
S21400194087F8124A0AE01068516850F8230041F8F8
S2140019502300013391688B42F5D30C320C4B9A422C
S21400196001D20023F6E70B4A08E01168002041F890
S2140019702300013351688B42F7D30832064B9A4254
S21400198001D20023F6E7FEF75DFD00BF1444030016
S214001990204403002044030020440300004870470E
S2140019A0C0175302114BD3F8943003F00703023BE1
S2140019B0032B0DD8DFE803F0050F02080C4B186860
S2140019C00BE00C4B186808E00B4B1868400804E066
S2140019D0094B186801E04FF40040044BD3F800317F
S2140019E0C3F304230133B0FBF3F0704700400E400E
S2140019F0F4100020EC100020F010002008B5FFF7CF
S214001A00D1FF054BD3F80831C3F308230133B0FBED
S214001A10F3F0024B186008BD00400E40E8100020AE
S214001A20014B1868704700BFEC10002008B5064B45
S214001A301860064BD3F8943003F00703022B00D04F
S214001A4008BDFFF7DBFFFBE7EC10002000400E4070
S214001A50044B054A9A60D3F8882042F47002C3F813
S214001A608820704700ED00E000000000014B186879
S214001A70704700BFF4100020174B9A6A02F17043BB
S214001A8003F5F813B3F5006F11D2134BD3F82818EB
S214001A90A1F17E63A3F58433B3F5605F07D21268C5
S214001AA00E4B9A4207D000230370836070470023D2
S214001AB00370836070470A68094B9A42F3D101238A
S214001AC00370054BD3F8282892684260D3F828386C
S214001AD09B698360704700BF0000E10FAD1007B040
S214001AE007B0CD5E08B5114BD3F82828A2F17E6367
S214001AF0A3F58433B3F5605F11D211680C4B99429D
S214001B0010D10C4B1B781BB1022B01D0002008E033
S214001B10D369984728B9074B01221A7001E04FF4A1
S214001B20817008BD4FF48170FBE700BF0000E10F35
S214001B3007B0CD5E6AB800204FF0005340F2022294
S214001B401A804FF20F025A800A4A012393601368E4
S214001B5023F4E06343F480631360BFF34F8F0649BA
S214001B60CA6802F4E062054B1343CB60BFF34F8FA5
S214001B7000BFFDE700500E4000ED00E00400FA054F
S214001B8008B50D4BD3F82828A2F17E63A3F584335D
S214001B90B3F5605F0AD2126BA2F17E63A3F58433BD
S214001BA0B3F5605F05D29368984701E04FF4817003
S214001BB008BD4FF48170FBE70000E10F08B50D4B40
S214001BC0D3F82828A2F17E63A3F58433B3F5605FCB
S214001BD00AD2126BA2F17E63A3F58433B3F5605F7D
S214001BE005D25369984701E04FF4817008BD4FF461
S214001BF08170FBE70000E10F10B50A4BD3F82848C8
S214001C00A4F17E63A3F58433B3F5605F04D2236B3F
S214001C102BB15B6A984701E04FF4017010BD4FF49A
S214001C200170FBE70000E10F08B50D4BD3F828283C
S214001C30A2F17E63A3F58433B3F5605F0AD2126B1C
S214001C40A2F17E63A3F58433B3F5605F05D2936A91
S214001C50984701E04FF4017008BD4FF40170FBE7B0
S214001C600000E10F30B5E1B0124BD3F82838A3F1ED
S214001C707E63A3F58433B3F5605F15D20C464FF44C
S214001C80C0726946FFF7B8FF054678B92146684630
S214001C90FFF7CAFF40F201239842F7D040F2032331
S214001CA0984203D0054601E04FF40175284661B01E
S214001CB030BD00BF0000E10F10B50D4BD3F828482B
S214001CC0A4F17E63A3F58433B3F5605F0AD2246B78
S214001CD0A4F17E63A3F58433B3F5605F05D2A36BEE
S214001CE0984701E040F2011010BD40F20110FBE7FA
S214001CF00000E10F08B50D4BD3F82828A2F17E634B
S214001D00A3F58433B3F5605F0AD2126BA2F17E634B
S214001D10A3F58433B3F5605F05D2D36B984701E033
S214001D2040F2011008BD40F20110FBE70000E10F91
S214001D300346064A10680344054A934202D8034AFB
S214001D40136070474FF0FF30704700BFF810002058
S214001D500000012008B50121294800F055FC0123A8
S214001D6004220221052002F01BF9002002F08EF862
S214001D700121244BC3F810180A46042001F0F0F89D
S214001D80214800F047FF214BD3F8F02042F0010233
S214001D90C3F8F020D3F8FC2042F08072C3F8FC2091
S214001DA0A3F55D431A4A1A6000F5D52000F2FC4000
S214001DB0C008184BA3FB0030800A0138164B186188
S214001DC00222C3F8F0204FF48072C3F804234FF0C9
S214001DD06043124AC3F8B02F114AC3F8802ED3F8D6
S214001DE0002E42F48072C3F8002EFF2283F82020D3
S214001DF0D3F8002E22F48072C3F8002E002008BD0F
S214001E0000350A000080144206000E0000ED00E0D7
S214001E10FF03004017916502000004E055CEACC5F4
S214001E20090001004FF06043D3F8803E13F0010F25
S214001E3001D1112070470E4AD2F8FC3043F080736F
S214001E40C2F8FC304FF06043D3F8002E4FF0010C80
S214001E500CFA00FC42EA0C02C3F8002E53F82030BD
S214001E60002BE8D04FF0604303F8201000207047A6
S214001E7000ED00E0F0B585B00C4694469DF83410B1
S214001E80664A1278002A00F0BD800546BCF1070FAE
S214001E9000F2BA800A9A002A00F0B8800B9A002A4C
S214001EA000F0B6800E9AB2F5006F00F3B3800128FA
S214001EB05BD05B4A02EB0C12127B002A00F0AC806F
S214001EC000220092019202920392564A02EB4C1EA6
S214001ED0002C4FD14FEA4C1600209051CEF804004B
S214001EE0CEF80800CEF80C009EF8020040F0100075
S214001EF08EF802009EF8030040F030008EF80300D3
S214001F0021B9C1B241F003018EF8031000930E9B75
S214001F10013B444A4FEA4C1002EB4C11165A63F34D
S214001F200E1616520A9B8B600B9B4B60CB789DF867
S214001F303C2062F38303CB70012D36D0109B002B20
S214001F4056D0374A4FEA0C1102EB0C13109850503B
S214001F50119A5A6000249C605D737246694660461A
S214001F6002F002F9204605B0F0BD0C9A002AA0D176
S214001F702D48F8E72B4F4FEA4C1607EB4C12002083
S214001F80B85150609060D060907840F0100090702B
S214001F90D07840F00300D0700029B7D107EB4C1280
S214001FA0C1B241F03001D170B0E70E460A7B42F074
S214001FB001020A73D2B242F002020A73CA6804210E
S214001FC061F39F02F26006F1100796E80F0087E8BB
S214001FD00F00F2696FF0030161F39F02F2610C9B40
S214001FE07361012CAAD10B9AB2610C9A7260A5E7B4
S214001FF0002DA6D10B4B03EB4C139A786FF304120B
S2140020009A709EE70948AEE70748ACE70648AAE795
S2140020100548A8E70448A6E70548A4E76BB80020EB
S2140020209C4600201C470020018000F0028000F043
S214002030078000F0134B1B78FBB110B50446F0B1D7
S21400204027F0B5FD0023072B13D80F4A02EB031227
S214002050127B0AB10133F6E723600B4A190102EB43
S214002060031301241C730024545027F0A6FD2046B9
S21400207002E027F0A2FD054810BD05487047054858
S214002080FAE700BF6BB800209C460020048000F0F2
S214002090028000F0018000F038B527F088FD044685
S2140020A00023072B06DC0C4A02EB0312127B12B944
S2140020B00133F6E7002222B1204627F07EFD0748CE
S2140020C038BD02F005F80025054B1D70204627F0A8
S2140020D074FD2846F4E700BF9C460020058000F00B
S2140020E06BB800200F4B1B78BBB110B50446072811
S2140020F015D827F05CFD0C4B03EB04131B7B1BB9B8
S21400210027F05BFD09480BE0074B03EB04130024A4
S2140021101C7327F052FD204602E00548704705482C
S21400212010BD00BF6BB800209C460020068000F063
S214002130028000F0018000F000B583B0144B1B68ED
S214002140019300238DF8043027F031FD114B1B78E6
S21400215033B9104B01221A7027F02FFD002309E037
S21400216027F02BFD0C480FE00C4A02EB031200216F
S21400217011730133072BF7DD04238DF807300DEBC1
S214002180030001F0C7FF002003B05DF804FB00BFAA
S21400219044F002006BB80020038000F09C4600204C
S2140021A008B50A4B1B785BB107280BD8084B03EB26
S2140021B000131B7B43B1002101F0A2FF002008BDE5
S2140021C00448FCE70448FAE70448F8E76BB8002040
S2140021D09C460020028000F0018000F0078000F09E
S2140021E008B50A4B1B785BB107280BD8084B03EBE6
S2140021F000131B7B43B1012101F082FF002008BDC4
S2140022000448FCE70448FAE70448F8E76BB80020FF
S2140022109C460020028000F0018000F0078000F05D
S21400222008B50A4B1B7853B107280AD8084B03EBAE
S21400223000131B7B3BB101F0EBFF002008BD0548F7
S214002240FCE70548FAE70548F8E700BF6BB800204A
S2140022509C460020028000F0018000F0078000F01D
S2140022600F4B1B78A3B1072814D8A9B10D4B03EB6D
S21400227000131B7B93B10C4B1B6E012202FA00F07D
S214002280184002D00A700020704700230B70704779
S2140022900648704706487047054870470548704727
S2140022A06BB800209C46002000200E40028000F004
S2140022B0018000F0078000F00C4B1B7873B110B55E
S2140022C00C4607280CD869B1094B03EB00131B7B9F
S2140022D053B101F0B1FF2070002010BD05487047D3
S2140022E00548FAE70448F8E70448F6E76BB8002024
S2140022F09C460020028000F0018000F0078000F07D
S214002300F8B5194B1F6EDB6E1F4002D40125002462
S21400231002E0FEE701346D00072C24D83D42F9D0D8
S214002320114B9D662301114AD358002BF2D002EBC5
S2140023300416B1680131B16072682046984780F093
S2140023400100C0B2737B012BE4D10028E2D0084B19
S21400235003EB44131A7B6FF341021A731A7F6FF371
S21400236041021A77D6E7F8BD00200E409C460020B2
S2140023701C47002010B5044602E0202007E09047E6
S214002380DCB194FAA4F00028F7D0B0FA80F001236C
S214002390834024EA0304094B03EB00135A68002A1F
S2140023A0EED0064B03EB00131B7B002BE7D0034B52
S2140023B003EB001399689047E2E710BD1C48002025
S2140023C008B5122000F04AFF28B1084B4FF48022CF
S2140023D0C3F880211A600A2000F040FF28B1034BA2
S2140023E04FF48062C3F880211A6008BD00E100E067
S2140023F038B505460C4627F0DAFB044B03EB05130D
S2140024005C6000221A7327F0D8FB38BD1C480020F9
S21400241008B5064BD3F82804D3F81C24104000F067
S2140024205530C3F82404FFF7A5FF08BD00A0004000
S21400243008B5064BD3F82804D3F81C24104000F047
S214002440AA30C3F82404FFF795FF08BD00A000409B
S21400245008B5034B1968034B18681EF0D3FF08BD78
S21400246000110020FC100020B0F1FF3F01D010B991
S2140024707047024870470248704700BF21E000F0EE
S21400248024E000F0F8B505460E469400224627F0F4
S21400249054FCFFF7E9FF074628B92246314628468E
S2140024A02CF063F908B93846F8BD014FFBE700BFCA
S2140024B010E000F038B5044601F090FFFFF7D4FFB7
S2140024C0054608B1284638BD02F0A2F80146204667
S2140024D027F010FB0028F5D1004DF3E70EE000F0E2
S2140024E008B527F05DFB014B186008BD3C4D002089
S2140024F008B5024B186827F057FB08BD3C4D002076
S2140025000C4B984205D90C4B984210D801210A462C
S21400251001E000210A46094B1A64094AD2F8003144
S21400252023F0807343EA0163C2F80031704702214A
S2140025300122F0E70048E8010090D0030000C843FD
S21400254000400E40014B1868704700BF2011002065
S214002550114B5B68002300E00133042B0CD80F4AB4
S21400256002EBC30292F804C0CAB29445F4D10B4AF7
S21400257052F833208242EFD3052B0BD0074A02EBEA
S214002580C3035979044A536823F0407343EA01634E
S214002590536070470321F5E700000E406CF0020020
S2140025A008B5FFF7FFF9044BD3F80031C3F3042353
S2140025B003FB000008BD00BF00400E4038B5084BC6
S2140025C01C6CA4B241F671351D64FFF7E7F90021D3
S2140025D0FFF7BEFFAC4202D0014B00221A6438BDA2
S2140025E000000E4038B5074B1C6CA4B241F671359E
S2140025F01D64FFF7ADFFAC4202D0024B00221A6406
S21400260038BD00BF00000E4010B4C0F30323013BEA
S214002610092B21D8DFE803F00508202030232620E8
S214002620292D0024164A01E00024164AC0F304307F
S21400263054B1134BD3F8443113F0010F04D1104BAF
S214002640D3F840311C42FAD102F1424303F580131D
S21400265000EBC300800001605DF8044B7047012466
S214002660094AE3E71024094AE0E74FF48034084AB1
S214002670DCE70024074AD9E70024074AD6E700BF6C
S21400268000400E40C0400E40E0400E40E8400E4085
S214002690F0400E4050410E40B0400E40C0F30313D1
S2140026A0013B092B6BD8DFE803F0050B111B6A6AA8
S2140026B02127415F334BD3F80001C0F30420704755
S2140026C0304BD3F81401C0F3042070472D4BD3F8D9
S2140026D00001C0F30060431C012098400138704799
S2140026E0284BD3F80C01C0F308207047254BD3F8CD
S2140026F00801C0F308207047234B984204D0234BB0
S21400270098420AD0002070471E4BD3F8203103F0C1
S2140027100F0301209840013870471A4BD3F8203138
S214002720C3F301130120984001387047184B9842B4
S21400273007D003F5B01303F5805398420AD0002063
S2140027407047104BD3F82831C3F30113012098408B
S214002750013870470B4BD3F82801C0F30120031D46
S21400276001209840013870470A4B984201D000205B
S2140027707047044BD3F8300100F003007047002088
S214002780704700BF00400E408006160080162E00E0
S21400279090171A00A009140010B50C46C0F30313D6
S2140027A0013B092B2FD8DFE813F00A002F00390071
S2140027B04A002E002E0056007600CF001501FFF7C7
S2140027C0FDFE9148FFF79CFE904BD3F8001121F4D4
S2140027D0F85141EA0421C3F80011FFF70FF98C4BBA
S2140027E0DB6B13F0400F04D18A4BD3F8C830002BB4
S2140027F0FAD1874B5968C1F30141FFF7F3FEFFF7A3
S214002800D1F8FFF77DFE10BD804BD3F8141121F4EC
S214002810F85141EA0421C3F81411F4E769B1B1FA9A
S21400282081F1C1F11F04794BD3F8001121F08071BA
S21400283041EA0461C3F80011E5E72021F1E7734B94
S214002840D3F80C1121F4FF3121F4807141EA042100
S214002850C3F80C11D7E7FFF7B1FE6C4BD3F808119D
S21400286021F4FF3121F4807141EA0421C3F80811F4
S214002870FFF7C4F8664BDB6B13F0400F04D1654BD3
S214002880D3F8C830002BFAD1614B5968C1F3014127
S214002890FFF7A8FEB7E7604B98421AD05F4B984206
S2140028A034D05F4B9842AED1584BD3F8443113F036
S2140028B0010F05D1554BD3F8403113F4802FF9D1D1
S2140028C0524BD3F8301121F003012143C3F83011E5
S2140028D099E7013118D0B1FA81F3C3F11F024B4BCF
S2140028E0D3F8443113F0010F05D1484BD3F84031EB
S2140028F013F0040FF9D14549D1F8203123F00F0326
S2140029001343C1F820317EE72023E6E7013119D0D2
S214002910B1FA81F3C3F11F023C4BD3F8443113F0F4
S214002920010F05D1394BD3F8403113F0040FF9D11C
S2140029303649D1F8203123F0300343EA0213C1F8B8
S214002940203160E72023E5E7364B984222D003F596
S214002950B01303F5805398427FF455AF013137D05A
S214002960B1FA81F3C3F11B02284BD3F8443113F0BC
S214002970010F05D1254BD3F8403113F0400FF9D1A4
S2140029802249D1F8283123F4407343EA0223C1F8E0
S214002990283138E7013119D0B1FA81F3C3F11F02AB
S2140029A01A4BD3F8443113F0010F05D1174BD3F867
S2140029B0403113F0400FF9D11449D1F8283123F0F3
S2140029C0300343EA0213C1F828311CE72023E5E769
S2140029D02023C7E7124B98427FF415AF0B4BD3F872
S2140029E0443113F0010F05D1084BD3F8403113F4EE
S2140029F0802FF9D1054BD3F8301121F00301214384
S214002A00C3F83011FFE600BF0148E80100400E4061
S214002A1000300E400000C6438006160080162E00CA
S214002A20A009140090171A0000F00F0001380728BC
S214002A3065D8DFE800F0041B2A643E4D64553B4B26
S214002A40D3F8943003F00703023B052B0CD8DFE8DD
S214002A5003F0055803070B0902207047042070474F
S214002A600B2070470C207047052070472F4BD3F87B
S214002A70803003F00703022B45D0042B45D0012BF2
S214002A8001D00120704703207047284BD3F88430CC
S214002A9003F00703013B032B09D8DFE803F00238F5
S214002AA00604032070470A2070470620704701205E
S214002AB070471E4BD3F8883003F00703022B28D04C
S214002AC0042B28D0012B01D001207047032070472B
S214002AD0164B1B6F13F001031FD003B3092070477A
S214002AE0124BD3F85C3103F03003202B19D0302B77
S214002AF019D0102B01D00120704707207047002006
S214002B00704703207047022070470A207047022053
S214002B107047022070470A20704707207047012040
S214002B207047042070470820704700BF00400E40E2
S214002B3010B50446FFF778FF1B4B9C4212D01B4B88
S214002B409C4215D01A4B9C4206D00138032828D840
S214002B50DFE800F014171D1A164BD3F8800000F0BB
S214002B600700F2E7134BD3F8840000F00700ECE709
S214002B70104BD3F8880000F00700E6E726F074FF55
S214002B8010BDFEF773FFFBE726F071FFF8E7FEF7D0
S214002B9009FF084BD3F80031C3F300630133D84074
S214002BA0EEE70020ECE700BF03002000050024004D
S214002BB002001E0000400E4008B50748FFF734FF2D
S214002BC0072804D0092805D1FEF7ECFE03E0FFF73E
S214002BD0B9FC00E0002008BD06000E0008B1002089
S214002BE0704710B504460A48FFF71EFF072805D0B1
S214002BF0082809D0042804D0204610BDFFF7A2FC00
S214002C00FBE7FEF70DFFF8E7FFF7CAFCF5E700BFA6
S214002C10B800320038B500F47813B3F5B01F00F0F2
S214002C20938005463BD8B3F5402F00F0828010D93C
S214002C30B3F5801F00F0AA80B3F5A01F27D1574830
S214002C40FFF776FF564BD3F8303103F00303D84036
S214002C501CE0B3F5802F61D005D9B3F5202F14D131
S214002C60FEF7A0FE12E0002B55D0B3F5003F0AD1C8
S214002C70FEF798FE4A4BD3F80831C3F30823013316
S214002C80B0FBF3F002E0002000E0002038BDB3F512
S214002C90602F02D1FFF790FFF8E70020F6E7B3F5C4
S214002CA0381F5BD00ED9B3F5481F72D0B3F5781F26
S214002CB021D1FEF777FE0446284626F06AFFB4FBCD
S214002CC0F0F0E3E7B3F5001F52D006D9B3F5101FB6
S214002CD00FD13248FFF72CFFD8E7B3F5D01F4BD003
S214002CE0B3F5F01F03D12F48FFF722FFCEE70020F1
S214002CF0CCE70020CAE7B3F5401F0AD12A48FFF701
S214002D0017FF274BD3F82831C3F301230433D840E9
S214002D10BCE70020BAE7FEF745FEB7E7FEF742FE3F
S214002D201F4BD3F80C31C3F308230133B0FBF3F089
S214002D30ACE7FEF737FE1A4BD3F81431C3F304237F
S214002D400133B0FBF3F0A1E71648FFF7F1FE144B92
S214002D50D3F8203103F00F03D84097E71148FFF768
S214002D60E7FE0F4BD3F82031C3F30113D8408DE7AD
S214002D700D48FFF7DDFE89E70B48FFF7D9FE084B45
S214002D80D3F82831C3F30113D8407FE7FFF7DAFB07
S214002D907CE70020FFF722FF78E700BF050024004D
S214002DA000400E4002001E000300200008B5FFF79A
S214002DB005FC0D4B07225A67FEF7F4FDFFF7A0FB54
S214002DC0FEF71CFE094BDB6B13F0400F04D1084BDB
S214002DD0D3F8C830002BFAD1044B5968C1F301412F
S214002DE0FFF700FC08BD00BF00400E4000300E405C
S214002DF00000C643014B1880704700BF52140020E5
S214002E000138032818D8DFE800F00211070C0B4B36
S214002E10186AC0F308007047084B186900F07F0076
S214002E207047064B986900F07F007047034BD3F855
S214002E309C00C0F30A0070470020704700400E4018
S214002E4038B50C460138032812D8DFE800F0022E09
S214002E501220C1F308041F4BD3F86838002BFAD1B0
S214002E601D4A136A23F4FF7323F0010323431362FE
S214002E7038BD01F07F04174BD3F86038002BFAD129
S214002E80154A136923F07F031C431461F0E701F031
S214002E907F04104BD3F86438002BFAD10E4A93699E
S214002EA023F07F031C439461E2E70B4DD5F8903086
S214002EB06B6A23F0300343F010036B62C1F3C31058
S214002EC026F061FE2A6B054B1340234303432B6316
S214002ED0CEE700BF0020C84300400E4000F8FF0FBA
S214002EE0134B5B6A13F0300F09D0202914D0302919
S214002EF015D009B10F4A04E04FF4400201E04FF448
S214002F0040020B4BD3F8903032EA0303F9D112F4A7
S214002F10800F07D1012070474FF40002F1E74FF40D
S214002F204002EEE7024BD3F8A000C0F380207047C3
S214002F3000400E40FF33E13F022801D001207047D9
S214002F4010B529B1054B4FF48064C3F8A840596604
S214002F500AB9012010BDFFF7C3FFFBE700400E4093
S214002F6070B5042800F28580DFE800F04842500380
S214002F703C00022301250024AC46002967D0022825
S214002F804AD000213B4B1D663B4B23449B001B68ED
S214002F90002BF9D0002A6CD0374C6444A400236878
S214002FA0002BF9D0022864D1002962D0314B5B6A2D
S214002FB013F0010F46D001222021FFF7BDFF0220AB
S214002FC0FFF71EFF0646012200210220FFF7C8FF7A
S214002FD031460220FFF734FF264B1D662368002B80
S214002FE0FCD046E02023102504244FF0050CC4E74F
S214002FF08023402506244FF0070CBEE74FF40073ED
S2140030004FF4807508244FF0090CB6E70823042512
S21400301002244FF0030CB0E7164B5B6A13F0300F38
S2140030200ED1164BDB6B134B5B6A13F0010FA9D066
S214003030104E736A23F0300343F010037362A1E767
S21400304000219FE700210220FFF74AFFB7E7094962
S2140030500B66084BD3F890100123A3401942F8D111
S2140030603AB1044BD3F89020012303FA0CF31A422A
S214003070F7D170BD00400E408004F21000300E40C4
S21400308010B50446F0B1012821D0FFF797FA24BB0B
S214003090154B04225A67FEF785FCFFF731FAFEF758
S2140030A0ADFC124BDB6B13F0400F04D1104BD3F882
S2140030B0C830002BFAD10D4B5968C1F30141FFF718
S2140030C091FA10BD01221146FFF74AFFDDE7012203
S2140030D011461046FFF744FFD7E7012CDBD1024B21
S2140030E003225A67D7E700BF00400E4000300E406C
S2140030F00000C64310B5FEF793FC0446002100F01E
S2140031003FFC1A48FFF7FCF9012211460220FFF7A0
S21400311027FFFFF753FA4CB1154BDB6B13F0400F4C
S21400312004D1144BD3F8C830002BFAD1124B02222C
S2140031305A67FEF737FCFFF7E3F9FEF75FFC0C4B28
S214003140DB6B13F0400F04D10A4BD3F8C830002BCA
S214003150FAD1074B5968C1F30141FFF743FA04B1AE
S21400316010BD0121002000F00BFCF9E70148E80142
S21400317000300E400000C64300400E4008B5012255
S21400318011460320FFF7ECFEFFF718FA0C4B05225A
S2140031905A67FEF707FCFFF7B3F9FEF72FFC094B5B
S2140031A0DB6B13F0400F04D1074BD3F8C830002B6D
S2140031B0FAD1044B5968C1F30141FFF713FA08BD71
S2140031C000400E4000300E400000C64370B5044676
S2140031D01120FFF729FC012200210220FFF7C0FE84
S2140031E0237C022B2AD00022154E736A23F001039B
S2140031F0134373622278134BC3F8A024A288637A21
S21400320043EAC223F362356B05F07F65E38845EA3F
S214003210C325A37A1D43207A45EAC01526F0B3FCE1
S21400322005433563627BA37B1B0143EA0233E27BE3
S2140032301343227B43EA0243736370BD0122D3E744
S21400324000400E400000C843034B5868C0F3080017
S214003250003818BF0120704700ED00E04209064B19
S21400326053F8223000F01F0023FA00F080F001002F
S21400327000F00100704700BF00E100E0114BDB6B7F
S21400328013F0400F1DD10F4BDB6B13F0400F04D132
S2140032900D4BD3F8C830002BFAD10A4B1A68C2F38C
S2140032A001225B68C3F301439A4205D9054A1368B5
S2140032B043F0100313607047024A136823F01003AC
S2140032C01360704700300E400000C643074B1B6873
S2140032D013F0100F05D0064B1B69C3F30443082BED
S2140032E000D07047034B044A1A60FAE700300E40DD
S2140032F000400E40F0100020C0EA21011A48C26CBF
S214003300C2F30322194B1B8803F1280103EB510378
S2140033102833013202EB8201B3FBF1F3013B072BAA
S21400332028BF0723C16C21F0EE6141EA036343F432
S2140033308013C3640E4BB3F90030002B13DB9BB233
S21400334003F1280103EB51032833510801EB420235
S214003350B3FBF2F3072B28BF0723026D22F070029F
S21400336042EA03130365704700300E4036B800206B
S21400337038B80020024B1880024B1980704700BFF7
S21400338036B8002038B8002010B1012804D07047A5
S214003390034B044A9A657047014B034A9A65704787
S2140033A000300E4077402057372110B71A4BD3F81D
S2140033B03032032929D8DFE801F002121518DBB2F3
S2140033C04AB91B0333F4704121D11448C16E21F46D
S2140033D070411943C166012A09D001207047C3F322
S2140033E00723EDE7C3F30743EAE71B0EE8E71B03F3
S2140033F033F470420DD10949D1F8E02022F470422E
S2140034001343C1F8E03001207047002070470020C9
S21400341070470020704700BF0081E00F00300E406C
S2140034201B02A2B101221343B3F5007F4DD022D870
S214003430B3F5807F42D00CD940F20112934215D1E9
S214003440294BD3F824321A0EC3F3074310E00022A8
S214003450E9E763B3012B06D1234BD3F82432C3F339
S2140034600722DBB204E00022134601E000221346E6
S21400347003600A607047B3F5407F2DD040F20132FA
S214003480934206D1184BD3F828321A0EC3F30743DB
S214003490EEE740F20122934206D1134BD3F82832CE
S2140034A0C3F30722DBB2E3E700221346E0E70E4B46
S2140034B0D3F81C32C3F30722DBB2D9E70A4BD3F8A2
S2140034C01C321A0EC3F30743D2E7074BD3F8203259
S2140034D0C3F30722DBB2CBE7034BD3F820321A0E36
S2140034E0C3F30743C4E700BF0081E00F03285CD89E
S2140034F0DFE800F002213448334BD3F8F021C2F362
S214003500031C0CEB8C0C02F00F0303EB4C0CC2F309
S214003510033303EB8300C2F3032303EB4003B3EB55
S2140035200C0306D0294AB2FBF3F000FB0CFC9342D6
S2140035303ED908467047244BD3F8F021C2F3035C0B
S2140035400CEB8C0CC2F3034303EB4C0C130F03EB96
S2140035508300C2F3036303EB4003E0E71A4BD3F8A0
S214003560F421C2F3031C0CEB8C0C02F00F0303EBEC
S2140035704C0CC2F3033303EB8300C2F3032303EBC9
S2140035804003CCE7104BD3F8F421C2F3035C0CEBFA
S2140035908C0CC2F3034303EB4C0C130F03EB8300BA
S2140035A0C2F3036303EB4003B9E700239C46B6E788
S2140035B0ACF5353CACF5247C642303FB01C101EB80
S2140035C0500CBCFBF0F070470081E00F80B50100A6
S2140035D010B5002850D0504BDB6B13F0400F07D1CE
S2140035E04E4B1B78C3F10202102393404A4A1361E4
S2140035F04B4AD2F8804104F0010445F60E03C2F8A7
S2140036008031484B1B6803F0010003F010010843AB
S21400361003F04001084303F00401014303F4807300
S2140036200B4313663C4BDB6B13F0400F04D13E4B51
S214003630D3F8C830002BFAD1374B1B6813F0100FA5
S2140036400DD0374BD3F8403113F0807FF9D1374B8C
S2140036501A68334B1A61364B1B78052B2BD0344B2C
S2140036601B78023B0A2B3CD8DFE803F038494D3B79
S2140036703B3B3B3B3B505300294BD3F89020294B18
S2140036801A601120FFF7D0F9294B1870224BDB6B1C
S21400369013F0400F04D1244BD3F8C830002BFAD1D6
S2140036A01D4B5B68C3F301431C4A13701C4B1A691D
S2140036B01E4B1A6022E01F4B1868174BDB6B13F08B
S2140036C0400F04D1184BD3F8C830002BFAD1124B58
S2140036D05968C1F30141FEF785FFC0E70020FFF7F8
S2140036E0CFFC104B1B6813F0010F02D10C4B0222CB
S2140036F01A661CB10A4B0022C3F8802110BD0120B7
S214003700FFF7BEFCEDE7FFF7F5FCEAE7FFF736FD4F
S214003710E7E7FFF74BFBE4E700300E406DB800200C
S21400372000400E40F04D00200000C643F44D00203F
S2140037306CB80020F0100020074A136823F440738A
S214003740417843EA012313604378022B00D0704788
S214003750024B5B6AFBE700BF00300E4000400E40A5
S21400376038B5044608BBFFF789FD194A136943F0CC
S2140037700403136126F065FA26F064FA154B1B68FD
S21400378013F0100F15D130BF26F05DFA02F0F8FAEC
S214003790C4B10120FFF71CFF0E4AD2F84C3123F0CB
S2140037A00043C2F84C3184B138BD0020FFF710FF4B
S2140037B0D9E726F0F5F905462BF01EFA284626F03E
S2140037C0F3F9E1E7FFF782FDE6E7FEF717F9EBE727
S2140037D000ED00E000300E4038B5044668BBFFF749
S2140037E04DFD1F4BD3F8802145F60E01C3F880111E
S2140037F04FF42071196612F0010F02D00022C3F8B0
S2140038008021184A136943F00403136126F019FA5D
S214003810154B1B6813F0100F13D130BF02F0B0FA2F
S214003820C4B10120FFF7D4FE0F4AD2F84C3123F082
S2140038300043C2F84C3184B138BD0020FFF7C8FE03
S214003840CDE726F0ADF905462BF0D6F9284626F04A
S214003850ABF9E3E7FFF73AFDE6E7FEF7CFF8EBE76D
S21400386000400E4000ED00E000300E40134B9A6919
S21400387022F03F020378D3B104234178C9B1022174
S2140038800B438178B9B108210B43C178012900D0D8
S21400389000210B4301790B431343084A93611368D5
S2140038A023F44033417943EA014313607047002311
S2140038B0E3E70021E4E70021E6E700BF00300E4022
S2140038C038B50D4B9C6924F4403444F400349D69AB
S2140038D045F440354AF6E8529A6026F0BFF926F0DD
S2140038E0BEF9002303E0044A946195610133032B7B
S2140038F0F9DD014B9C6138BD00300E401D4BDB6B83
S21400390013F0400F35D170B504460D46194BDB6BEE
S21400391013F0400F04D1184BD3F8C830002BFAD15F
S214003920144B5B68C3F301439C4218D0134BD3F887
S2140039300031FEF737F80646022C11D0C4F1020219
S214003940102393400B4A136145B1D36B13F0400F1D
S21400395004D1094BD3F8C830002BFAD124B170BD7E
S2140039600221FEF73FFEE9E700213046FEF73AFE69
S214003970F5E7704700300E400000C64300400E409A
S21400398038B5114BDB6B13F0400F0BD10C4650B122
S2140039900E4B1B7813B10E4B98420FD921460020D0
S2140039A0FFF7ACFF38BD0B4BD3F80001C0F3042083
S2140039B0451CFDF7F7FF05FB00F0E9E7214602206E
S2140039C0FFF79CFFEEE700BF00300E40F84D0020EA
S2140039D0002D310100400E4008B50278034B1A70E6
S2140039E001210020FFF7CCFF08BD00BFF84D0020E6
S2140039F010B41E4B5A6B4AF6E85159631B4B9B6F2B
S214003A0013F0010FFAD1194B1B6C13F0030303D00C
S214003A1017490124C1F8B44ADBB283421AD0134BCB
S214003A209B6F13F0010FFAD110490B6C23F00303C0
S214003A3003430B640D4B9B6F13F0010FFAD1003854
S214003A4018BF01200A4BC3F8B40A012A09D05DF852
S214003A50044B70470028FAD1054B0022C3F8B42A5D
S214003A60F5E7024B00225A63F1E700BF00300E4034
S214003A700000C6432DE9F04F8DB00091019200235F
S214003A8009930A930B93069307930893039304935F
S214003A900593664A1288ADF808208DF80A30A0F51E
S214003AA0E163B3F5966F00F2B0800646B0F5E16FBD
S214003AB08CBF4FF001094FF000096FD94FF49664A0
S214003AC04FF4E165B6F5E16F6DD9594BD3F818326E
S214003AD008931A0E0592C3F307430893DFF8548140
S214003AE0D8F84C70C7F301778DF808703B464A4605
S214003AF003A906A8FFF794FCD8F8E030C3F3012822
S214003B008DF8098043464A4604A907A8FFF788FCB3
S214003B10721B089B0599C91A02FB01F1B1FBF4F16F
S214003B200B9119440B91DDF80CA0DDF818C0AAEB38
S214003B300C0502FB05F5B5FBF4F5099565440995FA
S214003B40DDF810E00798AEEB000B0BFB02F2B2FBC1
S214003B50F4F40A9404440A94059A8A4259D38B4290
S214003B6059D8A64559D3A04259D8AA4559D3AC45E9
S214003B7059D8019B73B12F4BDB6D23F4FE4323F022
S214003B80020343EA0123B6F5E16F16D902210B437F
S214003B90284AD365009B93B9012037E04FF416748A
S214003BA04FF496658EE7224BD3F818320893C3F38A
S214003BB007220592DBB2089390E70021E7E7002290
S214003BC039464846FFF7F2FB00B301224146484615
S214003BD0FFF7ECFBD0B1AC4238BF2C460994E72C7B
S214003BE028BFE7240994134B5B6E23F4FF7323F07E
S214003BF0010343EA4403B6F5E16F04D901221343F7
S214003C000C4A536602E00022F9E700200DB0BDE83A
S214003C10F08F0020FAE70020F8E70020F6E7002003
S214003C20F4E70020F2E70020F0E700BF94F002007F
S214003C300081E00F00300E4008B5214B1A6FDB6C98
S214003C4013F0010F09D012F0060F06D013281FD963
S214003C50143813281ED8082323E0194BDB6C13F006
S214003C60010F09D112F0060F06D1092814D90A3817
S214003C70092813D8082314E0114BDB6C13F001035A
S214003C800FD012F0060F0BD1272817D8082308E00C
S214003C90042306E0102304E0042302E0102300E0DF
S214003CA00023013B1A0342EA03220549CB6C23F4A6
S214003CB07F431343CB64FFF721FB08BD1023F0E7D7
S214003CC000300E4008B5074BD3F88039064A136F0C
S214003CD023F0070303431367044B1888FFF7ACFF72
S214003CE008BD00BF0000C64300300E4034B80020B8
S214003CF008B5084AD36E43F08073D366064BD3F8F4
S214003D0080391BB10420FFF7DDFF08BD0020FFF758
S214003D10D9FFFAE700300E400000C64338B5044627
S214003D20B0F90C10C3884A2B09D9B3F5FA7F33D300
S214003D3040F6C312934232D84FF0005200E0002201
S214003D40224BDB6C23F0405323F00103002929DBD0
S214003D5001210A4313431D4AD364D2F8E03043F4EA
S214003D604073C2F8E030A288194B1A80FFF7C0FFF4
S214003D70B4F90C102089FFF7FDFAA088FFF75CFF66
S214003D80A07BFFF701FB012211466088FFF772FE59
S214003D90054648B9284638BD4FF08052D0E74FF068
S214003DA04052CDE70021D4E7084AD36B43F4806342
S214003DB0D3636078FFF71CFEA37A202B04D0002282
S214003DC0044BC3F89427E5E70122F9E700300E40DC
S214003DD034B800200000C64338B505464168007870
S214003DE0FFF784FB0446A9682878FFF77FFB2B784B
S214003DF023BB164AA2FB0413D90801EB8103A4EBEC
S214003E0043031B0443EA0153A2FB0012D20843EA11
S214003E10023302EB8202A0EB420243EA02232A7B31
S214003E206AB1042213436A7B5AB108221343AA7B61
S214003E304AB101221343064AC2F8903038BD002228
S214003E40F0E70022F2E70022F4E700BFCDCCCCCCAE
S214003E5000300E4003280AD8DFE800F0020E0A0CF5
S214003E60064B03F1424303F580135B01196070476C
S214003E70034BF6E7034BF4E7034BF2E790300E40B4
S214003E8098300E409C300E4094300E40044AD2F8D3
S214003E90443423F003030343C2F84434704700BF9E
S214003EA000A000402DE9F8430C4615461E46072A9A
S214003EB041D893004FF00F0808FA03F800FA03F70A
S214003EC025F06EFE324AD2F8001487EA010303EAB0
S214003ED008034B40C2F8003425F066FE4FF0000899
S214003EE0072D3FD8A90003278F4004F003048C4019
S214003EF025F056FE264BD3F8082454403C40544048
S214003F00C3F8084425F050FE224B2B449B001E604D
S214003F10214B2B449B009DF820201A600123AB40C8
S214003F201B4AC2F824341D4B2B449B009DF82420CA
S214003F301A60BDE8F883A2F108084FEA88030F2745
S214003F4007FA03F900FA03F725F02AFE104BD3F818
S214003F500424574007EA09075740C3F8047425F0BD
S214003F6023FEBDE74FEA8808032707FA08F704F0A0
S214003F70030404FA08F425F013FE054BD3F80C24CA
S214003F8054403C405440C3F80C4425F00DFEBBE7BB
S214003F9000A0004080208510A020851040218510BC
S214003FA02DE9F04704460E461F4690463AB183B3C5
S214003FB000EB400109010122B2402D4B5A50072E5A
S214003FC02FD804EB44031B01DFF8AC909944B300F0
S214003FD04FF00F0A0AFA03FA08FA03F525F0E0FD97
S214003FE0D9F8002085EA020303EA0A035340C9F819
S214003FF0003025F0D9FDB8F1000F08D177B304EBF7
S21400400044042401012101FA06F6194B1E51BDE8AD
S214004010F08700EB400109010122B240154B5A50CF
S214004020CDE704EB44031B01DFF850909944A6F15A
S214004030080292004FF00F0A0AFA02FA08FA02F58E
S21400404025F0AEFDD9F8003085EA030202EA0A023E
S2140040505A40C9F8002025F0A7FDCCE704EB44043D
S2140040602401012101FA06F6024B1E51CFE700BFDC
S2140040700CA000460CA0004404A0004008A000408D
S214004080114BD3F8182422EA0002C3F81824D3F8F8
S214004090182401400A43C3F81824D3F82C240243FA
S2140040A0C3F82C2403F559239B6903F03003202B17
S2140040B006D0064A936923F0300343F01003936159
S2140040C0014BC3F82404704700A0004000300E40A7
S2140040D008B5094B4FF40072C3F88020BFF34F8F2A
S2140040E0BFF36F8F054B0021D96619624FF4AA40C3
S2140040F0FEF78AFA08BD00BF00E100E000200E408F
S21400410081F00101024B03449B001960704700BF19
S214004110A001F11010B5044601214FF4AA40FEF7A5
S21400412073FA23786178A27842EA012242EA0362AF
S2140041300B4B1A6000221A62DA625A634FF0004292
S214004140DA664FF0FF329A66064A4FF40071C2F8FC
S2140041508011E3785B01DBB282F80933116010BD91
S21400416000200E4000E100E070B50C46C3B2012509
S2140041709D40254EB5660B6800EB400106EB01112D
S214004180C1F88030637BC1F8883094F80AC0E37ABF
S2140041901B0543EA0C4394F80CC043EA4C53C1F8A1
S2140041A0843022F00302C1F8982025F000FDF36E5B
S2140041B02B43F366237A13B1736B2B437363637AD3
S2140041C01BB1114AD36A2B43D3620F4B1B6822796B
S2140041D022B1D243120262F47F42134062790AB1DE
S2140041E043EA0223A2791AB1D24362F0FF021340D7
S2140041F0E27902B11343044A1360044B9D62D5630F
S21400420025F0DBFC70BD00BF00200E4000200E44F1
S21400421010B5C0B20124844025F0C9FC044AD36E10
S21400422023EA0403D366034B1C6225F0C6FC10BDCC
S21400423000200E4000200E4410B5C0B20124844079
S21400424025F0B5FC084B1B6A234206D1064B9B6A39
S21400425034EA030306D0002400E0002425F0ADFC79
S214004260204610BD0124F9E700200E40054B5A6891
S2140042705B68054B41F671321A649A6822F00102B7
S2140042809A60704700300E4000000E40034B9A685C
S21400429022F001029A6000221A64704700000E4065
S2140042A00C4B0D4AD26912F0010F02D00BB1013B44
S2140042B0F7E74BB1084B18610122DA60DB6913F0AF
S2140042C0040F04D1002070476FF0020070474FF0D3
S2140042D0FF3070478096980000000E408C46D1B99B
S2140042E000207047DBB1114BDB6913F0020F19D1C8
S2140042F0614512D250F8042B0C4B9A61013108220A
S214004300DA600B4B094AD26912F0010FEAD0002B93
S214004310E8D0013BF6E70021EAE7002070476FF09F
S214004320020070476FF00100704700BF00000E40AB
S214004330809698002DE9F04780460E46254B196C6E
S2140043401FFA81F941F671311964234948684968B2
S214004350996841F001019960970800231D4614E012
S2140043601C498A6822F001028A60B9F1000F2DD03C
S2140043700A460021116429E051463046FFF7AEFF99
S2140043800346C0B9554406EB8A06BD4213D208EB75
S21400439085042046FFF784FF03460028E0D1C4F3D7
S2140043A00A04C4F50064A308A7EB050ABAEB940F49
S2140043B0E2D39A46E0E707498A6822F001028A605B
S2140043C0B9F1000F02D00A46002111641846BDE874
S2140043D0F08700BF00000E4000300E4010B42B4B9C
S2140043E0196C89B241F671321A64294A54685268C7
S2140043F09A6842F001029A6018610122DA60DB696D
S21400440013F0040F0BD1214B0222DA60214B1F4A16
S214004410D26912F0010F0ED06BB1013BF7E71B4AD1
S214004420936823F00103936011B1134600221A64C7
S2140044304FF0FF300DE0154AD26912F0020F0BD193
S214004440B3B1124A936823F001039360E1B10020F0
S21400445010645DF8044B70470C4A936823F0010320
S214004460936011B1134600221A646FF00100F0E762
S214004470064A936823F00103936011B113460022A5
S2140044801A646FF00200E4E70020E2E700000E4046
S21400449000300E4080969800014B01229A607047CB
S2140044A000500E4010B4184B5C68002318460BE012
S2140044B0B2F5803F21D0154A52F83320224202D06E
S2140044C0214200D110430133082B19D80F4A02EBC2
S2140044D0C30251680E4AD2F8E82112F0040FEAD15E
S2140044E00A4A52F83320B2F5006F06D0E0D8B2F58B
S2140044F0007F02D0B2F5806FDDD141F48071DAE73B
S2140045005DF8044B704700BF00500E4098F0020064
S2140045100040E00F4A790B7891F801C043EA8C031B
S21400452091F802C043EA8C1391F803C043EA0C13D7
S21400453091F804C043EACC2343EA02338A7943EA7B
S214004540424304300001014A1350704700200440E3
S214004550014B1860704700BF00008442037813B315
S214004560012342780AB3042213438278FAB1102258
S2140045701343C278EAB120221343027943EA0223A6
S214004580427943EA02338279AAB14FF400421343D8
S214004590C27943EA0243027A7AB14FF400321343F7
S2140045A0074A136070470023DBE70022DCE700229F
S2140045B0DEE70022E0E70022E9E70022EFE700BF9F
S2140045C0002004400D4AD2F8E4309B0003F03C0380
S2140045D0D2F8E010C1F381110B438370D2F8E030BB
S2140045E003F03F034370D2F8E83003F0F003D2F84C
S2140045F0EC20C2F3031213430370704700FF0FE072
S214004600024BD3F8F000D3F8F41070470081E00FA7
S214004610044BD3F8E4301B0E0A3303F01F030120CB
S214004620984070470081E00F024BD3F8FC0080B240
S214004630704700BF0081E00F024BD3F8FC00C0F3C8
S214004640074070470081E00F70B5054616461C46C9
S2140046500846D1B1402C20D01BD804B3202C13D14F
S214004660082106FB01F14B0803EB4013B3FBF1F303
S214004670203B0C4A02EAC3032A6822F060022A6042
S2140046802A6814432C606B6170BD0748FEF7C2FAB7
S214004690E0E7602CF8D10421E3E70621E1E71021EA
S2140046A0DFE700BFF8FF7F004041050040F6AA6341
S2140046B0C3600023036041F20502426083604361E9
S2140046C0C3640F4A8264036643678367C3670D4B00
S2140046D0984207D003F58063984203D003F58063C1
S2140046E0984201D1002303650023836503F18043CC
S2140046F003F58233984200D070470023C365FBE77A
S214004700F9FF01000000014038B5044629F0B1F871
S214004710054DA446BCE80F000FC59CE80F0085E8D1
S2140047200F00002038BD00BFFC4D002047F6FF7389
S2140047309A427AD002297AD870B53F4B03EBC10073
S2140047408078012838BF0120844613F83130012BC9
S21400475024D0394B03EBC1035C68002C69D0B4F954
S2140047600030934204DBB4F90230934200DC134677
S214004770A288FF2A2DD000252826C8229E46D21AB7
S21400478092FBF6F22A4412B22B4B03EBC1014D7892
S214004790954201DD002A31DA6A1E2FE0264B03EB34
S2140047A0C103DB78181A002585420FD2431BA0EB05
S2140047B05303214C04EBC10EDEF8044034F91340D9
S2140047C0944201DC1D46EFE7581EEDE76044C0B298
S2140047D02AE0B4F90620B4F908600125CEE75C3378
S2140047E01649A1FB03139B09013212B216469542E5
S2140047F00FDD04EBC201898899420AD304EBC2019B
S2140048008B68B1F9061001FB0E33002BE7DA0023A4
S214004810E5E7721E04EBC20292889A4200D31A465B
S214004820624500D31046C0B270BDFF20704700201E
S21400483070470020F8E700BFFC4D0020D34D621003
S21400484008B50348FFF760FF012029F014F808BDFB
S214004850080B030010F1860F14D00EDC10F1930F36
S21400486013D010F1870F05D10B4B994207D06FF08C
S2140048706D0070474FF0FF30704748B970476FF0D3
S214004880720070476FF0710070476FF06F007047EE
S2140048904FF0FF30704700BF0500000210B5044C13
S2140048A0214600F04BF92146FFF7D4FF10BD00BFAC
S2140048B00500000208B500F065F90249FFF7CAFFD7
S2140048C008BD00BF0500000200B583B000230193B9
S2140048D001AB142200F0E8F90249FFF7BBFF03B072
S2140048E05DF804FB0500000208B5034B034A0449C3
S2140048F0044808F0BBFC08BD17A002003FA0020059
S2140049006BA0020079A00200F8B5174B1B7803F0E5
S214004910FF040BB12046F8BD06F05EFE05460128F2
S21400492005D80027104B1B789BB900260CE006F034
S2140049308FFE071EF6DAEDE70C4B1B680C4A642068
S21400494000FB062098470136012EF5DD064B0122B6
S2140049501A70012D01D80124DCE7384606F09CFECB
S2140049600028D7DB0124D5E76EB80020001200200F
S214004970204E002038B5FFF7C7FF002407E00021CF
S214004980286E06F017FF034688B99BB10134012C48
S21400499014D81A4D642303FB04552DB106F01CFEF3
S2140049A00228ECD00023F0E76FF01B03EDE76FF072
S2140049B01D03EAE7124B53F8340000E0002068B10C
S2140049C00F4B03EBC40462680E4B13449B0001229A
S2140049D01A600D4A13680133136038BD0A4B1C6811
S2140049E004F00104094B1B68044A642000FB042001
S2140049F09847034B53F83400E2E700BF204E0020F0
S214004A00E0F002008005F2101C4E00200412002088
S214004A1008B50E4B984206D003F58063984200D046
S214004A2008BD012200E00022094B03EBC2035968CF
S214004A30084B0B449B0000211960074B1B68074975
S214004A40642000FB02109847EAE700BF00000F4012
S214004A50E0F002008005F21008120020204E002030
S214004A602DE9F04389B004460D4690461F46DDF812
S214004A704090FFF77FFF2E4B9C4255D10646002400
S214004A8004604460C464436823F440634360046382
S214004A904463A44609E055F82C301BBA08AA02EB7A
S214004AA08C0242F8203C0CF1010CBCF1070FF2D945
S214004AB025F076F80446694606F5827025F096F8E5
S214004AC0204625F071F81B4B336500240EE025F0D8
S214004AD067F8054608EB841106F5D27025F09CF8B9
S214004AE0284625F061F8144B336501344C45EED367
S214004AF025F056F80446394606F5807025F081F80C
S214004B00204625F051F83046FFF782FF002205E0E8
S214004B1057F822301BBA47F822300132072AF7D955
S214004B20002009B0BDE8F0836FF08800F9E700BF09
S214004B3005000002888AC801070D8101B8B170B56A
S214004B400E4605466C22002124F0CAFE0B4B9E4200
S214004B5010D10B4C0FCCE86029616A61AB610FCCB9
S214004B60E86129626A62AB622E60002070BD6FF059
S214004B70860070476FF08500F8E700BF050000026A
S214004B80F0F00200002800F085802DE9F04F83B099
S214004B900F4614460546F9B12A68424B9A427CD124
S214004BA0002C7DD06B6803F03F08C8F14006234414
S214004BB06B60A34202D2AB680133AB60B8F1000F62
S214004BC001D0B4420DD23F2C56D94FEA941917F0B3
S214004BD0030F1ED0002648E0002ADDD06FF08600C6
S214004BE04CE005F12C093246394609EB080029F05D
S214004BF0CCFD294651F80C0B012300930B464A4680
S214004C00FFF72EFF3744A8F1400844444FF0000851
S214004C10D9E7294651F80C0BCDF800900B463A46DA
S214004C20FFF71EFF23E005F12C0207EB8613104664
S214004C3003F1400BD3F800A0D3F804E0D3F808C083
S214004C40D968C0F800A0C0F804E0C0F808C0C16089
S214004C50103310305B45EDD1294651F80C0B01237B
S214004C6000930B46FFF7FCFE01364E45DBD324F0DF
S214004C703F031F4404F03F041CB9002003B0BDE806
S214004C80F08F05F12C0022463946404429F07DFD80
S214004C900020F3E76FF0860070476FF08800EDE7BE
S214004CA00020EBE70500000200285FD0F0B583B0D7
S214004CB00E461F4605464BB16EB12968304B9942E9
S214004CC057D1132A58D90020844628E0002AF3D06A
S214004CD06FF0860031E0002AEFD06FF086002CE0FF
S214004CE0C0F10202920005EB80035C68E300DBB2D1
S214004CF06344D11D694401F8083C6109931D6B4467
S214004D0003F8081C610B531D6B4403F8081C630D65
S214004D1004326A4402F8083C4FEA547C0130012809
S214004D20DED96A6802F03F02372A08D8C2F1380294
S214004D3014492846FFF726FF20B103B0F0BDC2F1A4
S214004D407802F5E7082269462846FFF71BFF002889
S214004D50F3D114233B60EB682C696969AA69336058
S214004D607460B160F260EB693361E6E76FF086006D
S214004D7070476FF08800E0E76FF08900DDE700BF5E
S214004D800500000210F1020010B584B0064BEC4698
S214004D900FCB8CE80F0000248DF801406046FEF72C
S214004DA0BDFF204604B010BD50F1020010B586B01D
S214004DB00DF1040C184C0FCCACE80F002368ACF8CF
S214004DC00030164BD3F8B43013F4002F16D1134B23
S214004DD0D3F8B830C3F30803B3F1FF3F18D0ADF8EB
S214004DE00A300F48FCF722FE01A8FEF7EFF94FF451
S214004DF0FA70FDF7FFFF002006B010BD4FF0FF333E
S214004E00084A12884FF6FF718A42E5D01346E3E758
S214004E1040F23F13E3E700BF60F102000081E00FBD
S214004E20C01753020001E00F6FF0040307E003F021
S214004E300F010A4A0A44A021117601335BB22E2BD9
S214004E4009DC002BF3DB03F1604202F56142A0218E
S214004E5082F80013F1E70020704700BFFCEC00E08A
S214004E6030B583B024F09CFE0E4B1D780E4B1C68AC
S214004E7024F09AFE27F074F908B1FF2D03D154B13F
S214004E80204603B030BD01AA064B1978002024F056
S214004E90F8FD019CF3E724F083FE044B1C6824F025
S214004EA083FEEDE761140020E84E0020EC4E002063
S214004EB010B5044624F074FE024B1C6024F074FE09
S214004EC0002010BDEC4E002010B586B01446137AB4
S214004ED003EB43031B0103F1804303F56223D3F87E
S214004EE09420E16823690B449A4216D06169914286
S214004EF015D38B1AABB90123637694F82D304BB1DA
S214004F00002384F83530E369132120469847636A06
S214004F1020469847002006B010BD0A46E6E79B1AD2
S214004F20E8E70494054903910021029101930123C7
S214004F3000936368216824F0C2FDEBE7C94E0000C9
S214004F4070B584B004460D4690F83C6006F044FB0D
S214004F50022803D084F83C5004B070BD05B15EB1A1
S214004F60002DF7D1002EF5D0D4F8940006F0C2FD3F
S214004F700023C4F89430EDE70A4B0093002101911A
S214004F8004F198030293502303936A46012006F027
S214004F90A9FCC4F89400237E002BDBD006F04EFD5F
S214004FA0D8E700BF74F1020030B589B0044600238C
S214004FB04376007AFDF7F4F8237A03EB43031B01EC
S214004FC003F1804303F56223D3F89420E568236950
S214004FD02B449A4214D06369934213D0012323765C
S214004FE094F83C3043BB0DF11F01207AFDF764F9BD
S214004FF09DF81F3063BB207AFDF7F2F809B030BD8C
S2140050002A46E8E700232376656194F82D3003B13D
S2140050102563636A2046984723690494144A0392DA
S2140050200022029201930123009363682A462168B6
S214005030207A24F044FDDEE7237ED4F8940006F0C0
S2140050403DFD0028CFD1D4F8940006F0F7FCCAE75F
S2140050500DF11E01207AFDF703F99DF81E30002B96
S214005060C9D122460021207AFFF72EFFC3E700BFF2
S214005070C94E000038B50546046806F0ADFA0228A9
S2140050805CD0FFF7EDFE854264D094F93630002BF5
S21400509008DB03F01F015B0901228A4060332F49B9
S2140050A041F8232094F93630002B0CDB03F01F0167
S2140050B05B0901228A402033284941F82320BFF3A8
S2140050C04F8FBFF36F8F94F93730002B08DB03F058
S2140050D01F015B0901228A406033204941F82320E2
S2140050E094F93730002B0CDB03F01F015B0901221B
S2140050F08A402033194941F82320BFF34F8FBFF36E
S2140051006F8FD4F8940006F0F5FC206C06F0C6FB12
S214005110D4F8E80006F0C2FB207AFDF781F8207A82
S214005120FCF7E0FFFCF7B8FF00232B606B60AB607A
S2140051302B616B61A36A2046984738BD4FF0FF315C
S214005140D4F8E80006F036FB4FF0FF31206C06F08E
S21400515031FB96E70020FFF7ABFE96E700E100E0A4
S2140051602DE9F0438FB006460C4615461F464FF411
S2140051709E720021204624F0B3FB95E8030084E8E5
S214005180030000232376EB68E3602A6922616361EB
S2140051902A7D84F82C20AA7D84F82D202363012301
S2140051A084F8343084F83530E761169B2362179B09
S2140051B06362189BA36295F9083084F8363095F937
S2140051C0093084F837303460564B7360564BB36002
S2140051D0564B3361564B7361564BF360FCF7ACFF8E
S2140051E018B1554A904240F09780002104F108001B
S2140051F0FCF720FF002840F09180504B3362504B64
S21400520073624FF0010884F83C804E4B0A930027E7
S2140052100B9704F144030C934FF05009CDF83490EB
S2140052200AA806F06FFA2064474B0A930B9704F11E
S214005230EC030C930AA806F065FAC4F8E800434BA2
S2140052400693079704F198030893CDF8249006AACE
S2140052503946404606F046FBC4F894003C4BB36122
S2140052603C4BF3619DF8683084F83B309DF8643021
S21400527084F83A3084F8397084F83880697D20469E
S21400528025F087F895F90930BB4208DB03F01F01CB
S2140052905B0942468A4060332F4941F8232095F93E
S2140052A00930002B07DB03F01F015B0901228A404F
S2140052B0294941F8232023690494284A03920022AE
S2140052C002920193012300936368E2682168207AC2
S2140052D024F0F5FB044618BB95F90830002B08DBD4
S2140052E003F01F015B0901228A4060331A4941F826
S2140052F0232095F90830002B07DB03F01F015B091C
S21400530001228A40144941F823203046FFF7D0FD99
S21400531020460FB0BDE8F0831024F9E71024F7E725
S2140053201024F5E7EFA1020023A3020009A1020062
S2140053300FA1020075500000038000F0414F0000EE
S2140053401BA1020080F102008CF1020074F1020041
S21400535093A3020015A1020000E100E0C94E000080
S2140053602DE9F04186B016461C460C9D0123049399
S21400537003935A4B02935A4B019300230093594BC5
S2140053800A462946FFF7ECFE074618B1384606B02F
S214005390BDE8F0812368C5F83C316368C5F8403144
S2140053A0637A85F84531237A85F84431E37A85F8BF
S2140053B04731A37A85F84631637B85F84931237BEC
S2140053C085F84831E37B85F84B31A37B85F84A3175
S2140053D001214548FDF718F901214448FDF714F965
S2140053E001230422617A207AFEF7DAFD01230222E5
S2140053F0E17AA07AFEF7D4FD01216068FDF704F992
S2140054004FF0000886F800803146206824F02FFD13
S2140054102268536F43F0030353672268936F23F4A5
S214005420F85323F01F03617C43EA0123A17C0B435E
S2140054309367236803225A6785F84C81737E202B76
S21400544032D028D8002B34D0102B22D1012385F857
S2140054504C31002600230222617B207BFEF7A0FD54
S214005460E27C2368DA672268536E43F004035366CF
S2140054702268536F43F010035367E6B9D5F83C2112
S214005480D36C43F00403D3640521206824F0E8FCC1
S2140054907CE723277AE7302B04D1032385F84C31A9
S2140054A00126D7E7232771E7022385F84C3101262A
S2140054B0E3E70026E1E700230422E17BA07BFEF77A
S2140054C06FFD2268D36F217D43EA0123D3672268EC
S2140054D0536F43F020035367D0E700BFF5A30200E5
S2140054E0E7A3020081A402004041050000350A003F
S2140054F070B586B0002305930493BFF35F8F3F4CCF
S214005500636A23F480336362D4F8943023F0010393
S214005510C4F89430BFF34F8FBFF36F8F4FF0005037
S21400552025F03BF8364A1368400000F03E0040F095
S214005530985040F00110C4F898304FF00051C4F86D
S2140055409C10C4F8A000013313602E4D2E4CA542CB
S21400555013D1BFF35F8F294B0522C3F894205A6AF4
S21400556042F480325A62BFF34F8FBFF36F8FBFF3A0
S2140055704F8FBFF36F8F06B070BD03AB019304ABC4
S214005580009305AB2A1B2946204624F0EAFF039821
S214005590C208072800D82022049B5B1BB3FBF2F34B
S2140055A0012101FA03F3DBB2013BDBB2059E013DAC
S2140055B0AD1BB5FBF2F50D44AB40DBB2A41BB4FB50
S2140055C0F2F201FA02F4013CE4B21C4324F0E5FFD7
S2140055D00B4D2A68430003F03E0343EA042343F0DE
S2140055E0407343F001130549C1F89820C1F89C6048
S2140055F0C1F8A03001322A60ABE700BF00ED00E042
S214005600F04E0020841400206C14002070B586B084
S21400561004460D46002305930493BFF35F8F334B78
S2140056205E6A26F480365E62D3F8946026F0010641
S214005630C3F89460BFF34F8FBFF36F8F03AB019334
S21400564004AB009305AB24F08CFF0398C208072830
S21400565000D82022049B5B1B1344013BB3FBF2F3F0
S2140056604FF0010C0CFA03F3DBB2013BDBB2059EF4
S214005670AD1B013DB5FBF2F5AB40DBB2A41B1444F9
S214005680013CB4FBF2F40CFA04F4013CE4B21C4313
S214005690FF2C29D024F081FF15490A68430003F047
S2140056A03E0343EA042444F0985444F001140F4B9C
S2140056B0C3F89820C3F89C60C3F8A04001320A6083
S2140056C0BFF35F8F0522C3F894205A6A42F48032F3
S2140056D05A62BFF34F8FBFF36F8FBFF34F8FBFF387
S2140056E06F8F002006B070BD2820FBE700ED00E0BD
S2140056F0F04E0020BFF34F8F0549CA6802F4E062FF
S214005700044B1343CB60BFF34F8F00BFFDE700BFD2
S21400571000ED00E00400FA05012000E00130022858
S21400572004D8431E024AD35C002BF7D0C0B27047A1
S2140057301C4F0020F8B506460F46032903D8DFE8BD
S21400574001F00A040608002506E0042504E01025FA
S21400575002E0402500E00125032E05D8DFE806F02C
S21400576002070A0D45F002050B4B1C6809E045F0E0
S2140057700805F9E745F02005F6E745F08005F3E76C
S214005780246844B163681A682A42F9D05B683946CF
S21400579030469847F4E7F8BD184F0020134B1B78A7
S2140057A013B310B5124B1B785BB9002024F019FF19
S2140057B068B9104B01221A700F4B1A780F4B1A70EB
S2140057C010BD24F00DFF0A4B00221A70EDE700F022
S2140057D0F9FA064B00221A70074C01212078FFF7D1
S2140057E0A9FF01232370EBE7704700BF75B80020C0
S2140057F071B8002074B800206FB8002078B8002078
S21400580008B50B4B1B78024660B101210B440849D2
S2140058100B7032B1074B1B78012B02D9064B1B7855
S21400582013B108BDFF21F1E7FFF7B8FFF9E700BFA6
S2140058301C4F00206FB8002074B8002010B524F06C
S214005840AFF90446054B1B782BB9FFF7A7FF204698
S21400585024F0AAF910BD24F0A7F9FBE770B80020E1
S21400586010B524F09DF90446164B1B78D3B1164BA1
S2140058701B782BB9144B01221A70144B00221A7095
S214005880134B1B7893B9204624F08EF9012024F0A0
S214005890A8FE24F085F904460B4B1B7863B9094B28
S2140058A000221A70204624F07FF910BD24F098FEDE
S2140058B0074B00221A70E6E700F084FA024B00223B
